{
  "_format": "hh-sol-artifact-1",
  "contractName": "WeightedPool2TokensFactory",
  "sourceName": "contracts/WeightedPool2TokensFactory.sol",
  "abi": [
    {
      "inputs": [
        {
          "internalType": "contract IVault",
          "name": "vault",
          "type": "address"
        }
      ],
      "stateMutability": "nonpayable",
      "type": "constructor"
    },
    {
      "anonymous": false,
      "inputs": [
        {
          "indexed": true,
          "internalType": "address",
          "name": "pool",
          "type": "address"
        }
      ],
      "name": "PoolCreated",
      "type": "event"
    },
    {
      "inputs": [
        {
          "internalType": "string",
          "name": "name",
          "type": "string"
        },
        {
          "internalType": "string",
          "name": "symbol",
          "type": "string"
        },
        {
          "internalType": "contract IERC20[]",
          "name": "tokens",
          "type": "address[]"
        },
        {
          "internalType": "uint256[]",
          "name": "weights",
          "type": "uint256[]"
        },
        {
          "internalType": "uint256",
          "name": "swapFeePercentage",
          "type": "uint256"
        },
        {
          "internalType": "bool",
          "name": "oracleEnabled",
          "type": "bool"
        },
        {
          "internalType": "address",
          "name": "owner",
          "type": "address"
        }
      ],
      "name": "create",
      "outputs": [
        {
          "internalType": "address",
          "name": "",
          "type": "address"
        }
      ],
      "stateMutability": "nonpayable",
      "type": "function"
    },
    {
      "inputs": [],
      "name": "getPauseConfiguration",
      "outputs": [
        {
          "internalType": "uint256",
          "name": "pauseWindowDuration",
          "type": "uint256"
        },
        {
          "internalType": "uint256",
          "name": "bufferPeriodDuration",
          "type": "uint256"
        }
      ],
      "stateMutability": "view",
      "type": "function"
    },
    {
      "inputs": [],
      "name": "getVault",
      "outputs": [
        {
          "internalType": "contract IVault",
          "name": "",
          "type": "address"
        }
      ],
      "stateMutability": "view",
      "type": "function"
    },
    {
      "inputs": [
        {
          "internalType": "address",
          "name": "pool",
          "type": "address"
        }
      ],
      "name": "isPoolFromFactory",
      "outputs": [
        {
          "internalType": "bool",
          "name": "",
          "type": "bool"
        }
      ],
      "stateMutability": "view",
      "type": "function"
    }
  ],
  "bytecode": "0x60c060405234801561001057600080fd5b50604051615f58380380615f5883398101604081905261002f9161004d565b60601b6001600160601b0319166080526276a700420160a05261007b565b60006020828403121561005e578081fd5b81516001600160a01b0381168114610074578182fd5b9392505050565b60805160601c60a051615eb26100a660003980610221528061024b5250806102a75250615eb26000f3fe60806040523480156200001157600080fd5b5060043610620000525760003560e01c80631596019b14620000575780632da47c4014620000865780636634b75314620000a05780638d928af814620000c6575b600080fd5b6200006e6200006836600462000548565b620000d0565b6040516200007d91906200068f565b60405180910390f35b620000906200021b565b6040516200007d929190620007a2565b620000b7620000b136600462000522565b62000287565b6040516200007d9190620006a3565b6200006e620002a5565b6000806000620000df6200021b565b91509150620000ed62000315565b60405180610180016040528062000103620002a5565b6001600160a01b031681526020018c81526020018b81526020018a6000815181106200012b57fe5b60200260200101516001600160a01b031681526020018a6001815181106200014f57fe5b60200260200101516001600160a01b03168152602001896000815181106200017357fe5b60200260200101518152602001896001815181106200018e57fe5b602002602001015181526020018881526020018481526020018381526020018715158152602001866001600160a01b03168152509050600081604051620001d5906200039c565b620001e19190620006ae565b604051809103906000f080158015620001fe573d6000803e3d6000fd5b5090506200020c81620002c9565b9b9a5050505050505050505050565b600080427f00000000000000000000000000000000000000000000000000000000000000008110156200027957807f000000000000000000000000000000000000000000000000000000000000000003925062278d00915062000282565b60009250600091505b509091565b6001600160a01b031660009081526020819052604090205460ff1690565b7f000000000000000000000000000000000000000000000000000000000000000090565b6001600160a01b038116600081815260208190526040808220805460ff19166001179055517f83a48fbcfc991335314e74d0496aab6a1987e992ddc85dddbcc4d6dd6ef2e9fc9190a250565b60405180610180016040528060006001600160a01b03168152602001606081526020016060815260200160006001600160a01b0316815260200160006001600160a01b03168152602001600081526020016000815260200160008152602001600081526020016000815260200160001515815260200160006001600160a01b031681525090565b61566a806200081383390190565b8035620003b781620007f9565b92915050565b600082601f830112620003ce578081fd5b8135620003e5620003df82620007d8565b620007b0565b8181529150602080830190848101818402860182018710156200040757600080fd5b60005b84811015620004335781356200042081620007f9565b845292820192908201906001016200040a565b505050505092915050565b600082601f8301126200044f578081fd5b813562000460620003df82620007d8565b8181529150602080830190848101818402860182018710156200048257600080fd5b60005b84811015620004335781358452928201929082019060010162000485565b80358015158114620003b757600080fd5b600082601f830112620004c5578081fd5b813567ffffffffffffffff811115620004dc578182fd5b620004f1601f8201601f1916602001620007b0565b91508082528360208285010111156200050957600080fd5b8060208401602084013760009082016020015292915050565b60006020828403121562000534578081fd5b81356200054181620007f9565b9392505050565b600080600080600080600060e0888a03121562000563578283fd5b873567ffffffffffffffff808211156200057b578485fd5b620005898b838c01620004b4565b985060208a01359150808211156200059f578485fd5b620005ad8b838c01620004b4565b975060408a0135915080821115620005c3578485fd5b620005d18b838c01620003bd565b965060608a0135915080821115620005e7578485fd5b50620005f68a828b016200043e565b945050608088013592506200060f8960a08a01620004a3565b9150620006208960c08a01620003aa565b905092959891949750929550565b6001600160a01b03169052565b15159052565b60008151808452815b8181101562000668576020818501810151868301820152016200064a565b818111156200067a5782602083870101525b50601f01601f19169290920160200192915050565b6001600160a01b0391909116815260200190565b901515815260200190565b600060208252620006c46020830184516200062e565b6020830151610180806040850152620006e26101a085018362000641565b91506040850151601f1985840301606086015262000701838262000641565b92505060608501516200071860808601826200062e565b5060808501516200072d60a08601826200062e565b5060a085015160c085015260c085015160e085015260e085015161010081818701528087015191505061012081818701528087015191505061014081818701528087015191505061016062000785818701836200063b565b860151905062000798858301826200062e565b5090949350505050565b918252602082015260400190565b60405181810167ffffffffffffffff81118282101715620007d057600080fd5b604052919050565b600067ffffffffffffffff821115620007ef578081fd5b5060209081020190565b6001600160a01b03811681146200080f57600080fd5b5056fe6102a06040527f6e71edae12b1b97f4d1f60370fef10105fa2faae0126114a169c64845d6126c9610120523480156200003757600080fd5b506040516200566a3803806200566a8339810160408190526200005a9162000823565b610100810151610120820151602080840151604080860151815180830190925260018252603160f81b828501526101608701513360805260601b6001600160601b03191660a05282519293909284928392909183918691620000c39160039190850190620006b6565b508051620000d9906004906020840190620006b6565b50506005805460ff1916601217905550815160209283012060c052805191012060e05250507f8b73c3c69bb8fe3d512ecc4cf759cc79239f7b179b0ffacaa9a75d522b39400f6101005250620001386276a70083111561019462000421565b6200014c62278d0082111561019562000421565b429091016101408181529101610160528101516200016a9062000436565b60e08101516200017a9062000492565b80516040516309b2760f60e01b81526000916001600160a01b0316906309b2760f90620001ad9060029060040162000a29565b602060405180830381600087803b158015620001c857600080fd5b505af1158015620001dd573d6000803e3d6000fd5b505050506040513d601f19601f820116820180604052508101906200020391906200080a565b6040805160028082526060808301845293945090916020830190803683370190505090508260600151816000815181106200023a57fe5b60200260200101906001600160a01b031690816001600160a01b0316815250508260800151816001815181106200026d57fe5b6001600160a01b0392831660209182029290920101528351166366a9c7d283836002604051908082528060200260200182016040528015620002b9578160200160208202803683370190505b506040518463ffffffff1660e01b8152600401620002da939291906200098d565b600060405180830381600087803b158015620002f557600080fd5b505af11580156200030a573d6000803e3d6000fd5b505084516001600160601b0319606091821b8116610180526101a08690528187018051831b82166101c052608088015190921b166101e05251620003519250905062000510565b610260526080830151620003659062000510565b6102805260a08301516200038690662386f26fc10000111561012e62000421565b620003a8662386f26fc100008460c00151101561012e6200042160201b60201c565b6000620003cc8460c001518560a00151620005b260201b620012371790919060201c565b9050620003e6670de0b6b3a7640000821461013462000421565b60a0840180516102005260c0850180516102205251905110156200040c5760016200040f565b60005b60ff16610240525062000a7a92505050565b8162000432576200043281620005cf565b5050565b62000452816009546200062260201b620012501790919060201c565b6009556040517f3e350b41e86a8e10f804ade6d35340d620be35569cc75ac943e8bb14ab80ead1906200048790839062000982565b60405180910390a150565b620004a764e8d4a5100082101560cb62000421565b620004bf67016345785d8a000082111560ca62000421565b620004db816009546200064160201b6200125e1790919060201c565b6009556040517fa9ba3ffe0b6c366b81232caab38605a0699ad5398d6cce76f91ee809e322dafc906200048790839062000a3e565b600080826001600160a01b031663313ce5676040518163ffffffff1660e01b815260040160206040518083038186803b1580156200054d57600080fd5b505afa15801562000562573d6000803e3d6000fd5b505050506040513d601f19601f820116820180604052508101906200058891906200095f565b60ff1690506000620005a76012836200066060201b6200126c1760201c565b600a0a949350505050565b6000828201620005c6848210158362000421565b90505b92915050565b62461bcd60e51b6000908152602060045260076024526642414c23000030600a808404818106603090810160081b95839006959095019082900491820690940160101b939093010160c81b604452606490fd5b6000620005c6826055856200067860201b62001282179092919060201c565b6000620005c682605685620006a160201b620012a9179092919060201c565b60006200067283831115600162000421565b50900390565b60006001821b19841682846200069057600062000693565b60015b60ff16901b17949350505050565b6001600160401b03811b1992909216911b1790565b828054600181600116156101000203166002900490600052602060002090601f016020900481019282601f10620006f957805160ff191683800117855562000729565b8280016001018555821562000729579182015b82811115620007295782518255916020019190600101906200070c565b50620007379291506200073b565b5090565b5b808211156200073757600081556001016200073c565b80516001600160a01b0381168114620005c957600080fd5b80518015158114620005c957600080fd5b600082601f8301126200078c578081fd5b81516001600160401b03811115620007a2578182fd5b6020620007b8601f8301601f1916820162000a47565b92508183528481838601011115620007cf57600080fd5b60005b82811015620007ef578481018201518482018301528101620007d2565b82811115620008015760008284860101525b50505092915050565b6000602082840312156200081c578081fd5b5051919050565b60006020828403121562000835578081fd5b81516001600160401b03808211156200084c578283fd5b818401915061018080838703121562000863578384fd5b6200086e8162000a47565b90506200087c868462000752565b815260208301518281111562000890578485fd5b6200089e878286016200077b565b602083015250604083015182811115620008b6578485fd5b620008c4878286016200077b565b604083015250620008d9866060850162000752565b6060820152620008ed866080850162000752565b608082015260a0838101519082015260c0808401519082015260e0808401519082015261010080840151908201526101208084015190820152610140915062000939868385016200076a565b828201526101609150620009508683850162000752565b91810191909152949350505050565b60006020828403121562000971578081fd5b815160ff81168114620005c6578182fd5b901515815260200190565b60006060820185835260206060818501528186518084526080860191508288019350845b81811015620009d957620009c6855162000a6e565b83529383019391830191600101620009b1565b505084810360408601528551808252908201925081860190845b8181101562000a1b5762000a08835162000a6e565b85529383019391830191600101620009f3565b509298975050505050505050565b602081016003831062000a3857fe5b91905290565b90815260200190565b6040518181016001600160401b038111828210171562000a6657600080fd5b604052919050565b6001600160a01b031690565b60805160a05160601c60c05160e051610100516101205161014051610160516101805160601c6101a0516101c05160601c6101e05160601c6102005161022051610240516102605161028051614b1862000b5260003980611c5f525080611c86525080612352528061238652806123c2525080611cb35280611d4f525080611cda5280611d2d5280611d7d52505080610c60525080610818525080610bae5250806114155250806113f1525080610fc75250806115d55250806116175250806115f6525080610b8a525080610b155250614b186000f3fe608060405234801561001057600080fd5b50600436106102485760003560e01c806374f3b0091161013b578063a9059cbb116100b8578063d505accf1161007c578063d505accf146104e1578063d5c096c4146104f4578063dd62ed3e14610507578063f89f27ed1461051a578063ffd088eb1461052257610248565b8063a9059cbb146104a3578063aaabadc5146104b6578063b10be739146104be578063b48b5b40146104d1578063c0ff1a15146104d957610248565b80638d928af8116100ff5780638d928af81461046557806395d89b411461046d5780639b02cdde146104755780639d2c110c1461047d578063a457c2d71461049057610248565b806374f3b009146103f65780637ecebe0014610417578063851c1bb31461042a57806387ec68171461043d578063893d20e81461045057610248565b806338e9922e116101c95780636028bfd41161018d5780636028bfd41461037457806360d1507c14610395578063679aefce146103bb5780636b843239146103c357806370a08231146103e357610248565b806338e9922e1461032457806338fff2d014610337578063395093511461033f5780634a6b0b151461035257806355c676281461036c57610248565b80631dccd830116102105780631dccd830146102cc57806323b872dd146102ec578063292c914a146102ff578063313ce567146103075780633644e5151461031c57610248565b806306fdde031461024d578063095ea7b31461026b57806316c38b3c1461028b57806318160ddd146102a05780631c0de051146102b5575b600080fd5b61025561052a565b60405161026291906149e9565b60405180910390f35b61027e6102793660046140f1565b6105c0565b604051610262919061483e565b61029e61029936600461435f565b6105d7565b005b6102a86105eb565b6040516102629190614861565b6102bd6105f1565b60405161026293929190614849565b6102df6102da3660046142a5565b61061a565b6040516102629190614806565b61027e6102fa36600461403c565b61073d565b61029e6107b1565b61030f6107e5565b6040516102629190614a55565b6102a86107ee565b61029e610332366004614719565b6107fd565b6102a8610816565b61027e61034d3660046140f1565b61083a565b61035a610875565b60405161026296959493929190614937565b6102a86108d0565b610387610382366004614397565b6108dd565b604051610262929190614a3c565b6103a86103a3366004614719565b61090e565b6040516102629796959493929190614907565b6102a8610957565b6103d66103d13660046141e7565b61097c565b60405161026291906147c2565b6102a86103f1366004613fe8565b610a32565b610409610404366004614397565b610a51565b604051610262929190614819565b6102a8610425366004613fe8565b610af6565b6102a8610438366004614493565b610b11565b61038761044b366004614397565b610b63565b610458610b88565b60405161026291906147ae565b610458610bac565b610255610bd0565b6102a8610c31565b6102a861048b36600461461e565b610c37565b61027e61049e3660046140f1565b610de6565b61027e6104b13660046140f1565b610e24565b610458610e31565b6102a86104cc3660046145ea565b610e3b565b6102a8610ed0565b6102a8610ed6565b61029e6104ef36600461407c565b610f92565b610409610502366004614397565b6110db565b6102a8610515366004614004565b6111fb565b6102df611226565b6102a8611230565b60038054604080516020601f60026000196101006001881615020190951694909404938401819004810282018101909252828152606093909290918301828280156105b65780601f1061058b576101008083540402835291602001916105b6565b820191906000526020600020905b81548152906001019060200180831161059957829003601f168201915b5050505050905090565b60006105cd3384846112be565b5060015b92915050565b6105df611326565b6105e881611354565b50565b60025490565b60008060006105fe6113d2565b1592506106096113ef565b9150610613611413565b9050909192565b606081516001600160401b038111801561063357600080fd5b5060405190808252806020026020018201604052801561065d578160200160208202803683370190505b509050600061066a611437565b905060005b83518110156107365773__$7d2aa5f7ef8d6b62e49cb3fca3aaf3d8f4$__6379eaef8260088684815181106106a057fe5b6020026020010151856040518463ffffffff1660e01b81526004016106c7939291906149ad565b60206040518083038186803b1580156106df57600080fd5b505af41580156106f3573d6000803e3d6000fd5b505050506040513d601f19601f820116820180604052508101906107179190614606565b83828151811061072357fe5b602090810291909101015260010161066f565b5050919050565b60008061074a85336111fb565b905061076e336001600160a01b03871614806107665750838210155b61019e611444565b610779858585611456565b336001600160a01b0386161480159061079457506000198114155b156107a6576107a685338584036112be565b506001949350505050565b6107b9611536565b6107c1611326565b6107cb6001611549565b60006107d56105eb565b11156107e3576107e3611589565b565b60055460ff1690565b60006107f86115d1565b905090565b610805611326565b61080d611536565b6105e88161166e565b7f000000000000000000000000000000000000000000000000000000000000000090565b3360008181526001602090815260408083206001600160a01b038716845290915281205490916105cd9185906108709086611237565b6112be565b6000806000806000806000600954905061088e816116d7565b9650610899816116e3565b95506108a4816116f0565b94506108af816116fd565b93506108ba8161170a565b92506108c581611717565b915050909192939495565b60006107f8600954611717565b600060606108ed86516002611724565b610902898989898989896117316117eb611869565b97509795505050505050565b6000806000806000806000610929610400891061013b611444565b600061093489611988565b905061093f8161199a565b959f949e50929c50909a509850965090945092505050565b60006107f86109646105eb565b61097661096f610ed6565b60026119fd565b90611a21565b606081516001600160401b038111801561099557600080fd5b506040519080825280602002602001820160405280156109bf578160200160208202803683370190505b50905060006109cc611437565b90506109d6613ed6565b60005b8451811015610a2a578481815181106109ee57fe5b60200260200101519150610a0b8260000151848460200151611a72565b848281518110610a1757fe5b60209081029190910101526001016109d9565b505050919050565b6001600160a01b0381166000908152602081905260409020545b919050565b60608088610a7b610a60610bac565b6001600160a01b0316336001600160a01b03161460cd611444565b610a90610a86610816565b82146101f4611444565b610a9987611b0b565b6000606080610aad8d8d8d8d8d8d8d611731565b925092509250610abd8c84611b6d565b610ac6826117eb565b610acf816117eb565b610ad76113d2565b15610ae457610ae4611589565b909c909b509950505050505050505050565b6001600160a01b031660009081526006602052604090205490565b60007f000000000000000000000000000000000000000000000000000000000000000082604051602001610b4692919061476b565b604051602081830303815290604052805190602001209050919050565b60006060610b7386516002611724565b61090289898989898989611b77611bf8611869565b7f000000000000000000000000000000000000000000000000000000000000000090565b7f000000000000000000000000000000000000000000000000000000000000000090565b60048054604080516020601f60026000196101006001881615020190951694909404938401819004810282018101909252828152606093909290918301828280156105b65780601f1061058b576101008083540402835291602001916105b6565b600a5490565b6000610c41611536565b8360800151610c51610a60610bac565b610c5c610a86610816565b60007f00000000000000000000000000000000000000000000000000000000000000006001600160a01b031686602001516001600160a01b03161490506000610ca482611c56565b90506000610cb28315611c56565b90506000610cbf84611caa565b90506000610ccd8515611caa565b9050610cd98985611cfe565b9850610ce58884611cfe565b9750610d0e8a60a0015186610cfa5789610cfc565b8a5b87610d07578b610d09565b8a5b611d0a565b60008a516001811115610d1d57fe5b1415610d8b576000610d3b610d306108d0565b60608d015190611e10565b9050610d5d610d57828d6060015161126c90919063ffffffff16565b86611cfe565b60608c01526000610d718c8c8c8787611e54565b9050610d7d8186611e73565b985050505050505050610dde565b610d998a6060015184611cfe565b60608b01526000610dad8b8b8b8686611e7f565b9050610db98186611e92565b9050610dd5610dce610dc96108d0565b611e9e565b8290611ec4565b97505050505050505b509392505050565b600080610df333856111fb565b9050808310610e0d57610e08338560006112be565b610e1a565b610e1a33858584036112be565b5060019392505050565b60006105cd338484611456565b60006107f8611f06565b600073__$7d2aa5f7ef8d6b62e49cb3fca3aaf3d8f4$__630397bee0600884610e62611437565b6040518463ffffffff1660e01b8152600401610e8093929190614961565b60206040518083038186803b158015610e9857600080fd5b505af4158015610eac573d6000803e3d6000fd5b505050506040513d601f19601f820116820180604052508101906105d19190614606565b61040090565b60006060610ee2610bac565b6001600160a01b031663f94d4668610ef8610816565b6040518263ffffffff1660e01b8152600401610f149190614861565b60006040518083038186803b158015610f2c57600080fd5b505afa158015610f40573d6000803e3d6000fd5b505050506040513d6000823e601f3d908101601f19168201604052610f68919081019061411c565b50915050610f7581611b0b565b6060610f7f611f80565b9050610f8b8183611fee565b9250505090565b610fa08442111560d1611444565b6001600160a01b0387166000908152600660209081526040808320549051909291610ff7917f0000000000000000000000000000000000000000000000000000000000000000918c918c918c9188918d9101614889565b604051602081830303815290604052805190602001209050600061101a82612060565b905060006001828888886040516000815260200160405260405161104194939291906148e9565b6020604051602081039080840390855afa158015611063573d6000803e3d6000fd5b5050604051601f19015191506110a590506001600160a01b0382161580159061109d57508b6001600160a01b0316826001600160a01b0316145b6101f8611444565b6001600160a01b038b1660009081526006602052604090206001850190556110ce8b8b8b6112be565b5050505050505050505050565b606080886110ea610a60610bac565b6110f5610a86610816565b6110fd611536565b60006111076105eb565b611177576111178b8b8b8861207c565b9450905061112c620f424082101560cc611444565b61113a6000620f4240612105565b61114989620f42408303612105565b61115284611bf8565b60408051600280825260608201835290916020830190803683370190505092506111e5565b61118088611b0b565b6111b3878960008151811061119157fe5b60200260200101518a6001815181106111a657fe5b6020026020010151611d0a565b6111c28b8b8b8b8b8b8b611b77565b909550935090506111d38982612105565b6111dc84611bf8565b6111e5836117eb565b6111ed611589565b505097509795505050505050565b6001600160a01b03918216600090815260016020908152604080832093909416825291909152205490565b60606107f8611f80565b6201de2090565b60008282016112498482101583611444565b9392505050565b600061124983836055611282565b6000611249838360566112a9565b600061127c838311156001611444565b50900390565b60006001821b198416828461129857600061129b565b60015b60ff16901b17949350505050565b6001600160401b03811b1992909216911b1790565b6001600160a01b0380841660008181526001602090815260408083209487168084529490915290819020849055517f8c5be1e5ebec7d5bd14f71427d1e84f3dd0314c0f7b2291e5b200ac8c7c3b92590611319908590614861565b60405180910390a3505050565b600061133d6000356001600160e01b031916610b11565b90506105e861134c823361210f565b610191611444565b80156113745761136f6113656113ef565b4210610193611444565b611389565b61138961137f611413565b42106101a9611444565b6007805460ff19168215151790556040517f9e3a5e37224532dea67b89face185703738a228a6e8a23dee546960180d3be64906113c790839061483e565b60405180910390a150565b60006113dc611413565b4211806107f857505060075460ff161590565b7f000000000000000000000000000000000000000000000000000000000000000090565b7f000000000000000000000000000000000000000000000000000000000000000090565b60006107f86009546116fd565b8161145257611452816121ff565b5050565b61146d6001600160a01b0384161515610198611444565b6114846001600160a01b0383161515610199611444565b61148f838383612252565b6001600160a01b0383166000908152602081905260409020546114b590826101a0612257565b6001600160a01b0380851660009081526020819052604080822093909355908416815220546114e49082611237565b6001600160a01b0380841660008181526020819052604090819020939093559151908516907fddf252ad1be2c89b69c2b068fc378daa952ba7f163c4a11628f55a4df523b3ef90611319908590614861565b6107e36115416113d2565b610192611444565b6009546115569082611250565b6009556040517f3e350b41e86a8e10f804ade6d35340d620be35569cc75ac943e8bb14ab80ead1906113c790839061483e565b6009546115958161170a565b156105e8576115af6115a8600a5461226d565b82906122ad565b90506115cb6115c46115bf6105eb565b61226d565b82906122ba565b60095550565b60007f00000000000000000000000000000000000000000000000000000000000000007f00000000000000000000000000000000000000000000000000000000000000007f000000000000000000000000000000000000000000000000000000000000000061163e6122c8565b306040516020016116539594939291906148bd565b60405160208183030381529060405280519060200120905090565b61168164e8d4a5100082101560cb611444565b61169767016345785d8a000082111560ca611444565b6009546116a4908261125e565b6009556040517fa9ba3ffe0b6c366b81232caab38605a0699ad5398d6cce76f91ee809e322dafc906113c7908390614861565b60006105d182826122cc565b60006105d18260166122cc565b60006105d182602c6122f3565b60006105d182604b6122fd565b60006105d1826055612305565b60006105d182605661230f565b6114528183146067611444565b60006060806060611740611f80565b905061174a6113d2565b1561179257611760878960008151811061119157fe5b600061176c828a611fee565b905061177d8983600a54848b61231c565b925061178c898461126c612400565b506117b3565b60408051600280825260608201835290916020830190803683370190505091505b6117be888287612492565b90945092506117d0888461126c612400565b6117da8189611fee565b600a55509750975097945050505050565b611812816000815181106117fb57fe5b602002602001015161180d6001611c56565b6124ff565b8160008151811061181f57fe5b60200260200101818152505061184d8160018151811061183b57fe5b602002602001015161180d6000611c56565b8160018151811061185a57fe5b60200260200101818152505050565b333014611927576000306001600160a01b031660003660405161188d929190614783565b6000604051808303816000865af19150503d80600081146118ca576040519150601f19603f3d011682016040523d82523d6000602084013e6118cf565b606091505b5050905080600081146118de57fe5b60046000803e6000516001600160e01b0319166343adbafb60e01b8114611909573d6000803e3d6000fd5b506020600460003e604060205260243d03602460403e601c3d016000f35b61193086611b0b565b600060606119478b8b8b8b8b8b8b8b63ffffffff16565b5091509150611959818463ffffffff16565b8051601f1982018390526343adbafb603f1983015260200260231982016044820181fd5b505050505050505050565b60009081526008602052604090205490565b60008060008060008060006119ae8861251f565b96506119b98861252c565b95506119c488612539565b94506119cf88612546565b93506119da88612553565b92506119e588612560565b91506119f08861256d565b9050919395979092949650565b6000828202611249841580611a1a575083858381611a1757fe5b04145b6003611444565b6000611a308215156004611444565b82611a3d575060006105d1565b670de0b6b3a764000083810290611a6090858381611a5757fe5b04146005611444565b828181611a6957fe5b049150506105d1565b6040516334171a8560e01b815260009073__$7d2aa5f7ef8d6b62e49cb3fca3aaf3d8f4$__906334171a8590611ab390600890889088908890600401614982565b60206040518083038186803b158015611acb57600080fd5b505af4158015611adf573d6000803e3d6000fd5b505050506040513d601f19601f82011682018060405250810190611b039190614606565b949350505050565b611b3281600081518110611b1b57fe5b6020026020010151611b2d6001611c56565b6119fd565b81600081518110611b3f57fe5b60200260200101818152505061184d81600181518110611b5b57fe5b6020026020010151611b2d6000611c56565b6114528282612579565b60006060806060611b86611f80565b90506000611b94828a611fee565b90506060611ba78a84600a54858c61231c565b9050611bb68a8261126c612400565b60006060611bc58c868b612635565b91509150611bd68c82611237612400565b611be0858d611fee565b600a55909e909d50909b509950505050505050505050565b611c1f81600081518110611c0857fe5b6020026020010151611c1a6001611c56565b61268f565b81600081518110611c2c57fe5b60200260200101818152505061184d81600181518110611c4857fe5b6020026020010151611c1a60005b600081611c83577f00000000000000000000000000000000000000000000000000000000000000006105d1565b507f0000000000000000000000000000000000000000000000000000000000000000919050565b600081611cd7577f00000000000000000000000000000000000000000000000000000000000000006105d1565b507f0000000000000000000000000000000000000000000000000000000000000000919050565b600061124983836119fd565b600954611d168161170a565b8015611d2157508343115b15611e0a576000611d747f0000000000000000000000000000000000000000000000000000000000000000857f0000000000000000000000000000000000000000000000000000000000000000866126c2565b90506000611dab7f000000000000000000000000000000000000000000000000000000000000000086611da6866116e3565b6126f7565b90506000611db8846116fd565b90506000611dc5856116f0565b90506000611dde82848787611dd98b6116d7565b61271e565b905080831461197d57611df18682612775565b9550611dfd8642612783565b6009819055955050505050505b50505050565b6000828202611e2a841580611a1a575083858381611a1757fe5b80611e395760009150506105d1565b670de0b6b3a764000060001982015b046001019150506105d1565b6000611e67858486858a60600151612791565b90505b95945050505050565b600061124983836124ff565b6000611e67858486858a6060015161280c565b6000611249838361268f565b6000670de0b6b3a76400008210611eb65760006105d1565b50670de0b6b3a76400000390565b6000611ed38215156004611444565b82611ee0575060006105d1565b670de0b6b3a764000083810290611efa90858381611a5757fe5b826001820381611e4857fe5b6000611f10610bac565b6001600160a01b031663aaabadc56040518163ffffffff1660e01b815260040160206040518083038186803b158015611f4857600080fd5b505afa158015611f5c573d6000803e3d6000fd5b505050506040513d601f19601f820116820180604052508101906107f891906144bb565b604080516002808252606080830184529283929190602083019080368337019050509050611fae6001611caa565b81600081518110611fbb57fe5b602002602001018181525050611fd16000611caa565b81600181518110611fde57fe5b6020908102919091010152905090565b670de0b6b3a764000060005b83518110156120505761204661203f85838151811061201557fe5b602002602001015185848151811061202957fe5b602002602001015161288290919063ffffffff16565b83906128d1565b9150600101611ffa565b506105d160008211610137611444565b600061206a6115d1565b82604051602001610b46929190614793565b60006060600061208b846128fd565b90506120a6600082600281111561209e57fe5b1460ce611444565b60606120b185612913565b90506120bf81516002611724565b6120c881611b0b565b60606120d2611f80565b905060006120e08284611fee565b905060006120ef8260026119fd565b600a929092555099919850909650505050505050565b6114528282612929565b600073ba1ba1ba1ba1ba1ba1ba1ba1ba1ba1ba1ba1ba1b61212e610b88565b6001600160a01b0316141580156121495750612149836129b7565b1561217157612156610b88565b6001600160a01b0316336001600160a01b03161490506105d1565b612179611f06565b6001600160a01b0316639be2a8848484306040518463ffffffff1660e01b81526004016121a89392919061486a565b60206040518083038186803b1580156121c057600080fd5b505afa1580156121d4573d6000803e3d6000fd5b505050506040513d601f19601f820116820180604052508101906121f8919061437b565b90506105d1565b62461bcd60e51b6000908152602060045260076024526642414c23000030600a808404818106603090810160081b95839006959095019082900491820690940160101b939093010160c81b604452606490fd5b505050565b60006122668484111583611444565b5050900390565b600080612279836129e9565b9050600080821361229257652d79883d2000820361229c565b652d79883d200082015b655af3107a40009005949350505050565b6000611249838383612a4d565b600061124983836016612a4d565b4690565b600082821c623fffff16621fffff81136122e65780611b03565b623fffff19179392505050565b1c637fffffff1690565b1c6103ff1690565b1c60019081161490565b1c6001600160401b031690565b6040805160028082526060808301845292839291906020830190803683370190505090508261234c579050611e6a565b6123bf877f00000000000000000000000000000000000000000000000000000000000000008151811061237b57fe5b6020026020010151877f0000000000000000000000000000000000000000000000000000000000000000815181106123af57fe5b6020026020010151878787612a64565b817f0000000000000000000000000000000000000000000000000000000000000000815181106123eb57fe5b60209081029190910101529695505050505050565b6124368360008151811061241057fe5b60200260200101518360008151811061242557fe5b60200260200101518363ffffffff16565b8360008151811061244357fe5b6020026020010181815250506124748360018151811061245f57fe5b60200260200101518360018151811061242557fe5b8360018151811061248157fe5b602002602001018181525050505050565b6000606060006124a1846128fd565b905060008160028111156124b157fe5b14156124cc576124c2868686612adc565b92509250506124f7565b60018160028111156124da57fe5b14156124ea576124c28685612b8c565b6124c2868686612bbe565b505b935093915050565b600061250e8215156004611444565b81838161251757fe5b049392505050565b60006105d18260ea6122cc565b60006105d18260b5612c2a565b60006105d182609f6122cc565b60006105d182606a612c2a565b60006105d18260546122cc565b60006105d182601f612c2a565b60006105d182826122f3565b6125906001600160a01b038316151561019b611444565b61259c82600083612252565b6001600160a01b0382166000908152602081905260409020546125c290826101a1612257565b6001600160a01b0383166000908152602081905260409020556002546125e89082612c5d565b6002556040516000906001600160a01b038416907fddf252ad1be2c89b69c2b068fc378daa952ba7f163c4a11628f55a4df523b3ef90612629908590614861565b60405180910390a35050565b600060606000612644846128fd565b9050600181600281111561265457fe5b1415612665576124c2868686612c6b565b600281600281111561267357fe5b1415612684576124c2868686612cc1565b6124f56101366121ff565b600061269e8215156004611444565b826126ab575060006105d1565b8160018403816126b757fe5b0460010190506105d1565b6000806126e26126d28486611ec4565b6126dc8789611ec4565b90611ec4565b90506126ed8161226d565b9695505050505050565b6000806127048486611ec4565b905060006127118261226d565b9390930395945050505050565b60008061273a858585426127318b611988565b93929190612d44565b905060784288900310158061274f5786612758565b61275887612d96565b600081815260086020526040902092909255509695505050505050565b60006112498383604b612da3565b60006112498383602c612db3565b60006127b36127a887670429d069189e00006128d1565b831115610130611444565b60006127bf8784611237565b905060006127cd8883611ec4565b905060006127db8887611a21565b905060006127e98383612dc5565b90506127fe6127f782611e9e565b89906128d1565b9a9950505050505050505050565b600061282e61282385670429d069189e00006128d1565b831115610131611444565b600061284461283d868561126c565b8690611ec4565b905060006128528588611ec4565b905060006128608383612dc5565b9050600061287682670de0b6b3a764000061126c565b90506127fe8a82611e10565b60008061288f8484612df1565b905060006128a96128a283612710611e10565b6001611237565b9050808210156128be576000925050506105d1565b6128c8828261126c565b925050506105d1565b60008282026128eb841580611a1a575083858381611a1757fe5b670de0b6b3a764000090049392505050565b6000818060200190518101906105d191906144d7565b606081806020019051810190611249919061459c565b61293560008383612252565b6002546129429082611237565b6002556001600160a01b0382166000908152602081905260409020546129689082611237565b6001600160a01b0383166000818152602081905260408082209390935591519091907fddf252ad1be2c89b69c2b068fc378daa952ba7f163c4a11628f55a4df523b3ef90612629908590614861565b60006129c9631c74c91760e11b610b11565b8214806105d157506129e16350dd6ed960e01b610b11565b909114919050565b60006129f9600083136064611444565b670c7d713b49da000082138015612a175750670f43fc2c04ee000082125b15612a3d57670de0b6b3a7640000612a2e83612ef2565b81612a3557fe5b059050610a4c565b612a4682613010565b9050610a4c565b623fffff828116821b90821b198416179392505050565b6000838311612a7557506000611e6a565b6000612a818585611ec4565b90506000612a97670de0b6b3a764000088611a21565b9050612aab826709b6e64a8ec600006133af565b91506000612ab98383612dc5565b90506000612ad0612ac983611e9e565b8b906128d1565b90506127fe81876128d1565b60006060612ae8611536565b600080612af4856133c6565b91509150612b06600282106064611444565b6040805160028082526060808301845292602083019080368337019050509050612b67888381518110612b3557fe5b6020026020010151888481518110612b4957fe5b602002602001015185612b5a6105eb565b612b626108d0565b6133e8565b818381518110612b7357fe5b6020908102919091010152919791965090945050505050565b600060606000612b9b846134a8565b90506060612bb18683612bac6105eb565b6134be565b9196919550909350505050565b60006060612bca611536565b60606000612bd78561356f565b91509150612be782516002611724565b612bf082611b0b565b6000612c0d888885612c006105eb565b612c086108d0565b613587565b9050612c1d8282111560cf611444565b9791965090945050505050565b600082821c661fffffffffffff16660fffffffffffff8113612c4c5780611b03565b661fffffffffffff19179392505050565b600061124983836001612257565b60006060806000612c7b8561356f565b91509150612c8b82516002611724565b612c9482611b0b565b6000612cb1888885612ca46105eb565b612cac6108d0565b6137bb565b9050612c1d8282101560d0611444565b60006060600080612cd1856133c6565b91509150612ce3600282106064611444565b6040805160028082526060808301845292602083019080368337019050509050612b67888381518110612d1257fe5b6020026020010151888481518110612d2657fe5b602002602001015185612d376105eb565b612d3f6108d0565b6139cc565b600080612d508761256d565b830390506000818702612d628961252c565b0190506000828702612d738a612546565b0190506000838702612d848b612560565b0190506127fe89848a858b868c613a77565b60006105d1826001613ad7565b6103ff811b1992909216911b1790565b637fffffff811b1992909216911b1790565b600080612dd28484612df1565b90506000612de56128a283612710611e10565b9050611e6a8282611237565b600081612e075750670de0b6b3a76400006105d1565b82612e14575060006105d1565b612e25600160ff1b84106006611444565b82612e4b770bce5086492111aea88f4bb1ca6bcf584181ea8059f7653284106007611444565b826000670c7d713b49da000083138015612e6c5750670f43fc2c04ee000083125b15612ea3576000612e7c84612ef2565b9050670de0b6b3a764000080820784020583670de0b6b3a764000083050201915050612eb1565b81612ead84613010565b0290505b670de0b6b3a76400009005612ee9680238fd42c5cf03ffff198212801590612ee2575068070c1cc73b00c800008213155b6008611444565b6126ed81613adf565b670de0b6b3a7640000026000806a0c097ce7bc90715b34b9f160241b808401906ec097ce7bc90715b34b9f0fffffffff1985010281612f2d57fe5b05905060006a0c097ce7bc90715b34b9f160241b82800205905081806a0c097ce7bc90715b34b9f160241b81840205915060038205016a0c097ce7bc90715b34b9f160241b82840205915060058205016a0c097ce7bc90715b34b9f160241b82840205915060078205016a0c097ce7bc90715b34b9f160241b82840205915060098205016a0c097ce7bc90715b34b9f160241b828402059150600b8205016a0c097ce7bc90715b34b9f160241b828402059150600d8205016a0c097ce7bc90715b34b9f160241b828402059150600f826002919005919091010295945050505050565b6000670de0b6b3a764000082121561304c57613042826a0c097ce7bc90715b34b9f160241b8161303c57fe5b05613010565b6000039050610a4c565b60007e1600ef3172e58d2e933ec884fde10064c63b5372d805e203c0000000000000831261309d57770195e54c5dd42177f53a27172fa9ec630262827000000000830592506806f05b59d3b2000000015b73011798004d755d3c8bc8e03204cf44619e00000083126130d5576b1425982cf597cd205cef7380830592506803782dace9d9000000015b606492830292026e01855144814a7ff805980ff0084000831261311d576e01855144814a7ff805980ff008400068056bc75e2d63100000840205925068ad78ebc5ac62000000015b6b02df0ab5a80a22c61ab5a7008312613158576b02df0ab5a80a22c61ab5a70068056bc75e2d6310000084020592506856bc75e2d631000000015b693f1fce3da636ea5cf850831261318f57693f1fce3da636ea5cf85068056bc75e2d631000008402059250682b5e3af16b18800000015b690127fa27722cc06cc5e283126131c657690127fa27722cc06cc5e268056bc75e2d6310000084020592506815af1d78b58c400000015b68280e60114edb805d0383126131fb5768280e60114edb805d0368056bc75e2d631000008402059250680ad78ebc5ac6200000015b680ebc5fb41746121110831261322657680ebc5fb4174612111068056bc75e2d631000009384020592015b6808f00f760a4b2db55d831261325b576808f00f760a4b2db55d68056bc75e2d6310000084020592506802b5e3af16b1880000015b6806f5f17757889379378312613290576806f5f177578893793768056bc75e2d63100000840205925068015af1d78b58c40000015b6806248f33704b28660383126132c4576806248f33704b28660368056bc75e2d63100000840205925067ad78ebc5ac620000015b6805c548670b9510e7ac83126132f8576805c548670b9510e7ac68056bc75e2d6310000084020592506756bc75e2d6310000015b600068056bc75e2d63100000840168056bc75e2d63100000808603028161331b57fe5b059050600068056bc75e2d63100000828002059050818068056bc75e2d63100000818402059150600382050168056bc75e2d63100000828402059150600582050168056bc75e2d63100000828402059150600782050168056bc75e2d63100000828402059150600982050168056bc75e2d63100000828402059150600b820501600202606485820105979650505050505050565b6000818310156133bf5781611249565b5090919050565b600080828060200190518101906133dd9190614566565b909590945092505050565b6000806133f9846126dc818861126c565b90506134126709b6e64a8ec60000821015610132611444565b6000613430613429670de0b6b3a764000089611a21565b8390612dc5565b9050600061344761344083611e9e565b8a906128d1565b9050600061345489611e9e565b905060006134628383611e10565b90506000613470848361126c565b905061349861349161348a670de0b6b3a76400008b61126c565b84906128d1565b8290611237565b9c9b505050505050505050505050565b6000818060200190518101906112499190614539565b606060006134cc8484611a21565b9050606085516001600160401b03811180156134e757600080fd5b50604051908082528060200260200182016040528015613511578160200160208202803683370190505b50905060005b8651811015613565576135468388838151811061353057fe5b60200260200101516128d190919063ffffffff16565b82828151811061355257fe5b6020908102919091010152600101613517565b5095945050505050565b60606000828060200190518101906133dd91906144f3565b6000606084516001600160401b03811180156135a257600080fd5b506040519080825280602002602001820160405280156135cc578160200160208202803683370190505b5090506000805b88518110156136915761362c8982815181106135eb57fe5b60200260200101516126dc89848151811061360257fe5b60200260200101518c858151811061361657fe5b602002602001015161126c90919063ffffffff16565b83828151811061363857fe5b60200260200101818152505061368761368089838151811061365657fe5b602002602001015185848151811061366a57fe5b6020026020010151611e1090919063ffffffff16565b8390611237565b91506001016135d3565b50670de0b6b3a764000060005b895181101561379a5760008482815181106136b557fe5b602002602001015184111561371c5760006136de6136d286611e9e565b8d858151811061353057fe5b905060006136f2828c868151811061361657fe5b905061371361368061370c670de0b6b3a76400008c61126c565b8390611ec4565b92505050613733565b88828151811061372857fe5b602002602001015190505b600061375c8c848151811061374457fe5b6020026020010151610976848f878151811061361657fe5b905061378e6137878c858151811061377057fe5b60200260200101518361288290919063ffffffff16565b85906128d1565b9350505060010161369e565b506137ae6137a782611e9e565b8790611e10565b9998505050505050505050565b6000606084516001600160401b03811180156137d657600080fd5b50604051908082528060200260200182016040528015613800578160200160208202803683370190505b5090506000805b88518110156138a85761386089828151811061381f57fe5b602002602001015161097689848151811061383657fe5b60200260200101518c858151811061384a57fe5b602002602001015161123790919063ffffffff16565b83828151811061386c57fe5b60200260200101818152505061389e61368089838151811061388a57fe5b602002602001015185848151811061353057fe5b9150600101613807565b50670de0b6b3a764000060005b8951811015613989576000838583815181106138cd57fe5b602002602001015111156139295760006138f26136d286670de0b6b3a764000061126c565b90506000613906828c868151811061361657fe5b905061392061368061203f670de0b6b3a76400008c61126c565b92505050613940565b88828151811061393557fe5b602002602001015190505b60006139698c848151811061395157fe5b6020026020010151610976848f878151811061384a57fe5b905061397d6137878c858151811061377057fe5b935050506001016138b5565b50670de0b6b3a76400008111156139c0576139b66139af82670de0b6b3a764000061126c565b87906128d1565b9350505050611e6a565b60009350505050611e6a565b6000806139dd846126dc8188611237565b90506139f66729a2241af62c0000821115610133611444565b6000613a0d613429670de0b6b3a764000089611ec4565b90506000613a2d613a2683670de0b6b3a764000061126c565b8a90611e10565b90506000613a3a89611e9e565b90506000613a488383611e10565b90506000613a56848361126c565b9050613498613491613a70670de0b6b3a76400008b61126c565b8490611ec4565b6000613a838282613eb4565b613a8e84601f613eb8565b613a99866054613ec9565b613aa488606a613eb8565b613aaf8a609f613ec9565b613aba8c60b5613eb8565b613ac58e60ea613ec9565b17171717171798975050505050505050565b016103ff1690565b6000613b0e680238fd42c5cf03ffff198312158015613b07575068070c1cc73b00c800008313155b6009611444565b6000821215613b3957613b2382600003613adf565b6a0c097ce7bc90715b34b9f160241b81612a3557fe5b60006806f05b59d3b20000008312613b7957506806f05b59d3b1ffffff1990910190770195e54c5dd42177f53a27172fa9ec630262827000000000613baf565b6803782dace9d90000008312613bab57506803782dace9d8ffffff19909101906b1425982cf597cd205cef7380613baf565b5060015b6064929092029168056bc75e2d6310000068ad78ebc5ac620000008412613bff5768ad78ebc5ac61ffffff199093019268056bc75e2d631000006e01855144814a7ff805980ff008400082020590505b6856bc75e2d6310000008412613c3b576856bc75e2d630ffffff199093019268056bc75e2d631000006b02df0ab5a80a22c61ab5a70082020590505b682b5e3af16b188000008412613c7557682b5e3af16b187fffff199093019268056bc75e2d63100000693f1fce3da636ea5cf85082020590505b6815af1d78b58c4000008412613caf576815af1d78b58c3fffff199093019268056bc75e2d63100000690127fa27722cc06cc5e282020590505b680ad78ebc5ac62000008412613ce857680ad78ebc5ac61fffff199093019268056bc75e2d6310000068280e60114edb805d0382020590505b68056bc75e2d631000008412613d215768056bc75e2d630fffff199093019268056bc75e2d63100000680ebc5fb4174612111082020590505b6802b5e3af16b18800008412613d5a576802b5e3af16b187ffff199093019268056bc75e2d631000006808f00f760a4b2db55d82020590505b68015af1d78b58c400008412613d935768015af1d78b58c3ffff199093019268056bc75e2d631000006806f5f177578893793782020590505b68056bc75e2d631000008481019085906002908280020505918201919050600368056bc75e2d631000008783020505918201919050600468056bc75e2d631000008783020505918201919050600568056bc75e2d631000008783020505918201919050600668056bc75e2d631000008783020505918201919050600768056bc75e2d631000008783020505918201919050600868056bc75e2d631000008783020505918201919050600968056bc75e2d631000008783020505918201919050600a68056bc75e2d631000008783020505918201919050600b68056bc75e2d631000008783020505918201919050600c68056bc75e2d631000008783020505918201919050606468056bc75e2d63100000848402058502059695505050505050565b1b90565b661fffffffffffff91909116901b90565b623fffff91909116901b90565b604080518082019091526000808252602082015290565b80356105d181614ab2565b600082601f830112613f08578081fd5b8151613f1b613f1682614a89565b614a63565b818152915060208083019084810181840286018201871015613f3c57600080fd5b60005b84811015613f5b57815184529282019290820190600101613f3f565b505050505092915050565b600082601f830112613f76578081fd5b81356001600160401b03811115613f8b578182fd5b613f9e601f8201601f1916602001614a63565b9150808252836020828501011115613fb557600080fd5b8060208401602084013760009082016020015292915050565b8035600281106105d157600080fd5b80356105d181614ad5565b600060208284031215613ff9578081fd5b813561124981614ab2565b60008060408385031215614016578081fd5b823561402181614ab2565b9150602083013561403181614ab2565b809150509250929050565b600080600060608486031215614050578081fd5b833561405b81614ab2565b9250602084013561406b81614ab2565b929592945050506040919091013590565b600080600080600080600060e0888a031215614096578485fd5b87356140a181614ab2565b965060208801356140b181614ab2565b95506040880135945060608801359350608088013560ff811681146140d4578384fd5b9699959850939692959460a0840135945060c09093013592915050565b60008060408385031215614103578182fd5b823561410e81614ab2565b946020939093013593505050565b600080600060608486031215614130578081fd5b83516001600160401b0380821115614146578283fd5b818601915086601f830112614159578283fd5b8151614167613f1682614a89565b80828252602080830192508086018b828387028901011115614187578788fd5b8796505b848710156141b257805161419e81614ab2565b84526001969096019592810192810161418b565b5089015190975093505050808211156141c9578283fd5b506141d686828701613ef8565b925050604084015190509250925092565b600060208083850312156141f9578182fd5b82356001600160401b0381111561420e578283fd5b8301601f8101851361421e578283fd5b803561422c613f1682614a89565b818152838101908385016040808502860187018a101561424a578788fd5b8795505b848610156142975780828b031215614264578788fd5b61426d81614a63565b6142778b84613fdd565b81528288013588820152845260019590950194928601929081019061424e565b509098975050505050505050565b600060208083850312156142b7578182fd5b82356001600160401b038111156142cc578283fd5b8301601f810185136142dc578283fd5b80356142ea613f1682614a89565b818152838101908385016060808502860187018a1015614308578788fd5b8795505b848610156142975780828b031215614322578788fd5b61432b81614a63565b6143358b84613fdd565b8152828801358882015260408084013590820152845260019590950194928601929081019061430c565b600060208284031215614370578081fd5b813561124981614ac7565b60006020828403121561438c578081fd5b815161124981614ac7565b600080600080600080600060e0888a0312156143b1578081fd5b873596506020808901356143c481614ab2565b965060408901356143d481614ab2565b955060608901356001600160401b03808211156143ef578384fd5b818b0191508b601f830112614402578384fd5b8135614410613f1682614a89565b8082825285820191508585018f87888602880101111561442e578788fd5b8795505b83861015614450578035835260019590950194918601918601614432565b509850505060808b0135955060a08b0135945060c08b0135925080831115614476578384fd5b50506144848a828b01613f66565b91505092959891949750929550565b6000602082840312156144a4578081fd5b81356001600160e01b031981168114611249578182fd5b6000602082840312156144cc578081fd5b815161124981614ab2565b6000602082840312156144e8578081fd5b815161124981614ad5565b600080600060608486031215614507578081fd5b835161451281614ad5565b60208501519093506001600160401b0381111561452d578182fd5b6141d686828701613ef8565b6000806040838503121561454b578182fd5b825161455681614ad5565b6020939093015192949293505050565b60008060006060848603121561457a578081fd5b835161458581614ad5565b602085015160409095015190969495509392505050565b600080604083850312156145ae578182fd5b82516145b981614ad5565b60208401519092506001600160401b038111156145d4578182fd5b6145e085828601613ef8565b9150509250929050565b6000602082840312156145fb578081fd5b813561124981614ad5565b600060208284031215614617578081fd5b5051919050565b600080600060608486031215614632578081fd5b83356001600160401b0380821115614648578283fd5b818601915061012080838903121561465e578384fd5b61466781614a63565b90506146738884613fce565b81526146828860208501613eed565b60208201526146948860408501613eed565b6040820152606083013560608201526080830135608082015260a083013560a08201526146c48860c08501613eed565b60c08201526146d68860e08501613eed565b60e082015261010080840135838111156146ee578586fd5b6146fa8a828701613f66565b9183019190915250976020870135975060409096013595945050505050565b60006020828403121561472a578081fd5b5035919050565b6000815180845260208085019450808401835b8381101561476057815187529582019590820190600101614744565b509495945050505050565b9182526001600160e01b031916602082015260240190565b6000828483379101908152919050565b61190160f01b81526002810192909252602282015260420190565b6001600160a01b0391909116815260200190565b6020808252825182820181905260009190848201906040850190845b818110156147fa578351835292840192918401916001016147de565b50909695505050505050565b6000602082526112496020830184614731565b60006040825261482c6040830185614731565b8281036020840152611e6a8185614731565b901515815260200190565b92151583526020830191909152604082015260600190565b90815260200190565b9283526001600160a01b03918216602084015216604082015260600190565b9586526001600160a01b0394851660208701529290931660408501526060840152608083019190915260a082015260c00190565b9485526020850193909352604084019190915260608301526001600160a01b0316608082015260a00190565b93845260ff9290921660208401526040830152606082015260800190565b968752602087019590955260408601939093526060850191909152608084015260a083015260c082015260e00190565b9586526020860194909452604085019290925260608401521515608083015260a082015260c00190565b8381526060810161497184614aa8565b602082019390935260400152919050565b8481526080810161499285614aa8565b84602083015283604083015282606083015295945050505050565b838152825160a08201906149c081614aa8565b806020840152506020840151604083015260408401516060830152826080830152949350505050565b6000602080835283518082850152825b81811015614a15578581018301518582016040015282016149f9565b81811115614a265783604083870101525b50601f01601f1916929092016040019392505050565b600083825260406020830152611b036040830184614731565b60ff91909116815260200190565b6040518181016001600160401b0381118282101715614a8157600080fd5b604052919050565b60006001600160401b03821115614a9e578081fd5b5060209081020190565b600381106105e857fe5b6001600160a01b03811681146105e857600080fd5b80151581146105e857600080fd5b600381106105e857600080fdfea26469706673582212205db737efb6113961743582f34ee1d337593f8d0f3d6d2a78e4afee4e15ec433a64736f6c63430007010033a264697066735822122066673786baf6dc32c31b30bc47cbe9238e4e15ecece5bbdd6dec332d3a36570864736f6c63430007010033",
  "linkReferences": {
    "@balancer-labs/v2-pool-utils/contracts/oracle/QueryProcessor.sol": {
      "QueryProcessor": [
        {
          "length": 20,
          "start": 6789
        },
        {
          "length": 20,
          "start": 8778
        },
        {
          "length": 20,
          "start": 11919
        }
      ]
    }
  },
  "deployedLinkReferences": {
    "@balancer-labs/v2-pool-utils/contracts/oracle/QueryProcessor.sol": {
      "QueryProcessor": [
        {
          "length": 20,
          "start": 6623
        },
        {
          "length": 20,
          "start": 8612
        },
        {
          "length": 20,
          "start": 11753
        }
      ]
    }
  }
}