{
  "_format": "hh-sol-artifact-1",
  "contractName": "TimeBasedMasterChefMultiTokenRewarder",
  "sourceName": "contracts/rewarder/TimeBasedMasterChefMultiTokenRewarder.sol",
  "abi": [
    {
      "inputs": [
        {
          "internalType": "address",
          "name": "_masterChef",
          "type": "address"
        }
      ],
      "stateMutability": "nonpayable",
      "type": "constructor"
    },
    {
      "anonymous": false,
      "inputs": [],
      "name": "LogInit",
      "type": "event"
    },
    {
      "anonymous": false,
      "inputs": [
        {
          "indexed": false,
          "internalType": "contract ERC20[]",
          "name": "rewardTokens",
          "type": "address[]"
        },
        {
          "indexed": false,
          "internalType": "uint256[]",
          "name": "accTokenPrecisions",
          "type": "uint256[]"
        }
      ],
      "name": "LogInitRewardTokens",
      "type": "event"
    },
    {
      "anonymous": false,
      "inputs": [
        {
          "indexed": true,
          "internalType": "address",
          "name": "user",
          "type": "address"
        },
        {
          "indexed": true,
          "internalType": "uint256",
          "name": "pid",
          "type": "uint256"
        },
        {
          "indexed": false,
          "internalType": "contract ERC20",
          "name": "rewardToken",
          "type": "address"
        },
        {
          "indexed": false,
          "internalType": "uint256",
          "name": "amount",
          "type": "uint256"
        },
        {
          "indexed": true,
          "internalType": "address",
          "name": "to",
          "type": "address"
        }
      ],
      "name": "LogOnReward",
      "type": "event"
    },
    {
      "anonymous": false,
      "inputs": [
        {
          "indexed": true,
          "internalType": "uint256",
          "name": "pid",
          "type": "uint256"
        },
        {
          "indexed": false,
          "internalType": "uint256",
          "name": "allocPoint",
          "type": "uint256"
        }
      ],
      "name": "LogPoolAddition",
      "type": "event"
    },
    {
      "anonymous": false,
      "inputs": [
        {
          "indexed": false,
          "internalType": "contract ERC20[]",
          "name": "rewardTokens",
          "type": "address[]"
        },
        {
          "indexed": false,
          "internalType": "uint256[]",
          "name": "rewardsPerSecond",
          "type": "uint256[]"
        }
      ],
      "name": "LogRewardsPerSecond",
      "type": "event"
    },
    {
      "anonymous": false,
      "inputs": [
        {
          "indexed": true,
          "internalType": "uint256",
          "name": "pid",
          "type": "uint256"
        },
        {
          "indexed": false,
          "internalType": "uint256",
          "name": "allocPoint",
          "type": "uint256"
        }
      ],
      "name": "LogSetPool",
      "type": "event"
    },
    {
      "anonymous": false,
      "inputs": [
        {
          "indexed": true,
          "internalType": "uint256",
          "name": "pid",
          "type": "uint256"
        },
        {
          "indexed": true,
          "internalType": "contract ERC20",
          "name": "rewardToken",
          "type": "address"
        },
        {
          "indexed": false,
          "internalType": "uint256",
          "name": "lastRewardTime",
          "type": "uint256"
        },
        {
          "indexed": false,
          "internalType": "uint256",
          "name": "lpSupply",
          "type": "uint256"
        },
        {
          "indexed": false,
          "internalType": "uint256",
          "name": "accRewardTokenPerShare",
          "type": "uint256"
        }
      ],
      "name": "LogUpdatePool",
      "type": "event"
    },
    {
      "anonymous": false,
      "inputs": [
        {
          "indexed": true,
          "internalType": "address",
          "name": "previousOwner",
          "type": "address"
        },
        {
          "indexed": true,
          "internalType": "address",
          "name": "newOwner",
          "type": "address"
        }
      ],
      "name": "OwnershipTransferred",
      "type": "event"
    },
    {
      "inputs": [
        {
          "internalType": "uint256",
          "name": "pid",
          "type": "uint256"
        },
        {
          "internalType": "uint256",
          "name": "allocationPoints",
          "type": "uint256"
        }
      ],
      "name": "add",
      "outputs": [],
      "stateMutability": "nonpayable",
      "type": "function"
    },
    {
      "inputs": [
        {
          "internalType": "uint256",
          "name": "",
          "type": "uint256"
        }
      ],
      "name": "allocationPointsPerPool",
      "outputs": [
        {
          "internalType": "uint256",
          "name": "",
          "type": "uint256"
        }
      ],
      "stateMutability": "view",
      "type": "function"
    },
    {
      "inputs": [],
      "name": "getRewardTokenConfigs",
      "outputs": [
        {
          "components": [
            {
              "internalType": "contract ERC20",
              "name": "rewardToken",
              "type": "address"
            },
            {
              "internalType": "uint256",
              "name": "rewardsPerSecond",
              "type": "uint256"
            },
            {
              "internalType": "uint256",
              "name": "accTokenPrecision",
              "type": "uint256"
            }
          ],
          "internalType": "struct TimeBasedMasterChefMultiTokenRewarder.RewardTokenConfig[]",
          "name": "configs",
          "type": "tuple[]"
        }
      ],
      "stateMutability": "view",
      "type": "function"
    },
    {
      "inputs": [],
      "name": "getRewardTokens",
      "outputs": [
        {
          "internalType": "contract ERC20[]",
          "name": "tokens",
          "type": "address[]"
        }
      ],
      "stateMutability": "view",
      "type": "function"
    },
    {
      "inputs": [
        {
          "internalType": "contract ERC20[]",
          "name": "tokens",
          "type": "address[]"
        }
      ],
      "name": "initializeRewardTokens",
      "outputs": [],
      "stateMutability": "nonpayable",
      "type": "function"
    },
    {
      "inputs": [
        {
          "internalType": "uint256[]",
          "name": "pids",
          "type": "uint256[]"
        }
      ],
      "name": "massUpdatePools",
      "outputs": [],
      "stateMutability": "nonpayable",
      "type": "function"
    },
    {
      "inputs": [],
      "name": "masterChef",
      "outputs": [
        {
          "internalType": "address",
          "name": "",
          "type": "address"
        }
      ],
      "stateMutability": "view",
      "type": "function"
    },
    {
      "inputs": [
        {
          "internalType": "uint256",
          "name": "",
          "type": "uint256"
        }
      ],
      "name": "masterchefPoolIds",
      "outputs": [
        {
          "internalType": "uint256",
          "name": "",
          "type": "uint256"
        }
      ],
      "stateMutability": "view",
      "type": "function"
    },
    {
      "inputs": [
        {
          "internalType": "uint256",
          "name": "pid",
          "type": "uint256"
        },
        {
          "internalType": "address",
          "name": "userAddress",
          "type": "address"
        },
        {
          "internalType": "address",
          "name": "recipient",
          "type": "address"
        },
        {
          "internalType": "uint256",
          "name": "",
          "type": "uint256"
        },
        {
          "internalType": "uint256",
          "name": "newLpAmount",
          "type": "uint256"
        }
      ],
      "name": "onBeetsReward",
      "outputs": [],
      "stateMutability": "nonpayable",
      "type": "function"
    },
    {
      "inputs": [],
      "name": "owner",
      "outputs": [
        {
          "internalType": "address",
          "name": "",
          "type": "address"
        }
      ],
      "stateMutability": "view",
      "type": "function"
    },
    {
      "inputs": [
        {
          "internalType": "uint256",
          "name": "pid",
          "type": "uint256"
        },
        {
          "internalType": "address",
          "name": "userAddress",
          "type": "address"
        },
        {
          "internalType": "uint256",
          "name": "",
          "type": "uint256"
        }
      ],
      "name": "pendingTokens",
      "outputs": [
        {
          "internalType": "contract IERC20[]",
          "name": "tokens",
          "type": "address[]"
        },
        {
          "internalType": "uint256[]",
          "name": "rewardAmounts",
          "type": "uint256[]"
        }
      ],
      "stateMutability": "view",
      "type": "function"
    },
    {
      "inputs": [],
      "name": "poolLength",
      "outputs": [
        {
          "internalType": "uint256",
          "name": "pools",
          "type": "uint256"
        }
      ],
      "stateMutability": "view",
      "type": "function"
    },
    {
      "inputs": [],
      "name": "renounceOwnership",
      "outputs": [],
      "stateMutability": "nonpayable",
      "type": "function"
    },
    {
      "inputs": [
        {
          "internalType": "uint256",
          "name": "",
          "type": "uint256"
        }
      ],
      "name": "rewardTokenConfigs",
      "outputs": [
        {
          "internalType": "contract ERC20",
          "name": "rewardToken",
          "type": "address"
        },
        {
          "internalType": "uint256",
          "name": "rewardsPerSecond",
          "type": "uint256"
        },
        {
          "internalType": "uint256",
          "name": "accTokenPrecision",
          "type": "uint256"
        }
      ],
      "stateMutability": "view",
      "type": "function"
    },
    {
      "inputs": [
        {
          "internalType": "uint256",
          "name": "pid",
          "type": "uint256"
        },
        {
          "internalType": "uint256",
          "name": "allocationPoints",
          "type": "uint256"
        }
      ],
      "name": "set",
      "outputs": [],
      "stateMutability": "nonpayable",
      "type": "function"
    },
    {
      "inputs": [
        {
          "internalType": "contract ERC20[]",
          "name": "_tokens",
          "type": "address[]"
        },
        {
          "internalType": "uint256[]",
          "name": "_rewardsPerSecond",
          "type": "uint256[]"
        }
      ],
      "name": "setRewardPerSecond",
      "outputs": [],
      "stateMutability": "nonpayable",
      "type": "function"
    },
    {
      "inputs": [
        {
          "internalType": "address",
          "name": "withdrawRemainingFundsTo",
          "type": "address"
        }
      ],
      "name": "shutDown",
      "outputs": [],
      "stateMutability": "nonpayable",
      "type": "function"
    },
    {
      "inputs": [
        {
          "internalType": "uint256",
          "name": "",
          "type": "uint256"
        },
        {
          "internalType": "contract ERC20",
          "name": "",
          "type": "address"
        }
      ],
      "name": "tokenRewardInfos",
      "outputs": [
        {
          "internalType": "uint256",
          "name": "accRewardTokenPerShare",
          "type": "uint256"
        },
        {
          "internalType": "uint256",
          "name": "lastRewardTime",
          "type": "uint256"
        }
      ],
      "stateMutability": "view",
      "type": "function"
    },
    {
      "inputs": [
        {
          "internalType": "address",
          "name": "newOwner",
          "type": "address"
        }
      ],
      "name": "transferOwnership",
      "outputs": [],
      "stateMutability": "nonpayable",
      "type": "function"
    },
    {
      "inputs": [
        {
          "internalType": "uint256",
          "name": "pid",
          "type": "uint256"
        }
      ],
      "name": "updatePool",
      "outputs": [
        {
          "components": [
            {
              "internalType": "uint256",
              "name": "accRewardTokenPerShare",
              "type": "uint256"
            },
            {
              "internalType": "uint256",
              "name": "lastRewardTime",
              "type": "uint256"
            }
          ],
          "internalType": "struct TimeBasedMasterChefMultiTokenRewarder.RewardInfo[]",
          "name": "rewardInfos",
          "type": "tuple[]"
        }
      ],
      "stateMutability": "nonpayable",
      "type": "function"
    },
    {
      "inputs": [
        {
          "internalType": "uint256",
          "name": "",
          "type": "uint256"
        },
        {
          "internalType": "address",
          "name": "",
          "type": "address"
        },
        {
          "internalType": "contract ERC20",
          "name": "",
          "type": "address"
        }
      ],
      "name": "userInfos",
      "outputs": [
        {
          "internalType": "uint256",
          "name": "amount",
          "type": "uint256"
        },
        {
          "internalType": "uint256",
          "name": "rewardDebt",
          "type": "uint256"
        }
      ],
      "stateMutability": "view",
      "type": "function"
    }
  ],
  "bytecode": "0x60a06040523480156200001157600080fd5b50604051620028e5380380620028e58339810160408190526200003491620000a5565b6200003f3362000055565b60601b6001600160601b031916608052620000d7565b600080546001600160a01b038381166001600160a01b0319831681178455604051919092169283917f8be0079c531659141344cd1fd0a4f28419497f9722a3daafe3b4186f6b6457e09190a35050565b600060208284031215620000b857600080fd5b81516001600160a01b0381168114620000d057600080fd5b9392505050565b60805160601c6127cc620001196000396000818161023f0152818161059a0152818161062b01528181610c1e015281816116ec015261178501526127cc6000f3fe608060405234801561001057600080fd5b50600436106101375760003560e01c806372f3ac8b116100b8578063b9fef63e1161007c578063b9fef63e146102f1578063c4f59f9b14610306578063cac332ab1461031b578063d63b3c491461032e578063dd585a6b1461034f578063f2fde38b1461038757600080fd5b806372f3ac8b14610294578063771602f7146102a75780638da5cb5b146102ba578063929bffc2146102cb578063aa6db928146102de57600080fd5b8063392e359b116100ff578063392e359b146101e257806351eb05a61461021a578063575a86b21461023a57806357a5b58c14610279578063715018a61461028c57600080fd5b8063081e3eda1461013c578063180e9f8f146101535780631ab06ee51461019a5780631aed4a69146101af5780631c671763146101cf575b600080fd5b6002545b6040519081526020015b60405180910390f35b61018561016136600461222b565b60036020908152600092835260408084209091529082529020805460019091015482565b6040805192835260208301919091520161014a565b6101ad6101a836600461225b565b61039a565b005b6101406101bd36600461212d565b60046020526000908152604090205481565b6101406101dd36600461212d565b6104b4565b6101f56101f036600461212d565b6104d5565b604080516001600160a01b03909416845260208401929092529082015260600161014a565b61022d61022836600461212d565b610512565b60405161014a9190612427565b6102617f000000000000000000000000000000000000000000000000000000000000000081565b6040516001600160a01b03909116815260200161014a565b6101ad610287366004611fe3565b6108a3565b6101ad6108e7565b6101ad6102a2366004611fc6565b6108fb565b6101ad6102b536600461225b565b610a4f565b6000546001600160a01b0316610261565b6101ad6102d936600461215f565b610c13565b6101ad6102ec366004611fe3565b610f50565b6102f9611228565b60405161014a9190612476565b61030e6112aa565b60405161014a9190612386565b6101ad610329366004612025565b611373565b61034161033c3660046121f3565b611543565b60405161014a9291906123c7565b61018561035d3660046121b1565b60056020908152600093845260408085208252928452828420905282529020805460019091015482565b6101ad610395366004611fc6565b611b39565b6103a2611bb2565b60008281526003602052604081206001805491929182906103c5576103c5612755565b600091825260208083206003909202909101546001600160a01b031683528201929092526040019020600101546104395760405162461bcd60e51b8152602060048201526013602482015272141bdbdb08191bd95cc81b9bdd08195e1a5cdd606a1b60448201526064015b60405180910390fd5b6000828152600460205260409020546006548291610456916126be565b6104609190612553565b600655600082815260046020526040908190208290555182907f942cc7e17a17c164bd977f32ab8c54265d5b9d481e4e352bf874f1e568874e7c906104a89084815260200190565b60405180910390a25050565b600281815481106104c457600080fd5b600091825260209091200154905081565b600181815481106104e557600080fd5b60009182526020909120600390910201805460018201546002909201546001600160a01b03909116925083565b60015460609067ffffffffffffffff8111156105305761053061276b565b60405190808252806020026020018201604052801561057557816020015b604080518082019091526000808252602082015281526020019060019003908161054e5790505b506040516306ed78b760e21b8152600481018490529091506000906001600160a01b037f00000000000000000000000000000000000000000000000000000000000000001690631bb5e2dc9060240160206040518083038186803b1580156105dc57600080fd5b505afa1580156105f0573d6000803e3d6000fd5b505050506040513d601f19601f820116820180604052508101906106149190612110565b6040516370a0823160e01b81526001600160a01b037f00000000000000000000000000000000000000000000000000000000000000008116600483015291909116906370a082319060240160206040518083038186803b15801561067757600080fd5b505afa15801561068b573d6000803e3d6000fd5b505050506040513d601f19601f820116820180604052508101906106af9190612146565b905060005b60015481101561089c576000600182815481106106d3576106d3612755565b60009182526020808320888452600380835260408086209490910290910180546001600160a01b031685529282529283902083518085019094528054845260010154908301528551909250819086908590811061073257610732612755565b602002602001018190525080602001516000141580156107555750806020015142115b156108875783156107da57600081602001514261077291906126be565b60065460008981526004602052604081205460018701549394509092610798908561269f565b6107a2919061269f565b6107ac9190612590565b9050858460020154826107bf919061269f565b6107c99190612590565b83516107d59190612553565b835250505b426020828101918252600088815260038252604080822086546001600160a01b03168352909252208251815590516001909101558451819086908590811061082457610824612755565b6020908102919091018101919091528254828201518351604080519283529382018890528184015291516001600160a01b039091169188917f06269c76d9be32952b871b9472362e7c66042aa3cbf2c64f0cbfb2b7d540ea739181900360600190a35b5050808061089490612724565b9150506106b4565b5050919050565b8060005b818110156108e1576108d08484838181106108c4576108c4612755565b90506020020135610512565b506108da81612724565b90506108a7565b50505050565b6108ef611bb2565b6108f96000611c0c565b565b610903611bb2565b61095861090e6112aa565b60015467ffffffffffffffff8111156109295761092961276b565b604051908082528060200260200182016040528015610952578160200160208202803683370190505b50611373565b60005b600154811015610a4b57610a39826001838154811061097c5761097c612755565b60009182526020909120600390910201546040516370a0823160e01b81523060048201526001600160a01b03909116906370a082319060240160206040518083038186803b1580156109cd57600080fd5b505afa1580156109e1573d6000803e3d6000fd5b505050506040513d601f19601f82011682018060405250810190610a059190612146565b60018481548110610a1857610a18612755565b60009182526020909120600390910201546001600160a01b03169190611c5c565b80610a4381612724565b91505061095b565b5050565b610a57611bb2565b6000828152600360205260408120600180549192918290610a7a57610a7a612755565b600091825260208083206003909202909101546001600160a01b0316835282019290925260400190206001015415610aea5760405162461bcd60e51b8152602060048201526013602482015272506f6f6c20616c72656164792065786973747360681b6044820152606401610430565b6006544290610afa908390612553565b60065560008381526004602052604081208390555b600154811015610ba3576040518060400160405280600081526020018381525060036000868152602001908152602001600020600060018481548110610b5757610b57612755565b600091825260208083206003909202909101546001600160a01b031683528281019390935260409091019020825181559101516001919091015580610b9b81612724565b915050610b0f565b50600280546001810182556000919091527f405787fa12a823e0f2b7631cc41b3ba8828b3321ca811111fa75cd3aa3bb5ace0183905560405182815283907f38410508059921573ab9ebdca2a5034be738d236366b8f32de4434ea95ed3c819060200160405180910390a2505050565b336001600160a01b037f00000000000000000000000000000000000000000000000000000000000000001614610c9b5760405162461bcd60e51b815260206004820152602760248201527f4f6e6c79204d6173746572436865662063616e2063616c6c20746869732066756044820152663731ba34b7b71760c91b6064820152608401610430565b6000610ca686610512565b905060005b8151811015610f4757600060018281548110610cc957610cc9612755565b60009182526020822060039091020154600180546001600160a01b0390921693509084908110610cfb57610cfb612755565b60009182526020808320600260039093020191909101548b83526005825260408084206001600160a01b03808e16865290845281852090871685529092529082208054919350919015610e8a57816001015483878781518110610d6057610d60612755565b6020026020010151600001518460000154610d7b919061269f565b610d859190612590565b610d8f91906126be565b6040516370a0823160e01b81523060048201529091506001600160a01b038516906370a082319060240160206040518083038186803b158015610dd157600080fd5b505afa158015610de5573d6000803e3d6000fd5b505050506040513d601f19601f82011682018060405250810190610e099190612146565b811115610e8a576040516370a0823160e01b81523060048201526001600160a01b038516906370a082319060240160206040518083038186803b158015610e4f57600080fd5b505afa158015610e63573d6000803e3d6000fd5b505050506040513d601f19601f82011682018060405250810190610e879190612146565b90505b86825585518390879087908110610ea357610ea3612755565b60200260200101516000015188610eba919061269f565b610ec49190612590565b60018301558015610ee357610ee36001600160a01b0385168a83611c5c565b604080516001600160a01b03868116825260208201849052808c16928e92918e16917f8689a2c06939a3efd443cf730fa992e3c6dca3aa215c5fa45dc50b69dd72a58c910160405180910390a4505050508080610f3f90612724565b915050610cab565b50505050505050565b610f58611bb2565b60015415610fc25760405162461bcd60e51b815260206004820152603160248201527f52657761726420746f6b656e20636f6e666967732063616e206f6e6c7920626560448201527020696e697469616c697a6564206f6e636560781b6064820152608401610430565b60008167ffffffffffffffff811115610fdd57610fdd61276b565b604051908082528060200260200182016040528015611006578160200160208202803683370190505b509050816110565760405162461bcd60e51b815260206004820181905260248201527f4174206c6561737420312072657761726420746f6b656e2072657175697265646044820152606401610430565b60005b828110156111e757600084848381811061107557611075612755565b905060200201602081019061108a9190611fc6565b6001600160a01b031663313ce5676040518163ffffffff1660e01b815260040160206040518083038186803b1580156110c257600080fd5b505afa1580156110d6573d6000803e3d6000fd5b505050506040513d601f19601f820116820180604052508101906110fa919061227d565b6111059060126126d5565b61111090600c61256b565b61111e9060ff16600a6125f5565b90506001604051806060016040528087878681811061113f5761113f612755565b90506020020160208101906111549190611fc6565b6001600160a01b03908116825260006020808401829052604093840187905285546001808201885596835291819020855160039093020180546001600160a01b03191692909316919091178255830151938101939093550151600290910155825181908490849081106111c9576111c9612755565b602090810291909101015250806111df81612724565b915050611059565b507ffbba257c5a77d50a94073d64710c09446977b7a14ab81bd4c9e86bcb17ac3b8483838360405161121b93929190612330565b60405180910390a1505050565b60606001805480602002602001604051908101604052809291908181526020016000905b828210156112a1576000848152602090819020604080516060810182526003860290920180546001600160a01b031683526001808201548486015260029091015491830191909152908352909201910161124c565b50505050905090565b60015460609067ffffffffffffffff8111156112c8576112c861276b565b6040519080825280602002602001820160405280156112f1578160200160208202803683370190505b50905060005b60015481101561136f576001818154811061131457611314612755565b600091825260209091206003909102015482516001600160a01b039091169083908390811061134557611345612755565b6001600160a01b03909216602092830291909101909101528061136781612724565b9150506112f7565b5090565b61137b611bb2565b8051600154146113e25760405162461bcd60e51b815260206004820152602c60248201527f456d697373696f6e207261746520666f7220656163682072657761726420746f60448201526b1ad95b881c995c5d5a5c995960a21b6064820152608401610430565b60005b6001548110156115055782818151811061140157611401612755565b60200260200101516001600160a01b03166001828154811061142557611425612755565b60009182526020909120600390910201546001600160a01b0316146114b25760405162461bcd60e51b815260206004820152603d60248201527f4f72646572206d69736d617463682c2070726f7669646520746f6b656e73206960448201527f6e206f72646572206f6620726577617264546f6b656e436f6e666967730000006064820152608401610430565b8181815181106114c4576114c4612755565b6020026020010151600182815481106114df576114df612755565b6000918252602090912060016003909202010155806114fd81612724565b9150506113e5565b507f8e036c6a6dbf4747ff14a010c4532af9cc895116334df6f291aaae75b4afe0368282604051611537929190612399565b60405180910390a15050565b600154606090819067ffffffffffffffff8111156115635761156361276b565b60405190808252806020026020018201604052801561158c578160200160208202803683370190505b5060015490915067ffffffffffffffff8111156115ab576115ab61276b565b6040519080825280602002602001820160405280156115d4578160200160208202803683370190505b50600086815260036020526040812060018054939550909282906115fa576115fa612755565b600091825260208083206003909202909101546001600160a01b031683528201929092526040019020600101546116d35760005b6001548110156116cd576001818154811061164b5761164b612755565b600091825260209091206003909102015483516001600160a01b039091169084908390811061167c5761167c612755565b60200260200101906001600160a01b031690816001600160a01b03168152505060008282815181106116b0576116b0612755565b6020908102919091010152806116c581612724565b91505061162e565b50611b31565b6040516306ed78b760e21b8152600481018690526000907f00000000000000000000000000000000000000000000000000000000000000006001600160a01b031690631bb5e2dc9060240160206040518083038186803b15801561173657600080fd5b505afa15801561174a573d6000803e3d6000fd5b505050506040513d601f19601f8201168201806040525081019061176e9190612110565b6040516370a0823160e01b81526001600160a01b037f00000000000000000000000000000000000000000000000000000000000000008116600483015291909116906370a082319060240160206040518083038186803b1580156117d157600080fd5b505afa1580156117e5573d6000803e3d6000fd5b505050506040513d601f19601f820116820180604052508101906118099190612146565b905060005b600154811015611b2e5760006001828154811061182d5761182d612755565b60009182526020909120600390910201805486519192506001600160a01b03169086908490811061186057611860612755565b6001600160a01b0392831660209182029290920181019190915260008a815260038252604080822085549094168252928252828120835180850190945280548452600101549183019190915285518690859081106118c0576118c0612755565b6020026020010181815250508060200151600014611b195760008981526005602090815260408083206001600160a01b03808d1685529083528184208654909116845282529091208251918301519091904211801561191e57508515155b1561199b57600083602001514261193591906126be565b60065460008e8152600460205260408120546001890154939450909261195b908561269f565b611965919061269f565b61196f9190612590565b905087866002015482611982919061269f565b61198c9190612590565b6119969084612553565b925050505b6001820154600285015483546119b290849061269f565b6119bc9190612590565b6119c691906126be565b8786815181106119d8576119d8612755565b602090810291909101015283546040516370a0823160e01b81523060048201526001600160a01b03909116906370a082319060240160206040518083038186803b158015611a2557600080fd5b505afa158015611a39573d6000803e3d6000fd5b505050506040513d601f19601f82011682018060405250810190611a5d9190612146565b878681518110611a6f57611a6f612755565b60200260200101511115611b165783546040516370a0823160e01b81523060048201526001600160a01b03909116906370a082319060240160206040518083038186803b158015611abf57600080fd5b505afa158015611ad3573d6000803e3d6000fd5b505050506040513d601f19601f82011682018060405250810190611af79190612146565b878681518110611b0957611b09612755565b6020026020010181815250505b50505b50508080611b2690612724565b91505061180e565b50505b935093915050565b611b41611bb2565b6001600160a01b038116611ba65760405162461bcd60e51b815260206004820152602660248201527f4f776e61626c653a206e6577206f776e657220697320746865207a65726f206160448201526564647265737360d01b6064820152608401610430565b611baf81611c0c565b50565b6000546001600160a01b031633146108f95760405162461bcd60e51b815260206004820181905260248201527f4f776e61626c653a2063616c6c6572206973206e6f7420746865206f776e65726044820152606401610430565b600080546001600160a01b038381166001600160a01b0319831681178455604051919092169283917f8be0079c531659141344cd1fd0a4f28419497f9722a3daafe3b4186f6b6457e09190a35050565b604080516001600160a01b038416602482015260448082018490528251808303909101815260649091019091526020810180516001600160e01b031663a9059cbb60e01b179052611cae908490611cb3565b505050565b6000611d08826040518060400160405280602081526020017f5361666545524332303a206c6f772d6c6576656c2063616c6c206661696c6564815250856001600160a01b0316611d859092919063ffffffff16565b805190915015611cae5780806020019051810190611d2691906120ee565b611cae5760405162461bcd60e51b815260206004820152602a60248201527f5361666545524332303a204552433230206f7065726174696f6e20646964206e6044820152691bdd081cdd58d8d9595960b21b6064820152608401610430565b6060611d948484600085611d9e565b90505b9392505050565b606082471015611dff5760405162461bcd60e51b815260206004820152602660248201527f416464726573733a20696e73756666696369656e742062616c616e636520666f6044820152651c8818d85b1b60d21b6064820152608401610430565b6001600160a01b0385163b611e565760405162461bcd60e51b815260206004820152601d60248201527f416464726573733a2063616c6c20746f206e6f6e2d636f6e74726163740000006044820152606401610430565b600080866001600160a01b03168587604051611e729190612314565b60006040518083038185875af1925050503d8060008114611eaf576040519150601f19603f3d011682016040523d82523d6000602084013e611eb4565b606091505b5091509150611ec4828286611ecf565b979650505050505050565b60608315611ede575081611d97565b825115611eee5782518084602001fd5b8160405162461bcd60e51b815260040161043091906124cb565b60008083601f840112611f1a57600080fd5b50813567ffffffffffffffff811115611f3257600080fd5b6020830191508360208260051b8501011115611f4d57600080fd5b9250929050565b600082601f830112611f6557600080fd5b81356020611f7a611f758361252f565b6124fe565b80838252828201915082860187848660051b8901011115611f9a57600080fd5b60005b85811015611fb957813584529284019290840190600101611f9d565b5090979650505050505050565b600060208284031215611fd857600080fd5b8135611d9781612781565b60008060208385031215611ff657600080fd5b823567ffffffffffffffff81111561200d57600080fd5b61201985828601611f08565b90969095509350505050565b6000806040838503121561203857600080fd5b823567ffffffffffffffff8082111561205057600080fd5b818501915085601f83011261206457600080fd5b81356020612074611f758361252f565b8083825282820191508286018a848660051b890101111561209457600080fd5b600096505b848710156120c05780356120ac81612781565b835260019690960195918301918301612099565b50965050860135925050808211156120d757600080fd5b506120e485828601611f54565b9150509250929050565b60006020828403121561210057600080fd5b81518015158114611d9757600080fd5b60006020828403121561212257600080fd5b8151611d9781612781565b60006020828403121561213f57600080fd5b5035919050565b60006020828403121561215857600080fd5b5051919050565b600080600080600060a0868803121561217757600080fd5b85359450602086013561218981612781565b9350604086013561219981612781565b94979396509394606081013594506080013592915050565b6000806000606084860312156121c657600080fd5b8335925060208401356121d881612781565b915060408401356121e881612781565b809150509250925092565b60008060006060848603121561220857600080fd5b83359250602084013561221a81612781565b929592945050506040919091013590565b6000806040838503121561223e57600080fd5b82359150602083013561225081612781565b809150509250929050565b6000806040838503121561226e57600080fd5b50508035926020909101359150565b60006020828403121561228f57600080fd5b815160ff81168114611d9757600080fd5b600081518084526020808501945080840160005b838110156122d95781516001600160a01b0316875295820195908201906001016122b4565b509495945050505050565b600081518084526020808501945080840160005b838110156122d9578151875295820195908201906001016122f8565b600082516123268184602087016126f8565b9190910192915050565b6040808252810183905260008460608301825b8681101561237357823561235681612781565b6001600160a01b0316825260209283019290910190600101612343565b508381036020850152611ec481866122e4565b602081526000611d9760208301846122a0565b6040815260006123ac60408301856122a0565b82810360208401526123be81856122e4565b95945050505050565b604080825283519082018190526000906020906060840190828701845b828110156124095781516001600160a01b0316845292840192908401906001016123e4565b5050508381038285015261241d81866122e4565b9695505050505050565b602080825282518282018190526000919060409081850190868401855b8281101561246957815180518552860151868501529284019290850190600101612444565b5091979650505050505050565b602080825282518282018190526000919060409081850190868401855b8281101561246957815180516001600160a01b0316855286810151878601528501518585015260609093019290850190600101612493565b60208152600082518060208401526124ea8160408501602087016126f8565b601f01601f19169190910160400192915050565b604051601f8201601f1916810167ffffffffffffffff811182821017156125275761252761276b565b604052919050565b600067ffffffffffffffff8211156125495761254961276b565b5060051b60200190565b600082198211156125665761256661273f565b500190565b600060ff821660ff84168060ff038211156125885761258861273f565b019392505050565b6000826125ad57634e487b7160e01b600052601260045260246000fd5b500490565b600181815b808511156125ed5781600019048211156125d3576125d361273f565b808516156125e057918102915b93841c93908002906125b7565b509250929050565b6000611d97838360008261260b57506001612699565b8161261857506000612699565b816001811461262e576002811461263857612654565b6001915050612699565b60ff8411156126495761264961273f565b50506001821b612699565b5060208310610133831016604e8410600b8410161715612677575081810a612699565b61268183836125b2565b80600019048211156126955761269561273f565b0290505b92915050565b60008160001904831182151516156126b9576126b961273f565b500290565b6000828210156126d0576126d061273f565b500390565b600060ff821660ff8416808210156126ef576126ef61273f565b90039392505050565b60005b838110156127135781810151838201526020016126fb565b838111156108e15750506000910152565b60006000198214156127385761273861273f565b5060010190565b634e487b7160e01b600052601160045260246000fd5b634e487b7160e01b600052603260045260246000fd5b634e487b7160e01b600052604160045260246000fd5b6001600160a01b0381168114611baf57600080fdfea2646970667358221220df77a204cc89b3df71f7ff8505d83eb5f4af8e9e498b472d3edae727a28b11d864736f6c63430008070033",
  "linkReferences": {},
  "deployedLinkReferences": {}
}