{
  "_format": "hh-sol-artifact-1",
  "contractName": "WeightedPool",
  "sourceName": "contracts/WeightedPool.sol",
  "abi": [
    {
      "inputs": [
        {
          "internalType": "contract IVault",
          "name": "vault",
          "type": "address"
        },
        {
          "internalType": "string",
          "name": "name",
          "type": "string"
        },
        {
          "internalType": "string",
          "name": "symbol",
          "type": "string"
        },
        {
          "internalType": "contract IERC20[]",
          "name": "tokens",
          "type": "address[]"
        },
        {
          "internalType": "uint256[]",
          "name": "normalizedWeights",
          "type": "uint256[]"
        },
        {
          "internalType": "address[]",
          "name": "assetManagers",
          "type": "address[]"
        },
        {
          "internalType": "uint256",
          "name": "swapFeePercentage",
          "type": "uint256"
        },
        {
          "internalType": "uint256",
          "name": "pauseWindowDuration",
          "type": "uint256"
        },
        {
          "internalType": "uint256",
          "name": "bufferPeriodDuration",
          "type": "uint256"
        },
        {
          "internalType": "address",
          "name": "owner",
          "type": "address"
        }
      ],
      "stateMutability": "nonpayable",
      "type": "constructor"
    },
    {
      "anonymous": false,
      "inputs": [
        {
          "indexed": true,
          "internalType": "address",
          "name": "owner",
          "type": "address"
        },
        {
          "indexed": true,
          "internalType": "address",
          "name": "spender",
          "type": "address"
        },
        {
          "indexed": false,
          "internalType": "uint256",
          "name": "value",
          "type": "uint256"
        }
      ],
      "name": "Approval",
      "type": "event"
    },
    {
      "anonymous": false,
      "inputs": [
        {
          "indexed": false,
          "internalType": "bool",
          "name": "paused",
          "type": "bool"
        }
      ],
      "name": "PausedStateChanged",
      "type": "event"
    },
    {
      "anonymous": false,
      "inputs": [
        {
          "indexed": false,
          "internalType": "uint256",
          "name": "swapFeePercentage",
          "type": "uint256"
        }
      ],
      "name": "SwapFeePercentageChanged",
      "type": "event"
    },
    {
      "anonymous": false,
      "inputs": [
        {
          "indexed": true,
          "internalType": "address",
          "name": "from",
          "type": "address"
        },
        {
          "indexed": true,
          "internalType": "address",
          "name": "to",
          "type": "address"
        },
        {
          "indexed": false,
          "internalType": "uint256",
          "name": "value",
          "type": "uint256"
        }
      ],
      "name": "Transfer",
      "type": "event"
    },
    {
      "inputs": [],
      "name": "DOMAIN_SEPARATOR",
      "outputs": [
        {
          "internalType": "bytes32",
          "name": "",
          "type": "bytes32"
        }
      ],
      "stateMutability": "view",
      "type": "function"
    },
    {
      "inputs": [
        {
          "internalType": "address",
          "name": "owner",
          "type": "address"
        },
        {
          "internalType": "address",
          "name": "spender",
          "type": "address"
        }
      ],
      "name": "allowance",
      "outputs": [
        {
          "internalType": "uint256",
          "name": "",
          "type": "uint256"
        }
      ],
      "stateMutability": "view",
      "type": "function"
    },
    {
      "inputs": [
        {
          "internalType": "address",
          "name": "spender",
          "type": "address"
        },
        {
          "internalType": "uint256",
          "name": "amount",
          "type": "uint256"
        }
      ],
      "name": "approve",
      "outputs": [
        {
          "internalType": "bool",
          "name": "",
          "type": "bool"
        }
      ],
      "stateMutability": "nonpayable",
      "type": "function"
    },
    {
      "inputs": [
        {
          "internalType": "address",
          "name": "account",
          "type": "address"
        }
      ],
      "name": "balanceOf",
      "outputs": [
        {
          "internalType": "uint256",
          "name": "",
          "type": "uint256"
        }
      ],
      "stateMutability": "view",
      "type": "function"
    },
    {
      "inputs": [],
      "name": "decimals",
      "outputs": [
        {
          "internalType": "uint8",
          "name": "",
          "type": "uint8"
        }
      ],
      "stateMutability": "view",
      "type": "function"
    },
    {
      "inputs": [
        {
          "internalType": "address",
          "name": "spender",
          "type": "address"
        },
        {
          "internalType": "uint256",
          "name": "amount",
          "type": "uint256"
        }
      ],
      "name": "decreaseAllowance",
      "outputs": [
        {
          "internalType": "bool",
          "name": "",
          "type": "bool"
        }
      ],
      "stateMutability": "nonpayable",
      "type": "function"
    },
    {
      "inputs": [
        {
          "internalType": "bytes4",
          "name": "selector",
          "type": "bytes4"
        }
      ],
      "name": "getActionId",
      "outputs": [
        {
          "internalType": "bytes32",
          "name": "",
          "type": "bytes32"
        }
      ],
      "stateMutability": "view",
      "type": "function"
    },
    {
      "inputs": [],
      "name": "getAuthorizer",
      "outputs": [
        {
          "internalType": "contract IAuthorizer",
          "name": "",
          "type": "address"
        }
      ],
      "stateMutability": "view",
      "type": "function"
    },
    {
      "inputs": [],
      "name": "getInvariant",
      "outputs": [
        {
          "internalType": "uint256",
          "name": "",
          "type": "uint256"
        }
      ],
      "stateMutability": "view",
      "type": "function"
    },
    {
      "inputs": [],
      "name": "getLastInvariant",
      "outputs": [
        {
          "internalType": "uint256",
          "name": "",
          "type": "uint256"
        }
      ],
      "stateMutability": "view",
      "type": "function"
    },
    {
      "inputs": [],
      "name": "getNormalizedWeights",
      "outputs": [
        {
          "internalType": "uint256[]",
          "name": "",
          "type": "uint256[]"
        }
      ],
      "stateMutability": "view",
      "type": "function"
    },
    {
      "inputs": [],
      "name": "getOwner",
      "outputs": [
        {
          "internalType": "address",
          "name": "",
          "type": "address"
        }
      ],
      "stateMutability": "view",
      "type": "function"
    },
    {
      "inputs": [],
      "name": "getPausedState",
      "outputs": [
        {
          "internalType": "bool",
          "name": "paused",
          "type": "bool"
        },
        {
          "internalType": "uint256",
          "name": "pauseWindowEndTime",
          "type": "uint256"
        },
        {
          "internalType": "uint256",
          "name": "bufferPeriodEndTime",
          "type": "uint256"
        }
      ],
      "stateMutability": "view",
      "type": "function"
    },
    {
      "inputs": [],
      "name": "getPoolId",
      "outputs": [
        {
          "internalType": "bytes32",
          "name": "",
          "type": "bytes32"
        }
      ],
      "stateMutability": "view",
      "type": "function"
    },
    {
      "inputs": [],
      "name": "getRate",
      "outputs": [
        {
          "internalType": "uint256",
          "name": "",
          "type": "uint256"
        }
      ],
      "stateMutability": "view",
      "type": "function"
    },
    {
      "inputs": [],
      "name": "getScalingFactors",
      "outputs": [
        {
          "internalType": "uint256[]",
          "name": "",
          "type": "uint256[]"
        }
      ],
      "stateMutability": "view",
      "type": "function"
    },
    {
      "inputs": [],
      "name": "getSwapFeePercentage",
      "outputs": [
        {
          "internalType": "uint256",
          "name": "",
          "type": "uint256"
        }
      ],
      "stateMutability": "view",
      "type": "function"
    },
    {
      "inputs": [],
      "name": "getVault",
      "outputs": [
        {
          "internalType": "contract IVault",
          "name": "",
          "type": "address"
        }
      ],
      "stateMutability": "view",
      "type": "function"
    },
    {
      "inputs": [
        {
          "internalType": "address",
          "name": "spender",
          "type": "address"
        },
        {
          "internalType": "uint256",
          "name": "addedValue",
          "type": "uint256"
        }
      ],
      "name": "increaseAllowance",
      "outputs": [
        {
          "internalType": "bool",
          "name": "",
          "type": "bool"
        }
      ],
      "stateMutability": "nonpayable",
      "type": "function"
    },
    {
      "inputs": [],
      "name": "name",
      "outputs": [
        {
          "internalType": "string",
          "name": "",
          "type": "string"
        }
      ],
      "stateMutability": "view",
      "type": "function"
    },
    {
      "inputs": [
        {
          "internalType": "address",
          "name": "owner",
          "type": "address"
        }
      ],
      "name": "nonces",
      "outputs": [
        {
          "internalType": "uint256",
          "name": "",
          "type": "uint256"
        }
      ],
      "stateMutability": "view",
      "type": "function"
    },
    {
      "inputs": [
        {
          "internalType": "bytes32",
          "name": "poolId",
          "type": "bytes32"
        },
        {
          "internalType": "address",
          "name": "sender",
          "type": "address"
        },
        {
          "internalType": "address",
          "name": "recipient",
          "type": "address"
        },
        {
          "internalType": "uint256[]",
          "name": "balances",
          "type": "uint256[]"
        },
        {
          "internalType": "uint256",
          "name": "lastChangeBlock",
          "type": "uint256"
        },
        {
          "internalType": "uint256",
          "name": "protocolSwapFeePercentage",
          "type": "uint256"
        },
        {
          "internalType": "bytes",
          "name": "userData",
          "type": "bytes"
        }
      ],
      "name": "onExitPool",
      "outputs": [
        {
          "internalType": "uint256[]",
          "name": "",
          "type": "uint256[]"
        },
        {
          "internalType": "uint256[]",
          "name": "",
          "type": "uint256[]"
        }
      ],
      "stateMutability": "nonpayable",
      "type": "function"
    },
    {
      "inputs": [
        {
          "internalType": "bytes32",
          "name": "poolId",
          "type": "bytes32"
        },
        {
          "internalType": "address",
          "name": "sender",
          "type": "address"
        },
        {
          "internalType": "address",
          "name": "recipient",
          "type": "address"
        },
        {
          "internalType": "uint256[]",
          "name": "balances",
          "type": "uint256[]"
        },
        {
          "internalType": "uint256",
          "name": "lastChangeBlock",
          "type": "uint256"
        },
        {
          "internalType": "uint256",
          "name": "protocolSwapFeePercentage",
          "type": "uint256"
        },
        {
          "internalType": "bytes",
          "name": "userData",
          "type": "bytes"
        }
      ],
      "name": "onJoinPool",
      "outputs": [
        {
          "internalType": "uint256[]",
          "name": "",
          "type": "uint256[]"
        },
        {
          "internalType": "uint256[]",
          "name": "",
          "type": "uint256[]"
        }
      ],
      "stateMutability": "nonpayable",
      "type": "function"
    },
    {
      "inputs": [
        {
          "components": [
            {
              "internalType": "enum IVault.SwapKind",
              "name": "kind",
              "type": "uint8"
            },
            {
              "internalType": "contract IERC20",
              "name": "tokenIn",
              "type": "address"
            },
            {
              "internalType": "contract IERC20",
              "name": "tokenOut",
              "type": "address"
            },
            {
              "internalType": "uint256",
              "name": "amount",
              "type": "uint256"
            },
            {
              "internalType": "bytes32",
              "name": "poolId",
              "type": "bytes32"
            },
            {
              "internalType": "uint256",
              "name": "lastChangeBlock",
              "type": "uint256"
            },
            {
              "internalType": "address",
              "name": "from",
              "type": "address"
            },
            {
              "internalType": "address",
              "name": "to",
              "type": "address"
            },
            {
              "internalType": "bytes",
              "name": "userData",
              "type": "bytes"
            }
          ],
          "internalType": "struct IPoolSwapStructs.SwapRequest",
          "name": "request",
          "type": "tuple"
        },
        {
          "internalType": "uint256",
          "name": "balanceTokenIn",
          "type": "uint256"
        },
        {
          "internalType": "uint256",
          "name": "balanceTokenOut",
          "type": "uint256"
        }
      ],
      "name": "onSwap",
      "outputs": [
        {
          "internalType": "uint256",
          "name": "",
          "type": "uint256"
        }
      ],
      "stateMutability": "nonpayable",
      "type": "function"
    },
    {
      "inputs": [
        {
          "internalType": "address",
          "name": "owner",
          "type": "address"
        },
        {
          "internalType": "address",
          "name": "spender",
          "type": "address"
        },
        {
          "internalType": "uint256",
          "name": "value",
          "type": "uint256"
        },
        {
          "internalType": "uint256",
          "name": "deadline",
          "type": "uint256"
        },
        {
          "internalType": "uint8",
          "name": "v",
          "type": "uint8"
        },
        {
          "internalType": "bytes32",
          "name": "r",
          "type": "bytes32"
        },
        {
          "internalType": "bytes32",
          "name": "s",
          "type": "bytes32"
        }
      ],
      "name": "permit",
      "outputs": [],
      "stateMutability": "nonpayable",
      "type": "function"
    },
    {
      "inputs": [
        {
          "internalType": "bytes32",
          "name": "poolId",
          "type": "bytes32"
        },
        {
          "internalType": "address",
          "name": "sender",
          "type": "address"
        },
        {
          "internalType": "address",
          "name": "recipient",
          "type": "address"
        },
        {
          "internalType": "uint256[]",
          "name": "balances",
          "type": "uint256[]"
        },
        {
          "internalType": "uint256",
          "name": "lastChangeBlock",
          "type": "uint256"
        },
        {
          "internalType": "uint256",
          "name": "protocolSwapFeePercentage",
          "type": "uint256"
        },
        {
          "internalType": "bytes",
          "name": "userData",
          "type": "bytes"
        }
      ],
      "name": "queryExit",
      "outputs": [
        {
          "internalType": "uint256",
          "name": "bptIn",
          "type": "uint256"
        },
        {
          "internalType": "uint256[]",
          "name": "amountsOut",
          "type": "uint256[]"
        }
      ],
      "stateMutability": "view",
      "type": "function"
    },
    {
      "inputs": [
        {
          "internalType": "bytes32",
          "name": "poolId",
          "type": "bytes32"
        },
        {
          "internalType": "address",
          "name": "sender",
          "type": "address"
        },
        {
          "internalType": "address",
          "name": "recipient",
          "type": "address"
        },
        {
          "internalType": "uint256[]",
          "name": "balances",
          "type": "uint256[]"
        },
        {
          "internalType": "uint256",
          "name": "lastChangeBlock",
          "type": "uint256"
        },
        {
          "internalType": "uint256",
          "name": "protocolSwapFeePercentage",
          "type": "uint256"
        },
        {
          "internalType": "bytes",
          "name": "userData",
          "type": "bytes"
        }
      ],
      "name": "queryJoin",
      "outputs": [
        {
          "internalType": "uint256",
          "name": "bptOut",
          "type": "uint256"
        },
        {
          "internalType": "uint256[]",
          "name": "amountsIn",
          "type": "uint256[]"
        }
      ],
      "stateMutability": "view",
      "type": "function"
    },
    {
      "inputs": [
        {
          "internalType": "contract IERC20",
          "name": "token",
          "type": "address"
        },
        {
          "internalType": "bytes",
          "name": "poolConfig",
          "type": "bytes"
        }
      ],
      "name": "setAssetManagerPoolConfig",
      "outputs": [],
      "stateMutability": "nonpayable",
      "type": "function"
    },
    {
      "inputs": [
        {
          "internalType": "bool",
          "name": "paused",
          "type": "bool"
        }
      ],
      "name": "setPaused",
      "outputs": [],
      "stateMutability": "nonpayable",
      "type": "function"
    },
    {
      "inputs": [
        {
          "internalType": "uint256",
          "name": "swapFeePercentage",
          "type": "uint256"
        }
      ],
      "name": "setSwapFeePercentage",
      "outputs": [],
      "stateMutability": "nonpayable",
      "type": "function"
    },
    {
      "inputs": [],
      "name": "symbol",
      "outputs": [
        {
          "internalType": "string",
          "name": "",
          "type": "string"
        }
      ],
      "stateMutability": "view",
      "type": "function"
    },
    {
      "inputs": [],
      "name": "totalSupply",
      "outputs": [
        {
          "internalType": "uint256",
          "name": "",
          "type": "uint256"
        }
      ],
      "stateMutability": "view",
      "type": "function"
    },
    {
      "inputs": [
        {
          "internalType": "address",
          "name": "recipient",
          "type": "address"
        },
        {
          "internalType": "uint256",
          "name": "amount",
          "type": "uint256"
        }
      ],
      "name": "transfer",
      "outputs": [
        {
          "internalType": "bool",
          "name": "",
          "type": "bool"
        }
      ],
      "stateMutability": "nonpayable",
      "type": "function"
    },
    {
      "inputs": [
        {
          "internalType": "address",
          "name": "sender",
          "type": "address"
        },
        {
          "internalType": "address",
          "name": "recipient",
          "type": "address"
        },
        {
          "internalType": "uint256",
          "name": "amount",
          "type": "uint256"
        }
      ],
      "name": "transferFrom",
      "outputs": [
        {
          "internalType": "bool",
          "name": "",
          "type": "bool"
        }
      ],
      "stateMutability": "nonpayable",
      "type": "function"
    }
  ],
  "bytecode": "0x6109806040527f6e71edae12b1b97f4d1f60370fef10105fa2faae0126114a169c64845d6126c9610120523480156200003757600080fd5b50604051620076f9380380620076f98339810160408190526200005a91620013e5565b8989898988888888888886516002146200007657600162000079565b60025b8989898989898989828289898180604051806040016040528060018152602001603160f81b815250848489336001600160a01b031660001b806080818152505050806001600160a01b031660a0816001600160a01b031660601b81525050508160039080519060200190620000f09291906200113e565b508051620001069060049060208401906200113e565b50506005805460ff1916601217905550815160209283012060c052805191012060e05250507f8b73c3c69bb8fe3d512ecc4cf759cc79239f7b179b0ffacaa9a75d522b39400f6101005250620001656276a70083111561019462000ea7565b6200017962278d0082111561019562000ea7565b42909101610140819052016101605285516200019b906002111560c862000ea7565b620001b5620001a962000ebc565b8751111560c962000ea7565b620001cb8662000ec160201b62000e191760201c565b620001d68462000ecd565b6040516309b2760f60e01b81526000906001600160a01b038c16906309b2760f9062000207908d90600401620015c6565b602060405180830381600087803b1580156200022257600080fd5b505af115801562000237573d6000803e3d6000fd5b505050506040513d601f19601f820116820180604052508101906200025d9190620013cc565b604051633354e3e960e11b81529091506001600160a01b038c16906366a9c7d290620002929084908b908b906004016200152a565b600060405180830381600087803b158015620002ad57600080fd5b505af1158015620002c2573d6000803e3d6000fd5b505050508a6001600160a01b0316610180816001600160a01b031660601b81525050806101a0818152505050505050505050505050505050505050505050506000875190506200031f81885162000f5960201b62000e231760201c565b6101c081905260008080805b848160ff161015620003aa5760008b8260ff16815181106200034957fe5b6020026020010151905062000371662386f26fc1000082101561012e62000ea760201b60201c565b6200038b818662000f6860201b62000e301790919060201c565b945082811115620003a0578160ff1693508092505b506001016200032b565b50620003c3670de0b6b3a7640000841461013462000ea7565b6106e082905289518a90600090620003d757fe5b6020026020010151610700818152505089600181518110620003f557fe5b6020026020010151610720818152505060028411620004165760006200042d565b896002815181106200042457fe5b60200260200101515b61074052600384116200044257600062000459565b896003815181106200045057fe5b60200260200101515b61076052600484116200046e57600062000485565b896004815181106200047c57fe5b60200260200101515b61078052600584116200049a576000620004b1565b89600581518110620004a857fe5b60200260200101515b6107a05260068411620004c6576000620004dd565b89600681518110620004d457fe5b60200260200101515b6107c05260078411620004f257600062000509565b896007815181106200050057fe5b60200260200101515b6107e052600884116200051e57600062000535565b896008815181106200052c57fe5b60200260200101515b61080052600984116200054a57600062000561565b896009815181106200055857fe5b60200260200101515b61082052600a8411620005765760006200058d565b89600a815181106200058457fe5b60200260200101515b61084052600b8411620005a2576000620005b9565b89600b81518110620005b057fe5b60200260200101515b61086052600c8411620005ce576000620005e5565b89600c81518110620005dc57fe5b60200260200101515b61088052600d8411620005fa57600062000611565b89600d815181106200060857fe5b60200260200101515b6108a052600e8411620006265760006200063d565b89600e815181106200063457fe5b60200260200101515b6108c052600f84116200065257600062000669565b89600f815181106200066057fe5b60200260200101515b6108e052601084116200067e57600062000695565b896010815181106200068c57fe5b60200260200101515b6109005260118411620006aa576000620006c1565b89601181518110620006b857fe5b60200260200101515b6109205260128411620006d6576000620006ed565b89601281518110620006e457fe5b60200260200101515b61094052601384116200070257600062000719565b896013815181106200071057fe5b60200260200101515b610960528a518b906000906200072b57fe5b60200260200101516001600160a01b03166101e0816001600160a01b031660601b815250508a6001815181106200075e57fe5b60200260200101516001600160a01b0316610200816001600160a01b031660601b815250506002841162000794576000620007ab565b8a600281518110620007a257fe5b60200260200101515b60601b6001600160601b0319166102205260038411620007cd576000620007e4565b8a600381518110620007db57fe5b60200260200101515b60601b6001600160601b0319166102405260048411620008065760006200081d565b8a6004815181106200081457fe5b60200260200101515b60601b6001600160601b03191661026052600584116200083f57600062000856565b8a6005815181106200084d57fe5b60200260200101515b60601b6001600160601b0319166102805260068411620008785760006200088f565b8a6006815181106200088657fe5b60200260200101515b60601b6001600160601b0319166102a05260078411620008b1576000620008c8565b8a600781518110620008bf57fe5b60200260200101515b60601b6001600160601b0319166102c05260088411620008ea57600062000901565b8a600881518110620008f857fe5b60200260200101515b60601b6001600160601b0319166102e05260098411620009235760006200093a565b8a6009815181106200093157fe5b60200260200101515b60601b6001600160601b03191661030052600a84116200095c57600062000973565b8a600a815181106200096a57fe5b60200260200101515b60601b6001600160601b03191661032052600b841162000995576000620009ac565b8a600b81518110620009a357fe5b60200260200101515b60601b6001600160601b03191661034052600c8411620009ce576000620009e5565b8a600c81518110620009dc57fe5b60200260200101515b60601b6001600160601b03191661036052600d841162000a0757600062000a1e565b8a600d8151811062000a1557fe5b60200260200101515b60601b6001600160601b03191661038052600e841162000a4057600062000a57565b8a600e8151811062000a4e57fe5b60200260200101515b60601b6001600160601b0319166103a052600f841162000a7957600062000a90565b8a600f8151811062000a8757fe5b60200260200101515b60601b6001600160601b0319166103c0526010841162000ab257600062000ac9565b8a60108151811062000ac057fe5b60200260200101515b60601b6001600160601b0319166103e0526011841162000aeb57600062000b02565b8a60118151811062000af957fe5b60200260200101515b60601b6001600160601b031916610400526012841162000b2457600062000b3b565b8a60128151811062000b3257fe5b60200260200101515b60601b6001600160601b031916610420526013841162000b5d57600062000b74565b8a60138151811062000b6b57fe5b60200260200101515b6001600160a01b0316610440816001600160a01b031660601b8152505062000bb78b60008151811062000ba357fe5b602002602001015162000f8560201b60201c565b610460528a5162000bd0908c90600190811062000ba357fe5b610480526002841162000be557600062000bf7565b62000bf78b60028151811062000ba357fe5b6104a0526003841162000c0c57600062000c1e565b62000c1e8b60038151811062000ba357fe5b6104c0526004841162000c3357600062000c45565b62000c458b60048151811062000ba357fe5b6104e0526005841162000c5a57600062000c6c565b62000c6c8b60058151811062000ba357fe5b610500526006841162000c8157600062000c93565b62000c938b60068151811062000ba357fe5b610520526007841162000ca857600062000cba565b62000cba8b60078151811062000ba357fe5b610540526008841162000ccf57600062000ce1565b62000ce18b60088151811062000ba357fe5b610560526009841162000cf657600062000d08565b62000d088b60098151811062000ba357fe5b61058052600a841162000d1d57600062000d2f565b62000d2f8b600a8151811062000ba357fe5b6105a052600b841162000d4457600062000d56565b62000d568b600b8151811062000ba357fe5b6105c052600c841162000d6b57600062000d7d565b62000d7d8b600c8151811062000ba357fe5b6105e052600d841162000d9257600062000da4565b62000da48b600d8151811062000ba357fe5b61060052600e841162000db957600062000dcb565b62000dcb8b600e8151811062000ba357fe5b61062052600f841162000de057600062000df2565b62000df28b600f8151811062000ba357fe5b610640526010841162000e0757600062000e19565b62000e198b60108151811062000ba357fe5b610660526011841162000e2e57600062000e40565b62000e408b60118151811062000ba357fe5b610680526012841162000e5557600062000e67565b62000e678b60128151811062000ba357fe5b6106a0526013841162000e7c57600062000e8e565b62000e8e8b60138151811062000ba357fe5b6106c052506200164d9c50505050505050505050505050565b8162000eb85762000eb88162001031565b5050565b601490565b8062000eb88162001084565b62000ee264e8d4a5100082101560cb62000ea7565b62000efa67016345785d8a000082111560ca62000ea7565b62000f198160c06008546200111160201b62000e42179092919060201c565b6008556040517fa9ba3ffe0b6c366b81232caab38605a0699ad5398d6cce76f91ee809e322dafc9062000f4e908390620015db565b60405180910390a150565b62000eb8828214606762000ea7565b600082820162000f7c848210158362000ea7565b90505b92915050565b600080826001600160a01b031663313ce5676040518163ffffffff1660e01b815260040160206040518083038186803b15801562000fc257600080fd5b505afa15801562000fd7573d6000803e3d6000fd5b505050506040513d601f19601f8201168201806040525081019062000ffd919062001507565b60ff16905060006200101c6012836200112660201b62000e581760201c565b600a0a670de0b6b3a764000002949350505050565b62461bcd60e51b6000908152602060045260076024526642414c23000030600a808404818106603090810160081b95839006959095019082900491820690940160101b939093010160c81b604452606490fd5b60028151101562001095576200110e565b600081600081518110620010a557fe5b602002602001015190506000600190505b82518110156200110b576000838281518110620010cf57fe5b6020026020010151905062001100816001600160a01b0316846001600160a01b031610606562000ea760201b60201c565b9150600101620010b6565b50505b50565b6001600160401b03811b1992909216911b1790565b60006200113883831115600162000ea7565b50900390565b828054600181600116156101000203166002900490600052602060002090601f016020900481019282601f106200118157805160ff1916838001178555620011b1565b82800160010185558215620011b1579182015b82811115620011b157825182559160200191906001019062001194565b50620011bf929150620011c3565b5090565b5b80821115620011bf5760008155600101620011c4565b805162000f7f8162001637565b600082601f830112620011f8578081fd5b81516200120f62001209826200160b565b620015e4565b8181529150602080830190848101818402860182018710156200123157600080fd5b60005b848110156200125d5781516200124a8162001637565b8452928201929082019060010162001234565b505050505092915050565b600082601f83011262001279578081fd5b81516200128a62001209826200160b565b818152915060208083019084810181840286018201871015620012ac57600080fd5b60005b848110156200125d578151620012c58162001637565b84529282019290820190600101620012af565b600082601f830112620012e9578081fd5b8151620012fa62001209826200160b565b8181529150602080830190848101818402860182018710156200131c57600080fd5b60005b848110156200125d578151845292820192908201906001016200131f565b600082601f8301126200134e578081fd5b81516001600160401b0381111562001364578182fd5b60206200137a601f8301601f19168201620015e4565b925081835284818386010111156200139157600080fd5b60005b82811015620013b157848101820151848201830152810162001394565b82811115620013c35760008284860101525b50505092915050565b600060208284031215620013de578081fd5b5051919050565b6000806000806000806000806000806101408b8d03121562001405578586fd5b620014118c8c620011da565b60208c0151909a506001600160401b03808211156200142e578788fd5b6200143c8e838f016200133d565b9a5060408d015191508082111562001452578788fd5b620014608e838f016200133d565b995060608d015191508082111562001476578788fd5b620014848e838f0162001268565b985060808d01519150808211156200149a578788fd5b620014a88e838f01620012d8565b975060a08d0151915080821115620014be578687fd5b50620014cd8d828e01620011e7565b95505060c08b0151935060e08b015192506101008b01519150620014f68c6101208d01620011da565b90509295989b9194979a5092959850565b60006020828403121562001519578081fd5b815160ff8116811462000f7c578182fd5b60006060820185835260206060818501528186518084526080860191508288019350845b8181101562001576576200156385516200162b565b835293830193918301916001016200154e565b505084810360408601528551808252908201925081860190845b81811015620015b857620015a583516200162b565b8552938301939183019160010162001590565b509298975050505050505050565b6020810160038310620015d557fe5b91905290565b90815260200190565b6040518181016001600160401b03811182821017156200160357600080fd5b604052919050565b60006001600160401b0382111562001621578081fd5b5060209081020190565b6001600160a01b031690565b6001600160a01b03811681146200110e57600080fd5b60805160a05160601c60c05160e051610100516101205161014051610160516101805160601c6101a0516101c0516101e05160601c6102005160601c6102205160601c6102405160601c6102605160601c6102805160601c6102a05160601c6102c05160601c6102e05160601c6103005160601c6103205160601c6103405160601c6103605160601c6103805160601c6103a05160601c6103c05160601c6103e05160601c6104005160601c6104205160601c6104405160601c61046051610480516104a0516104c0516104e05161050051610520516105405161056051610580516105a0516105c0516105e05161060051610620516106405161066051610680516106a0516106c0516106e05161070051610720516107405161076051610780516107a0516107c0516107e05161080051610820516108405161086051610880516108a0516108c0516108e05161090051610920516109405161096051615c6062001a9960003980612d505280613a7c525080612d0d5280613a1b525080612cca52806139ba525080612c875280613959525080612c4452806138f8525080612c015280613897525080612bbe5280613836525080612b7b52806137d5525080612b385280613774525080612af55280613713525080612ab252806136b2525080612a6f5280613651525080612a2c52806135f05250806129e9528061358f5250806129a6528061352e52508061296352806134cd525080612920528061346c5250806128dd528061340b52508061289a52806133aa52508061285752806133495250806126a3525080611580528061251252508061153d52806124b15250806114fa52806124505250806114b752806123ef525080611474528061238e525080611431528061232d5250806113ee52806122cc5250806113ab528061226b525080611368528061220a52508061132552806121a95250806112e2528061214852508061129f52806120e752508061125c528061208652508061121952806120255250806111d65280611fc45250806111935280611f635250806111505280611f0252508061110d5280611ea15250806110ca5280611e405250806110795280611ddf5250806124d75280613a4152508061247652806139e0525080612415528061397f5250806123b4528061391e52508061235352806138bd5250806122f2528061385c52508061229152806137fb525080612230528061379a5250806121cf528061373952508061216e52806136d852508061210d52806136775250806120ac528061361652508061204b52806135b5525080611fea5280613554525080611f8952806134f3525080611f285280613492525080611ec75280613431525080611e6652806133d0525080611e05528061336f525080611da4528061330e5250806118f15250806106655250806108ce525080610ffb525080610fd7525080610bab5250806116b05250806116f25250806116d15250806108aa5250806108345250615c606000f3fe608060405234801561001057600080fd5b50600436106102265760003560e01c806374f3b0091161012a5780639d2c110c116100bd578063c0ff1a151161008c578063d5c096c411610071578063d5c096c414610457578063dd62ed3e1461046a578063f89f27ed1461047d57610226565b8063c0ff1a151461043c578063d505accf1461044457610226565b80639d2c110c146103fb578063a457c2d71461040e578063a9059cbb14610421578063aaabadc51461043457610226565b8063893d20e8116100f9578063893d20e8146103ce5780638d928af8146103e357806395d89b41146103eb5780639b02cdde146103f357610226565b806374f3b009146103745780637ecebe0014610395578063851c1bb3146103a857806387ec6817146103bb57610226565b80633644e515116101bd57806350dd6ed91161018c5780636028bfd4116101715780636028bfd414610338578063679aefce1461035957806370a082311461036157610226565b806350dd6ed91461031d57806355c676281461033057610226565b80633644e515146102e757806338e9922e146102ef57806338fff2d014610302578063395093511461030a57610226565b80631c0de051116101f95780631c0de051146102935780631dd746ea146102aa57806323b872dd146102bf578063313ce567146102d257610226565b806306fdde031461022b578063095ea7b31461024957806316c38b3c1461026957806318160ddd1461027e575b600080fd5b610233610485565b6040516102409190615b79565b60405180910390f35b61025c610257366004615404565b61053a565b6040516102409190615a80565b61027c6102773660046154fb565b610551565b005b610286610565565b6040516102409190615aa3565b61029b61056b565b60405161024093929190615a8b565b6102b2610594565b6040516102409190615a48565b61025c6102cd36600461534f565b6105a3565b6102da610637565b6040516102409190615ba5565b610286610640565b61027c6102fd3660046158e1565b61064a565b610286610663565b61025c610318366004615404565b610687565b61027c61032b36600461568c565b6106c2565b6102866106e0565b61034b610346366004615533565b6106f1565b604051610240929190615b8c565b610286610728565b61028661036f3660046152fb565b610753565b610387610382366004615533565b610772565b604051610240929190615a5b565b6102866103a33660046152fb565b610815565b6102866103b6366004615630565b610830565b61034b6103c9366004615533565b610882565b6103d66108a8565b6040516102409190615a34565b6103d66108cc565b6102336108f0565b61028661096f565b6102866104093660046157e5565b610975565b61025c61041c366004615404565b610a5c565b61025c61042f366004615404565b610a9a565b6103d6610aa7565b610286610ab1565b61027c61045236600461538f565b610b76565b610387610465366004615533565b610cbf565b610286610478366004615317565b610de4565b6102b2610e0f565b60038054604080516020601f60027fffffffffffffffffffffffffffffffffffffffffffffffffffffffffffffffff61010060018816150201909516949094049384018190048102820181019092528281526060939092909183018282801561052f5780601f106105045761010080835404028352916020019161052f565b820191906000526020600020905b81548152906001019060200180831161051257829003601f168201915b505050505090505b90565b6000610547338484610e6e565b5060015b92915050565b610559610ed6565b61056281610f1c565b50565b60025490565b6000806000610578610fb8565b159250610583610fd5565b915061058d610ff9565b9050909192565b606061059e61101d565b905090565b6000806105b08533610de4565b90506105d4336001600160a01b03871614806105cc5750838210155b61019e6115be565b6105df8585856115cc565b336001600160a01b0386161480159061061857507fffffffffffffffffffffffffffffffffffffffffffffffffffffffffffffffff8114155b1561062a5761062a8533858403610e6e565b60019150505b9392505050565b60055460ff1690565b600061059e6116ac565b610652610ed6565b61065a611749565b6105628161175e565b7f000000000000000000000000000000000000000000000000000000000000000090565b3360008181526001602090815260408083206001600160a01b038716845290915281205490916105479185906106bd9086610e30565b610e6e565b6106ca610ed6565b6106d2611749565b6106dc82826117c9565b5050565b60085460009061059e9060c06118e1565b6000606061070786516107026118ef565b610e23565b61071c898989898989896119136119e3611a49565b97509795505050505050565b600061059e610735610565565b61074d610740610ab1565b6107486118ef565b611bd9565b90611bfd565b6001600160a01b0381166000908152602081905260409020545b919050565b6060808861079c6107816108cc565b6001600160a01b0316336001600160a01b03161460cd6115be565b6107b16107a7610663565b82146101f46115be565b60606107bb61101d565b90506107c78882611c4e565b60006060806107dc8e8e8e8e8e8e8a8f611913565b9250925092506107ec8d84611caf565b6107f682856119e3565b61080081856119e3565b909550935050505b5097509795505050505050565b6001600160a01b031660009081526006602052604090205490565b60007f0000000000000000000000000000000000000000000000000000000000000000826040516020016108659291906159be565b604051602081830303815290604052805190602001209050919050565b6000606061089386516107026118ef565b61071c89898989898989611cb9611d3f611a49565b7f000000000000000000000000000000000000000000000000000000000000000090565b7f000000000000000000000000000000000000000000000000000000000000000090565b60048054604080516020601f60027fffffffffffffffffffffffffffffffffffffffffffffffffffffffffffffffff61010060018816150201909516949094049384018190048102820181019092528281526060939092909183018282801561052f5780601f106105045761010080835404028352916020019161052f565b60095490565b6000806109858560200151611da0565b905060006109968660400151611da0565b90506000865160018111156109a757fe5b1415610a0d576109ba8660600151612541565b60608701526109c98583612562565b94506109d58482612562565b93506109e5866060015183612562565b606087015260006109f787878761256e565b9050610a0381836125a9565b9350505050610630565b610a178583612562565b9450610a238482612562565b9350610a33866060015182612562565b60608701526000610a458787876125b5565b9050610a5181846125e8565b9050610a03816125f4565b600080610a693385610de4565b9050808310610a8357610a7e33856000610e6e565b610a90565b610a903385858403610e6e565b5060019392505050565b60006105473384846115cc565b600061059e61261a565b60006060610abd6108cc565b6001600160a01b031663f94d4668610ad3610663565b6040518263ffffffff1660e01b8152600401610aef9190615aa3565b60006040518083038186803b158015610b0757600080fd5b505afa158015610b1b573d6000803e3d6000fd5b505050506040513d6000823e601f3d908101601f19168201604052610b43919081019061542f565b50915050610b5881610b5361101d565b611c4e565b6060610b62612694565b509050610b6f81836126c8565b9250505090565b610b848442111560d16115be565b6001600160a01b0387166000908152600660209081526040808320549051909291610bdb917f0000000000000000000000000000000000000000000000000000000000000000918c918c918c9188918d9101615acb565b6040516020818303038152906040528051906020012090506000610bfe8261273a565b9050600060018288888860405160008152602001604052604051610c259493929190615b5b565b6020604051602081039080840390855afa158015610c47573d6000803e3d6000fd5b5050604051601f1901519150610c8990506001600160a01b03821615801590610c8157508b6001600160a01b0316826001600160a01b0316145b6101f86115be565b6001600160a01b038b166000908152600660205260409020600185019055610cb28b8b8b610e6e565b5050505050505050505050565b60608088610cce6107816108cc565b610cd96107a7610663565b6060610ce361101d565b9050610ced610565565b610d945760006060610d028d8d8d868b612756565b91509150610d17620f424083101560cc6115be565b610d256000620f42406127f1565b610d348b620f424084036127f1565b610d3e8184611d3f565b80610d476118ef565b67ffffffffffffffff81118015610d5d57600080fd5b50604051908082528060200260200182016040528015610d87578160200160208202803683370190505b5095509550505050610808565b610d9e8882611c4e565b6000606080610db38e8e8e8e8e8e8a8f611cb9565b925092509250610dc38c846127f1565b610dcd8285611d3f565b610dd781856119e3565b9095509350610808915050565b6001600160a01b03918216600090815260016020908152604080832093909416825291909152205490565b606061059e6127fb565b806106dc81612d7c565b6106dc81831460676115be565b600082820161063084821015836115be565b67ffffffffffffffff811b1992909216911b1790565b6000610e688383111560016115be565b50900390565b6001600160a01b0380841660008181526001602090815260408083209487168084529490915290819020849055517f8c5be1e5ebec7d5bd14f71427d1e84f3dd0314c0f7b2291e5b200ac8c7c3b92590610ec9908590615aa3565b60405180910390a3505050565b6000610f056000357fffffffff0000000000000000000000000000000000000000000000000000000016610830565b9050610562610f148233612df5565b6101916115be565b8015610f3c57610f37610f2d610fd5565b42106101936115be565b610f51565b610f51610f47610ff9565b42106101a96115be565b600780547fffffffffffffffffffffffffffffffffffffffffffffffffffffffffffffff00168215151790556040517f9e3a5e37224532dea67b89face185703738a228a6e8a23dee546960180d3be6490610fad908390615a80565b60405180910390a150565b6000610fc2610ff9565b42118061059e57505060075460ff161590565b7f000000000000000000000000000000000000000000000000000000000000000090565b7f000000000000000000000000000000000000000000000000000000000000000090565b606060006110296118ef565b905060608167ffffffffffffffff8111801561104457600080fd5b5060405190808252806020026020018201604052801561106e578160200160208202803683370190505b50905081156110b6577f0000000000000000000000000000000000000000000000000000000000000000816000815181106110a557fe5b6020026020010181815250506110bf565b91506105379050565b60018211156110b6577f0000000000000000000000000000000000000000000000000000000000000000816001815181106110f657fe5b60200260200101818152505060028211156110b6577f00000000000000000000000000000000000000000000000000000000000000008160028151811061113957fe5b60200260200101818152505060038211156110b6577f00000000000000000000000000000000000000000000000000000000000000008160038151811061117c57fe5b60200260200101818152505060048211156110b6577f0000000000000000000000000000000000000000000000000000000000000000816004815181106111bf57fe5b60200260200101818152505060058211156110b6577f00000000000000000000000000000000000000000000000000000000000000008160058151811061120257fe5b60200260200101818152505060068211156110b6577f00000000000000000000000000000000000000000000000000000000000000008160068151811061124557fe5b60200260200101818152505060078211156110b6577f00000000000000000000000000000000000000000000000000000000000000008160078151811061128857fe5b60200260200101818152505060088211156110b6577f0000000000000000000000000000000000000000000000000000000000000000816008815181106112cb57fe5b60200260200101818152505060098211156110b6577f00000000000000000000000000000000000000000000000000000000000000008160098151811061130e57fe5b602002602001018181525050600a8211156110b6577f000000000000000000000000000000000000000000000000000000000000000081600a8151811061135157fe5b602002602001018181525050600b8211156110b6577f000000000000000000000000000000000000000000000000000000000000000081600b8151811061139457fe5b602002602001018181525050600c8211156110b6577f000000000000000000000000000000000000000000000000000000000000000081600c815181106113d757fe5b602002602001018181525050600d8211156110b6577f000000000000000000000000000000000000000000000000000000000000000081600d8151811061141a57fe5b602002602001018181525050600e8211156110b6577f000000000000000000000000000000000000000000000000000000000000000081600e8151811061145d57fe5b602002602001018181525050600f8211156110b6577f000000000000000000000000000000000000000000000000000000000000000081600f815181106114a057fe5b60200260200101818152505060108211156110b6577f0000000000000000000000000000000000000000000000000000000000000000816010815181106114e357fe5b60200260200101818152505060118211156110b6577f00000000000000000000000000000000000000000000000000000000000000008160118151811061152657fe5b60200260200101818152505060128211156110b6577f00000000000000000000000000000000000000000000000000000000000000008160128151811061156957fe5b60200260200101818152505060138211156110b6577f0000000000000000000000000000000000000000000000000000000000000000816013815181106115ac57fe5b60200260200101818152505091505090565b816106dc576106dc81612ee5565b6115e36001600160a01b03841615156101986115be565b6115fa6001600160a01b03831615156101996115be565b611605838383611a44565b6001600160a01b03831660009081526020819052604090205461162b90826101a0612f52565b6001600160a01b03808516600090815260208190526040808220939093559084168152205461165a9082610e30565b6001600160a01b0380841660008181526020819052604090819020939093559151908516907fddf252ad1be2c89b69c2b068fc378daa952ba7f163c4a11628f55a4df523b3ef90610ec9908590615aa3565b60007f00000000000000000000000000000000000000000000000000000000000000007f00000000000000000000000000000000000000000000000000000000000000007f0000000000000000000000000000000000000000000000000000000000000000611719612f68565b3060405160200161172e959493929190615aff565b60405160208183030381529060405280519060200120905090565b61175c611754610fb8565b6101926115be565b565b61177164e8d4a5100082101560cb6115be565b61178767016345785d8a000082111560ca6115be565b600854611796908260c0610e42565b6008556040517fa9ba3ffe0b6c366b81232caab38605a0699ad5398d6cce76f91ee809e322dafc90610fad908390615aa3565b60006117d3610663565b905060006117df6108cc565b6001600160a01b031663b05f8e4883866040518363ffffffff1660e01b815260040161180c929190615b44565b60806040518083038186803b15801561182457600080fd5b505afa158015611838573d6000803e3d6000fd5b505050506040513d601f19601f8201168201806040525081019061185c91906158f9565b6040517f18e736d40000000000000000000000000000000000000000000000000000000081529094506001600160a01b03851693506318e736d492506118a9915085908790600401615b2b565b600060405180830381600087803b1580156118c357600080fd5b505af11580156118d7573d6000803e3d6000fd5b5050505050505050565b1c67ffffffffffffffff1690565b7f000000000000000000000000000000000000000000000000000000000000000090565b600060608060606000611924612694565b91509150611930610fb8565b15611968576000611941838c6126c8565b90506119538b8484600954858e612f6c565b93506119628b85610e5861301d565b506119b4565b6119706118ef565b67ffffffffffffffff8111801561198657600080fd5b506040519080825280602002602001820160405280156119b0578160200160208202803683370190505b5092505b6119c08a838989613088565b90955093506119d08a85846130f7565b6009555050985098509895505050505050565b60005b6119ee6118ef565b811015611a4457611a25838281518110611a0457fe5b6020026020010151838381518110611a1857fe5b6020026020010151611bfd565b838281518110611a3157fe5b60209081029190910101526001016119e6565b505050565b333014611b38576000306001600160a01b0316600036604051611a6d9291906159ee565b6000604051808303816000865af19150503d8060008114611aaa576040519150601f19603f3d011682016040523d82523d6000602084013e611aaf565b606091505b505090508060008114611abe57fe5b60046000803e6000517fffffffff00000000000000000000000000000000000000000000000000000000167f43adbafb000000000000000000000000000000000000000000000000000000008114611b1a573d6000803e3d6000fd5b506020600460003e604060205260243d03602460403e601c3d016000f35b6060611b4261101d565b9050611b4e8782611c4e565b60006060611b668c8c8c8c8c8c898d8d63ffffffff16565b5091509150611b7981848663ffffffff16565b8051601f1982018390526343adbafb7fffffffffffffffffffffffffffffffffffffffffffffffffffffffffffffffc08301526020027fffffffffffffffffffffffffffffffffffffffffffffffffffffffffffffffdc82016044820181fd5b6000828202610630841580611bf6575083858381611bf357fe5b04145b60036115be565b6000611c0c82151560046115be565b82611c195750600061054b565b670de0b6b3a764000083810290611c3c90858381611c3357fe5b041460056115be565b828181611c4557fe5b0491505061054b565b60005b611c596118ef565b811015611a4457611c90838281518110611c6f57fe5b6020026020010151838381518110611c8357fe5b6020026020010151613110565b838281518110611c9c57fe5b6020908102919091010152600101611c51565b6106dc828261313c565b6000606080611cc6611749565b60606000611cd2612694565b915091506000611ce2838c6126c8565b90506060611cf68c8585600954868f612f6c565b9050611d058c82610e5861301d565b60006060611d158e878d8d6131f8565b91509150611d248e8288613253565b60095590975095509350505050985098509895505050505050565b60005b611d4a6118ef565b811015611a4457611d81838281518110611d6057fe5b6020026020010151838381518110611d7457fe5b6020026020010151613262565b838281518110611d8d57fe5b6020908102919091010152600101611d42565b60007f00000000000000000000000000000000000000000000000000000000000000006001600160a01b0316826001600160a01b03161415611e0357507f000000000000000000000000000000000000000000000000000000000000000061076d565b7f00000000000000000000000000000000000000000000000000000000000000006001600160a01b0316826001600160a01b03161415611e6457507f000000000000000000000000000000000000000000000000000000000000000061076d565b7f00000000000000000000000000000000000000000000000000000000000000006001600160a01b0316826001600160a01b03161415611ec557507f000000000000000000000000000000000000000000000000000000000000000061076d565b7f00000000000000000000000000000000000000000000000000000000000000006001600160a01b0316826001600160a01b03161415611f2657507f000000000000000000000000000000000000000000000000000000000000000061076d565b7f00000000000000000000000000000000000000000000000000000000000000006001600160a01b0316826001600160a01b03161415611f8757507f000000000000000000000000000000000000000000000000000000000000000061076d565b7f00000000000000000000000000000000000000000000000000000000000000006001600160a01b0316826001600160a01b03161415611fe857507f000000000000000000000000000000000000000000000000000000000000000061076d565b7f00000000000000000000000000000000000000000000000000000000000000006001600160a01b0316826001600160a01b0316141561204957507f000000000000000000000000000000000000000000000000000000000000000061076d565b7f00000000000000000000000000000000000000000000000000000000000000006001600160a01b0316826001600160a01b031614156120aa57507f000000000000000000000000000000000000000000000000000000000000000061076d565b7f00000000000000000000000000000000000000000000000000000000000000006001600160a01b0316826001600160a01b0316141561210b57507f000000000000000000000000000000000000000000000000000000000000000061076d565b7f00000000000000000000000000000000000000000000000000000000000000006001600160a01b0316826001600160a01b0316141561216c57507f000000000000000000000000000000000000000000000000000000000000000061076d565b7f00000000000000000000000000000000000000000000000000000000000000006001600160a01b0316826001600160a01b031614156121cd57507f000000000000000000000000000000000000000000000000000000000000000061076d565b7f00000000000000000000000000000000000000000000000000000000000000006001600160a01b0316826001600160a01b0316141561222e57507f000000000000000000000000000000000000000000000000000000000000000061076d565b7f00000000000000000000000000000000000000000000000000000000000000006001600160a01b0316826001600160a01b0316141561228f57507f000000000000000000000000000000000000000000000000000000000000000061076d565b7f00000000000000000000000000000000000000000000000000000000000000006001600160a01b0316826001600160a01b031614156122f057507f000000000000000000000000000000000000000000000000000000000000000061076d565b7f00000000000000000000000000000000000000000000000000000000000000006001600160a01b0316826001600160a01b0316141561235157507f000000000000000000000000000000000000000000000000000000000000000061076d565b7f00000000000000000000000000000000000000000000000000000000000000006001600160a01b0316826001600160a01b031614156123b257507f000000000000000000000000000000000000000000000000000000000000000061076d565b7f00000000000000000000000000000000000000000000000000000000000000006001600160a01b0316826001600160a01b0316141561241357507f000000000000000000000000000000000000000000000000000000000000000061076d565b7f00000000000000000000000000000000000000000000000000000000000000006001600160a01b0316826001600160a01b0316141561247457507f000000000000000000000000000000000000000000000000000000000000000061076d565b7f00000000000000000000000000000000000000000000000000000000000000006001600160a01b0316826001600160a01b031614156124d557507f000000000000000000000000000000000000000000000000000000000000000061076d565b7f00000000000000000000000000000000000000000000000000000000000000006001600160a01b0316826001600160a01b0316141561253657507f000000000000000000000000000000000000000000000000000000000000000061076d565b61076d610135612ee5565b60008061255661254f6106e0565b84906132b0565b90506106308382610e58565b60006106308383613110565b6000612578611749565b6125a183612589866020015161330a565b84612597886040015161330a565b8860600151613aa0565b949350505050565b60006106308383611bfd565b60006125bf611749565b6125a1836125d0866020015161330a565b846125de886040015161330a565b8860600151613b1d565b60006106308383613262565b600061054b6126136126046106e0565b670de0b6b3a764000090610e58565b8390613262565b60006126246108cc565b6001600160a01b031663aaabadc56040518163ffffffff1660e01b815260040160206040518083038186803b15801561265c57600080fd5b505afa158015612670573d6000803e3d6000fd5b505050506040513d601f19601f8201168201806040525081019061059e9190615670565b606060006126a06127fb565b927f000000000000000000000000000000000000000000000000000000000000000092509050565b670de0b6b3a764000060005b835181101561272a576127206127198583815181106126ef57fe5b602002602001015185848151811061270357fe5b6020026020010151613b9390919063ffffffff16565b8390613110565b91506001016126d4565b5061054b600082116101376115be565b60006127446116ac565b826040516020016108659291906159fe565b60006060612762611749565b600061276d84613be2565b9050612788600082600281111561278057fe5b1460ce6115be565b606061279385613bf8565b90506127a76127a06118ef565b8251610e23565b6127b18187611c4e565b60606127bb612694565b50905060006127ca82846126c8565b905060006127da826107486118ef565b600992909255509a91995090975050505050505050565b6106dc8282613c0e565b606060006128076118ef565b905060608167ffffffffffffffff8111801561282257600080fd5b5060405190808252806020026020018201604052801561284c578160200160208202803683370190505b50905081156110b6577f00000000000000000000000000000000000000000000000000000000000000008160008151811061288357fe5b60200260200101818152505060018211156110b6577f0000000000000000000000000000000000000000000000000000000000000000816001815181106128c657fe5b60200260200101818152505060028211156110b6577f00000000000000000000000000000000000000000000000000000000000000008160028151811061290957fe5b60200260200101818152505060038211156110b6577f00000000000000000000000000000000000000000000000000000000000000008160038151811061294c57fe5b60200260200101818152505060048211156110b6577f00000000000000000000000000000000000000000000000000000000000000008160048151811061298f57fe5b60200260200101818152505060058211156110b6577f0000000000000000000000000000000000000000000000000000000000000000816005815181106129d257fe5b60200260200101818152505060068211156110b6577f000000000000000000000000000000000000000000000000000000000000000081600681518110612a1557fe5b60200260200101818152505060078211156110b6577f000000000000000000000000000000000000000000000000000000000000000081600781518110612a5857fe5b60200260200101818152505060088211156110b6577f000000000000000000000000000000000000000000000000000000000000000081600881518110612a9b57fe5b60200260200101818152505060098211156110b6577f000000000000000000000000000000000000000000000000000000000000000081600981518110612ade57fe5b602002602001018181525050600a8211156110b6577f000000000000000000000000000000000000000000000000000000000000000081600a81518110612b2157fe5b602002602001018181525050600b8211156110b6577f000000000000000000000000000000000000000000000000000000000000000081600b81518110612b6457fe5b602002602001018181525050600c8211156110b6577f000000000000000000000000000000000000000000000000000000000000000081600c81518110612ba757fe5b602002602001018181525050600d8211156110b6577f000000000000000000000000000000000000000000000000000000000000000081600d81518110612bea57fe5b602002602001018181525050600e8211156110b6577f000000000000000000000000000000000000000000000000000000000000000081600e81518110612c2d57fe5b602002602001018181525050600f8211156110b6577f000000000000000000000000000000000000000000000000000000000000000081600f81518110612c7057fe5b60200260200101818152505060108211156110b6577f000000000000000000000000000000000000000000000000000000000000000081601081518110612cb357fe5b60200260200101818152505060118211156110b6577f000000000000000000000000000000000000000000000000000000000000000081601181518110612cf657fe5b60200260200101818152505060128211156110b6577f000000000000000000000000000000000000000000000000000000000000000081601281518110612d3957fe5b60200260200101818152505060138211156110b6577f0000000000000000000000000000000000000000000000000000000000000000816013815181106115ac57fe5b600281511015612d8b57610562565b600081600081518110612d9a57fe5b602002602001015190506000600190505b8251811015611a44576000838281518110612dc257fe5b60200260200101519050612deb816001600160a01b0316846001600160a01b03161060656115be565b9150600101612dab565b600073ba1ba1ba1ba1ba1ba1ba1ba1ba1ba1ba1ba1ba1b612e146108a8565b6001600160a01b031614158015612e2f5750612e2f83613c9c565b15612e5757612e3c6108a8565b6001600160a01b0316336001600160a01b031614905061054b565b612e5f61261a565b6001600160a01b0316639be2a8848484306040518463ffffffff1660e01b8152600401612e8e93929190615aac565b60206040518083038186803b158015612ea657600080fd5b505afa158015612eba573d6000803e3d6000fd5b505050506040513d601f19601f82011682018060405250810190612ede9190615517565b905061054b565b7f08c379a0000000000000000000000000000000000000000000000000000000006000908152602060045260076024526642414c23000030600a808404818106603090810160081b95839006959095019082900491820690940160101b939093010160c81b604452606490fd5b6000612f6184841115836115be565b5050900390565b4690565b606080612f776118ef565b67ffffffffffffffff81118015612f8d57600080fd5b50604051908082528060200260200182016040528015612fb7578160200160208202803683370190505b50905082612fc6579050613013565b612ff9888781518110612fd557fe5b6020026020010151888881518110612fe957fe5b6020026020010151878787613d00565b81878151811061300557fe5b602090810291909101015290505b9695505050505050565b60005b6130286118ef565b8110156130825761306384828151811061303e57fe5b602002602001015184838151811061305257fe5b60200260200101518463ffffffff16565b84828151811061306f57fe5b6020908102919091010152600101613020565b50505050565b60006060600061309784613be2565b905060008160028111156130a757fe5b14156130c2576130b8878786613d78565b92509250506130ee565b60018160028111156130d057fe5b14156130e0576130b88785613e5b565b6130b887878787613e8d565b505b94509492505050565b60006131068484610e5861301d565b6125a182856126c8565b600082820261312a841580611bf6575083858381611bf357fe5b670de0b6b3a764000090049392505050565b6131536001600160a01b038316151561019b6115be565b61315f82600083611a44565b6001600160a01b03821660009081526020819052604090205461318590826101a1612f52565b6001600160a01b0383166000908152602081905260409020556002546131ab9082613efc565b6002556040516000906001600160a01b038416907fddf252ad1be2c89b69c2b068fc378daa952ba7f163c4a11628f55a4df523b3ef906131ec908590615aa3565b60405180910390a35050565b60006060600061320784613be2565b9050600181600281111561321757fe5b1415613229576130b887878787613f0a565b600281600281111561323757fe5b1415613248576130b8878786613f67565b6130ec610136612ee5565b60006131068484610e3061301d565b600061327182151560046115be565b8261327e5750600061054b565b670de0b6b3a76400008381029061329890858381611c3357fe5b8260018203816132a457fe5b0460010191505061054b565b60008282026132ca841580611bf6575083858381611bf357fe5b806132d957600091505061054b565b670de0b6b3a76400007fffffffffffffffffffffffffffffffffffffffffffffffffffffffffffffffff82016132a4565b60007f00000000000000000000000000000000000000000000000000000000000000006001600160a01b0316826001600160a01b0316141561336d57507f000000000000000000000000000000000000000000000000000000000000000061076d565b7f00000000000000000000000000000000000000000000000000000000000000006001600160a01b0316826001600160a01b031614156133ce57507f000000000000000000000000000000000000000000000000000000000000000061076d565b7f00000000000000000000000000000000000000000000000000000000000000006001600160a01b0316826001600160a01b0316141561342f57507f000000000000000000000000000000000000000000000000000000000000000061076d565b7f00000000000000000000000000000000000000000000000000000000000000006001600160a01b0316826001600160a01b0316141561349057507f000000000000000000000000000000000000000000000000000000000000000061076d565b7f00000000000000000000000000000000000000000000000000000000000000006001600160a01b0316826001600160a01b031614156134f157507f000000000000000000000000000000000000000000000000000000000000000061076d565b7f00000000000000000000000000000000000000000000000000000000000000006001600160a01b0316826001600160a01b0316141561355257507f000000000000000000000000000000000000000000000000000000000000000061076d565b7f00000000000000000000000000000000000000000000000000000000000000006001600160a01b0316826001600160a01b031614156135b357507f000000000000000000000000000000000000000000000000000000000000000061076d565b7f00000000000000000000000000000000000000000000000000000000000000006001600160a01b0316826001600160a01b0316141561361457507f000000000000000000000000000000000000000000000000000000000000000061076d565b7f00000000000000000000000000000000000000000000000000000000000000006001600160a01b0316826001600160a01b0316141561367557507f000000000000000000000000000000000000000000000000000000000000000061076d565b7f00000000000000000000000000000000000000000000000000000000000000006001600160a01b0316826001600160a01b031614156136d657507f000000000000000000000000000000000000000000000000000000000000000061076d565b7f00000000000000000000000000000000000000000000000000000000000000006001600160a01b0316826001600160a01b0316141561373757507f000000000000000000000000000000000000000000000000000000000000000061076d565b7f00000000000000000000000000000000000000000000000000000000000000006001600160a01b0316826001600160a01b0316141561379857507f000000000000000000000000000000000000000000000000000000000000000061076d565b7f00000000000000000000000000000000000000000000000000000000000000006001600160a01b0316826001600160a01b031614156137f957507f000000000000000000000000000000000000000000000000000000000000000061076d565b7f00000000000000000000000000000000000000000000000000000000000000006001600160a01b0316826001600160a01b0316141561385a57507f000000000000000000000000000000000000000000000000000000000000000061076d565b7f00000000000000000000000000000000000000000000000000000000000000006001600160a01b0316826001600160a01b031614156138bb57507f000000000000000000000000000000000000000000000000000000000000000061076d565b7f00000000000000000000000000000000000000000000000000000000000000006001600160a01b0316826001600160a01b0316141561391c57507f000000000000000000000000000000000000000000000000000000000000000061076d565b7f00000000000000000000000000000000000000000000000000000000000000006001600160a01b0316826001600160a01b0316141561397d57507f000000000000000000000000000000000000000000000000000000000000000061076d565b7f00000000000000000000000000000000000000000000000000000000000000006001600160a01b0316826001600160a01b031614156139de57507f000000000000000000000000000000000000000000000000000000000000000061076d565b7f00000000000000000000000000000000000000000000000000000000000000006001600160a01b0316826001600160a01b03161415613a3f57507f000000000000000000000000000000000000000000000000000000000000000061076d565b7f00000000000000000000000000000000000000000000000000000000000000006001600160a01b0316826001600160a01b0316141561253657507f000000000000000000000000000000000000000000000000000000000000000061076d565b6000613ac2613ab787670429d069189e0000613110565b8311156101306115be565b6000613ace8784610e30565b90506000613adc8883613262565b90506000613aea8887611bfd565b90506000613af88383614014565b9050613b0d613b0682614040565b8990613110565b9450505050505b95945050505050565b6000613b3f613b3485670429d069189e0000613110565b8311156101316115be565b6000613b55613b4e8685610e58565b8690613262565b90506000613b638588613262565b90506000613b718383614014565b90506000613b8782670de0b6b3a7640000610e58565b9050613b0d8a826132b0565b600080613ba08484614066565b90506000613bba613bb3836127106132b0565b6001610e30565b905080821015613bcf5760009250505061054b565b613bd98282610e58565b9250505061054b565b60008180602001905181019061054b91906156da565b60608180602001905181019061063091906157a0565b613c1a60008383611a44565b600254613c279082610e30565b6002556001600160a01b038216600090815260208190526040902054613c4d9082610e30565b6001600160a01b0383166000818152602081905260408082209390935591519091907fddf252ad1be2c89b69c2b068fc378daa952ba7f163c4a11628f55a4df523b3ef906131ec908590615aa3565b6000613cc77f38e9922e00000000000000000000000000000000000000000000000000000000610830565b82148061054b5750613cf87f50dd6ed900000000000000000000000000000000000000000000000000000000610830565b909114919050565b6000838311613d1157506000613b14565b6000613d1d8585613262565b90506000613d33670de0b6b3a764000088611bfd565b9050613d47826709b6e64a8ec60000614199565b91506000613d558383614014565b90506000613d6c613d6583614040565b8b90613110565b9050613b0d8187613110565b60006060613d84611749565b600080613d90856141b0565b91509150613da8613d9f6118ef565b821060646115be565b6060613db26118ef565b67ffffffffffffffff81118015613dc857600080fd5b50604051908082528060200260200182016040528015613df2578160200160208202803683370190505b509050613e36888381518110613e0457fe5b6020026020010151888481518110613e1857fe5b602002602001015185613e29610565565b613e316106e0565b6141d2565b818381518110613e4257fe5b6020908102919091010152919791965090945050505050565b600060606000613e6a84614298565b90506060613e808683613e7b610565565b6142ae565b9196919550909350505050565b60006060613e99611749565b60606000613ea685614360565b91509150613eb782516107026118ef565b613ec18287611c4e565b6000613ede898985613ed1610565565b613ed96106e0565b614378565b9050613eee8282111560cf6115be565b989197509095505050505050565b600061063083836001612f52565b60006060806000613f1a85614360565b91509150613f30613f296118ef565b8351610e23565b613f3a8287611c4e565b6000613f57898985613f4a610565565b613f526106e0565b6145a6565b9050613eee8282101560d06115be565b60006060600080613f77856141b0565b91509150613f86613d9f6118ef565b6060613f906118ef565b67ffffffffffffffff81118015613fa657600080fd5b50604051908082528060200260200182016040528015613fd0578160200160208202803683370190505b509050613e36888381518110613fe257fe5b6020026020010151888481518110613ff657fe5b602002602001015185614007610565565b61400f6106e0565b6147b8565b6000806140218484614066565b90506000614034613bb3836127106132b0565b9050613b148282610e30565b6000670de0b6b3a7640000821061405857600061054b565b50670de0b6b3a76400000390565b60008161407c5750670de0b6b3a764000061054b565b826140895750600061054b565b6140b67f8000000000000000000000000000000000000000000000000000000000000000841060066115be565b826140dc770bce5086492111aea88f4bb1ca6bcf584181ea8059f76532841060076115be565b826000670c7d713b49da0000831380156140fd5750670f43fc2c04ee000083125b1561413457600061410d84614863565b9050670de0b6b3a764000080820784020583670de0b6b3a764000083050201915050614142565b8161413e8461499a565b0290505b670de0b6b3a764000090056141907ffffffffffffffffffffffffffffffffffffffffffffffffdc702bd3a30fc00008212801590614189575068070c1cc73b00c800008213155b60086115be565b61301381614d3a565b6000818310156141a95781610630565b5090919050565b600080828060200190518101906141c7919061576a565b909590945092505050565b6000806141e9846141e38188610e58565b90613262565b90506142026709b6e64a8ec600008210156101326115be565b6000614220614219670de0b6b3a764000089611bfd565b8390614014565b9050600061423761423083614040565b8a90613110565b9050600061424489614040565b9050600061425283836132b0565b905060006142608483610e58565b905061428861428161427a670de0b6b3a76400008b610e58565b8490613110565b8290610e30565b9c9b505050505050505050505050565b600081806020019051810190610630919061573d565b606060006142bc8484611bfd565b90506060855167ffffffffffffffff811180156142d857600080fd5b50604051908082528060200260200182016040528015614302578160200160208202803683370190505b50905060005b8651811015614356576143378388838151811061432157fe5b602002602001015161311090919063ffffffff16565b82828151811061434357fe5b6020908102919091010152600101614308565b5095945050505050565b60606000828060200190518101906141c791906156f6565b60006060845167ffffffffffffffff8111801561439457600080fd5b506040519080825280602002602001820160405280156143be578160200160208202803683370190505b5090506000805b88518110156144835761441e8982815181106143dd57fe5b60200260200101516141e38984815181106143f457fe5b60200260200101518c858151811061440857fe5b6020026020010151610e5890919063ffffffff16565b83828151811061442a57fe5b60200260200101818152505061447961447289838151811061444857fe5b602002602001015185848151811061445c57fe5b60200260200101516132b090919063ffffffff16565b8390610e30565b91506001016143c5565b50670de0b6b3a764000060005b89518110156145855760008482815181106144a757fe5b60200260200101518411156145075760006144d06144c486614040565b8d858151811061432157fe5b905060006144e4828c868151811061440857fe5b90506144fe614472612613670de0b6b3a76400008c610e58565b9250505061451e565b88828151811061451357fe5b602002602001015190505b60006145478c848151811061452f57fe5b602002602001015161074d848f878151811061440857fe5b90506145796145728c858151811061455b57fe5b602002602001015183613b9390919063ffffffff16565b8590613110565b93505050600101614490565b5061459961459282614040565b87906132b0565b9998505050505050505050565b60006060845167ffffffffffffffff811180156145c257600080fd5b506040519080825280602002602001820160405280156145ec578160200160208202803683370190505b5090506000805b88518110156146945761464c89828151811061460b57fe5b602002602001015161074d89848151811061462257fe5b60200260200101518c858151811061463657fe5b6020026020010151610e3090919063ffffffff16565b83828151811061465857fe5b60200260200101818152505061468a61447289838151811061467657fe5b602002602001015185848151811061432157fe5b91506001016145f3565b50670de0b6b3a764000060005b8951811015614775576000838583815181106146b957fe5b602002602001015111156147155760006146de6144c486670de0b6b3a7640000610e58565b905060006146f2828c868151811061440857fe5b905061470c614472612719670de0b6b3a76400008c610e58565b9250505061472c565b88828151811061472157fe5b602002602001015190505b60006147558c848151811061473d57fe5b602002602001015161074d848f878151811061463657fe5b90506147696145728c858151811061455b57fe5b935050506001016146a1565b50670de0b6b3a76400008111156147ac576147a261479b82670de0b6b3a7640000610e58565b8790613110565b9350505050613b14565b60009350505050613b14565b6000806147c9846141e38188610e30565b90506147e26729a2241af62c00008211156101336115be565b60006147f9614219670de0b6b3a764000089613262565b9050600061481961481283670de0b6b3a7640000610e58565b8a906132b0565b9050600061482689614040565b9050600061483483836132b0565b905060006148428483610e58565b905061428861428161485c670de0b6b3a76400008b610e58565b8490613262565b670de0b6b3a7640000026000806ec097ce7bc90715b34b9f1000000000808401907fffffffffffffffffffffffffffffffffff3f68318436f8ea4cb460f000000000850102816148af57fe5b05905060006ec097ce7bc90715b34b9f100000000082800205905081806ec097ce7bc90715b34b9f100000000081840205915060038205016ec097ce7bc90715b34b9f100000000082840205915060058205016ec097ce7bc90715b34b9f100000000082840205915060078205016ec097ce7bc90715b34b9f100000000082840205915060098205016ec097ce7bc90715b34b9f1000000000828402059150600b8205016ec097ce7bc90715b34b9f1000000000828402059150600d8205016ec097ce7bc90715b34b9f1000000000828402059150600f826002919005919091010295945050505050565b6000670de0b6b3a76400008212156149d7576149cd826ec097ce7bc90715b34b9f1000000000816149c757fe5b0561499a565b600003905061076d565b60007e1600ef3172e58d2e933ec884fde10064c63b5372d805e203c00000000000008312614a2857770195e54c5dd42177f53a27172fa9ec630262827000000000830592506806f05b59d3b2000000015b73011798004d755d3c8bc8e03204cf44619e0000008312614a60576b1425982cf597cd205cef7380830592506803782dace9d9000000015b606492830292026e01855144814a7ff805980ff00840008312614aa8576e01855144814a7ff805980ff008400068056bc75e2d63100000840205925068ad78ebc5ac62000000015b6b02df0ab5a80a22c61ab5a7008312614ae3576b02df0ab5a80a22c61ab5a70068056bc75e2d6310000084020592506856bc75e2d631000000015b693f1fce3da636ea5cf8508312614b1a57693f1fce3da636ea5cf85068056bc75e2d631000008402059250682b5e3af16b18800000015b690127fa27722cc06cc5e28312614b5157690127fa27722cc06cc5e268056bc75e2d6310000084020592506815af1d78b58c400000015b68280e60114edb805d038312614b865768280e60114edb805d0368056bc75e2d631000008402059250680ad78ebc5ac6200000015b680ebc5fb417461211108312614bb157680ebc5fb4174612111068056bc75e2d631000009384020592015b6808f00f760a4b2db55d8312614be6576808f00f760a4b2db55d68056bc75e2d6310000084020592506802b5e3af16b1880000015b6806f5f17757889379378312614c1b576806f5f177578893793768056bc75e2d63100000840205925068015af1d78b58c40000015b6806248f33704b2866038312614c4f576806248f33704b28660368056bc75e2d63100000840205925067ad78ebc5ac620000015b6805c548670b9510e7ac8312614c83576805c548670b9510e7ac68056bc75e2d6310000084020592506756bc75e2d6310000015b600068056bc75e2d63100000840168056bc75e2d631000008086030281614ca657fe5b059050600068056bc75e2d63100000828002059050818068056bc75e2d63100000818402059150600382050168056bc75e2d63100000828402059150600582050168056bc75e2d63100000828402059150600782050168056bc75e2d63100000828402059150600982050168056bc75e2d63100000828402059150600b820501600202606485820105979650505050505050565b6000614d7f7ffffffffffffffffffffffffffffffffffffffffffffffffdc702bd3a30fc00008312158015614d78575068070c1cc73b00c800008313155b60096115be565b6000821215614db357614d9482600003614d3a565b6ec097ce7bc90715b34b9f100000000081614dab57fe5b05905061076d565b60006806f05b59d3b20000008312614e0957507ffffffffffffffffffffffffffffffffffffffffffffffff90fa4a62c4e00000090910190770195e54c5dd42177f53a27172fa9ec630262827000000000614e55565b6803782dace9d90000008312614e5157507ffffffffffffffffffffffffffffffffffffffffffffffffc87d2531627000000909101906b1425982cf597cd205cef7380614e55565b5060015b6064929092029168056bc75e2d6310000068ad78ebc5ac620000008412614ebb577fffffffffffffffffffffffffffffffffffffffffffffff5287143a539e0000009093019268056bc75e2d631000006e01855144814a7ff805980ff008400082020590505b6856bc75e2d6310000008412614f0d577fffffffffffffffffffffffffffffffffffffffffffffffa9438a1d29cf0000009093019268056bc75e2d631000006b02df0ab5a80a22c61ab5a70082020590505b682b5e3af16b188000008412614f5d577fffffffffffffffffffffffffffffffffffffffffffffffd4a1c50e94e78000009093019268056bc75e2d63100000693f1fce3da636ea5cf85082020590505b6815af1d78b58c4000008412614fad577fffffffffffffffffffffffffffffffffffffffffffffffea50e2874a73c000009093019268056bc75e2d63100000690127fa27722cc06cc5e282020590505b680ad78ebc5ac62000008412614ffc577ffffffffffffffffffffffffffffffffffffffffffffffff5287143a539e000009093019268056bc75e2d6310000068280e60114edb805d0382020590505b68056bc75e2d63100000841261504b577ffffffffffffffffffffffffffffffffffffffffffffffffa9438a1d29cf000009093019268056bc75e2d63100000680ebc5fb4174612111082020590505b6802b5e3af16b1880000841261509a577ffffffffffffffffffffffffffffffffffffffffffffffffd4a1c50e94e7800009093019268056bc75e2d631000006808f00f760a4b2db55d82020590505b68015af1d78b58c4000084126150e9577ffffffffffffffffffffffffffffffffffffffffffffffffea50e2874a73c00009093019268056bc75e2d631000006806f5f177578893793782020590505b68056bc75e2d631000008481019085906002908280020505918201919050600368056bc75e2d631000008783020505918201919050600468056bc75e2d631000008783020505918201919050600568056bc75e2d631000008783020505918201919050600668056bc75e2d631000008783020505918201919050600768056bc75e2d631000008783020505918201919050600868056bc75e2d631000008783020505918201919050600968056bc75e2d631000008783020505918201919050600a68056bc75e2d631000008783020505918201919050600b68056bc75e2d631000008783020505918201919050600c68056bc75e2d631000008783020505918201919050606468056bc75e2d63100000848402058502059695505050505050565b803561054b81615bfa565b600082601f830112615225578081fd5b815161523861523382615bda565b615bb3565b81815291506020808301908481018184028601820187101561525957600080fd5b60005b848110156152785781518452928201929082019060010161525c565b505050505092915050565b600082601f830112615293578081fd5b813567ffffffffffffffff8111156152a9578182fd5b6152bc6020601f19601f84011601615bb3565b91508082528360208285010111156152d357600080fd5b8060208401602084013760009082016020015292915050565b80356002811061054b57600080fd5b60006020828403121561530c578081fd5b813561063081615bfa565b60008060408385031215615329578081fd5b823561533481615bfa565b9150602083013561534481615bfa565b809150509250929050565b600080600060608486031215615363578081fd5b833561536e81615bfa565b9250602084013561537e81615bfa565b929592945050506040919091013590565b600080600080600080600060e0888a0312156153a9578283fd5b87356153b481615bfa565b965060208801356153c481615bfa565b95506040880135945060608801359350608088013560ff811681146153e7578384fd5b9699959850939692959460a0840135945060c09093013592915050565b60008060408385031215615416578182fd5b823561542181615bfa565b946020939093013593505050565b600080600060608486031215615443578081fd5b835167ffffffffffffffff8082111561545a578283fd5b818601915086601f83011261546d578283fd5b815161547b61523382615bda565b80828252602080830192508086018b82838702890101111561549b578788fd5b8796505b848710156154c65780516154b281615bfa565b84526001969096019592810192810161549f565b5089015190975093505050808211156154dd578283fd5b506154ea86828701615215565b925050604084015190509250925092565b60006020828403121561550c578081fd5b813561063081615c0f565b600060208284031215615528578081fd5b815161063081615c0f565b600080600080600080600060e0888a03121561554d578081fd5b8735965060208089013561556081615bfa565b9650604089013561557081615bfa565b9550606089013567ffffffffffffffff8082111561558c578384fd5b818b0191508b601f83011261559f578384fd5b81356155ad61523382615bda565b8082825285820191508585018f8788860288010111156155cb578788fd5b8795505b838610156155ed5780358352600195909501949186019186016155cf565b509850505060808b0135955060a08b0135945060c08b0135925080831115615613578384fd5b50506156218a828b01615283565b91505092959891949750929550565b600060208284031215615641578081fd5b81357fffffffff0000000000000000000000000000000000000000000000000000000081168114610630578182fd5b600060208284031215615681578081fd5b815161063081615bfa565b6000806040838503121561569e578182fd5b82356156a981615bfa565b9150602083013567ffffffffffffffff8111156156c4578182fd5b6156d085828601615283565b9150509250929050565b6000602082840312156156eb578081fd5b815161063081615c1d565b60008060006060848603121561570a578081fd5b835161571581615c1d565b602085015190935067ffffffffffffffff811115615731578182fd5b6154ea86828701615215565b6000806040838503121561574f578182fd5b825161575a81615c1d565b6020939093015192949293505050565b60008060006060848603121561577e578081fd5b835161578981615c1d565b602085015160409095015190969495509392505050565b600080604083850312156157b2578182fd5b82516157bd81615c1d565b602084015190925067ffffffffffffffff8111156157d9578182fd5b6156d085828601615215565b6000806000606084860312156157f9578081fd5b833567ffffffffffffffff80821115615810578283fd5b8186019150610120808389031215615826578384fd5b61582f81615bb3565b905061583b88846152ec565b815261584a886020850161520a565b602082015261585c886040850161520a565b6040820152606083013560608201526080830135608082015260a083013560a082015261588c8860c0850161520a565b60c082015261589e8860e0850161520a565b60e082015261010080840135838111156158b6578586fd5b6158c28a828701615283565b9183019190915250976020870135975060409096013595945050505050565b6000602082840312156158f2578081fd5b5035919050565b6000806000806080858703121561590e578182fd5b845193506020850151925060408501519150606085015161592e81615bfa565b939692955090935050565b6000815180845260208085019450808401835b838110156159685781518752958201959082019060010161594c565b509495945050505050565b60008151808452815b818110156159985760208185018101518683018201520161597c565b818111156159a95782602083870101525b50601f01601f19169290920160200192915050565b9182527fffffffff0000000000000000000000000000000000000000000000000000000016602082015260240190565b6000828483379101908152919050565b7f190100000000000000000000000000000000000000000000000000000000000081526002810192909252602282015260420190565b6001600160a01b0391909116815260200190565b6000602082526106306020830184615939565b600060408252615a6e6040830185615939565b8281036020840152613b148185615939565b901515815260200190565b92151583526020830191909152604082015260600190565b90815260200190565b9283526001600160a01b03918216602084015216604082015260600190565b9586526001600160a01b0394851660208701529290931660408501526060840152608083019190915260a082015260c00190565b9485526020850193909352604084019190915260608301526001600160a01b0316608082015260a00190565b6000838252604060208301526125a16040830184615973565b9182526001600160a01b0316602082015260400190565b93845260ff9290921660208401526040830152606082015260800190565b6000602082526106306020830184615973565b6000838252604060208301526125a16040830184615939565b60ff91909116815260200190565b60405181810167ffffffffffffffff81118282101715615bd257600080fd5b604052919050565b600067ffffffffffffffff821115615bf0578081fd5b5060209081020190565b6001600160a01b038116811461056257600080fd5b801515811461056257600080fd5b6003811061056257600080fdfea26469706673582212208be754778b0c2009aba3c96e23d400a206d13ea74158d0bbb9acfa4e567e206964736f6c63430007010033",
  "linkReferences": {},
  "deployedLinkReferences": {}
}