{
  "_format": "hh-sol-artifact-1",
  "contractName": "StablePoolFactory",
  "sourceName": "contracts/StablePoolFactory.sol",
  "abi": [
    {
      "inputs": [
        {
          "internalType": "contract IVault",
          "name": "vault",
          "type": "address"
        }
      ],
      "stateMutability": "nonpayable",
      "type": "constructor"
    },
    {
      "anonymous": false,
      "inputs": [
        {
          "indexed": true,
          "internalType": "address",
          "name": "pool",
          "type": "address"
        }
      ],
      "name": "PoolCreated",
      "type": "event"
    },
    {
      "inputs": [
        {
          "internalType": "string",
          "name": "name",
          "type": "string"
        },
        {
          "internalType": "string",
          "name": "symbol",
          "type": "string"
        },
        {
          "internalType": "contract IERC20[]",
          "name": "tokens",
          "type": "address[]"
        },
        {
          "internalType": "uint256",
          "name": "amplificationParameter",
          "type": "uint256"
        },
        {
          "internalType": "uint256",
          "name": "swapFeePercentage",
          "type": "uint256"
        },
        {
          "internalType": "address",
          "name": "owner",
          "type": "address"
        }
      ],
      "name": "create",
      "outputs": [
        {
          "internalType": "address",
          "name": "",
          "type": "address"
        }
      ],
      "stateMutability": "nonpayable",
      "type": "function"
    },
    {
      "inputs": [],
      "name": "getPauseConfiguration",
      "outputs": [
        {
          "internalType": "uint256",
          "name": "pauseWindowDuration",
          "type": "uint256"
        },
        {
          "internalType": "uint256",
          "name": "bufferPeriodDuration",
          "type": "uint256"
        }
      ],
      "stateMutability": "view",
      "type": "function"
    },
    {
      "inputs": [],
      "name": "getVault",
      "outputs": [
        {
          "internalType": "contract IVault",
          "name": "",
          "type": "address"
        }
      ],
      "stateMutability": "view",
      "type": "function"
    },
    {
      "inputs": [
        {
          "internalType": "address",
          "name": "pool",
          "type": "address"
        }
      ],
      "name": "isPoolFromFactory",
      "outputs": [
        {
          "internalType": "bool",
          "name": "",
          "type": "bool"
        }
      ],
      "stateMutability": "view",
      "type": "function"
    }
  ],
  "bytecode": "0x60c060405234801561001057600080fd5b50604051615af6380380615af683398101604081905261002f9161004d565b60601b6001600160601b0319166080526276a700420160a05261007b565b60006020828403121561005e578081fd5b81516001600160a01b0381168114610074578182fd5b9392505050565b60805160601c60a051615a516100a56000398060d652806101005250806101ea5250615a516000f3fe60806040523480156200001157600080fd5b5060043610620000525760003560e01c80632da47c4014620000575780636634b753146200007a5780637932c7f314620000a05780638d928af814620000c6575b600080fd5b62000061620000d0565b60405162000071929190620005f4565b60405180910390f35b620000916200008b36600462000330565b6200013c565b60405162000071919062000522565b620000b7620000b136600462000356565b62000167565b60405162000071919062000501565b620000b7620001e8565b600080427f00000000000000000000000000000000000000000000000000000000000000008110156200012e57807f000000000000000000000000000000000000000000000000000000000000000003925062278d00915062000137565b60009250600091505b509091565b73ffffffffffffffffffffffffffffffffffffffff1660009081526020819052604090205460ff1690565b600080600062000176620000d0565b91509150600062000186620001e8565b8a8a8a8a8a88888c6040516200019c9062000283565b620001b0999897969594939291906200052d565b604051809103906000f080158015620001cd573d6000803e3d6000fd5b509050620001db816200020c565b9998505050505050505050565b7f000000000000000000000000000000000000000000000000000000000000000090565b73ffffffffffffffffffffffffffffffffffffffff811660008181526020819052604080822080547fffffffffffffffffffffffffffffffffffffffffffffffffffffffffffffff00166001179055517f83a48fbcfc991335314e74d0496aab6a1987e992ddc85dddbcc4d6dd6ef2e9fc9190a250565b6153b2806200066a83390190565b80356200029e8162000643565b92915050565b600082601f830112620002b5578081fd5b813567ffffffffffffffff811115620002cc578182fd5b620002ff60207fffffffffffffffffffffffffffffffffffffffffffffffffffffffffffffffe0601f8401160162000602565b91508082528360208285010111156200031757600080fd5b8060208401602084013760009082016020015292915050565b60006020828403121562000342578081fd5b81356200034f8162000643565b9392505050565b60008060008060008060c087890312156200036f578182fd5b863567ffffffffffffffff8082111562000387578384fd5b620003958a838b01620002a4565b9750602091508189013581811115620003ac578485fd5b620003ba8b828c01620002a4565b975050604089013581811115620003cf578485fd5b8901601f81018b13620003e0578485fd5b803582811115620003ef578586fd5b83810292506200040184840162000602565b8181528481019083860185850187018f10156200041c578889fd5b8895505b838610156200044a57620004358f8262000291565b83526001959095019491860191860162000420565b509850505050606089013594505050608087013591506200046f8860a0890162000291565b90509295509295509295565b73ffffffffffffffffffffffffffffffffffffffff169052565b60008151808452815b81811015620004bc576020818501810151868301820152016200049e565b81811115620004ce5782602083870101525b50601f017fffffffffffffffffffffffffffffffffffffffffffffffffffffffffffffffe0169290920160200192915050565b73ffffffffffffffffffffffffffffffffffffffff91909116815260200190565b901515815260200190565b600061012073ffffffffffffffffffffffffffffffffffffffff8c16835260208181850152620005608285018d62000495565b9150838203604085015262000576828c62000495565b84810360608601528a51808252828c01935090820190845b81811015620005b657620005a385516200062a565b835293830193918301916001016200058e565b50508093505050508660808301528560a08301528460c08301528360e0830152620005e66101008301846200047b565b9a9950505050505050505050565b918252602082015260400190565b60405181810167ffffffffffffffff811182821017156200062257600080fd5b604052919050565b73ffffffffffffffffffffffffffffffffffffffff1690565b73ffffffffffffffffffffffffffffffffffffffff811681146200066657600080fd5b5056fe6103206040527f6e71edae12b1b97f4d1f60370fef10105fa2faae0126114a169c64845d6126c9610120523480156200003757600080fd5b50604051620053b2380380620053b28339810160408190526200005a9162000ae2565b8886516002146200006d57600062000070565b60025b8989898a516001600160401b03811180156200008b57600080fd5b50604051908082528060200260200182016040528015620000b6578160200160208202803683370190505b506040805180820190915260018152603160f81b602080830191909152336080526001600160601b031960608a901b1660a05285518c928c928c928c92859285928c928c92849283929183918691620001159160039185019062000900565b5080516200012b90600490602084019062000900565b50506005805460ff1916601217905550815160209283012060c052805191012060e05250507f8b73c3c69bb8fe3d512ecc4cf759cc79239f7b179b0ffacaa9a75d522b39400f61010052506200018a6276a70083111561019462000551565b6200019e62278d0082111561019562000551565b4290910161014081905201610160528551620001c0906002111560c862000551565b620001da620001ce62000566565b8751111560c962000551565b620001f0866200056b60201b620010031760201c565b620001fb8462000577565b6040516309b2760f60e01b81526000906001600160a01b038c16906309b2760f906200022c908d9060040162000c7e565b602060405180830381600087803b1580156200024757600080fd5b505af11580156200025c573d6000803e3d6000fd5b505050506040513d601f19601f8201168201806040525081019062000282919062000ac9565b604051633354e3e960e11b81529091506001600160a01b038c16906366a9c7d290620002b79084908b908b9060040162000be2565b600060405180830381600087803b158015620002d257600080fd5b505af1158015620002e7573d6000803e3d6000fd5b5050505060609a909a1b6001600160601b031916610180525050506101a0969096525062000324945050506001881015915061012c905062000551565b6200033761138886111561012d62000551565b85516101c0819052865187906000906200034d57fe5b60200260200101516001600160a01b03166101e0816001600160a01b031660601b81525050866001815181106200038057fe5b60200260200101516001600160a01b0316610200816001600160a01b031660601b8152505060028111620003b6576000620003cd565b86600281518110620003c457fe5b60200260200101515b60601b6001600160601b0319166102205260038111620003ef57600062000406565b86600381518110620003fd57fe5b60200260200101515b60601b6001600160601b0319166102405260048111620004285760006200043f565b866004815181106200043657fe5b60200260200101515b6001600160a01b0316610260816001600160a01b031660601b8152505062000482876000815181106200046e57fe5b60200260200101516200060360201b60201c565b6102805286516200049b90889060019081106200046e57fe5b6102a05260028111620004b0576000620004c2565b620004c2876002815181106200046e57fe5b6102c05260038111620004d7576000620004e9565b620004e9876003815181106200046e57fe5b6102e05260048111620004fe57600062000510565b62000510876004815181106200046e57fe5b6103008181525050600062000533876103e8620006af60201b6200100d1760201c565b90506200054081620006e0565b505050505050505050505062000d00565b81620005625762000562816200071f565b5050565b600590565b80620005628162000772565b6200058c64e8d4a5100082101560cb62000551565b620005a467016345785d8a000082111560ca62000551565b620005c38160c0600854620007ff60201b62001031179092919060201c565b6008556040517fa9ba3ffe0b6c366b81232caab38605a0699ad5398d6cce76f91ee809e322dafc90620005f890839062000c93565b60405180910390a150565b600080826001600160a01b031663313ce5676040518163ffffffff1660e01b815260040160206040518083038186803b1580156200064057600080fd5b505afa15801562000655573d6000803e3d6000fd5b505050506040513d601f19601f820116820180604052508101906200067b919062000bbf565b60ff16905060006200069a6012836200081460201b620010471760201c565b600a0a670de0b6b3a764000002949350505050565b6000828202620006d7841580620006cf575083858381620006cc57fe5b04145b600362000551565b90505b92915050565b620006ee818042806200082c565b7fa0d01593e47e69d07e0ccd87bece09411e07dd1ed40ca8f2e7af2976542a023381604051620005f8919062000c93565b62461bcd60e51b6000908152602060045260076024526642414c23000030600a808404818106603090810160081b95839006959095019082900491820690940160101b939093010160c81b604452606490fd5b6002815110156200078357620007fc565b6000816000815181106200079357fe5b602002602001015190506000600190505b8251811015620007f9576000838281518110620007bd57fe5b60200260200101519050620007ee816001600160a01b0316846001600160a01b03161060656200055160201b60201c565b9150600101620007a4565b50505b50565b6001600160401b03811b1992909216911b1790565b60006200082683831115600162000551565b50900390565b6200084d816001600160401b031660c0620008fc60201b6200105d1760201c565b6200086e836001600160401b03166080620008fc60201b6200105d1760201c565b6200088f856001600160401b03166040620008fc60201b6200105d1760201c565b620008b0876001600160401b03166000620008fc60201b6200105d1760201c565b1717176009556040517f1835882ee7a34ac194f717a35e09bb1d24c82a3b9d854ab6c9749525b714cdf290620008ee90869086908690869062000c9c565b60405180910390a150505050565b1b90565b828054600181600116156101000203166002900490600052602060002090601f016020900481019282601f106200094357805160ff191683800117855562000973565b8280016001018555821562000973579182015b828111156200097357825182559160200191906001019062000956565b506200098192915062000985565b5090565b5b8082111562000981576000815560010162000986565b8051620006da8162000cea565b600082601f830112620009ba578081fd5b81516001600160401b03811115620009d0578182fd5b6020808202620009e282820162000cb7565b83815293508184018583018287018401881015620009ff57600080fd5b600092505b8483101562000a2f57805162000a1a8162000cea565b82526001929092019190830190830162000a04565b505050505092915050565b600082601f83011262000a4b578081fd5b81516001600160401b0381111562000a61578182fd5b602062000a77601f8301601f1916820162000cb7565b9250818352848183860101111562000a8e57600080fd5b60005b8281101562000aae57848101820151848201830152810162000a91565b8281111562000ac05760008284860101525b50505092915050565b60006020828403121562000adb578081fd5b5051919050565b60008060008060008060008060006101208a8c03121562000b01578485fd5b62000b0d8b8b6200099c565b60208b01519099506001600160401b038082111562000b2a578687fd5b62000b388d838e0162000a3a565b995060408c015191508082111562000b4e578687fd5b62000b5c8d838e0162000a3a565b985060608c015191508082111562000b72578687fd5b5062000b818c828d01620009a9565b96505060808a0151945060a08a0151935060c08a0151925060e08a0151915062000bb08b6101008c016200099c565b90509295985092959850929598565b60006020828403121562000bd1578081fd5b815160ff81168114620006d7578182fd5b60006060820185835260206060818501528186518084526080860191508288019350845b8181101562000c2e5762000c1b855162000cde565b8352938301939183019160010162000c06565b505084810360408601528551808252908201925081860190845b8181101562000c705762000c5d835162000cde565b8552938301939183019160010162000c48565b509298975050505050505050565b602081016003831062000c8d57fe5b91905290565b90815260200190565b93845260208401929092526040830152606082015260800190565b6040518181016001600160401b038111828210171562000cd657600080fd5b604052919050565b6001600160a01b031690565b6001600160a01b0381168114620007fc57600080fd5b60805160a05160601c60c05160e051610100516101205161014051610160516101805160601c6101a0516101c0516101e05160601c6102005160601c6102205160601c6102405160601c6102605160601c610280516102a0516102c0516102e051610300516145bd62000df5600039806122f85250806122d45250806122b052508061228c525080612268525080611f5a525080611f18525080611ed652508061291f5250806128ed525080611063525080610820525080610b5752508061144152508061141d525080610d7352508061169a5250806116dc5250806116bb525080610b33525080610abd52506145bd6000f3fe608060405234801561001057600080fd5b506004361061025c5760003560e01c80636daccffa116101455780639b02cdde116100bd578063aaabadc51161008c578063d5c096c411610071578063d5c096c4146104d0578063dd62ed3e146104e3578063eb0f24d6146104f65761025c565b8063aaabadc5146104b5578063d505accf146104bd5761025c565b80639b02cdde146104665780639d2c110c1461047c578063a457c2d71461048f578063a9059cbb146104a25761025c565b8063851c1bb311610114578063893d20e8116100f9578063893d20e8146104415780638d928af81461045657806395d89b411461045e5761025c565b8063851c1bb31461041b57806387ec68171461042e5761025c565b80636daccffa146103bd57806370a08231146103d457806374f3b009146103e75780637ecebe00146104085761025c565b8063313ce567116101d857806339509351116101a757806355c676281161018c57806355c676281461038c5780636028bfd414610394578063679aefce146103b55761025c565b8063395093511461036657806350dd6ed9146103795761025c565b8063313ce5671461032e5780633644e5151461034357806338e9922e1461034b57806338fff2d01461035e5761025c565b806318160ddd1161022f5780631dd746ea116102145780631dd746ea146102f357806323b872dd146103085780632f1a0bc91461031b5761025c565b806318160ddd146102d45780631c0de051146102dc5761025c565b806301ec954a1461026157806306fdde031461028a578063095ea7b31461029f57806316c38b3c146102bf575b600080fd5b61027461026f366004614121565b6104fe565b60405161028191906143c1565b60405180910390f35b61029261055d565b6040516102819190614497565b6102b26102ad366004613d9a565b610612565b604051610281919061439e565b6102d26102cd366004613e91565b610629565b005b61027461063d565b6102e4610643565b604051610281939291906143a9565b6102fb61066c565b6040516102819190614366565b6102b2610316366004613ce5565b61067b565b6102d26103293660046141f6565b61070f565b6103366107f2565b6040516102819190614502565b6102746107fb565b6102d26103593660046141de565b610805565b61027461081e565b6102b2610374366004613d9a565b610842565b6102d2610387366004613fc8565b61087d565b61027461089b565b6103a76103a2366004613ec9565b6108ac565b6040516102819291906144aa565b6102746108e3565b6103c56109c1565b604051610281939291906144c3565b6102746103e2366004613c91565b6109dc565b6103fa6103f5366004613ec9565b6109fb565b604051610281929190614379565b610274610416366004613c91565b610a9e565b610274610429366004613f6c565b610ab9565b6103a761043c366004613ec9565b610b0b565b610449610b31565b6040516102819190614352565b610449610b55565b610292610b79565b61046e610bf8565b6040516102819291906144d9565b61027461048a366004614192565b610c02565b6102b261049d366004613d9a565b610ce9565b6102b26104b0366004613d9a565b610d27565b610449610d34565b6102d26104cb366004613d25565b610d3e565b6103fa6104de366004613ec9565b610e87565b6102746104f1366004613cad565b610fac565b6102d2610fd7565b6000610512838361050d611061565b611085565b606061051c6110a2565b905060008651600181111561052d57fe5b146105445761053f86868686856111d9565b610551565b6105518686868685611250565b9150505b949350505050565b60038054604080516020601f60027fffffffffffffffffffffffffffffffffffffffffffffffffffffffffffffffff6101006001881615020190951694909404938401819004810282018101909252828152606093909290918301828280156106075780601f106105dc57610100808354040283529160200191610607565b820191906000526020600020905b8154815290600101906020018083116105ea57829003601f168201915b505050505090505b90565b600061061f3384846112b4565b5060015b92915050565b61063161131c565b61063a81611362565b50565b60025490565b60008060006106506113fe565b15925061065b61141b565b915061066561143f565b9050909192565b60606106766110a2565b905090565b6000806106888533610fac565b90506106ac336001600160a01b03871614806106a45750838210155b61019e611463565b6106b7858585611471565b336001600160a01b038616148015906106f057507fffffffffffffffffffffffffffffffffffffffffffffffffffffffffffffffff8114155b156107025761070285338584036112b4565b60019150505b9392505050565b61071761131c565b610727600183101561012c611463565b61073861138883111561012d611463565b60006107448242611047565b90506107586201518082101561013d611463565b600080610763611551565b91509150610774811561013e611463565b6000610782866103e861100d565b905060008382116107b1576107ac61079d620151808661100d565b6107a7848861100d565b6115c5565b6107cb565b6107cb6107c1620151808461100d565b6107a7868861100d565b90506107dd600282111561013f611463565b6107e9848342896115f8565b50505050505050565b60055460ff1690565b6000610676611696565b61080d61131c565b610815611733565b61063a81611748565b7f000000000000000000000000000000000000000000000000000000000000000090565b3360008181526001602090815260408083206001600160a01b0387168452909152812054909161061f91859061087890866117b3565b6112b4565b61088561131c565b61088d611733565b61089782826117c5565b5050565b6008546000906106769060c06118dd565b600060606108c286516108bd611061565b6118eb565b6108d7898989898989896118f861199c6119fd565b97509795505050505050565b600060606108ef610b55565b6001600160a01b031663f94d466861090561081e565b6040518263ffffffff1660e01b815260040161092191906143c1565b60006040518083038186803b15801561093957600080fd5b505afa15801561094d573d6000803e3d6000fd5b505050506040513d6000823e601f3d908101601f191682016040526109759190810190613dc5565b509150506000610983611551565b509050610997826109926110a2565b611b8d565b60006109a582846000611bee565b90506109b96109b261063d565b8290611d8a565b935050505090565b60008060006109ce611551565b90949093506103e892509050565b6001600160a01b0381166000908152602081905260409020545b919050565b60608088610a25610a0a610b55565b6001600160a01b0316336001600160a01b03161460cd611463565b610a3a610a3061081e565b82146101f4611463565b6060610a446110a2565b9050610a508882611b8d565b6000606080610a658e8e8e8e8e8e8a8f6118f8565b925092509250610a758d84611ddb565b610a7f828561199c565b610a89818561199c565b909550935050505b5097509795505050505050565b6001600160a01b031660009081526006602052604090205490565b60007f000000000000000000000000000000000000000000000000000000000000000082604051602001610aee9291906142dc565b604051602081830303815290604052805190602001209050919050565b60006060610b1c86516108bd611061565b6108d789898989898989611de5611e3e6119fd565b7f000000000000000000000000000000000000000000000000000000000000000090565b7f000000000000000000000000000000000000000000000000000000000000000090565b60048054604080516020601f60027fffffffffffffffffffffffffffffffffffffffffffffffffffffffffffffffff6101006001881615020190951694909404938401819004810282018101909252828152606093909290918301828280156106075780601f106105dc57610100808354040283529160200191610607565b600a54600b549091565b600080610c128560200151611e9f565b90506000610c238660400151611e9f565b9050600086516001811115610c3457fe5b1415610c9a57610c478660600151611fa5565b6060870152610c568583611fc6565b9450610c628482611fc6565b9350610c72866060015183611fc6565b60608701526000610c84878787611fd2565b9050610c908183612016565b9350505050610708565b610ca48583611fc6565b9450610cb08482611fc6565b9350610cc0866060015182611fc6565b60608701526000610cd2878787612022565b9050610cde8184612051565b9050610c908161205d565b600080610cf63385610fac565b9050808310610d1057610d0b338560006112b4565b610d1d565b610d1d33858584036112b4565b5060019392505050565b600061061f338484611471565b6000610676612083565b610d4c8442111560d1611463565b6001600160a01b0387166000908152600660209081526040808320549051909291610da3917f0000000000000000000000000000000000000000000000000000000000000000918c918c918c9188918d91016143e9565b6040516020818303038152906040528051906020012090506000610dc6826120fd565b9050600060018288888860405160008152602001604052604051610ded9493929190614479565b6020604051602081039080840390855afa158015610e0f573d6000803e3d6000fd5b5050604051601f1901519150610e5190506001600160a01b03821615801590610e4957508b6001600160a01b0316826001600160a01b0316145b6101f8611463565b6001600160a01b038b166000908152600660205260409020600185019055610e7a8b8b8b6112b4565b5050505050505050505050565b60608088610e96610a0a610b55565b610ea1610a3061081e565b6060610eab6110a2565b9050610eb561063d565b610f5c5760006060610eca8d8d8d868b612119565b91509150610edf620f424083101560cc611463565b610eed6000620f42406121a8565b610efc8b620f424084036121a8565b610f068184611e3e565b80610f0f611061565b67ffffffffffffffff81118015610f2557600080fd5b50604051908082528060200260200182016040528015610f4f578160200160208202803683370190505b5095509550505050610a91565b610f668882611b8d565b6000606080610f7b8e8e8e8e8e8e8a8f611de5565b925092509250610f8b8c846121a8565b610f958285611e3e565b610f9f818561199c565b9095509350610a91915050565b6001600160a01b03918216600090815260016020908152604080832093909416825291909152205490565b610fdf61131c565b600080610fea611551565b91509150610ffa81610140611463565b610897826121b2565b80610897816121ed565b600082820261070884158061102a57508385838161102757fe5b04145b6003611463565b67ffffffffffffffff811b1992909216911b1790565b6000611057838311156001611463565b50900390565b1b90565b7f000000000000000000000000000000000000000000000000000000000000000090565b61109d818410801561109657508183105b6064611463565b505050565b606060006110ae611061565b905060608167ffffffffffffffff811180156110c957600080fd5b506040519080825280602002602001820160405280156110f3578160200160208202803683370190505b509050811561112257611104612266565b8160008151811061111157fe5b60200260200101818152505061112b565b915061060f9050565b60018211156111225761113c61228a565b8160018151811061114957fe5b6020026020010181815250506002821115611122576111666122ae565b8160028151811061117357fe5b6020026020010181815250506003821115611122576111906122d2565b8160038151811061119d57fe5b6020026020010181815250506004821115611122576111ba6122f6565b816004815181106111c757fe5b60200260200101818152505091505090565b60006111e58583611b8d565b61120686606001518385815181106111f957fe5b6020026020010151611fc6565b606087015260006112198787878761231a565b90506112388184878151811061122b57fe5b6020026020010151612051565b90506112438161205d565b9150505b95945050505050565b600061125f8660600151611fa5565b606087015261126e8583611b8d565b61128286606001518386815181106111f957fe5b6060870152600061129587878787612344565b9050611243818486815181106112a757fe5b6020026020010151612016565b6001600160a01b0380841660008181526001602090815260408083209487168084529490915290819020849055517f8c5be1e5ebec7d5bd14f71427d1e84f3dd0314c0f7b2291e5b200ac8c7c3b9259061130f9085906143c1565b60405180910390a3505050565b600061134b6000357fffffffff0000000000000000000000000000000000000000000000000000000016610ab9565b905061063a61135a823361236e565b610191611463565b80156113825761137d61137361141b565b4210610193611463565b611397565b61139761138d61143f565b42106101a9611463565b600780547fffffffffffffffffffffffffffffffffffffffffffffffffffffffffffffff00168215151790556040517f9e3a5e37224532dea67b89face185703738a228a6e8a23dee546960180d3be64906113f390839061439e565b60405180910390a150565b600061140861143f565b42118061067657505060075460ff161590565b7f000000000000000000000000000000000000000000000000000000000000000090565b7f000000000000000000000000000000000000000000000000000000000000000090565b81610897576108978161245e565b6114886001600160a01b0384161515610198611463565b61149f6001600160a01b0383161515610199611463565b6114aa83838361109d565b6001600160a01b0383166000908152602081905260409020546114d090826101a06124cb565b6001600160a01b0380851660009081526020819052604080822093909355908416815220546114ff90826117b3565b6001600160a01b0380841660008181526020819052604090819020939093559151908516907fddf252ad1be2c89b69c2b068fc378daa952ba7f163c4a11628f55a4df523b3ef9061130f9085906143c1565b6000806000806000806115626124e1565b9350935093509350804210156115b557600194508383111561159957818103824203858503028161158f57fe5b04840195506115b0565b81810382420384860302816115aa57fe5b04840395505b6115bd565b600094508295505b505050509091565b60006115d48215156004611463565b826115e157506000610623565b8160018403816115ed57fe5b046001019050610623565b61160d8167ffffffffffffffff1660c061105d565b6116228367ffffffffffffffff16608061105d565b6116378567ffffffffffffffff16604061105d565b61164c8767ffffffffffffffff16600061105d565b1717176009556040517f1835882ee7a34ac194f717a35e09bb1d24c82a3b9d854ab6c9749525b714cdf2906116889086908690869086906144e7565b60405180910390a150505050565b60007f00000000000000000000000000000000000000000000000000000000000000007f00000000000000000000000000000000000000000000000000000000000000007f0000000000000000000000000000000000000000000000000000000000000000611703612538565b3060405160200161171895949392919061441d565b60405160208183030381529060405280519060200120905090565b61174661173e6113fe565b610192611463565b565b61175b64e8d4a5100082101560cb611463565b61177167016345785d8a000082111560ca611463565b600854611780908260c0611031565b6008556040517fa9ba3ffe0b6c366b81232caab38605a0699ad5398d6cce76f91ee809e322dafc906113f39083906143c1565b60008282016107088482101583611463565b60006117cf61081e565b905060006117db610b55565b6001600160a01b031663b05f8e4883866040518363ffffffff1660e01b8152600401611808929190614462565b60806040518083038186803b15801561182057600080fd5b505afa158015611834573d6000803e3d6000fd5b505050506040513d601f19601f820116820180604052508101906118589190614217565b6040517f18e736d40000000000000000000000000000000000000000000000000000000081529094506001600160a01b03851693506318e736d492506118a5915085908790600401614449565b600060405180830381600087803b1580156118bf57600080fd5b505af11580156118d3573d6000803e3d6000fd5b5050505050505050565b1c67ffffffffffffffff1690565b6108978183146067611463565b60006060806119056113fe565b1561192857611914888761253c565b90506119238882611047612629565b611974565b611930611061565b67ffffffffffffffff8111801561194657600080fd5b50604051908082528060200260200182016040528015611970578160200160208202803683370190505b5090505b61197f888686612694565b909350915061198e8883612700565b985098509895505050505050565b60005b6119a7611061565b81101561109d576119de8382815181106119bd57fe5b60200260200101518383815181106119d157fe5b6020026020010151611d8a565b8382815181106119ea57fe5b602090810291909101015260010161199f565b333014611aec576000306001600160a01b0316600036604051611a2192919061430c565b6000604051808303816000865af19150503d8060008114611a5e576040519150601f19603f3d011682016040523d82523d6000602084013e611a63565b606091505b505090508060008114611a7257fe5b60046000803e6000517fffffffff00000000000000000000000000000000000000000000000000000000167f43adbafb000000000000000000000000000000000000000000000000000000008114611ace573d6000803e3d6000fd5b506020600460003e604060205260243d03602460403e601c3d016000f35b6060611af66110a2565b9050611b028782611b8d565b60006060611b1a8c8c8c8c8c8c898d8d63ffffffff16565b5091509150611b2d81848663ffffffff16565b8051601f1982018390526343adbafb7fffffffffffffffffffffffffffffffffffffffffffffffffffffffffffffffc08301526020027fffffffffffffffffffffffffffffffffffffffffffffffffffffffffffffffdc82016044820181fd5b60005b611b98611061565b81101561109d57611bcf838281518110611bae57fe5b6020026020010151838381518110611bc257fe5b602002602001015161272f565b838281518110611bdb57fe5b6020908102919091010152600101611b90565b81516000908190815b81811015611c2f57611c25868281518110611c0e57fe5b6020026020010151846117b390919063ffffffff16565b9250600101611bf7565b5081611c4057600092505050610708565b600082878302825b60ff811015611d72576000858a600081518110611c6157fe5b60200260200101510290506000600190505b86811015611cb557611cab611ca4611c9e848e8581518110611c9157fe5b602002602001015161100d565b8961100d565b868c61275b565b9150600101611c73565b50839450611d28611cf7611cde611cd5611ccf878c61100d565b8561100d565b6103e88d61275b565b611cf1611ceb8a8961100d565b8861100d565b906117b3565b611d22611d15611d0b6103e888038661100d565b6103e88e1561275b565b611cf18a6001018961100d565b8b61275b565b935084841115611d5057600185850311611d4b5783975050505050505050610708565b611d69565b600184860311611d695783975050505050505050610708565b50600101611c48565b50611d7e61014261245e565b50505050509392505050565b6000611d998215156004611463565b82611da657506000610623565b670de0b6b3a764000083810290611dc990858381611dc057fe5b04146005611463565b828181611dd257fe5b04915050610623565b610897828261277b565b6000606080611df2611733565b6060611dfe898861253c565b9050611e0d8982611047612629565b60006060611e1c8b8989612837565b91509150611e2a8b82612890565b909d909c50909a5098505050505050505050565b60005b611e49611061565b81101561109d57611e80838281518110611e5f57fe5b6020026020010151838381518110611e7357fe5b602002602001015161289d565b838281518110611e8c57fe5b6020908102919091010152600101611e41565b6000611eaa826128eb565b15611ebe57611eb7612266565b90506109f6565b611ec78261291d565b15611ed457611eb761228a565b7f00000000000000000000000000000000000000000000000000000000000000006001600160a01b0316826001600160a01b03161415611f1657611eb76122ae565b7f00000000000000000000000000000000000000000000000000000000000000006001600160a01b0316826001600160a01b03161415611f5857611eb76122d2565b7f00000000000000000000000000000000000000000000000000000000000000006001600160a01b0316826001600160a01b03161415611f9a57611eb76122f6565b6109f661013561245e565b600080611fba611fb361089b565b849061294f565b90506107088382611047565b6000610708838361272f565b6000611fe9611fdf611061565b60021460d2611463565b6060600080611ff98787876129a9565b92509250925061200b87848484612344565b979650505050505050565b60006107088383611d8a565b600061202f611fdf611061565b606060008061203f8787876129a9565b92509250925061200b8784848461231a565b6000610708838361289d565b600061062361207c61206d61089b565b670de0b6b3a764000090611047565b839061289d565b600061208d610b55565b6001600160a01b031663aaabadc56040518163ffffffff1660e01b815260040160206040518083038186803b1580156120c557600080fd5b505afa1580156120d9573d6000803e3d6000fd5b505050506040513d601f19601f820116820180604052508101906106769190613fac565b6000612107611696565b82604051602001610aee92919061431c565b60006060612125611733565b600061213084612a6a565b905061214b600082600281111561214357fe5b1460ce611463565b606061215685612a80565b905061216581516108bd611061565b61216f8187611b8d565b6000612179611551565b509050600061218a82846001611bee565b9050806121978184612a96565b9b929a509198505050505050505050565b6108978282612aa1565b6121be818242426115f8565b7fa0d01593e47e69d07e0ccd87bece09411e07dd1ed40ca8f2e7af2976542a0233816040516113f391906143c1565b6002815110156121fc5761063a565b60008160008151811061220b57fe5b602002602001015190506000600190505b825181101561109d57600083828151811061223357fe5b6020026020010151905061225c816001600160a01b0316846001600160a01b0316106065611463565b915060010161221c565b7f000000000000000000000000000000000000000000000000000000000000000090565b7f000000000000000000000000000000000000000000000000000000000000000090565b7f000000000000000000000000000000000000000000000000000000000000000090565b7f000000000000000000000000000000000000000000000000000000000000000090565b7f000000000000000000000000000000000000000000000000000000000000000090565b6000612324611733565b600061232e611551565b509050600061200b828787878b60600151612b2f565b600061234e611733565b6000612358611551565b509050600061200b828787878b60600151612bf3565b600073ba1ba1ba1ba1ba1ba1ba1ba1ba1ba1ba1ba1ba1b61238d610b31565b6001600160a01b0316141580156123a857506123a883612c9b565b156123d0576123b5610b31565b6001600160a01b0316336001600160a01b0316149050610623565b6123d8612083565b6001600160a01b0316639be2a8848484306040518463ffffffff1660e01b8152600401612407939291906143ca565b60206040518083038186803b15801561241f57600080fd5b505afa158015612433573d6000803e3d6000fd5b505050506040513d601f19601f820116820180604052508101906124579190613ead565b9050610623565b7f08c379a0000000000000000000000000000000000000000000000000000000006000908152602060045260076024526642414c23000030600a808404818106603090810160081b95839006959095019082900491820690940160101b939093010160c81b604452606490fd5b60006124da8484111583611463565b5050900390565b6000806000806124fd60006009546118dd90919063ffffffff16565b60095490945061250e9060406118dd565b60095490935061251f9060806118dd565b6009549092506125309060c06118dd565b905090919293565b4690565b606080612547611061565b67ffffffffffffffff8111801561255d57600080fd5b50604051908082528060200260200182016040528015612587578160200160208202803683370190505b50905082612596579050610623565b600080856000815181106125a657fe5b602002602001015190506000600190505b6125bf611061565b8110156125f65760008782815181106125d457fe5b60200260200101519050828111156125ed578193508092505b506001016125b7565b50612608600b5487600a548589612d09565b83838151811061261457fe5b60209081029190910101525090949350505050565b60005b612634611061565b81101561268e5761266f84828151811061264a57fe5b602002602001015184838151811061265e57fe5b60200260200101518463ffffffff16565b84828151811061267b57fe5b602090810291909101015260010161262c565b50505050565b6000606060006126a384612a6a565b905060008160028111156126b357fe5b14156126cd576126c38685612d7d565b92509250506126f8565b60018160028111156126db57fe5b14156126eb576126c38685612e48565b6126c3868686612e7a565b505b935093915050565b61270d8282611047612629565b6000612717611551565b50905061109d61272982856001611bee565b82612a96565b600082820261274984158061102a57508385838161102757fe5b670de0b6b3a764000090049392505050565b6000816127715761276c8484612ef6565b610555565b61055584846115c5565b6127926001600160a01b038316151561019b611463565b61279e8260008361109d565b6001600160a01b0382166000908152602081905260409020546127c490826101a16124cb565b6001600160a01b0383166000908152602081905260409020556002546127ea9082612f16565b6002556040516000906001600160a01b038416907fddf252ad1be2c89b69c2b068fc378daa952ba7f163c4a11628f55a4df523b3ef9061282b9085906143c1565b60405180910390a35050565b60006060600061284684612a6a565b9050600181600281111561285657fe5b1415612867576126c3868686612f24565b600281600281111561287557fe5b1415612885576126c38685612f8e565b6126f661013661245e565b61270d82826117b3612629565b60006128ac8215156004611463565b826128b957506000610623565b670de0b6b3a7640000838102906128d390858381611dc057fe5b8260018203816128df57fe5b04600101915050610623565b7f00000000000000000000000000000000000000000000000000000000000000006001600160a01b0390811691161490565b7f00000000000000000000000000000000000000000000000000000000000000006001600160a01b0390811691161490565b600082820261296984158061102a57508385838161102757fe5b80612978576000915050610623565b670de0b6b3a76400007fffffffffffffffffffffffffffffffffffffffffffffffffffffffffffffffff82016128df565b604080516002808252606082810190935260009182918160200160208202803683370190505092506129de86602001516128eb565b15612a2457600091506001905084836000815181106129f957fe5b6020026020010181815250508383600181518110612a1357fe5b602002602001018181525050612a61565b60009050600191508383600081518110612a3a57fe5b6020026020010181815250508483600181518110612a5457fe5b6020026020010181815250505b93509350939050565b6000818060200190518101906106239190614016565b60608180602001905181019061070891906140dc565b600a91909155600b55565b612aad6000838361109d565b600254612aba90826117b3565b6002556001600160a01b038216600090815260208190526040902054612ae090826117b3565b6001600160a01b0383166000818152602081905260408082209390935591519091907fddf252ad1be2c89b69c2b068fc378daa952ba7f163c4a11628f55a4df523b3ef9061282b9085906143c1565b600080612b3e87876001611bee565b9050612b6683878681518110612b5057fe5b602002602001015161104790919063ffffffff16565b868581518110612b7257fe5b6020026020010181815250506000612b8c88888489613023565b905083878681518110612b9b57fe5b602002602001015101878681518110612bb057fe5b602002602001018181525050612be76001611cf1898981518110612bd057fe5b60200260200101518461104790919063ffffffff16565b98975050505050505050565b600080612c0287876001611bee565b9050612c2a83878781518110612c1457fe5b60200260200101516117b390919063ffffffff16565b868681518110612c3657fe5b6020026020010181815250506000612c5088888488613023565b905083878781518110612c5f57fe5b602002602001015103878781518110612c7457fe5b602002602001018181525050612be76001612c95838a8981518110612b5057fe5b90611047565b6000612cc67f2f1a0bc900000000000000000000000000000000000000000000000000000000610ab9565b821480612cfa5750612cf77feb0f24d600000000000000000000000000000000000000000000000000000000610ab9565b82145b806106235750610623826131d3565b600080612d1887878787613023565b905080868581518110612d2757fe5b602002602001015111612d3e576000915050611247565b600081878681518110612d4d57fe5b6020026020010151039050612be7670de0b6b3a7640000612d77868461272f90919063ffffffff16565b90611d8a565b60006060612d89611733565b600080612d9585613237565b91509150612dad612da4611061565b82106064611463565b6060612db7611061565b67ffffffffffffffff81118015612dcd57600080fd5b50604051908082528060200260200182016040528015612df7578160200160208202803683370190505b5090506000612e04611551565b509050612e2381898587612e1661063d565b612e1e61089b565b613259565b828481518110612e2f57fe5b6020908102919091010152509196919550909350505050565b600060606000612e5784613375565b90506060612e6d8683612e6861063d565b61338b565b9196919550909350505050565b60006060612e86611733565b60606000612e938561343d565b91509150612ea482516108bd611061565b612eae8287611b8d565b6000612eb8611551565b5090506000612ed8828a86612ecb61063d565b612ed361089b565b613455565b9050612ee88382111560cf611463565b989297509195505050505050565b6000612f058215156004611463565b818381612f0e57fe5b049392505050565b6000610708838360016124cb565b60006060806000612f348561343d565b91509150612f4a612f43611061565b83516118eb565b612f548287611b8d565b6000612f5e611551565b5090506000612f7e828a86612f7161063d565b612f7961089b565b6136eb565b9050612ee88382101560d0611463565b60006060600080612f9e85613237565b91509150612fad612da4611061565b6060612fb7611061565b67ffffffffffffffff81118015612fcd57600080fd5b50604051908082528060200260200182016040528015612ff7578160200160208202803683370190505b5090506000613004611551565b509050612e238189858761301661063d565b61301e61089b565b61397a565b60008084518602905060008560008151811061303b57fe5b60200260200101519050600086518760008151811061305657fe5b60200260200101510290506000600190505b87518110156130af5761309461308e613087848b8581518110611c9157fe5b8a5161100d565b88612ef6565b91506130a5888281518110611c0e57fe5b9250600101613068565b508685815181106130bc57fe5b60200260200101518203915060006130d4878861100d565b905060006131006130f46130ec846107a7898861100d565b6103e861100d565b8a8981518110611c9157fe5b9050600061311b6131146130ec8b89612ef6565b86906117b3565b905060008061313761312d86866117b3565b6107a78d866117b3565b905060005b60ff8110156131b75781925061316c61315986611cf1858661100d565b6107a78e612c9588611cf188600261100d565b91508282111561319557600183830311613190575097506105559650505050505050565b6131af565b6001828403116131af575097506105559650505050505050565b60010161313c565b506131c361014261245e565b5050505050505050949350505050565b60006131fe7f38e9922e00000000000000000000000000000000000000000000000000000000610ab9565b821480610623575061322f7f50dd6ed900000000000000000000000000000000000000000000000000000000610ab9565b909114919050565b6000808280602001905181019061324e91906140a6565b909590945092505050565b60008061326888886001611bee565b9050600061328a826132848761327e818b611047565b9061289d565b9061294f565b9050600061329a8a8a848b613023565b905060006132ae828b8b81518110612b5057fe5b90506000805b8b518110156132ed576132e38c82815181106132cc57fe5b6020026020010151836117b390919063ffffffff16565b91506001016132b4565b506000613316828d8d8151811061330057fe5b6020026020010151611d8a90919063ffffffff16565b9050600061332382613a57565b90506000613331858361294f565b9050600061333f8683611047565b905061336061335983670de0b6b3a76400008e900361272f565b82906117b3565b99505050505050505050509695505050505050565b6000818060200190518101906107089190614079565b606060006133998484611d8a565b90506060855167ffffffffffffffff811180156133b557600080fd5b506040519080825280602002602001820160405280156133df578160200160208202803683370190505b50905060005b865181101561343357613414838883815181106133fe57fe5b602002602001015161272f90919063ffffffff16565b82828151811061342057fe5b60209081029190910101526001016133e5565b5095945050505050565b606060008280602001905181019061324e9190614032565b600080805b865181101561347c576134728782815181106132cc57fe5b915060010161345a565b506060855167ffffffffffffffff8111801561349757600080fd5b506040519080825280602002602001820160405280156134c1578160200160208202803683370190505b5090506000805b88518110156135885760006134f9858b84815181106134e357fe5b602002602001015161289d90919063ffffffff16565b90506135358a838151811061350a57fe5b602002602001015161327e8b858151811061352157fe5b60200260200101518d8681518110612b5057fe5b84838151811061354157fe5b60200260200101818152505061357d6135768286858151811061356057fe5b602002602001015161294f90919063ffffffff16565b84906117b3565b9250506001016134c8565b506060885167ffffffffffffffff811180156135a357600080fd5b506040519080825280602002602001820160405280156135cd578160200160208202803683370190505b50905060005b89518110156136985760008482815181106135ea57fe5b602002602001015184111561365157600061361361360786613a57565b8d85815181106133fe57fe5b90506000613627828d8681518110612b5057fe5b905061364861364182670de0b6b3a76400008d900361289d565b83906117b3565b92505050613668565b89828151811061365d57fe5b602002602001015190505b613678818c8481518110612b5057fe5b83838151811061368457fe5b6020908102919091010152506001016135d3565b5060006136a78b8b6001611bee565b905060006136b78c846000611bee565b905060006136c58284611d8a565b90506136da6136d382613a57565b8b9061294f565b9d9c50505050505050505050505050565b600080805b8651811015613712576137088782815181106132cc57fe5b91506001016136f0565b506060855167ffffffffffffffff8111801561372d57600080fd5b50604051908082528060200260200182016040528015613757578160200160208202803683370190505b5090506000805b88518110156137eb576000613779858b848151811061330057fe5b90506137b58a838151811061378a57fe5b6020026020010151612d778b85815181106137a157fe5b60200260200101518d8681518110612c1457fe5b8483815181106137c157fe5b6020026020010181815250506137e0613576828685815181106133fe57fe5b92505060010161375e565b506060885167ffffffffffffffff8111801561380657600080fd5b50604051908082528060200260200182016040528015613830578160200160208202803683370190505b50905060005b89518110156138f15760008385838151811061384e57fe5b602002602001015111156138aa57600061387361360786670de0b6b3a7640000611047565b90506000613887828d8681518110612b5057fe5b90506138a161364182670de0b6b3a76400008d900361272f565b925050506138c1565b8982815181106138b657fe5b602002602001015190505b6138d1818c8481518110612c1457fe5b8383815181106138dd57fe5b602090810291909101015250600101613836565b5060006139008b8b6001611bee565b905060006139108c846000611bee565b9050600061391e8284611d8a565b9050670de0b6b3a764000081111561396a5761395c8a7ffffffffffffffffffffffffffffffffffffffffffffffffff21f494c589c0000830161272f565b975050505050505050611247565b6000975050505050505050611247565b60008061398988886001611bee565b9050600061399f826132848761327e818b6117b3565b905060006139af8a8a848b613023565b905060006139d98a8a815181106139c257fe5b60200260200101518361104790919063ffffffff16565b90506000805b8b51811015613a01576139f78c82815181106132cc57fe5b91506001016139df565b506000613a14828d8d8151811061330057fe5b90506000613a2182613a57565b90506000613a2f858361294f565b90506000613a3d8683611047565b905061336061335983670de0b6b3a76400008e900361289d565b6000670de0b6b3a76400008210613a6f576000610623565b50670de0b6b3a76400000390565b803561062381614557565b600082601f830112613a98578081fd5b8135613aab613aa682614537565b614510565b818152915060208083019084810181840286018201871015613acc57600080fd5b60005b84811015613aeb57813584529282019290820190600101613acf565b505050505092915050565b600082601f830112613b06578081fd5b8151613b14613aa682614537565b818152915060208083019084810181840286018201871015613b3557600080fd5b60005b84811015613aeb57815184529282019290820190600101613b38565b600082601f830112613b64578081fd5b813567ffffffffffffffff811115613b7a578182fd5b613b8d6020601f19601f84011601614510565b9150808252836020828501011115613ba457600080fd5b8060208401602084013760009082016020015292915050565b80356002811061062357600080fd5b6000610120808385031215613bdf578182fd5b613be881614510565b915050613bf58383613bbd565b8152613c048360208401613a7d565b6020820152613c168360408401613a7d565b6040820152606082013560608201526080820135608082015260a082013560a0820152613c468360c08401613a7d565b60c0820152613c588360e08401613a7d565b60e08201526101008083013567ffffffffffffffff811115613c7957600080fd5b613c8585828601613b54565b82840152505092915050565b600060208284031215613ca2578081fd5b813561070881614557565b60008060408385031215613cbf578081fd5b8235613cca81614557565b91506020830135613cda81614557565b809150509250929050565b600080600060608486031215613cf9578081fd5b8335613d0481614557565b92506020840135613d1481614557565b929592945050506040919091013590565b600080600080600080600060e0888a031215613d3f578283fd5b8735613d4a81614557565b96506020880135613d5a81614557565b95506040880135945060608801359350608088013560ff81168114613d7d578384fd5b9699959850939692959460a0840135945060c09093013592915050565b60008060408385031215613dac578182fd5b8235613db781614557565b946020939093013593505050565b600080600060608486031215613dd9578081fd5b835167ffffffffffffffff80821115613df0578283fd5b818601915086601f830112613e03578283fd5b8151613e11613aa682614537565b80828252602080830192508086018b828387028901011115613e31578788fd5b8796505b84871015613e5c578051613e4881614557565b845260019690960195928101928101613e35565b508901519097509350505080821115613e73578283fd5b50613e8086828701613af6565b925050604084015190509250925092565b600060208284031215613ea2578081fd5b81356107088161456c565b600060208284031215613ebe578081fd5b81516107088161456c565b600080600080600080600060e0888a031215613ee3578081fd5b873596506020880135613ef581614557565b95506040880135613f0581614557565b9450606088013567ffffffffffffffff80821115613f21578283fd5b613f2d8b838c01613a88565b955060808a0135945060a08a0135935060c08a0135915080821115613f50578283fd5b50613f5d8a828b01613b54565b91505092959891949750929550565b600060208284031215613f7d578081fd5b81357fffffffff0000000000000000000000000000000000000000000000000000000081168114610708578182fd5b600060208284031215613fbd578081fd5b815161070881614557565b60008060408385031215613fda578182fd5b8235613fe581614557565b9150602083013567ffffffffffffffff811115614000578182fd5b61400c85828601613b54565b9150509250929050565b600060208284031215614027578081fd5b81516107088161457a565b600080600060608486031215614046578081fd5b83516140518161457a565b602085015190935067ffffffffffffffff81111561406d578182fd5b613e8086828701613af6565b6000806040838503121561408b578182fd5b82516140968161457a565b6020939093015192949293505050565b6000806000606084860312156140ba578081fd5b83516140c58161457a565b602085015160409095015190969495509392505050565b600080604083850312156140ee578182fd5b82516140f98161457a565b602084015190925067ffffffffffffffff811115614115578182fd5b61400c85828601613af6565b60008060008060808587031215614136578182fd5b843567ffffffffffffffff8082111561414d578384fd5b61415988838901613bcc565b9550602087013591508082111561416e578384fd5b5061417b87828801613a88565b949794965050505060408301359260600135919050565b6000806000606084860312156141a6578081fd5b833567ffffffffffffffff8111156141bc578182fd5b6141c886828701613bcc565b9660208601359650604090950135949350505050565b6000602082840312156141ef578081fd5b5035919050565b60008060408385031215614208578182fd5b50508035926020909101359150565b6000806000806080858703121561422c578182fd5b845193506020850151925060408501519150606085015161424c81614557565b939692955090935050565b6000815180845260208085019450808401835b838110156142865781518752958201959082019060010161426a565b509495945050505050565b60008151808452815b818110156142b65760208185018101518683018201520161429a565b818111156142c75782602083870101525b50601f01601f19169290920160200192915050565b9182527fffffffff0000000000000000000000000000000000000000000000000000000016602082015260240190565b6000828483379101908152919050565b7f190100000000000000000000000000000000000000000000000000000000000081526002810192909252602282015260420190565b6001600160a01b0391909116815260200190565b6000602082526107086020830184614257565b60006040825261438c6040830185614257565b82810360208401526112478185614257565b901515815260200190565b92151583526020830191909152604082015260600190565b90815260200190565b9283526001600160a01b03918216602084015216604082015260600190565b9586526001600160a01b0394851660208701529290931660408501526060840152608083019190915260a082015260c00190565b9485526020850193909352604084019190915260608301526001600160a01b0316608082015260a00190565b6000838252604060208301526105556040830184614291565b9182526001600160a01b0316602082015260400190565b93845260ff9290921660208401526040830152606082015260800190565b6000602082526107086020830184614291565b6000838252604060208301526105556040830184614257565b9283529015156020830152604082015260600190565b918252602082015260400190565b93845260208401929092526040830152606082015260800190565b60ff91909116815260200190565b60405181810167ffffffffffffffff8111828210171561452f57600080fd5b604052919050565b600067ffffffffffffffff82111561454d578081fd5b5060209081020190565b6001600160a01b038116811461063a57600080fd5b801515811461063a57600080fd5b6003811061063a57600080fdfea2646970667358221220a3f14cb8166f68844d27e1caaa3af5ba830a017cf61e9e6ac0fcf7958ddb995264736f6c63430007010033a2646970667358221220918bfaa61db728bf1cf4e0f4d5bcf2ae1e50310f54c0c35456ad1d3204f7225564736f6c63430007010033",
  "linkReferences": {},
  "deployedLinkReferences": {}
}