{
  "_format": "hh-sol-artifact-1",
  "contractName": "MasterChefOperator",
  "sourceName": "contracts/governance/MasterChefOperator.sol",
  "abi": [
    {
      "inputs": [
        {
          "internalType": "contract Timelock",
          "name": "_timelock",
          "type": "address"
        },
        {
          "internalType": "address",
          "name": "_masterChef",
          "type": "address"
        },
        {
          "internalType": "address",
          "name": "admin",
          "type": "address"
        },
        {
          "internalType": "address",
          "name": "stagingAdmin",
          "type": "address"
        }
      ],
      "stateMutability": "nonpayable",
      "type": "constructor"
    },
    {
      "anonymous": false,
      "inputs": [
        {
          "indexed": true,
          "internalType": "bytes32",
          "name": "role",
          "type": "bytes32"
        },
        {
          "indexed": true,
          "internalType": "bytes32",
          "name": "previousAdminRole",
          "type": "bytes32"
        },
        {
          "indexed": true,
          "internalType": "bytes32",
          "name": "newAdminRole",
          "type": "bytes32"
        }
      ],
      "name": "RoleAdminChanged",
      "type": "event"
    },
    {
      "anonymous": false,
      "inputs": [
        {
          "indexed": true,
          "internalType": "bytes32",
          "name": "role",
          "type": "bytes32"
        },
        {
          "indexed": true,
          "internalType": "address",
          "name": "account",
          "type": "address"
        },
        {
          "indexed": true,
          "internalType": "address",
          "name": "sender",
          "type": "address"
        }
      ],
      "name": "RoleGranted",
      "type": "event"
    },
    {
      "anonymous": false,
      "inputs": [
        {
          "indexed": true,
          "internalType": "bytes32",
          "name": "role",
          "type": "bytes32"
        },
        {
          "indexed": true,
          "internalType": "address",
          "name": "account",
          "type": "address"
        },
        {
          "indexed": true,
          "internalType": "address",
          "name": "sender",
          "type": "address"
        }
      ],
      "name": "RoleRevoked",
      "type": "event"
    },
    {
      "inputs": [],
      "name": "COMMIT_ROLE",
      "outputs": [
        {
          "internalType": "bytes32",
          "name": "",
          "type": "bytes32"
        }
      ],
      "stateMutability": "view",
      "type": "function"
    },
    {
      "inputs": [],
      "name": "DEFAULT_ADMIN_ROLE",
      "outputs": [
        {
          "internalType": "bytes32",
          "name": "",
          "type": "bytes32"
        }
      ],
      "stateMutability": "view",
      "type": "function"
    },
    {
      "inputs": [],
      "name": "STAGE_ROLE",
      "outputs": [
        {
          "internalType": "bytes32",
          "name": "",
          "type": "bytes32"
        }
      ],
      "stateMutability": "view",
      "type": "function"
    },
    {
      "inputs": [],
      "name": "acceptTimelockAdmin",
      "outputs": [],
      "stateMutability": "nonpayable",
      "type": "function"
    },
    {
      "inputs": [
        {
          "internalType": "address",
          "name": "target",
          "type": "address"
        },
        {
          "internalType": "uint256",
          "name": "value",
          "type": "uint256"
        },
        {
          "internalType": "string",
          "name": "signature",
          "type": "string"
        },
        {
          "internalType": "bytes",
          "name": "data",
          "type": "bytes"
        },
        {
          "internalType": "uint256",
          "name": "eta",
          "type": "uint256"
        }
      ],
      "name": "cancelTransaction",
      "outputs": [],
      "stateMutability": "nonpayable",
      "type": "function"
    },
    {
      "inputs": [
        {
          "internalType": "uint256",
          "name": "beetsPerBlock",
          "type": "uint256"
        },
        {
          "internalType": "uint256",
          "name": "eta",
          "type": "uint256"
        },
        {
          "internalType": "enum MasterChefOperator.TransactionType",
          "name": "txType",
          "type": "uint8"
        }
      ],
      "name": "commitEmissionChange",
      "outputs": [],
      "stateMutability": "nonpayable",
      "type": "function"
    },
    {
      "inputs": [
        {
          "internalType": "uint256",
          "name": "eta",
          "type": "uint256"
        },
        {
          "internalType": "enum MasterChefOperator.TransactionType",
          "name": "txType",
          "type": "uint8"
        }
      ],
      "name": "commitFarmChanges",
      "outputs": [],
      "stateMutability": "nonpayable",
      "type": "function"
    },
    {
      "inputs": [
        {
          "internalType": "address",
          "name": "admin",
          "type": "address"
        },
        {
          "internalType": "uint256",
          "name": "eta",
          "type": "uint256"
        },
        {
          "internalType": "enum MasterChefOperator.TransactionType",
          "name": "txType",
          "type": "uint8"
        }
      ],
      "name": "commitSetPendingTimelockAdmin",
      "outputs": [],
      "stateMutability": "nonpayable",
      "type": "function"
    },
    {
      "inputs": [
        {
          "internalType": "address",
          "name": "treasury",
          "type": "address"
        },
        {
          "internalType": "uint256",
          "name": "eta",
          "type": "uint256"
        },
        {
          "internalType": "enum MasterChefOperator.TransactionType",
          "name": "txType",
          "type": "uint8"
        }
      ],
      "name": "commitSetTreasuryAddress",
      "outputs": [],
      "stateMutability": "nonpayable",
      "type": "function"
    },
    {
      "inputs": [
        {
          "internalType": "address",
          "name": "target",
          "type": "address"
        },
        {
          "internalType": "uint256",
          "name": "value",
          "type": "uint256"
        },
        {
          "internalType": "string",
          "name": "signature",
          "type": "string"
        },
        {
          "internalType": "bytes",
          "name": "data",
          "type": "bytes"
        },
        {
          "internalType": "uint256",
          "name": "eta",
          "type": "uint256"
        }
      ],
      "name": "executeTransaction",
      "outputs": [
        {
          "internalType": "bytes",
          "name": "",
          "type": "bytes"
        }
      ],
      "stateMutability": "payable",
      "type": "function"
    },
    {
      "inputs": [
        {
          "internalType": "uint256",
          "name": "",
          "type": "uint256"
        },
        {
          "internalType": "uint256",
          "name": "",
          "type": "uint256"
        }
      ],
      "name": "farmAdditions",
      "outputs": [
        {
          "internalType": "contract IERC20",
          "name": "lpToken",
          "type": "address"
        },
        {
          "internalType": "uint256",
          "name": "allocationPoints",
          "type": "uint256"
        },
        {
          "internalType": "contract IRewarder",
          "name": "rewarder",
          "type": "address"
        }
      ],
      "stateMutability": "view",
      "type": "function"
    },
    {
      "inputs": [
        {
          "internalType": "uint256",
          "name": "eta",
          "type": "uint256"
        }
      ],
      "name": "farmAdditionsForEta",
      "outputs": [
        {
          "components": [
            {
              "internalType": "contract IERC20",
              "name": "lpToken",
              "type": "address"
            },
            {
              "internalType": "uint256",
              "name": "allocationPoints",
              "type": "uint256"
            },
            {
              "internalType": "contract IRewarder",
              "name": "rewarder",
              "type": "address"
            }
          ],
          "internalType": "struct MasterChefOperator.FarmAddition[]",
          "name": "",
          "type": "tuple[]"
        }
      ],
      "stateMutability": "view",
      "type": "function"
    },
    {
      "inputs": [
        {
          "internalType": "uint256",
          "name": "",
          "type": "uint256"
        },
        {
          "internalType": "uint256",
          "name": "",
          "type": "uint256"
        }
      ],
      "name": "farmModifications",
      "outputs": [
        {
          "internalType": "uint256",
          "name": "pid",
          "type": "uint256"
        },
        {
          "internalType": "uint256",
          "name": "allocationPoints",
          "type": "uint256"
        },
        {
          "internalType": "contract IRewarder",
          "name": "rewarder",
          "type": "address"
        },
        {
          "internalType": "bool",
          "name": "overwriteRewarder",
          "type": "bool"
        }
      ],
      "stateMutability": "view",
      "type": "function"
    },
    {
      "inputs": [
        {
          "internalType": "uint256",
          "name": "eta",
          "type": "uint256"
        }
      ],
      "name": "farmModificationsForEta",
      "outputs": [
        {
          "components": [
            {
              "internalType": "uint256",
              "name": "pid",
              "type": "uint256"
            },
            {
              "internalType": "uint256",
              "name": "allocationPoints",
              "type": "uint256"
            },
            {
              "internalType": "contract IRewarder",
              "name": "rewarder",
              "type": "address"
            },
            {
              "internalType": "bool",
              "name": "overwriteRewarder",
              "type": "bool"
            }
          ],
          "internalType": "struct MasterChefOperator.FarmModification[]",
          "name": "",
          "type": "tuple[]"
        }
      ],
      "stateMutability": "view",
      "type": "function"
    },
    {
      "inputs": [
        {
          "internalType": "bytes32",
          "name": "role",
          "type": "bytes32"
        }
      ],
      "name": "getRoleAdmin",
      "outputs": [
        {
          "internalType": "bytes32",
          "name": "",
          "type": "bytes32"
        }
      ],
      "stateMutability": "view",
      "type": "function"
    },
    {
      "inputs": [
        {
          "internalType": "bytes32",
          "name": "role",
          "type": "bytes32"
        },
        {
          "internalType": "address",
          "name": "account",
          "type": "address"
        }
      ],
      "name": "grantRole",
      "outputs": [],
      "stateMutability": "nonpayable",
      "type": "function"
    },
    {
      "inputs": [
        {
          "internalType": "bytes32",
          "name": "role",
          "type": "bytes32"
        },
        {
          "internalType": "address",
          "name": "account",
          "type": "address"
        }
      ],
      "name": "hasRole",
      "outputs": [
        {
          "internalType": "bool",
          "name": "",
          "type": "bool"
        }
      ],
      "stateMutability": "view",
      "type": "function"
    },
    {
      "inputs": [],
      "name": "masterChef",
      "outputs": [
        {
          "internalType": "address",
          "name": "",
          "type": "address"
        }
      ],
      "stateMutability": "view",
      "type": "function"
    },
    {
      "inputs": [
        {
          "internalType": "address",
          "name": "target",
          "type": "address"
        },
        {
          "internalType": "uint256",
          "name": "value",
          "type": "uint256"
        },
        {
          "internalType": "string",
          "name": "signature",
          "type": "string"
        },
        {
          "internalType": "bytes",
          "name": "data",
          "type": "bytes"
        },
        {
          "internalType": "uint256",
          "name": "eta",
          "type": "uint256"
        }
      ],
      "name": "queueTransaction",
      "outputs": [
        {
          "internalType": "bytes32",
          "name": "",
          "type": "bytes32"
        }
      ],
      "stateMutability": "nonpayable",
      "type": "function"
    },
    {
      "inputs": [],
      "name": "queuedFarmChangeEtas",
      "outputs": [
        {
          "internalType": "uint256[]",
          "name": "",
          "type": "uint256[]"
        }
      ],
      "stateMutability": "view",
      "type": "function"
    },
    {
      "inputs": [
        {
          "internalType": "bytes32",
          "name": "role",
          "type": "bytes32"
        },
        {
          "internalType": "address",
          "name": "account",
          "type": "address"
        }
      ],
      "name": "renounceRole",
      "outputs": [],
      "stateMutability": "nonpayable",
      "type": "function"
    },
    {
      "inputs": [
        {
          "internalType": "bytes32",
          "name": "role",
          "type": "bytes32"
        },
        {
          "internalType": "address",
          "name": "account",
          "type": "address"
        }
      ],
      "name": "revokeRole",
      "outputs": [],
      "stateMutability": "nonpayable",
      "type": "function"
    },
    {
      "inputs": [
        {
          "components": [
            {
              "internalType": "contract IERC20",
              "name": "lpToken",
              "type": "address"
            },
            {
              "internalType": "uint256",
              "name": "allocationPoints",
              "type": "uint256"
            },
            {
              "internalType": "contract IRewarder",
              "name": "rewarder",
              "type": "address"
            }
          ],
          "internalType": "struct MasterChefOperator.FarmAddition[]",
          "name": "farmsToAdd",
          "type": "tuple[]"
        },
        {
          "internalType": "uint256",
          "name": "eta",
          "type": "uint256"
        }
      ],
      "name": "stageFarmAdditions",
      "outputs": [],
      "stateMutability": "nonpayable",
      "type": "function"
    },
    {
      "inputs": [
        {
          "components": [
            {
              "internalType": "uint256",
              "name": "pid",
              "type": "uint256"
            },
            {
              "internalType": "uint256",
              "name": "allocationPoints",
              "type": "uint256"
            },
            {
              "internalType": "contract IRewarder",
              "name": "rewarder",
              "type": "address"
            },
            {
              "internalType": "bool",
              "name": "overwriteRewarder",
              "type": "bool"
            }
          ],
          "internalType": "struct MasterChefOperator.FarmModification[]",
          "name": "farmsToEdit",
          "type": "tuple[]"
        },
        {
          "internalType": "uint256",
          "name": "eta",
          "type": "uint256"
        }
      ],
      "name": "stageFarmModifications",
      "outputs": [],
      "stateMutability": "nonpayable",
      "type": "function"
    },
    {
      "inputs": [
        {
          "internalType": "bytes4",
          "name": "interfaceId",
          "type": "bytes4"
        }
      ],
      "name": "supportsInterface",
      "outputs": [
        {
          "internalType": "bool",
          "name": "",
          "type": "bool"
        }
      ],
      "stateMutability": "view",
      "type": "function"
    },
    {
      "inputs": [],
      "name": "timelock",
      "outputs": [
        {
          "internalType": "contract Timelock",
          "name": "",
          "type": "address"
        }
      ],
      "stateMutability": "view",
      "type": "function"
    },
    {
      "inputs": [
        {
          "internalType": "uint256",
          "name": "",
          "type": "uint256"
        }
      ],
      "name": "usedFarmChangeEtas",
      "outputs": [
        {
          "internalType": "bool",
          "name": "",
          "type": "bool"
        }
      ],
      "stateMutability": "view",
      "type": "function"
    }
  ],
  "bytecode": "0x60c06040523480156200001157600080fd5b5060405162002a0e38038062002a0e83398101604081905262000034916200016d565b6001600160601b0319606085811b821660805284901b1660a0526200005b600083620000bd565b620000877fe45b434bcfde811526e7334d79c75e8125145dc4bd8aaa77fc5136da39bcc1cc83620000bd565b620000b37fcf3de51d0ce58d8a600927b020b8dc8548f0bc17d5c26d3c9d584f3901a4e04c82620000bd565b50505050620001ee565b620000c98282620000cd565b5050565b6000828152602081815260408083206001600160a01b038516845290915290205460ff16620000c9576000828152602081815260408083206001600160a01b03851684529091529020805460ff19166001179055620001293390565b6001600160a01b0316816001600160a01b0316837f2f8788117e7eff1d82e926ec794901d17c78024a50270940304540a733656f0d60405160405180910390a45050565b600080600080608085870312156200018457600080fd5b84516200019181620001d5565b6020860151909450620001a481620001d5565b6040860151909350620001b781620001d5565b6060860151909250620001ca81620001d5565b939692955090935050565b6001600160a01b0381168114620001eb57600080fd5b50565b60805160601c60a05160601c61275a620002b46000396000818161037801528181610bd501528181610cbf01528181610f2501528181610fb9015281816113e9015281816115ac0152818161177a015261194101526000818161053b015281816106450152818161086b01528181610a9501528181610bac01528181610c9601528181610dca01528181610e3c01528181610ef601528181610f8a01528181611178015281816113ba0152818161157d0152818161174b0152611912015261275a6000f3fe60806040526004361061019c5760003560e01c80635ffc71b8116100ec578063ab6989571161008a578063d33219b411610064578063d33219b414610529578063d547741f1461055d578063eeaba75d1461057d578063fde9b2261461059257600080fd5b8063ab698957146104b9578063c8cc3cd8146104d9578063cae5984b146104f957600080fd5b80638a1d28f1116100c65780638a1d28f11461044457806391d14854146104645780639c2826ef14610484578063a217fddf146104a457600080fd5b80635ffc71b8146103d25780636f3e6f341461040257806374d510f71461042257600080fd5b806336568abe1161015957806341065e0e1161013357806341065e0e14610317578063441e7d5814610344578063575a86b214610366578063591fcdfe146103b257600080fd5b806336568abe146102b75780633a66f901146102d75780633b8505a3146102f757600080fd5b806301ffc9a7146101a15780630825f38f146101d6578063248a9ca3146101f657806325e06309146102345780632f2ff15d1461026857806333c9ef9f1461028a575b600080fd5b3480156101ad57600080fd5b506101c16101bc366004611f77565b6105dc565b60405190151581526020015b60405180910390f35b6101e96101e4366004611d82565b610613565b6040516101cd9190612474565b34801561020257600080fd5b50610226610211366004611f15565b60009081526020819052604090206001015490565b6040519081526020016101cd565b34801561024057600080fd5b506102267fcf3de51d0ce58d8a600927b020b8dc8548f0bc17d5c26d3c9d584f3901a4e04c81565b34801561027457600080fd5b50610288610283366004611f47565b6106e3565b005b34801561029657600080fd5b506102aa6102a5366004611f15565b61070e565b6040516101cd91906123ce565b3480156102c357600080fd5b506102886102d2366004611f47565b6107b6565b3480156102e357600080fd5b506102266102f2366004611d82565b610839565b34801561030357600080fd5b50610288610312366004611e35565b6108fa565b34801561032357600080fd5b50610337610332366004611f15565b6109d8565b6040516101cd9190612368565b34801561035057600080fd5b5061022660008051602061270583398151915281565b34801561037257600080fd5b5061039a7f000000000000000000000000000000000000000000000000000000000000000081565b6040516001600160a01b0390911681526020016101cd565b3480156103be57600080fd5b506102886103cd366004611d82565b610a65565b3480156103de57600080fd5b506103f26103ed366004612044565b610b0c565b6040516101cd94939291906124c8565b34801561040e57600080fd5b5061028861041d366004611d44565b610b63565b34801561042e57600080fd5b50610437610d70565b6040516101cd9190612430565b34801561045057600080fd5b5061028861045f366004611d44565b610d81565b34801561047057600080fd5b506101c161047f366004611f47565b610e98565b34801561049057600080fd5b5061028861049f366004612066565b610ec1565b3480156104b057600080fd5b50610226600081565b3480156104c557600080fd5b506102886104d4366004612018565b61101c565b3480156104e557600080fd5b506102886104f4366004611eb0565b611061565b34801561050557600080fd5b506101c1610514366004611f15565b60036020526000908152604090205460ff1681565b34801561053557600080fd5b5061039a7f000000000000000000000000000000000000000000000000000000000000000081565b34801561056957600080fd5b50610288610578366004611f47565b611137565b34801561058957600080fd5b5061028861115d565b34801561059e57600080fd5b506105b26105ad366004612044565b6111e5565b604080516001600160a01b03948516815260208101939093529216918101919091526060016101cd565b60006001600160e01b03198216637965db0b60e01b148061060d57506301ffc9a760e01b6001600160e01b03198316145b92915050565b606060008051602061270583398151915261062e8133611232565b604051630825f38f60e01b81526001600160a01b037f00000000000000000000000000000000000000000000000000000000000000001690630825f38f90610682908a908a908a908a908a9060040161231c565b600060405180830381600087803b15801561069c57600080fd5b505af11580156106b0573d6000803e3d6000fd5b505050506040513d6000823e601f3d908101601f191682016040526106d89190810190611fa1565b979650505050505050565b6000828152602081905260409020600101546106ff8133611232565b6107098383611296565b505050565b606060026000838152602001908152602001600020805480602002602001604051908101604052809291908181526020016000905b828210156107ab576000848152602090819020604080516080810182526003860290920180548352600180820154848601526002909101546001600160a01b03811692840192909252600160a01b90910460ff16151560608301529083529092019101610743565b505050509050919050565b6001600160a01b038116331461082b5760405162461bcd60e51b815260206004820152602f60248201527f416363657373436f6e74726f6c3a2063616e206f6e6c792072656e6f756e636560448201526e103937b632b9903337b91039b2b63360891b60648201526084015b60405180910390fd5b610835828261131a565b5050565b60006000805160206127058339815191526108548133611232565b604051633a66f90160e01b81526001600160a01b037f00000000000000000000000000000000000000000000000000000000000000001690633a66f901906108a8908a908a908a908a908a9060040161231c565b602060405180830381600087803b1580156108c257600080fd5b505af11580156108d6573d6000803e3d6000fd5b505050506040513d601f19601f820116820180604052508101906106d89190611f2e565b600081815260036020526040902054819060ff161561092b5760405162461bcd60e51b815260040161082290612487565b61093660048261137f565b507fcf3de51d0ce58d8a600927b020b8dc8548f0bc17d5c26d3c9d584f3901a4e04c6109628133611232565b60005b848110156109d057600084815260016020526040902086868381811061098d5761098d612608565b8354600181018555600094855260209094206060909102929092019260030290910190506109bb8282612654565b505080806109c8906125c1565b915050610965565b505050505050565b606060016000838152602001908152602001600020805480602002602001604051908101604052809291908181526020016000905b828210156107ab576000848152602090819020604080516060810182526003860290920180546001600160a01b0390811684526001808301548587015260029092015416918301919091529083529092019101610a0d565b600080516020612705833981519152610a7e8133611232565b604051632c8fe6ff60e11b81526001600160a01b037f0000000000000000000000000000000000000000000000000000000000000000169063591fcdfe90610ad2908990899089908990899060040161231c565b600060405180830381600087803b158015610aec57600080fd5b505af1158015610b00573d6000803e3d6000fd5b50505050505050505050565b60026020528160005260406000208181548110610b2857600080fd5b60009182526020909120600390910201805460018201546002909201549093509091506001600160a01b03811690600160a01b900460ff1684565b600080516020612705833981519152610b7c8133611232565b6000826001811115610b9057610b906125f2565b1415610c8057604080516001600160a01b0386811660208301527f00000000000000000000000000000000000000000000000000000000000000001691633a66f901917f00000000000000000000000000000000000000000000000000000000000000009160009101604051602081830303815290604052876040518563ffffffff1660e01b8152600401610c28949392919061219f565b602060405180830381600087803b158015610c4257600080fd5b505af1158015610c56573d6000803e3d6000fd5b505050506040513d601f19601f82011682018060405250810190610c7a9190611f2e565b50610d6a565b604080516001600160a01b0386811660208301527f00000000000000000000000000000000000000000000000000000000000000001691630825f38f917f00000000000000000000000000000000000000000000000000000000000000009160009101604051602081830303815290604052876040518563ffffffff1660e01b8152600401610d12949392919061219f565b600060405180830381600087803b158015610d2c57600080fd5b505af1158015610d40573d6000803e3d6000fd5b505050506040513d6000823e601f3d908101601f19168201604052610d689190810190611fa1565b505b50505050565b6060610d7c6004611392565b905090565b600080516020612705833981519152610d9a8133611232565b6000826001811115610dae57610dae6125f2565b1415610e2657604080516001600160a01b0386811660208301527f000000000000000000000000000000000000000000000000000000000000000090811692633a66f9019260009101604051602081830303815290604052876040518563ffffffff1660e01b8152600401610c2894939291906121ee565b604080516001600160a01b0386811660208301527f000000000000000000000000000000000000000000000000000000000000000090811692630825f38f9260009101604051602081830303815290604052876040518563ffffffff1660e01b8152600401610d1294939291906121ee565b6000918252602082815260408084206001600160a01b0393909316845291905290205460ff1690565b600080516020612705833981519152610eda8133611232565b6000826001811115610eee57610eee6125f2565b1415610f88577f00000000000000000000000000000000000000000000000000000000000000006001600160a01b0316633a66f9017f0000000000000000000000000000000000000000000000000000000000000000600087604051602001610f5991815260200190565b604051602081830303815290604052876040518563ffffffff1660e01b8152600401610c289493929190612133565b7f00000000000000000000000000000000000000000000000000000000000000006001600160a01b0316630825f38f7f0000000000000000000000000000000000000000000000000000000000000000600087604051602001610fed91815260200190565b604051602081830303815290604052876040518563ffffffff1660e01b8152600401610d129493929190612133565b6000805160206127058339815191526110358133611232565b6000826001811115611049576110496125f2565b1415611058576107098361139f565b61070983611730565b600081815260036020526040902054819060ff16156110925760405162461bcd60e51b815260040161082290612487565b61109d60048261137f565b507fcf3de51d0ce58d8a600927b020b8dc8548f0bc17d5c26d3c9d584f3901a4e04c6110c98133611232565b60005b848110156109d05760008481526002602052604090208686838181106110f4576110f4612608565b835460018101855560009485526020909420608090910292909201926003029091019050611122828261268f565b5050808061112f906125c1565b9150506110cc565b6000828152602081905260409020600101546111538133611232565b610709838361131a565b6000805160206127058339815191526111768133611232565b7f00000000000000000000000000000000000000000000000000000000000000006001600160a01b0316630e18b6816040518163ffffffff1660e01b8152600401600060405180830381600087803b1580156111d157600080fd5b505af1158015610d68573d6000803e3d6000fd5b6001602052816000526040600020818154811061120157600080fd5b60009182526020909120600390910201805460018201546002909201546001600160a01b0391821694509192501683565b61123c8282610e98565b61083557611254816001600160a01b03166014611aab565b61125f836020611aab565b6040516020016112709291906120be565b60408051601f198184030181529082905262461bcd60e51b825261082291600401612474565b6112a08282610e98565b610835576000828152602081815260408083206001600160a01b03851684529091529020805460ff191660011790556112d63390565b6001600160a01b0316816001600160a01b0316837f2f8788117e7eff1d82e926ec794901d17c78024a50270940304540a733656f0d60405160405180910390a45050565b6113248282610e98565b15610835576000828152602081815260408083206001600160a01b0385168085529252808320805460ff1916905551339285917ff6391f5c32d9c69d2a47ea670b442974b53935d1edc7fd64eb21e047a839171b9190a45050565b600061138b8383611c47565b9392505050565b6060600061138b83611c96565b6000818152600260205260408120905b8154811015611561577f00000000000000000000000000000000000000000000000000000000000000006001600160a01b0316633a66f9017f0000000000000000000000000000000000000000000000000000000000000000600085858154811061141c5761141c612608565b90600052602060002090600302016000015486868154811061144057611440612608565b90600052602060002090600302016001015487878154811061146457611464612608565b906000526020600020906003020160020160009054906101000a90046001600160a01b031688888154811061149b5761149b612608565b906000526020600020906003020160020160149054906101000a900460ff166040516020016114cd94939291906124c8565b604051602081830303815290604052876040518563ffffffff1660e01b81526004016114fc9493929190612249565b602060405180830381600087803b15801561151657600080fd5b505af115801561152a573d6000803e3d6000fd5b505050506040513d601f19601f8201168201806040525081019061154e9190611f2e565b5080611559816125c1565b9150506113af565b506000828152600160205260408120905b8154811015611712577f00000000000000000000000000000000000000000000000000000000000000006001600160a01b0316633a66f9017f000000000000000000000000000000000000000000000000000000000000000060008585815481106115df576115df612608565b90600052602060002090600302016001015486868154811061160357611603612608565b600091825260209091206003909102015487546001600160a01b039091169088908890811061163457611634612608565b60009182526020918290206002600390920201015460405161167e9493926001600160a01b0390921691019283526001600160a01b03918216602084015216604082015260600190565b604051602081830303815290604052886040518563ffffffff1660e01b81526004016116ad94939291906122c1565b602060405180830381600087803b1580156116c757600080fd5b505af11580156116db573d6000803e3d6000fd5b505050506040513d601f19601f820116820180604052508101906116ff9190611f2e565b508061170a816125c1565b915050611572565b5050506000908152600360205260409020805460ff19166001179055565b6000818152600260205260408120905b81548110156118f6577f00000000000000000000000000000000000000000000000000000000000000006001600160a01b0316630825f38f7f000000000000000000000000000000000000000000000000000000000000000060008585815481106117ad576117ad612608565b9060005260206000209060030201600001548686815481106117d1576117d1612608565b9060005260206000209060030201600101548787815481106117f5576117f5612608565b906000526020600020906003020160020160009054906101000a90046001600160a01b031688888154811061182c5761182c612608565b906000526020600020906003020160020160149054906101000a900460ff1660405160200161185e94939291906124c8565b604051602081830303815290604052876040518563ffffffff1660e01b815260040161188d9493929190612249565b600060405180830381600087803b1580156118a757600080fd5b505af11580156118bb573d6000803e3d6000fd5b505050506040513d6000823e601f3d908101601f191682016040526118e39190810190611fa1565b50806118ee816125c1565b915050611740565b506000828152600160205260408120905b8154811015610d6a577f00000000000000000000000000000000000000000000000000000000000000006001600160a01b0316630825f38f7f0000000000000000000000000000000000000000000000000000000000000000600085858154811061197457611974612608565b90600052602060002090600302016001015486868154811061199857611998612608565b600091825260209091206003909102015487546001600160a01b03909116908890889081106119c9576119c9612608565b600091825260209182902060026003909202010154604051611a139493926001600160a01b0390921691019283526001600160a01b03918216602084015216604082015260600190565b604051602081830303815290604052886040518563ffffffff1660e01b8152600401611a4294939291906122c1565b600060405180830381600087803b158015611a5c57600080fd5b505af1158015611a70573d6000803e3d6000fd5b505050506040513d6000823e601f3d908101601f19168201604052611a989190810190611fa1565b5080611aa3816125c1565b915050611907565b60606000611aba83600261255f565b611ac5906002612547565b67ffffffffffffffff811115611add57611add61261e565b6040519080825280601f01601f191660200182016040528015611b07576020820181803683370190505b509050600360fc1b81600081518110611b2257611b22612608565b60200101906001600160f81b031916908160001a905350600f60fb1b81600181518110611b5157611b51612608565b60200101906001600160f81b031916908160001a9053506000611b7584600261255f565b611b80906001612547565b90505b6001811115611bf8576f181899199a1a9b1b9c1cb0b131b232b360811b85600f1660108110611bb457611bb4612608565b1a60f81b828281518110611bca57611bca612608565b60200101906001600160f81b031916908160001a90535060049490941c93611bf1816125aa565b9050611b83565b50831561138b5760405162461bcd60e51b815260206004820181905260248201527f537472696e67733a20686578206c656e67746820696e73756666696369656e746044820152606401610822565b6000818152600183016020526040812054611c8e5750815460018181018455600084815260208082209093018490558454848252828601909352604090209190915561060d565b50600061060d565b606081600001805480602002602001604051908101604052809291908181526020018280548015611ce657602002820191906000526020600020905b815481526020019060010190808311611cd2575b50505050509050919050565b6000611d05611d008461251f565b6124ee565b9050828152838383011115611d1957600080fd5b828260208301376000602084830101529392505050565b803560028110611d3f57600080fd5b919050565b600080600060608486031215611d5957600080fd5b8335611d64816126ec565b925060208401359150611d7960408501611d30565b90509250925092565b600080600080600060a08688031215611d9a57600080fd5b8535611da5816126ec565b945060208601359350604086013567ffffffffffffffff80821115611dc957600080fd5b818801915088601f830112611ddd57600080fd5b611dec89833560208501611cf2565b94506060880135915080821115611e0257600080fd5b508601601f81018813611e1457600080fd5b611e2388823560208401611cf2565b95989497509295608001359392505050565b600080600060408486031215611e4a57600080fd5b833567ffffffffffffffff80821115611e6257600080fd5b818601915086601f830112611e7657600080fd5b813581811115611e8557600080fd5b876020606083028501011115611e9a57600080fd5b6020928301989097509590910135949350505050565b600080600060408486031215611ec557600080fd5b833567ffffffffffffffff80821115611edd57600080fd5b818601915086601f830112611ef157600080fd5b813581811115611f0057600080fd5b8760208260071b8501011115611e9a57600080fd5b600060208284031215611f2757600080fd5b5035919050565b600060208284031215611f4057600080fd5b5051919050565b60008060408385031215611f5a57600080fd5b823591506020830135611f6c816126ec565b809150509250929050565b600060208284031215611f8957600080fd5b81356001600160e01b03198116811461138b57600080fd5b600060208284031215611fb357600080fd5b815167ffffffffffffffff811115611fca57600080fd5b8201601f81018413611fdb57600080fd5b8051611fe9611d008261251f565b818152856020838501011115611ffe57600080fd5b61200f82602083016020860161257e565b95945050505050565b6000806040838503121561202b57600080fd5b8235915061203b60208401611d30565b90509250929050565b6000806040838503121561205757600080fd5b50508035926020909101359150565b60008060006060848603121561207b57600080fd5b8335925060208401359150611d7960408501611d30565b600081518084526120aa81602086016020860161257e565b601f01601f19169290920160200192915050565b7f416363657373436f6e74726f6c3a206163636f756e74200000000000000000008152600083516120f681601785016020880161257e565b7001034b99036b4b9b9b4b733903937b6329607d1b601791840191820152835161212781602884016020880161257e565b01602801949350505050565b60018060a01b038516815283602082015260a06040820152601b60a08201527f757064617465456d697373696f6e526174652875696e7432353629000000000060c082015260e06060820152600061218e60e0830185612092565b905082608083015295945050505050565b60018060a01b038516815283602082015260a06040820152601160a082015270747265617375727928616464726573732960781b60c082015260e06060820152600061218e60e0830185612092565b60018060a01b038516815283602082015260a06040820152601860a08201527f73657450656e64696e6741646d696e286164647265737329000000000000000060c082015260e06060820152600061218e60e0830185612092565b60018060a01b038516815283602082015260a06040820152602160a08201527f7365742875696e743235362c75696e743235362c616464726573732c626f6f6c60c0820152602960f81b60e082015260006101008060608401526122af81840186612092565b91505082608083015295945050505050565b60018060a01b038516815283602082015260a06040820152601c60a08201527f6164642875696e743235362c616464726573732c61646472657373290000000060c082015260e06060820152600061218e60e0830185612092565b60018060a01b038616815284602082015260a06040820152600061234360a0830186612092565b82810360608401526123558186612092565b9150508260808301529695505050505050565b602080825282518282018190526000919060409081850190868401855b828110156123c157815180516001600160a01b039081168652878201518887015290860151168585015260609093019290850190600101612385565b5091979650505050505050565b602080825282518282018190526000919060409081850190868401855b828110156123c1578151805185528681015187860152858101516001600160a01b031686860152606090810151151590850152608090930192908501906001016123eb565b6020808252825182820181905260009190848201906040850190845b818110156124685783518352928401929184019160010161244c565b50909695505050505050565b60208152600061138b6020830184612092565b60208082526021908201527f45544120616c726561647920757365642c2063686f7365206f746865722065746040820152606160f81b606082015260800190565b93845260208401929092526001600160a01b031660408301521515606082015260800190565b604051601f8201601f1916810167ffffffffffffffff811182821017156125175761251761261e565b604052919050565b600067ffffffffffffffff8211156125395761253961261e565b50601f01601f191660200190565b6000821982111561255a5761255a6125dc565b500190565b6000816000190483118215151615612579576125796125dc565b500290565b60005b83811015612599578181015183820152602001612581565b83811115610d6a5750506000910152565b6000816125b9576125b96125dc565b506000190190565b60006000198214156125d5576125d56125dc565b5060010190565b634e487b7160e01b600052601160045260246000fd5b634e487b7160e01b600052602160045260246000fd5b634e487b7160e01b600052603260045260246000fd5b634e487b7160e01b600052604160045260246000fd5b80546001600160a01b0319166001600160a01b0392909216919091179055565b813561265f816126ec565b6126698183612634565b50602082013560018201556040820135612682816126ec565b6107098160028401612634565b81358155602082013560018201556002810160408301356126af816126ec565b6126b98183612634565b5060608301358015158082146126ce57600080fd5b825460ff60a01b191660a09190911b60ff60a01b1617909155505050565b6001600160a01b038116811461270157600080fd5b5056fee45b434bcfde811526e7334d79c75e8125145dc4bd8aaa77fc5136da39bcc1cca2646970667358221220010fec53633f6359396c061df224b1612b455feea106a05ab76cdb55c4450c1c64736f6c63430008070033",
  "linkReferences": {},
  "deployedLinkReferences": {}
}