{
  "_format": "hh-sol-artifact-1",
  "contractName": "PoolSpecificProtocolFeePercentagesProvider",
  "sourceName": "contracts/PoolSpecificProtocolFeePercentagesProvider.sol",
  "abi": [
    {
      "inputs": [
        {
          "internalType": "contract IVault",
          "name": "vault",
          "type": "address"
        },
        {
          "internalType": "uint256",
          "name": "maxYieldValue",
          "type": "uint256"
        },
        {
          "internalType": "uint256",
          "name": "maxAUMValue",
          "type": "uint256"
        }
      ],
      "stateMutability": "nonpayable",
      "type": "constructor"
    },
    {
      "anonymous": false,
      "inputs": [
        {
          "indexed": true,
          "internalType": "address",
          "name": "poolAddress",
          "type": "address"
        },
        {
          "indexed": true,
          "internalType": "uint256",
          "name": "feeType",
          "type": "uint256"
        },
        {
          "indexed": false,
          "internalType": "uint256",
          "name": "percentage",
          "type": "uint256"
        }
      ],
      "name": "PoolSpecificProtocolFeePercentageChanged",
      "type": "event"
    },
    {
      "anonymous": false,
      "inputs": [
        {
          "indexed": true,
          "internalType": "address",
          "name": "poolAddress",
          "type": "address"
        },
        {
          "indexed": true,
          "internalType": "uint256",
          "name": "feeType",
          "type": "uint256"
        }
      ],
      "name": "PoolSpecificProtocolFeePercentageRemoved",
      "type": "event"
    },
    {
      "anonymous": false,
      "inputs": [
        {
          "indexed": true,
          "internalType": "uint256",
          "name": "feeType",
          "type": "uint256"
        },
        {
          "indexed": false,
          "internalType": "uint256",
          "name": "percentage",
          "type": "uint256"
        }
      ],
      "name": "ProtocolFeePercentageChanged",
      "type": "event"
    },
    {
      "anonymous": false,
      "inputs": [
        {
          "indexed": true,
          "internalType": "uint256",
          "name": "feeType",
          "type": "uint256"
        },
        {
          "indexed": false,
          "internalType": "string",
          "name": "name",
          "type": "string"
        },
        {
          "indexed": false,
          "internalType": "uint256",
          "name": "maximumPercentage",
          "type": "uint256"
        }
      ],
      "name": "ProtocolFeeTypeRegistered",
      "type": "event"
    },
    {
      "inputs": [
        {
          "internalType": "bytes4",
          "name": "selector",
          "type": "bytes4"
        }
      ],
      "name": "getActionId",
      "outputs": [
        {
          "internalType": "bytes32",
          "name": "",
          "type": "bytes32"
        }
      ],
      "stateMutability": "view",
      "type": "function"
    },
    {
      "inputs": [],
      "name": "getAuthorizer",
      "outputs": [
        {
          "internalType": "contract IAuthorizer",
          "name": "",
          "type": "address"
        }
      ],
      "stateMutability": "view",
      "type": "function"
    },
    {
      "inputs": [
        {
          "internalType": "uint256",
          "name": "feeType",
          "type": "uint256"
        }
      ],
      "name": "getFeeTypeMaximumPercentage",
      "outputs": [
        {
          "internalType": "uint256",
          "name": "",
          "type": "uint256"
        }
      ],
      "stateMutability": "view",
      "type": "function"
    },
    {
      "inputs": [
        {
          "internalType": "uint256",
          "name": "feeType",
          "type": "uint256"
        }
      ],
      "name": "getFeeTypeName",
      "outputs": [
        {
          "internalType": "string",
          "name": "",
          "type": "string"
        }
      ],
      "stateMutability": "view",
      "type": "function"
    },
    {
      "inputs": [
        {
          "internalType": "uint256",
          "name": "feeType",
          "type": "uint256"
        }
      ],
      "name": "getFeeTypePercentage",
      "outputs": [
        {
          "internalType": "uint256",
          "name": "",
          "type": "uint256"
        }
      ],
      "stateMutability": "view",
      "type": "function"
    },
    {
      "inputs": [
        {
          "internalType": "address",
          "name": "poolAddress",
          "type": "address"
        },
        {
          "internalType": "uint256",
          "name": "feeType",
          "type": "uint256"
        }
      ],
      "name": "getFeeTypePercentageForPool",
      "outputs": [
        {
          "internalType": "uint256",
          "name": "",
          "type": "uint256"
        }
      ],
      "stateMutability": "view",
      "type": "function"
    },
    {
      "inputs": [],
      "name": "getVault",
      "outputs": [
        {
          "internalType": "contract IVault",
          "name": "",
          "type": "address"
        }
      ],
      "stateMutability": "view",
      "type": "function"
    },
    {
      "inputs": [
        {
          "internalType": "uint256",
          "name": "feeType",
          "type": "uint256"
        }
      ],
      "name": "isValidFeeType",
      "outputs": [
        {
          "internalType": "bool",
          "name": "",
          "type": "bool"
        }
      ],
      "stateMutability": "view",
      "type": "function"
    },
    {
      "inputs": [
        {
          "internalType": "uint256",
          "name": "feeType",
          "type": "uint256"
        },
        {
          "internalType": "uint256",
          "name": "value",
          "type": "uint256"
        }
      ],
      "name": "isValidFeeTypePercentage",
      "outputs": [
        {
          "internalType": "bool",
          "name": "",
          "type": "bool"
        }
      ],
      "stateMutability": "view",
      "type": "function"
    },
    {
      "inputs": [
        {
          "internalType": "uint256",
          "name": "feeType",
          "type": "uint256"
        },
        {
          "internalType": "string",
          "name": "name",
          "type": "string"
        },
        {
          "internalType": "uint256",
          "name": "maximumValue",
          "type": "uint256"
        },
        {
          "internalType": "uint256",
          "name": "initialValue",
          "type": "uint256"
        }
      ],
      "name": "registerFeeType",
      "outputs": [],
      "stateMutability": "nonpayable",
      "type": "function"
    },
    {
      "inputs": [
        {
          "internalType": "address",
          "name": "poolAddress",
          "type": "address"
        },
        {
          "internalType": "uint256",
          "name": "feeType",
          "type": "uint256"
        }
      ],
      "name": "removeFeeTypePercentageForPool",
      "outputs": [],
      "stateMutability": "nonpayable",
      "type": "function"
    },
    {
      "inputs": [
        {
          "internalType": "uint256",
          "name": "feeType",
          "type": "uint256"
        },
        {
          "internalType": "uint256",
          "name": "newValue",
          "type": "uint256"
        }
      ],
      "name": "setFeeTypePercentage",
      "outputs": [],
      "stateMutability": "nonpayable",
      "type": "function"
    },
    {
      "inputs": [
        {
          "internalType": "address",
          "name": "poolAddress",
          "type": "address"
        },
        {
          "internalType": "uint256",
          "name": "feeType",
          "type": "uint256"
        },
        {
          "internalType": "uint256",
          "name": "newValue",
          "type": "uint256"
        }
      ],
      "name": "setFeeTypePercentageForPool",
      "outputs": [],
      "stateMutability": "nonpayable",
      "type": "function"
    }
  ],
  "bytecode": "0x60e06040523480156200001157600080fd5b5060405162001c8e38038062001c8e8339810160408190526200003491620005a0565b306080526001600160601b0319606084901b1660a0526040805163d2946c2b60e01b815290516000916001600160a01b0386169163d2946c2b91600480820192602092909190829003018186803b1580156200008f57600080fd5b505afa158015620000a4573d6000803e3d6000fd5b505050506040513d601f19601f82011682018060405250810190620000ca91906200057a565b6001600160601b0319606082901b1660c052604080518082019091526005815264165a595b1960da1b60208201529091506200010c9060029085600062000277565b6200015760036040518060400160405280601781526020017f41737365747320556e646572204d616e6167656d656e740000000000000000008152508460006200027760201b60201c565b7fad3228b676f7d3cd4284a5443f17f1962b36e491b30a40b2405849e597ba5fb5805460ff60801b1916600160801b1790556040805180820190915260048152630537761760e41b6020828101918252600080805290529051620001dd917fad3228b676f7d3cd4284a5443f17f1962b36e491b30a40b2405849e597ba5fb691620004e8565b507fada5013122d395ba3c54772283fb069b10426056ef8ca54750cb9bb552a59e7d805460ff60801b1916600160801b17905560408051808201909152600a815269233630b9b4102637b0b760b11b602082810191825260016000908152905290516200026c917fada5013122d395ba3c54772283fb069b10426056ef8ca54750cb9bb552a59e7e91620004e8565b5050505050620006c4565b600082118015620002905750670de0b6b3a76400008211155b620002b85760405162461bcd60e51b8152600401620002af906200066e565b60405180910390fd5b81811115620002db5760405162461bcd60e51b8152600401620002af9062000637565b6040518060800160405280620002fc836200043f60201b62000c831760201c565b6001600160401b0316815260200162000320846200043f60201b62000c831760201c565b6001600160401b03908116825260016020808401829052604093840188905260008981528082528490208551815487840151968801511515600160801b0260ff60801b199787166801000000000000000002600160401b600160801b0319939097166001600160401b03199092169190911791909116949094179490941692909217835560608401518051620003bf93928501929190910190620004e8565b50905050837fe07086969b318280a21b104288d59a9c26c15ccdc203744dfe88e76b56810a768484604051620003f7929190620005d9565b60405180910390a2837f34cd0fbe9e7d58e0835610336eda810722864e47a9b1f5dc5c8f976c13c384d382604051620004319190620006a5565b60405180910390a250505050565b6000620004596001600160401b038311156101ba6200045d565b5090565b816200046e576200046e8162000472565b5050565b62000484816210905360ea1b62000487565b50565b62461bcd60e51b600090815260206004526007602452600a808404818106603090810160081b958390069590950190829004918206850160101b01602363ffffff0060e086901c160160181b0190930160c81b60445260e882901c90606490fd5b828054600181600116156101000203166002900490600052602060002090601f016020900481019282601f106200052b57805160ff19168380011785556200055b565b828001600101855582156200055b579182015b828111156200055b5782518255916020019190600101906200053e565b50620004599291505b8082111562000459576000815560010162000564565b6000602082840312156200058c578081fd5b81516200059981620006ae565b9392505050565b600080600060608486031215620005b5578182fd5b8351620005c281620006ae565b602085015160409095015190969495509392505050565b6000604082528351806040840152815b81811015620006085760208187018101516060868401015201620005e9565b818111156200061a5782606083860101525b50602083019390935250601f91909101601f191601606001919050565b6020808252601a908201527f496e76616c696420696e697469616c2070657263656e74616765000000000000604082015260600190565b6020808252601e908201527f496e76616c6964206d6178696d756d206665652070657263656e746167650000604082015260600190565b90815260200190565b6001600160a01b03811681146200048457600080fd5b60805160a05160601c60c05160601c6115886200070660003980610297528061034552806105ee52806106a05250806109ba52508061094152506115886000f3fe608060405234801561001057600080fd5b50600436106100df5760003560e01c806374735e0b1161008c5780638d928af8116100665780638d928af8146101b4578063aaabadc5146101c9578063b661eda1146101d1578063fb302495146101f1576100df565b806374735e0b1461016e578063851c1bb31461018e578063868897a0146101a1576100df565b80635e2cae4c116100bd5780635e2cae4c1461013557806364dfd5a6146101485780637268d6ce1461015b576100df565b80631a7c3263146100e45780632a6a56061461010d5780634d44f0e914610122575b600080fd5b6100f76100f2366004611161565b610204565b6040516101049190611326565b60405180910390f35b61012061011b3660046110b1565b6103cb565b005b610120610130366004611261565b610558565b6100f7610143366004611161565b610761565b6100f7610156366004611086565b6107e2565b610120610169366004611191565b6108a4565b61018161017c366004611261565b610901565b604051610104919061131b565b6100f761019c366004611105565b61093d565b6101816101af366004611161565b61098f565b6101bc6109b8565b604051610104919061135b565b6101bc6109dc565b6101e46101df366004611161565b610a68565b604051610104919061137c565b6101206101ff366004611086565b610b51565b6000816102108161098f565b6102355760405162461bcd60e51b815260040161022c906114c2565b60405180910390fd5b33600090815260016020908152604080832086845290915290205468010000000000000000900460ff16156102905733600090815260016020908152604080832086845290915290205467ffffffffffffffff1691506103c5565b8261033a577f000000000000000000000000000000000000000000000000000000000000000073ffffffffffffffffffffffffffffffffffffffff166355c676286040518163ffffffff1660e01b815260040160206040518083038186803b1580156102fb57600080fd5b505afa15801561030f573d6000803e3d6000fd5b505050506040513d601f19601f820116820180604052508101906103339190611179565b91506103c5565b60018314156103a9577f000000000000000000000000000000000000000000000000000000000000000073ffffffffffffffffffffffffffffffffffffffff1663d877845c6040518163ffffffff1660e01b815260040160206040518083038186803b1580156102fb57600080fd5b60008381526020819052604090205467ffffffffffffffff1691505b50919050565b816103d58161098f565b6103f15760405162461bcd60e51b815260040161022c906114c2565b6103f9610ca0565b8261042b57670de0b6b3a76400008211156104265760405162461bcd60e51b815260040161022c906114f9565b610451565b6104358383610901565b6104515760405162461bcd60e51b815260040161022c906114f9565b604051806040016040528061046584610c83565b67ffffffffffffffff90811682526001602092830181905273ffffffffffffffffffffffffffffffffffffffff881660008181529184526040808320898452855291829020855181549690950151151568010000000000000000027fffffffffffffffffffffffffffffffffffffffffffffff00ffffffffffffffff959094167fffffffffffffffffffffffffffffffffffffffffffffffff000000000000000090961695909517939093169190911790925590518491907fbf3ca5a3d0346a56622756e6b67f065e484ea8711e59243d11b791f1baf1e05a9061054a908690611326565b60405180910390a350505050565b816105628161098f565b61057e5760405162461bcd60e51b815260040161022c906114c2565b610586610ca0565b6105908383610901565b6105ac5760405162461bcd60e51b815260040161022c906114f9565b8261065a576040517f38e9922e00000000000000000000000000000000000000000000000000000000815273ffffffffffffffffffffffffffffffffffffffff7f000000000000000000000000000000000000000000000000000000000000000016906338e9922e90610623908590600401611326565b600060405180830381600087803b15801561063d57600080fd5b505af1158015610651573d6000803e3d6000fd5b50505050610724565b60018314156106d5576040517f6b6b9f6900000000000000000000000000000000000000000000000000000000815273ffffffffffffffffffffffffffffffffffffffff7f00000000000000000000000000000000000000000000000000000000000000001690636b6b9f6990610623908590600401611326565b6106de82610c83565b600084815260208190526040902080547fffffffffffffffffffffffffffffffffffffffffffffffff00000000000000001667ffffffffffffffff929092169190911790555b827f34cd0fbe9e7d58e0835610336eda810722864e47a9b1f5dc5c8f976c13c384d3836040516107549190611326565b60405180910390a2505050565b60008161076d8161098f565b6107895760405162461bcd60e51b815260040161022c906114c2565b8261079e576706f05b59d3b2000091506103c5565b60018314156107b657662386f26fc1000091506103c5565b60008381526020819052604090205468010000000000000000900467ffffffffffffffff1691506103c5565b6000816107ee8161098f565b61080a5760405162461bcd60e51b815260040161022c906114c2565b73ffffffffffffffffffffffffffffffffffffffff8416600090815260016020908152604080832086845290915290205468010000000000000000900460ff16156108915773ffffffffffffffffffffffffffffffffffffffff8416600090815260016020908152604080832086845290915290205467ffffffffffffffff16915061089d565b61089a83610204565b91505b5092915050565b6108ac610ca0565b600084815260208190526040902054700100000000000000000000000000000000900460ff16156108ef5760405162461bcd60e51b815260040161022c906113e8565b6108fb84848484610ce9565b50505050565b60008261090d8161098f565b6109295760405162461bcd60e51b815260040161022c906114c2565b61093284610761565b909211159392505050565b60007f0000000000000000000000000000000000000000000000000000000000000000826040516020016109729291906112eb565b604051602081830303815290604052805190602001209050919050565b600090815260208190526040902054700100000000000000000000000000000000900460ff1690565b7f000000000000000000000000000000000000000000000000000000000000000090565b60006109e66109b8565b73ffffffffffffffffffffffffffffffffffffffff1663aaabadc56040518163ffffffff1660e01b815260040160206040518083038186803b158015610a2b57600080fd5b505afa158015610a3f573d6000803e3d6000fd5b505050506040513d601f19601f82011682018060405250810190610a639190611145565b905090565b606081610a748161098f565b610a905760405162461bcd60e51b815260040161022c906114c2565b60008381526020818152604091829020600190810180548451600293821615610100027fffffffffffffffffffffffffffffffffffffffffffffffffffffffffffffffff0190911692909204601f810184900484028301840190945283825290929091830182828015610b445780601f10610b1957610100808354040283529160200191610b44565b820191906000526020600020905b815481529060010190602001808311610b2757829003601f168201915b5050505050915050919050565b80610b5b8161098f565b610b775760405162461bcd60e51b815260040161022c906114c2565b610b7f610ca0565b610b888261098f565b610ba45760405162461bcd60e51b815260040161022c9061141f565b73ffffffffffffffffffffffffffffffffffffffff8316600090815260016020908152604080832085845290915290205468010000000000000000900460ff16610c005760405162461bcd60e51b815260040161022c90611456565b73ffffffffffffffffffffffffffffffffffffffff8316600081815260016020908152604080832086845290915280822080547fffffffffffffffffffffffffffffffffffffffffffffff000000000000000000169055518492917feeb91359c84070b42cd4e36913519f9b360b74cd68ab2908001ffbd72a9a434d91a3505050565b6000610c9c67ffffffffffffffff8311156101ba610ed8565b5090565b6000610ccf6000357fffffffff000000000000000000000000000000000000000000000000000000001661093d565b9050610ce6610cde8233610eea565b610191610ed8565b50565b600082118015610d015750670de0b6b3a76400008211155b610d1d5760405162461bcd60e51b815260040161022c9061148b565b81811115610d3d5760405162461bcd60e51b815260040161022c906113b1565b6040518060800160405280610d5183610c83565b67ffffffffffffffff168152602001610d6984610c83565b67ffffffffffffffff908116825260016020808401829052604093840188905260008981528082528490208551815487840151968801511515700100000000000000000000000000000000027fffffffffffffffffffffffffffffff00ffffffffffffffffffffffffffffffff97871668010000000000000000027fffffffffffffffffffffffffffffffff0000000000000000ffffffffffffffff939097167fffffffffffffffffffffffffffffffffffffffffffffffff00000000000000009092169190911791909116949094179490941692909217835560608401518051610e5c93928501929190910190610ffc565b50905050837fe07086969b318280a21b104288d59a9c26c15ccdc203744dfe88e76b56810a768484604051610e9292919061138f565b60405180910390a2837f34cd0fbe9e7d58e0835610336eda810722864e47a9b1f5dc5c8f976c13c384d382604051610eca9190611326565b60405180910390a250505050565b81610ee657610ee681610f87565b5050565b6000610ef46109dc565b73ffffffffffffffffffffffffffffffffffffffff16639be2a8848484306040518463ffffffff1660e01b8152600401610f309392919061132f565b60206040518083038186803b158015610f4857600080fd5b505afa158015610f5c573d6000803e3d6000fd5b505050506040513d601f19601f82011682018060405250810190610f8091906110e5565b9392505050565b62461bcd60e51b600090815260206004526007602452600a808304818106603090810160081b83860601918390049283060160101b016642414c230000300160c81b604452610ce6917f42414c0000000000000000000000000000000000000000000000000000000000906242414c90606490fd5b828054600181600116156101000203166002900490600052602060002090601f016020900481019282601f1061103d57805160ff191683800117855561106a565b8280016001018555821561106a579182015b8281111561106a57825182559160200191906001019061104f565b50610c9c9291505b80821115610c9c5760008155600101611072565b60008060408385031215611098578182fd5b82356110a381611530565b946020939093013593505050565b6000806000606084860312156110c5578081fd5b83356110d081611530565b95602085013595506040909401359392505050565b6000602082840312156110f6578081fd5b81518015158114610f80578182fd5b600060208284031215611116578081fd5b81357fffffffff0000000000000000000000000000000000000000000000000000000081168114610f80578182fd5b600060208284031215611156578081fd5b8151610f8081611530565b600060208284031215611172578081fd5b5035919050565b60006020828403121561118a578081fd5b5051919050565b600080600080608085870312156111a6578081fd5b8435935060208086013567ffffffffffffffff808211156111c5578384fd5b818801915088601f8301126111d8578384fd5b8135818111156111e6578485fd5b604051847fffffffffffffffffffffffffffffffffffffffffffffffffffffffffffffffe0601f8401168201018181108482111715611223578687fd5b60405281815283820185018b1015611239578586fd5b8185850186830137908101909301939093525093969395505050506040820135916060013590565b60008060408385031215611273578182fd5b50508035926020909101359150565b60008151808452815b818110156112a75760208185018101518683018201520161128b565b818111156112b85782602083870101525b50601f017fffffffffffffffffffffffffffffffffffffffffffffffffffffffffffffffe0169290920160200192915050565b9182527fffffffff0000000000000000000000000000000000000000000000000000000016602082015260240190565b901515815260200190565b90815260200190565b92835273ffffffffffffffffffffffffffffffffffffffff918216602084015216604082015260600190565b73ffffffffffffffffffffffffffffffffffffffff91909116815260200190565b600060208252610f806020830184611282565b6000604082526113a26040830185611282565b90508260208301529392505050565b6020808252601a908201527f496e76616c696420696e697469616c2070657263656e74616765000000000000604082015260600190565b6020808252601b908201527f466565207479706520616c726561647920726567697374657265640000000000604082015260600190565b60208082526010908201527f496e76616c696420666565207479706500000000000000000000000000000000604082015260600190565b6020808252818101527f4665652074797065206e6f74207265676973746572656420666f7220706f6f6c604082015260600190565b6020808252601e908201527f496e76616c6964206d6178696d756d206665652070657263656e746167650000604082015260600190565b60208082526015908201527f4e6f6e2d6578697374656e742066656520747970650000000000000000000000604082015260600190565b60208082526016908201527f496e76616c6964206665652070657263656e7461676500000000000000000000604082015260600190565b73ffffffffffffffffffffffffffffffffffffffff81168114610ce657600080fdfea2646970667358221220bcfe18c4ca3cdd6fd36385660a585cc7c370fc9f9a438906e83ac378512c64e964736f6c63430007010033",
  "linkReferences": {},
  "deployedLinkReferences": {}
}