{
  "_format": "hh-sol-artifact-1",
  "contractName": "MockStableMath",
  "sourceName": "contracts/test/MockStableMath.sol",
  "abi": [
    {
      "inputs": [
        {
          "internalType": "uint256",
          "name": "amp",
          "type": "uint256"
        },
        {
          "internalType": "uint256[]",
          "name": "balances",
          "type": "uint256[]"
        },
        {
          "internalType": "uint256[]",
          "name": "amountsOut",
          "type": "uint256[]"
        },
        {
          "internalType": "uint256",
          "name": "bptTotalSupply",
          "type": "uint256"
        },
        {
          "internalType": "uint256",
          "name": "swapFee",
          "type": "uint256"
        }
      ],
      "name": "bptInForExactTokensOut",
      "outputs": [
        {
          "internalType": "uint256",
          "name": "",
          "type": "uint256"
        }
      ],
      "stateMutability": "pure",
      "type": "function"
    },
    {
      "inputs": [
        {
          "internalType": "uint256",
          "name": "amp",
          "type": "uint256"
        },
        {
          "internalType": "uint256[]",
          "name": "balances",
          "type": "uint256[]"
        },
        {
          "internalType": "uint256",
          "name": "lastInvariant",
          "type": "uint256"
        },
        {
          "internalType": "uint256",
          "name": "tokenIndex",
          "type": "uint256"
        },
        {
          "internalType": "uint256",
          "name": "protocolSwapFeePercentage",
          "type": "uint256"
        }
      ],
      "name": "calculateDueTokenProtocolSwapFeeAmount",
      "outputs": [
        {
          "internalType": "uint256",
          "name": "",
          "type": "uint256"
        }
      ],
      "stateMutability": "pure",
      "type": "function"
    },
    {
      "inputs": [
        {
          "internalType": "uint256",
          "name": "amp",
          "type": "uint256"
        },
        {
          "internalType": "uint256[]",
          "name": "balances",
          "type": "uint256[]"
        },
        {
          "internalType": "uint256",
          "name": "tokenIndex",
          "type": "uint256"
        },
        {
          "internalType": "uint256",
          "name": "bptAmountIn",
          "type": "uint256"
        },
        {
          "internalType": "uint256",
          "name": "bptTotalSupply",
          "type": "uint256"
        },
        {
          "internalType": "uint256",
          "name": "swapFee",
          "type": "uint256"
        }
      ],
      "name": "exactBPTInForTokenOut",
      "outputs": [
        {
          "internalType": "uint256",
          "name": "",
          "type": "uint256"
        }
      ],
      "stateMutability": "pure",
      "type": "function"
    },
    {
      "inputs": [
        {
          "internalType": "uint256[]",
          "name": "balances",
          "type": "uint256[]"
        },
        {
          "internalType": "uint256",
          "name": "bptAmountIn",
          "type": "uint256"
        },
        {
          "internalType": "uint256",
          "name": "bptTotalSupply",
          "type": "uint256"
        }
      ],
      "name": "exactBPTInForTokensOut",
      "outputs": [
        {
          "internalType": "uint256[]",
          "name": "",
          "type": "uint256[]"
        }
      ],
      "stateMutability": "pure",
      "type": "function"
    },
    {
      "inputs": [
        {
          "internalType": "uint256",
          "name": "amp",
          "type": "uint256"
        },
        {
          "internalType": "uint256[]",
          "name": "balances",
          "type": "uint256[]"
        },
        {
          "internalType": "uint256[]",
          "name": "amountsIn",
          "type": "uint256[]"
        },
        {
          "internalType": "uint256",
          "name": "bptTotalSupply",
          "type": "uint256"
        },
        {
          "internalType": "uint256",
          "name": "swapFee",
          "type": "uint256"
        }
      ],
      "name": "exactTokensInForBPTOut",
      "outputs": [
        {
          "internalType": "uint256",
          "name": "",
          "type": "uint256"
        }
      ],
      "stateMutability": "pure",
      "type": "function"
    },
    {
      "inputs": [
        {
          "internalType": "uint256",
          "name": "amp",
          "type": "uint256"
        },
        {
          "internalType": "uint256[]",
          "name": "balances",
          "type": "uint256[]"
        },
        {
          "internalType": "uint256",
          "name": "tokenIndexIn",
          "type": "uint256"
        },
        {
          "internalType": "uint256",
          "name": "tokenIndexOut",
          "type": "uint256"
        },
        {
          "internalType": "uint256",
          "name": "tokenAmountOut",
          "type": "uint256"
        }
      ],
      "name": "inGivenOut",
      "outputs": [
        {
          "internalType": "uint256",
          "name": "",
          "type": "uint256"
        }
      ],
      "stateMutability": "pure",
      "type": "function"
    },
    {
      "inputs": [
        {
          "internalType": "uint256",
          "name": "amp",
          "type": "uint256"
        },
        {
          "internalType": "uint256[]",
          "name": "balances",
          "type": "uint256[]"
        },
        {
          "internalType": "bool",
          "name": "roundUp",
          "type": "bool"
        }
      ],
      "name": "invariant",
      "outputs": [
        {
          "internalType": "uint256",
          "name": "",
          "type": "uint256"
        }
      ],
      "stateMutability": "pure",
      "type": "function"
    },
    {
      "inputs": [
        {
          "internalType": "uint256",
          "name": "amp",
          "type": "uint256"
        },
        {
          "internalType": "uint256[]",
          "name": "balances",
          "type": "uint256[]"
        },
        {
          "internalType": "uint256",
          "name": "tokenIndexIn",
          "type": "uint256"
        },
        {
          "internalType": "uint256",
          "name": "tokenIndexOut",
          "type": "uint256"
        },
        {
          "internalType": "uint256",
          "name": "tokenAmountIn",
          "type": "uint256"
        }
      ],
      "name": "outGivenIn",
      "outputs": [
        {
          "internalType": "uint256",
          "name": "",
          "type": "uint256"
        }
      ],
      "stateMutability": "pure",
      "type": "function"
    },
    {
      "inputs": [
        {
          "internalType": "uint256",
          "name": "amp",
          "type": "uint256"
        },
        {
          "internalType": "uint256[]",
          "name": "balances",
          "type": "uint256[]"
        },
        {
          "internalType": "uint256",
          "name": "tokenIndex",
          "type": "uint256"
        },
        {
          "internalType": "uint256",
          "name": "bptAmountOut",
          "type": "uint256"
        },
        {
          "internalType": "uint256",
          "name": "bptTotalSupply",
          "type": "uint256"
        },
        {
          "internalType": "uint256",
          "name": "swapFee",
          "type": "uint256"
        }
      ],
      "name": "tokenInForExactBPTOut",
      "outputs": [
        {
          "internalType": "uint256",
          "name": "",
          "type": "uint256"
        }
      ],
      "stateMutability": "pure",
      "type": "function"
    }
  ],
  "bytecode": "0x608060405234801561001057600080fd5b506118c2806100206000396000f3fe608060405234801561001057600080fd5b50600436106100a35760003560e01c80639cd91d3f11610076578063cf1b8c8c1161005b578063cf1b8c8c14610634578063db7ad3f2146106ef578063fe2dd7ba146107a4576100a3565b80639cd91d3f1461044c578063a89d425914610501576100a3565b80631c855fa6146100a857806332fec905146101a0578063405de9781461025e5780636fc82f2914610319575b600080fd5b610150600480360360608110156100be57600080fd5b8101906020810181356401000000008111156100d957600080fd5b8201836020820111156100eb57600080fd5b8035906020019184602083028401116401000000008311171561010d57600080fd5b9190808060200260200160405190810160405280939291908181526020018383602002808284376000920191909152509295505082359350505060200135610859565b60408051602080825283518183015283519192839290830191858101910280838360005b8381101561018c578181015183820152602001610174565b505050509050019250505060405180910390f35b61024c600480360360608110156101b657600080fd5b813591908101906040810160208201356401000000008111156101d857600080fd5b8201836020820111156101ea57600080fd5b8035906020019184602083028401116401000000008311171561020c57600080fd5b9190808060200260200160405190810160405280939291908181526020018383602002808284376000920191909152509295505050503515159050610870565b60408051918252519081900360200190f35b61024c600480360360c081101561027457600080fd5b8135919081019060408101602082013564010000000081111561029657600080fd5b8201836020820111156102a857600080fd5b803590602001918460208302840111640100000000831117156102ca57600080fd5b919080806020026020016040519081016040528093929190818152602001838360200280828437600092019190915250929550508235935050506020810135906040810135906060013561087d565b61024c600480360360a081101561032f57600080fd5b8135919081019060408101602082013564010000000081111561035157600080fd5b82018360208201111561036357600080fd5b8035906020019184602083028401116401000000008311171561038557600080fd5b91908080602002602001604051908101604052809392919081815260200183836020028082843760009201919091525092959493602081019350359150506401000000008111156103d557600080fd5b8201836020820111156103e757600080fd5b8035906020019184602083028401116401000000008311171561040957600080fd5b9190808060200260200160405190810160405280939291908181526020018383602002808284376000920191909152509295505082359350505060200135610898565b61024c600480360360a081101561046257600080fd5b8135919081019060408101602082013564010000000081111561048457600080fd5b82018360208201111561049657600080fd5b803590602001918460208302840111640100000000831117156104b857600080fd5b91908080602002602001604051908101604052809392919081815260200183836020028082843760009201919091525092955050823593505050602081013590604001356108b3565b61024c600480360360a081101561051757600080fd5b8135919081019060408101602082013564010000000081111561053957600080fd5b82018360208201111561054b57600080fd5b8035906020019184602083028401116401000000008311171561056d57600080fd5b91908080602002602001604051908101604052809392919081815260200183836020028082843760009201919091525092959493602081019350359150506401000000008111156105bd57600080fd5b8201836020820111156105cf57600080fd5b803590602001918460208302840111640100000000831117156105f157600080fd5b91908080602002602001604051908101604052809392919081815260200183836020028082843760009201919091525092955050823593505050602001356108c2565b61024c600480360360c081101561064a57600080fd5b8135919081019060408101602082013564010000000081111561066c57600080fd5b82018360208201111561067e57600080fd5b803590602001918460208302840111640100000000831117156106a057600080fd5b91908080602002602001604051908101604052809392919081815260200183836020028082843760009201919091525092955050823593505050602081013590604081013590606001356108d1565b61024c600480360360a081101561070557600080fd5b8135919081019060408101602082013564010000000081111561072757600080fd5b82018360208201111561073957600080fd5b8035906020019184602083028401116401000000008311171561075b57600080fd5b91908080602002602001604051908101604052809392919081815260200183836020028082843760009201919091525092955050823593505050602081013590604001356108e1565b61024c600480360360a08110156107ba57600080fd5b813591908101906040810160208201356401000000008111156107dc57600080fd5b8201836020820111156107ee57600080fd5b8035906020019184602083028401116401000000008311171561081057600080fd5b91908080602002602001604051908101604052809392919081815260200183836020028082843760009201919091525092955050823593505050602081013590604001356108f0565b60606108668484846108ff565b90505b9392505050565b60006108668484846109b1565b600061088d878787878787610b4d565b979650505050505050565b60006108a78686868686610c7f565b90505b95945050505050565b60006108a78686868686610f5a565b60006108a78686868686611008565b600061088d878787878787611284565b60006108a7868686868661134b565b60006108a786868686866113b9565b6060600061090d848461144b565b90506060855167ffffffffffffffff8111801561092957600080fd5b50604051908082528060200260200182016040528015610953578160200160208202803683370190505b50905060005b86518110156109a7576109888388838151811061097257fe5b602002602001015161149e90919063ffffffff16565b82828151811061099457fe5b6020908102919091010152600101610959565b5095945050505050565b81516000908190815b818110156109f2576109e88682815181106109d157fe5b6020026020010151846114d490919063ffffffff16565b92506001016109ba565b5081610a0357600092505050610869565b600082878302825b60ff811015610b35576000858a600081518110610a2457fe5b60200260200101510290506000600190505b86811015610a7857610a6e610a67610a61848e8581518110610a5457fe5b60200260200101516114e6565b896114e6565b868c611500565b9150600101610a36565b50839450610aeb610aba610aa1610a98610a92878c6114e6565b856114e6565b6103e88d611500565b610ab4610aae8a896114e6565b886114e6565b906114d4565b610ae5610ad8610ace6103e88803866114e6565b6103e88e15611500565b610ab48a600101896114e6565b8b611500565b935084841115610b1357600185850311610b0e5783975050505050505050610869565b610b2c565b600184860311610b2c5783975050505050505050610869565b50600101610a0b565b50610b41610142611520565b50505050509392505050565b600080610b5c888860016109b1565b90506000610b7e82610b7887610b72818b6114d4565b9061158d565b906115db565b90506000610b8e8a8a848b611635565b90506000610bb88a8a81518110610ba157fe5b6020026020010151836117eb90919063ffffffff16565b90506000805b8b51811015610bf757610bed8c8281518110610bd657fe5b6020026020010151836114d490919063ffffffff16565b9150600101610bbe565b506000610c20828d8d81518110610c0a57fe5b602002602001015161144b90919063ffffffff16565b90506000610c2d82611801565b90506000610c3b85836115db565b90506000610c4986836117eb565b9050610c6a610c6383670de0b6b3a76400008e900361158d565b82906114d4565b99505050505050505050509695505050505050565b600080805b8651811015610ca657610c9c878281518110610bd657fe5b9150600101610c84565b506060855167ffffffffffffffff81118015610cc157600080fd5b50604051908082528060200260200182016040528015610ceb578160200160208202803683370190505b5090506000805b8851811015610da2576000610d0d858b8481518110610c0a57fe5b9050610d658a8381518110610d1e57fe5b6020026020010151610d5f8b8581518110610d3557fe5b60200260200101518d8681518110610d4957fe5b60200260200101516114d490919063ffffffff16565b9061144b565b848381518110610d7157fe5b602002602001018181525050610d97610d908286858151811061097257fe5b84906114d4565b925050600101610cf2565b506060885167ffffffffffffffff81118015610dbd57600080fd5b50604051908082528060200260200182016040528015610de7578160200160208202803683370190505b50905060005b8951811015610ed157600083858381518110610e0557fe5b60200260200101511115610e8a576000610e36610e2a86670de0b6b3a76400006117eb565b8d858151811061097257fe5b90506000610e60828d8681518110610e4a57fe5b60200260200101516117eb90919063ffffffff16565b9050610e81610e7a82670de0b6b3a76400008d900361149e565b83906114d4565b92505050610ea1565b898281518110610e9657fe5b602002602001015190505b610eb1818c8481518110610d4957fe5b838381518110610ebd57fe5b602090810291909101015250600101610ded565b506000610ee08b8b60016109b1565b90506000610ef08c8460006109b1565b90506000610efe828461144b565b9050670de0b6b3a7640000811115610f4a57610f3c8a7ffffffffffffffffffffffffffffffffffffffffffffffffff21f494c589c0000830161149e565b9750505050505050506108aa565b60009750505050505050506108aa565b600080610f69878760016109b1565b9050610f7b83878681518110610e4a57fe5b868581518110610f8757fe5b6020026020010181815250506000610fa188888489611635565b905083878681518110610fb057fe5b602002602001015101878681518110610fc557fe5b602002602001018181525050610ffc6001610ab4898981518110610fe557fe5b6020026020010151846117eb90919063ffffffff16565b98975050505050505050565b600080805b865181101561102f57611025878281518110610bd657fe5b915060010161100d565b506060855167ffffffffffffffff8111801561104a57600080fd5b50604051908082528060200260200182016040528015611074578160200160208202803683370190505b5090506000805b88518110156111345760006110ac858b848151811061109657fe5b602002602001015161158d90919063ffffffff16565b90506110e88a83815181106110bd57fe5b6020026020010151610b728b85815181106110d457fe5b60200260200101518d8681518110610e4a57fe5b8483815181106110f457fe5b602002602001018181525050611129610d908286858151811061111357fe5b60200260200101516115db90919063ffffffff16565b92505060010161107b565b506060885167ffffffffffffffff8111801561114f57600080fd5b50604051908082528060200260200182016040528015611179578160200160208202803683370190505b50905060005b895181101561123157600084828151811061119657fe5b60200260200101518411156111ea5760006111b3610e2a86611801565b905060006111c7828d8681518110610e4a57fe5b90506111e1610e7a82670de0b6b3a76400008d900361158d565b92505050611201565b8982815181106111f657fe5b602002602001015190505b611211818c8481518110610e4a57fe5b83838151811061121d57fe5b60209081029190910101525060010161117f565b5060006112408b8b60016109b1565b905060006112508c8460006109b1565b9050600061125e828461144b565b905061127361126c82611801565b8b906115db565b9d9c50505050505050505050505050565b600080611293888860016109b1565b905060006112a982610b7887610b72818b6117eb565b905060006112b98a8a848b611635565b905060006112cd828b8b81518110610e4a57fe5b90506000805b8b518110156112f5576112eb8c8281518110610bd657fe5b91506001016112d3565b506000611308828d8d81518110610c0a57fe5b9050600061131582611801565b9050600061132385836115db565b9050600061133186836117eb565b9050610c6a610c6383670de0b6b3a76400008e900361149e565b60008061135a87878787611635565b90508086858151811061136957fe5b6020026020010151116113805760009150506108aa565b60008187868151811061138f57fe5b6020026020010151039050610ffc670de0b6b3a7640000610d5f868461149e90919063ffffffff16565b6000806113c8878760016109b1565b90506113da83878781518110610d4957fe5b8686815181106113e657fe5b602002602001018181525050600061140088888488611635565b90508387878151811061140f57fe5b60200260200101510387878151811061142457fe5b602002602001018181525050610ffc6001611445838a8981518110610e4a57fe5b906117eb565b600061145a8215156004611827565b8261146757506000611498565b670de0b6b3a76400008381029061148a9085838161148157fe5b04146005611827565b82818161149357fe5b049150505b92915050565b60008282026114c28415806114bb5750838583816114b857fe5b04145b6003611827565b670de0b6b3a764000090049392505050565b60008282016108698482101583611827565b60008282026108698415806114bb5750838583816114b857fe5b600081611516576115118484611839565b610866565b6108668484611859565b7f08c379a0000000000000000000000000000000000000000000000000000000006000908152602060045260076024526642414c23000030600a808404818106603090810160081b95839006959095019082900491820690940160101b939093010160c81b604452606490fd5b600061159c8215156004611827565b826115a957506000611498565b670de0b6b3a7640000838102906115c39085838161148157fe5b8260018203816115cf57fe5b04600101915050611498565b60008282026115f58415806114bb5750838583816114b857fe5b80611604576000915050611498565b670de0b6b3a76400007fffffffffffffffffffffffffffffffffffffffffffffffffffffffffffffffff82016115cf565b60008084518602905060008560008151811061164d57fe5b60200260200101519050600086518760008151811061166857fe5b60200260200101510290506000600190505b87518110156116c1576116a66116a0611699848b8581518110610a5457fe5b8a516114e6565b88611839565b91506116b78882815181106109d157fe5b925060010161167a565b508685815181106116ce57fe5b60200260200101518203915060006116e687886114e6565b9050600061171761170b611703846116fe89886114e6565b611859565b6103e86114e6565b8a8981518110610a5457fe5b9050600061173261172b6117038b89611839565b86906114d4565b905060008061174e61174486866114d4565b6116fe8d866114d4565b905060005b60ff8110156117ce5781925061178361177086610ab485866114e6565b6116fe8e61144588610ab48860026114e6565b9150828211156117ac576001838303116117a7575097506117e39650505050505050565b6117c6565b6001828403116117c6575097506117e39650505050505050565b600101611753565b506117da610142611520565b50505050505050505b949350505050565b60006117fb838311156001611827565b50900390565b6000670de0b6b3a76400008210611819576000611498565b50670de0b6b3a76400000390565b816118355761183581611520565b5050565b60006118488215156004611827565b81838161185157fe5b049392505050565b60006118688215156004611827565b8261187557506000611498565b81600184038161188157fe5b04600101905061149856fea264697066735822122091a10e9907bbf234dd38f356460ea83bdd28418c788b43a4ccb6e9dc88d57c8464736f6c63430007010033",
  "linkReferences": {},
  "deployedLinkReferences": {}
}