{
  "_format": "hh-sol-artifact-1",
  "contractName": "MasterChefRewarderFactory",
  "sourceName": "contracts/rewarder/MasterChefRewarderFactory.sol",
  "abi": [
    {
      "inputs": [
        {
          "internalType": "contract MasterChefOperator",
          "name": "_masterChefOperator",
          "type": "address"
        },
        {
          "internalType": "contract BeethovenxMasterChef",
          "name": "_masterChef",
          "type": "address"
        },
        {
          "internalType": "address",
          "name": "_admin",
          "type": "address"
        }
      ],
      "stateMutability": "nonpayable",
      "type": "constructor"
    },
    {
      "anonymous": false,
      "inputs": [
        {
          "indexed": false,
          "internalType": "address",
          "name": "lpToken",
          "type": "address"
        },
        {
          "indexed": false,
          "internalType": "address",
          "name": "rewarder",
          "type": "address"
        },
        {
          "indexed": false,
          "internalType": "uint256",
          "name": "pid",
          "type": "uint256"
        },
        {
          "indexed": false,
          "internalType": "address",
          "name": "admin",
          "type": "address"
        }
      ],
      "name": "RewarderActivated",
      "type": "event"
    },
    {
      "anonymous": false,
      "inputs": [
        {
          "indexed": false,
          "internalType": "address",
          "name": "lpToken",
          "type": "address"
        },
        {
          "indexed": false,
          "internalType": "address",
          "name": "rewarder",
          "type": "address"
        },
        {
          "indexed": false,
          "internalType": "address",
          "name": "admin",
          "type": "address"
        }
      ],
      "name": "RewarderApproved",
      "type": "event"
    },
    {
      "anonymous": false,
      "inputs": [
        {
          "indexed": false,
          "internalType": "address",
          "name": "lpToken",
          "type": "address"
        },
        {
          "indexed": false,
          "internalType": "address",
          "name": "rewarder",
          "type": "address"
        },
        {
          "indexed": false,
          "internalType": "address",
          "name": "rewardToken",
          "type": "address"
        },
        {
          "indexed": false,
          "internalType": "uint256",
          "name": "rewardPerSecond",
          "type": "uint256"
        },
        {
          "indexed": false,
          "internalType": "address",
          "name": "admin",
          "type": "address"
        },
        {
          "indexed": false,
          "internalType": "address",
          "name": "sender",
          "type": "address"
        }
      ],
      "name": "RewarderPrepared",
      "type": "event"
    },
    {
      "anonymous": false,
      "inputs": [
        {
          "indexed": true,
          "internalType": "bytes32",
          "name": "role",
          "type": "bytes32"
        },
        {
          "indexed": true,
          "internalType": "bytes32",
          "name": "previousAdminRole",
          "type": "bytes32"
        },
        {
          "indexed": true,
          "internalType": "bytes32",
          "name": "newAdminRole",
          "type": "bytes32"
        }
      ],
      "name": "RoleAdminChanged",
      "type": "event"
    },
    {
      "anonymous": false,
      "inputs": [
        {
          "indexed": true,
          "internalType": "bytes32",
          "name": "role",
          "type": "bytes32"
        },
        {
          "indexed": true,
          "internalType": "address",
          "name": "account",
          "type": "address"
        },
        {
          "indexed": true,
          "internalType": "address",
          "name": "sender",
          "type": "address"
        }
      ],
      "name": "RoleGranted",
      "type": "event"
    },
    {
      "anonymous": false,
      "inputs": [
        {
          "indexed": true,
          "internalType": "bytes32",
          "name": "role",
          "type": "bytes32"
        },
        {
          "indexed": true,
          "internalType": "address",
          "name": "account",
          "type": "address"
        },
        {
          "indexed": true,
          "internalType": "address",
          "name": "sender",
          "type": "address"
        }
      ],
      "name": "RoleRevoked",
      "type": "event"
    },
    {
      "inputs": [],
      "name": "DEFAULT_ADMIN_ROLE",
      "outputs": [
        {
          "internalType": "bytes32",
          "name": "",
          "type": "bytes32"
        }
      ],
      "stateMutability": "view",
      "type": "function"
    },
    {
      "inputs": [],
      "name": "DEFAULT_REWARDER_FARM_ALLOCATION",
      "outputs": [
        {
          "internalType": "uint256",
          "name": "",
          "type": "uint256"
        }
      ],
      "stateMutability": "view",
      "type": "function"
    },
    {
      "inputs": [],
      "name": "OPERATOR_ROLE",
      "outputs": [
        {
          "internalType": "bytes32",
          "name": "",
          "type": "bytes32"
        }
      ],
      "stateMutability": "view",
      "type": "function"
    },
    {
      "inputs": [
        {
          "internalType": "uint256",
          "name": "deploymentId",
          "type": "uint256"
        }
      ],
      "name": "activateRewarder",
      "outputs": [],
      "stateMutability": "nonpayable",
      "type": "function"
    },
    {
      "inputs": [
        {
          "internalType": "uint256",
          "name": "deploymentId",
          "type": "uint256"
        },
        {
          "internalType": "uint256",
          "name": "timelockEta",
          "type": "uint256"
        }
      ],
      "name": "approveRewarder",
      "outputs": [],
      "stateMutability": "nonpayable",
      "type": "function"
    },
    {
      "inputs": [],
      "name": "defaultAdmin",
      "outputs": [
        {
          "internalType": "address",
          "name": "",
          "type": "address"
        }
      ],
      "stateMutability": "view",
      "type": "function"
    },
    {
      "inputs": [
        {
          "internalType": "uint256",
          "name": "",
          "type": "uint256"
        }
      ],
      "name": "deployedRewarders",
      "outputs": [
        {
          "internalType": "contract TimeBasedMasterChefRewarder",
          "name": "",
          "type": "address"
        }
      ],
      "stateMutability": "view",
      "type": "function"
    },
    {
      "inputs": [
        {
          "internalType": "bytes32",
          "name": "role",
          "type": "bytes32"
        }
      ],
      "name": "getRoleAdmin",
      "outputs": [
        {
          "internalType": "bytes32",
          "name": "",
          "type": "bytes32"
        }
      ],
      "stateMutability": "view",
      "type": "function"
    },
    {
      "inputs": [
        {
          "internalType": "bytes32",
          "name": "role",
          "type": "bytes32"
        },
        {
          "internalType": "address",
          "name": "account",
          "type": "address"
        }
      ],
      "name": "grantRole",
      "outputs": [],
      "stateMutability": "nonpayable",
      "type": "function"
    },
    {
      "inputs": [
        {
          "internalType": "bytes32",
          "name": "role",
          "type": "bytes32"
        },
        {
          "internalType": "address",
          "name": "account",
          "type": "address"
        }
      ],
      "name": "hasRole",
      "outputs": [
        {
          "internalType": "bool",
          "name": "",
          "type": "bool"
        }
      ],
      "stateMutability": "view",
      "type": "function"
    },
    {
      "inputs": [],
      "name": "masterChef",
      "outputs": [
        {
          "internalType": "contract BeethovenxMasterChef",
          "name": "",
          "type": "address"
        }
      ],
      "stateMutability": "view",
      "type": "function"
    },
    {
      "inputs": [],
      "name": "masterChefOperator",
      "outputs": [
        {
          "internalType": "contract MasterChefOperator",
          "name": "",
          "type": "address"
        }
      ],
      "stateMutability": "view",
      "type": "function"
    },
    {
      "inputs": [
        {
          "internalType": "address",
          "name": "lpToken",
          "type": "address"
        },
        {
          "internalType": "address",
          "name": "rewardToken",
          "type": "address"
        },
        {
          "internalType": "uint256",
          "name": "rewardPerSecond",
          "type": "uint256"
        },
        {
          "internalType": "address",
          "name": "admin",
          "type": "address"
        }
      ],
      "name": "prepareRewarder",
      "outputs": [
        {
          "internalType": "address",
          "name": "",
          "type": "address"
        }
      ],
      "stateMutability": "nonpayable",
      "type": "function"
    },
    {
      "inputs": [
        {
          "internalType": "bytes32",
          "name": "role",
          "type": "bytes32"
        },
        {
          "internalType": "address",
          "name": "account",
          "type": "address"
        }
      ],
      "name": "renounceRole",
      "outputs": [],
      "stateMutability": "nonpayable",
      "type": "function"
    },
    {
      "inputs": [
        {
          "internalType": "bytes32",
          "name": "role",
          "type": "bytes32"
        },
        {
          "internalType": "address",
          "name": "account",
          "type": "address"
        }
      ],
      "name": "revokeRole",
      "outputs": [],
      "stateMutability": "nonpayable",
      "type": "function"
    },
    {
      "inputs": [
        {
          "internalType": "uint256",
          "name": "",
          "type": "uint256"
        }
      ],
      "name": "rewarderConfigs",
      "outputs": [
        {
          "internalType": "address",
          "name": "admin",
          "type": "address"
        },
        {
          "internalType": "address",
          "name": "lpToken",
          "type": "address"
        },
        {
          "internalType": "address",
          "name": "rewardToken",
          "type": "address"
        },
        {
          "internalType": "uint256",
          "name": "rewardsPerSecond",
          "type": "uint256"
        },
        {
          "internalType": "bool",
          "name": "approved",
          "type": "bool"
        },
        {
          "internalType": "uint256",
          "name": "timelockEta",
          "type": "uint256"
        },
        {
          "internalType": "bool",
          "name": "activated",
          "type": "bool"
        }
      ],
      "stateMutability": "view",
      "type": "function"
    },
    {
      "inputs": [],
      "name": "rewarderDeploymentLength",
      "outputs": [
        {
          "internalType": "uint256",
          "name": "",
          "type": "uint256"
        }
      ],
      "stateMutability": "view",
      "type": "function"
    },
    {
      "inputs": [
        {
          "internalType": "bytes4",
          "name": "interfaceId",
          "type": "bytes4"
        }
      ],
      "name": "supportsInterface",
      "outputs": [
        {
          "internalType": "bool",
          "name": "",
          "type": "bool"
        }
      ],
      "stateMutability": "view",
      "type": "function"
    }
  ],
  "bytecode": "0x60c06040523480156200001157600080fd5b50604051620033253803806200332583398101604081905262000034916200015d565b6001600160601b0319606084811b821660805283901b1660a052600180546001600160a01b0383166001600160a01b031990911617905562000078600082620000ad565b620000a47f523a704056dcd17bcf83bed8b68c59416dac1119be77755efe3bde0a64e46e0c82620000ad565b505050620001ca565b620000b98282620000bd565b5050565b6000828152602081815260408083206001600160a01b038516845290915290205460ff16620000b9576000828152602081815260408083206001600160a01b03851684529091529020805460ff19166001179055620001193390565b6001600160a01b0316816001600160a01b0316837f2f8788117e7eff1d82e926ec794901d17c78024a50270940304540a733656f0d60405160405180910390a45050565b6000806000606084860312156200017357600080fd5b83516200018081620001b1565b60208501519093506200019381620001b1565b6040850151909250620001a681620001b1565b809150509250925092565b6001600160a01b0381168114620001c757600080fd5b50565b60805160601c60a05160601c61310c62000219600039600081816101f90152818161063701528181610901015281816109ca0152610a660152600081816102210152610ef5015261310c6000f3fe60806040523480156200001157600080fd5b50600436106200012d5760003560e01c806391d1485411620000af578063c9b96bba116200007a578063c9b96bba14620002a0578063d547741f14620002b7578063f48d780e14620002ce578063f5b541a6146200032e578063fe03e408146200035657600080fd5b806391d14854146200026e578063960e4f431462000285578063a217fddf146200028e578063c5782a21146200029757600080fd5b80634fb0a8e911620000fc5780634fb0a8e914620001c3578063575a86b214620001f357806357c0259b146200021b578063751facdc146200024357806384ef8ffc146200025a57600080fd5b806301ffc9a71462000132578063248a9ca3146200015e5780632f2ff15d146200019357806336568abe14620001ac575b600080fd5b62000149620001433660046200143e565b6200036d565b60405190151581526020015b60405180910390f35b620001846200016f366004620013f1565b60009081526020819052604090206001015490565b60405190815260200162000155565b620001aa620001a43660046200140b565b620003a5565b005b620001aa620001bd3660046200140b565b620003d4565b620001da620001d436600462001397565b6200045a565b6040516001600160a01b03909116815260200162000155565b620001da7f000000000000000000000000000000000000000000000000000000000000000081565b620001da7f000000000000000000000000000000000000000000000000000000000000000081565b620001aa62000254366004620013f1565b62000756565b600154620001da906001600160a01b031681565b620001496200027f3660046200140b565b62000d09565b62000184600a81565b62000184600081565b60035462000184565b620001aa620002b1366004620014a4565b62000d32565b620001aa620002c83660046200140b565b62000fb0565b620002e5620002df366004620013f1565b62000fda565b604080516001600160a01b0398891681529688166020880152949096169385019390935260608401919091521515608083015260a082015290151560c082015260e00162000155565b620001847f523a704056dcd17bcf83bed8b68c59416dac1119be77755efe3bde0a64e46e0c81565b620001da62000367366004620013f1565b6200103e565b60006001600160e01b03198216637965db0b60e01b14806200039f57506301ffc9a760e01b6001600160e01b03198316145b92915050565b600082815260208190526040902060010154620003c3813362001069565b620003cf8383620010d8565b505050565b6001600160a01b03811633146200044a5760405162461bcd60e51b815260206004820152602f60248201527f416363657373436f6e74726f6c3a2063616e206f6e6c792072656e6f756e636560448201526e103937b632b9903337b91039b2b63360891b60648201526084015b60405180910390fd5b62000456828262001160565b5050565b6000806001600160a01b0383166200047e576001546001600160a01b031662000480565b825b6040805160e0810182526001600160a01b03808416825289811660208301908152898216838501908152606084018a815260006080860181815260a0870182815260c0880183815260028054600181018255908552985160079099027f405787fa12a823e0f2b7631cc41b3ba8828b3321ca811111fa75cd3aa3bb5ace810180549a8a166001600160a01b03199b8c1617905596517f405787fa12a823e0f2b7631cc41b3ba8828b3321ca811111fa75cd3aa3bb5acf88018054918a16918b1691909117905594517f405787fa12a823e0f2b7631cc41b3ba8828b3321ca811111fa75cd3aa3bb5ad0870180549190981698169790971790955590517f405787fa12a823e0f2b7631cc41b3ba8828b3321ca811111fa75cd3aa3bb5ad184015592517f405787fa12a823e0f2b7631cc41b3ba8828b3321ca811111fa75cd3aa3bb5ad28301805491151560ff1992831617905593517f405787fa12a823e0f2b7631cc41b3ba8828b3321ca811111fa75cd3aa3bb5ad3830155517f405787fa12a823e0f2b7631cc41b3ba8828b3321ca811111fa75cd3aa3bb5ad490910180549115159190931617909155905191925090869082907f000000000000000000000000000000000000000000000000000000000000000090620006629062001389565b6001600160a01b03938416815260208101929092529091166040820152606001604051809103906000f0801580156200069f573d6000803e3d6000fd5b50600380546001810182556000919091527fc2575a0e9e593c00f959f8c92f12db2869c3395a3b0502d05e2516446f71f85b0180546001600160a01b0319166001600160a01b03838116918217909255604080518b841681526020810192909252898316908201526060810188905290841660808201523360a08201529091507f0d433ba4d46d9fe9243f587d21edd8dc07f6d4959b4d640cc79179e70dadee279060c00160405180910390a19695505050505050565b7f523a704056dcd17bcf83bed8b68c59416dac1119be77755efe3bde0a64e46e0c62000783813362001069565b6002828154811062000799576200079962001684565b600091825260209091206004600790920201015460ff16620008095760405162461bcd60e51b815260206004820152602260248201527f526577617264657220686173206e6f74206265656e20617070726f7665642079604482015261195d60f21b606482015260840162000441565b600282815481106200081f576200081f62001684565b600091825260209091206006600790920201015460ff1615620008855760405162461bcd60e51b815260206004820152601a60248201527f526577617264657220616c726561647920616374697661746564000000000000604482015260640162000441565b6000600283815481106200089d576200089d62001684565b90600052602060002090600702019050600060038481548110620008c557620008c562001684565b600091825260208083209091015460068501805460ff191660011790556040805163040f1f6d60e11b815290516001600160a01b0392831695507f00000000000000000000000000000000000000000000000000000000000000009092169263081e3eda92600480840193829003018186803b1580156200094557600080fd5b505afa1580156200095a573d6000803e3d6000fd5b505050506040513d601f19601f820116820180604052508101906200098091906200148a565b9050600081116200099057600080fd5b60005b816200099f8162001654565b60018601546040516306ed78b760e21b8152600481018390529194506001600160a01b0390811692507f00000000000000000000000000000000000000000000000000000000000000001690631bb5e2dc9060240160206040518083038186803b15801562000a0d57600080fd5b505afa15801562000a22573d6000803e3d6000fd5b505050506040513d601f19601f8201168201806040525081019062000a4891906200146a565b6001600160a01b031614801562000b125750826001600160a01b03167f00000000000000000000000000000000000000000000000000000000000000006001600160a01b031663c346253d846040518263ffffffff1660e01b815260040162000ab391815260200190565b60206040518083038186803b15801562000acc57600080fd5b505afa15801562000ae1573d6000803e3d6000fd5b505050506040513d601f19601f8201168201806040525081019062000b0791906200146a565b6001600160a01b0316145b1562000b1c575060015b60008211801562000b2b575080155b62000993578062000b7f5760405162461bcd60e51b815260206004820152601b60248201527f506f6f6c20666f72206c7020746f6b656e206e6f7420666f756e640000000000604482015260640162000441565b60405163771602f760e01b815260048101839052600a60248201526001600160a01b0384169063771602f790604401600060405180830381600087803b15801562000bc957600080fd5b505af115801562000bde573d6000803e3d6000fd5b50505060038501546040516366da581560e01b81526001600160a01b03861692506366da58159162000c169160040190815260200190565b600060405180830381600087803b15801562000c3157600080fd5b505af115801562000c46573d6000803e3d6000fd5b5050855460405163f2fde38b60e01b81526001600160a01b039182166004820152908616925063f2fde38b9150602401600060405180830381600087803b15801562000c9157600080fd5b505af115801562000ca6573d6000803e3d6000fd5b505050506001840154604080516001600160a01b039283168152918516602083015281018390523360608201527f7b61cc177f72f29e2be9ed05cda8c0bd014166c8d6986fb051b6d133bee22908906080015b60405180910390a1505050505050565b6000918252602082815260408084206001600160a01b0393909316845291905290205460ff1690565b7f523a704056dcd17bcf83bed8b68c59416dac1119be77755efe3bde0a64e46e0c62000d5f813362001069565b6002838154811062000d755762000d7562001684565b600091825260209091206004600790920201015460ff161562000ddb5760405162461bcd60e51b815260206004820152601960248201527f526577617264657220616c726561647920617070726f76656400000000000000604482015260640162000441565b60006002848154811062000df35762000df362001684565b9060005260206000209060070201905060006003858154811062000e1b5762000e1b62001684565b6000918252602082200154600484018054600160ff19909116811790915560058501879055604080518281528082019091526001600160a01b039092169350816020015b604080516060810182526000808252602080830182905292820152825260001990920191018162000e5f5750506040805160608101825260018601546001600160a01b0390811682526000602083018190529086169282019290925282519293509183919062000ed35762000ed362001684565b6020908102919091010152604051633b8505a360e01b81526001600160a01b037f00000000000000000000000000000000000000000000000000000000000000001690633b8505a39062000f2e908490899060040162001540565b600060405180830381600087803b15801562000f4957600080fd5b505af115801562000f5e573d6000803e3d6000fd5b505050506001830154604080516001600160a01b039283168152918416602083015233908201527f3b06a579ff77bab5893e77e90555017f387c6f13e98e90b147f40506b05c028a9060600162000cf9565b60008281526020819052604090206001015462000fce813362001069565b620003cf838362001160565b6002818154811062000feb57600080fd5b600091825260209091206007909102018054600182015460028301546003840154600485015460058601546006909601546001600160a01b039586169750938516959490921693909260ff928316921687565b600381815481106200104f57600080fd5b6000918252602090912001546001600160a01b0316905081565b62001075828262000d09565b620004565762001090816001600160a01b03166014620011c8565b6200109d836020620011c8565b604051602001620010b0929190620014c7565b60408051601f198184030181529082905262461bcd60e51b82526200044191600401620015af565b620010e4828262000d09565b62000456576000828152602081815260408083206001600160a01b03851684529091529020805460ff191660011790556200111c3390565b6001600160a01b0316816001600160a01b0316837f2f8788117e7eff1d82e926ec794901d17c78024a50270940304540a733656f0d60405160405180910390a45050565b6200116c828262000d09565b1562000456576000828152602081815260408083206001600160a01b0385168085529252808320805460ff1916905551339285917ff6391f5c32d9c69d2a47ea670b442974b53935d1edc7fd64eb21e047a839171b9190a45050565b60606000620011d9836002620015ff565b620011e6906002620015e4565b67ffffffffffffffff8111156200120157620012016200169a565b6040519080825280601f01601f1916602001820160405280156200122c576020820181803683370190505b509050600360fc1b816000815181106200124a576200124a62001684565b60200101906001600160f81b031916908160001a905350600f60fb1b816001815181106200127c576200127c62001684565b60200101906001600160f81b031916908160001a9053506000620012a2846002620015ff565b620012af906001620015e4565b90505b600181111562001331576f181899199a1a9b1b9c1cb0b131b232b360811b85600f1660108110620012e757620012e762001684565b1a60f81b82828151811062001300576200130062001684565b60200101906001600160f81b031916908160001a90535060049490941c93620013298162001654565b9050620012b2565b508315620013825760405162461bcd60e51b815260206004820181905260248201527f537472696e67733a20686578206c656e67746820696e73756666696369656e74604482015260640162000441565b9392505050565b611a0d80620016ca83390190565b60008060008060808587031215620013ae57600080fd5b8435620013bb81620016b0565b93506020850135620013cd81620016b0565b9250604085013591506060850135620013e681620016b0565b939692955090935050565b6000602082840312156200140457600080fd5b5035919050565b600080604083850312156200141f57600080fd5b8235915060208301356200143381620016b0565b809150509250929050565b6000602082840312156200145157600080fd5b81356001600160e01b0319811681146200138257600080fd5b6000602082840312156200147d57600080fd5b81516200138281620016b0565b6000602082840312156200149d57600080fd5b5051919050565b60008060408385031215620014b857600080fd5b50508035926020909101359150565b7f416363657373436f6e74726f6c3a206163636f756e74200000000000000000008152600083516200150181601785016020880162001621565b7001034b99036b4b9b9b4b733903937b6329607d1b60179184019182015283516200153481602884016020880162001621565b01602801949350505050565b6040808252835182820181905260009190606090818501906020808901865b838110156200159b57815180516001600160a01b039081168752848201518588015290880151168786015293850193908201906001016200155f565b505095909501959095525092949350505050565b6020815260008251806020840152620015d081604085016020870162001621565b601f01601f19169190910160400192915050565b60008219821115620015fa57620015fa6200166e565b500190565b60008160001904831182151516156200161c576200161c6200166e565b500290565b60005b838110156200163e57818101518382015260200162001624565b838111156200164e576000848401525b50505050565b6000816200166657620016666200166e565b506000190190565b634e487b7160e01b600052601160045260246000fd5b634e487b7160e01b600052603260045260246000fd5b634e487b7160e01b600052604160045260246000fd5b6001600160a01b0381168114620016c657600080fd5b5056fe60c06040523480156200001157600080fd5b5060405162001a0d38038062001a0d8339810160408190526200003491620000b5565b6200003f3362000065565b6001600160601b0319606093841b811660805260059290925590911b1660a05262000116565b600080546001600160a01b038381166001600160a01b0319831681178455604051919092169283917f8be0079c531659141344cd1fd0a4f28419497f9722a3daafe3b4186f6b6457e09190a35050565b600080600060608486031215620000cb57600080fd5b8351620000d881620000fd565b602085015160408601519194509250620000f281620000fd565b809150509250925092565b6001600160a01b03811681146200011357600080fd5b50565b60805160601c60a05160601c61187762000196600039600081816102f8015281816104f8015281816105890152818161088c015281816109250152610cba015260008181610332015281816106d60152818161077401528181610db401528181610e5201528181610f0f01528181610f9b0152610fef01526118776000f3fe608060405234801561001057600080fd5b50600436106101215760003560e01c8063771602f7116100ad578063bc58d79511610071578063bc58d795146102bf578063d63b3c49146102d2578063e3692c36146102f3578063f2fde38b1461031a578063f7c618c11461032d57600080fd5b8063771602f7146102245780638da5cb5b146102375780638f10369a1461025c578063929bffc21461026557806393f1a40b1461027857600080fd5b806348e43af4116100f457806348e43af4146101ae57806351eb05a6146101c157806357a5b58c146101f657806366da581514610209578063715018a61461021c57600080fd5b8063081e3eda146101265780631526fe271461013d5780631ab06ee5146101865780631c6717631461019b575b600080fd5b6002545b6040519081526020015b60405180910390f35b61016b61014b366004611533565b600160208190526000918252604090912080549181015460029091015483565b60408051938452602084019290925290820152606001610134565b61019961019436600461161f565b610354565b005b61012a6101a9366004611533565b61045d565b61012a6101bc366004611565565b61047e565b6101d46101cf366004611533565b610804565b6040805182518152602080840151908201529181015190820152606001610134565b61019961020436600461147f565b610a95565b610199610217366004611533565b610ad9565b610199610b3e565b61019961023236600461161f565b610b74565b6000546001600160a01b03165b6040516001600160a01b039091168152602001610134565b61012a60055481565b610199610273366004611595565b610caf565b6102aa610286366004611565565b60036020908152600092835260408084209091529082529020805460019091015482565b60408051928352602083019190915201610134565b6101996102cd366004611533565b610f8e565b6102e56102e03660046115e7565b610fc6565b60405161013492919061165d565b6102447f000000000000000000000000000000000000000000000000000000000000000081565b610199610328366004611462565b611092565b6102447f000000000000000000000000000000000000000000000000000000000000000081565b6000546001600160a01b031633146103875760405162461bcd60e51b815260040161037e90611714565b60405180910390fd5b600082815260016020819052604090912001546103dc5760405162461bcd60e51b8152602060048201526013602482015272141bdbdb08191bd95cc81b9bdd08195e1a5cdd606a1b604482015260640161037e565b60008281526001602052604090206002015460045482916103fc916117a2565b6104069190611749565b600455600082815260016020526040908190206002018290555182907f942cc7e17a17c164bd977f32ab8c54265d5b9d481e4e352bf874f1e568874e7c906104519084815260200190565b60405180910390a25050565b6002818154811061046d57600080fd5b600091825260209091200154905081565b60008281526001602081815260408084208151606081018352815481529381015492840183905260020154908301526104ba57600091506107fd565b60008481526003602090815260408083206001600160a01b0387811685529252808320845191516306ed78b760e21b815260048101899052909391927f00000000000000000000000000000000000000000000000000000000000000001690631bb5e2dc9060240160206040518083038186803b15801561053a57600080fd5b505afa15801561054e573d6000803e3d6000fd5b505050506040513d601f19601f820116820180604052508101906105729190611516565b6040516370a0823160e01b81526001600160a01b037f00000000000000000000000000000000000000000000000000000000000000008116600483015291909116906370a082319060240160206040518083038186803b1580156105d557600080fd5b505afa1580156105e9573d6000803e3d6000fd5b505050506040513d601f19601f8201168201806040525081019061060d919061154c565b905083602001514211801561062157508015155b1561069157600084602001514261063891906117a2565b905060006004548660400151600554846106529190611783565b61065c9190611783565b6106669190611761565b90508261067864e8d4a5100083611783565b6106829190611761565b61068c9085611749565b935050505b6001830154835464e8d4a51000906106aa908590611783565b6106b49190611761565b6106be91906117a2565b6040516370a0823160e01b81523060048201529095507f00000000000000000000000000000000000000000000000000000000000000006001600160a01b0316906370a082319060240160206040518083038186803b15801561072057600080fd5b505afa158015610734573d6000803e3d6000fd5b505050506040513d601f19601f82011682018060405250810190610758919061154c565b8511156107f9576040516370a0823160e01b81523060048201527f00000000000000000000000000000000000000000000000000000000000000006001600160a01b0316906370a082319060240160206040518083038186803b1580156107be57600080fd5b505afa1580156107d2573d6000803e3d6000fd5b505050506040513d601f19601f820116820180604052508101906107f6919061154c565b94505b5050505b5092915050565b61082860405180606001604052806000815260200160008152602001600081525090565b50600081815260016020818152604092839020835160608101855281548152928101549183018290526002015492820192909252901580159061086e5750806020015142115b15610a90576040516306ed78b760e21b8152600481018390526000907f00000000000000000000000000000000000000000000000000000000000000006001600160a01b031690631bb5e2dc9060240160206040518083038186803b1580156108d657600080fd5b505afa1580156108ea573d6000803e3d6000fd5b505050506040513d601f19601f8201168201806040525081019061090e9190611516565b6040516370a0823160e01b81526001600160a01b037f00000000000000000000000000000000000000000000000000000000000000008116600483015291909116906370a082319060240160206040518083038186803b15801561097157600080fd5b505afa158015610985573d6000803e3d6000fd5b505050506040513d601f19601f820116820180604052508101906109a9919061154c565b90508015610a1e5760008260200151426109c391906117a2565b905060006004548460400151600554846109dd9190611783565b6109e79190611783565b6109f19190611761565b905082610a0364e8d4a5100083611783565b610a0d9190611761565b8451610a199190611749565b845250505b426020838101918252600085815260018083526040918290208651808255945191810182905582870151600290910155815190815291820184905281019190915283907fcb7325664a4a3b7c7223eefc492a97ca4fdf94d46884621e5a8fae5a04b2b9d29060600160405180910390a2505b919050565b8060005b81811015610ad357610ac2848483818110610ab657610ab6611816565b90506020020135610804565b50610acc816117e5565b9050610a99565b50505050565b6000546001600160a01b03163314610b035760405162461bcd60e51b815260040161037e90611714565b60058190556040518181527fde89cb17ac7f58f94792b3e91e086ed85403819c24ceea882491f960ccb1a2789060200160405180910390a150565b6000546001600160a01b03163314610b685760405162461bcd60e51b815260040161037e90611714565b610b726000611126565b565b6000546001600160a01b03163314610b9e5760405162461bcd60e51b815260040161037e90611714565b6000828152600160208190526040909120015415610bf45760405162461bcd60e51b8152602060048201526013602482015272506f6f6c20616c72656164792065786973747360681b604482015260640161037e565b6004544290610c04908390611749565b60045560408051606081018252600080825260208083018581528385018781528884526001928390528584209451855590518483015551600293840155825490810183559190527f405787fa12a823e0f2b7631cc41b3ba8828b3321ca811111fa75cd3aa3bb5ace018490555183907f38410508059921573ab9ebdca2a5034be738d236366b8f32de4434ea95ed3c8190610ca29085815260200190565b60405180910390a2505050565b336001600160a01b037f00000000000000000000000000000000000000000000000000000000000000001614610d375760405162461bcd60e51b815260206004820152602760248201527f4f6e6c79204d6173746572436865662063616e2063616c6c20746869732066756044820152663731ba34b7b71760c91b606482015260840161037e565b6000610d4286610804565b60008781526003602090815260408083206001600160a01b038a168452909152812080549293509115610ed75760018201548351835464e8d4a5100091610d8891611783565b610d929190611761565b610d9c91906117a2565b6040516370a0823160e01b81523060048201529091507f00000000000000000000000000000000000000000000000000000000000000006001600160a01b0316906370a082319060240160206040518083038186803b158015610dfe57600080fd5b505afa158015610e12573d6000803e3d6000fd5b505050506040513d601f19601f82011682018060405250810190610e36919061154c565b811115610ed7576040516370a0823160e01b81523060048201527f00000000000000000000000000000000000000000000000000000000000000006001600160a01b0316906370a082319060240160206040518083038186803b158015610e9c57600080fd5b505afa158015610eb0573d6000803e3d6000fd5b505050506040513d601f19601f82011682018060405250810190610ed4919061154c565b90505b838255825164e8d4a5100090610eed9086611783565b610ef79190611761565b60018301558015610f3657610f366001600160a01b037f0000000000000000000000000000000000000000000000000000000000000000168783611176565b856001600160a01b031688886001600160a01b03167f2ece88ca2bc08dd018db50e1d25a20bf1241e5fab1c396caa51f01a54bd2f75b84604051610f7c91815260200190565b60405180910390a45050505050505050565b610fc36001600160a01b037f0000000000000000000000000000000000000000000000000000000000000000163330846111de565b50565b6040805160018082528183019092526060918291600091602080830190803683370190505090507f00000000000000000000000000000000000000000000000000000000000000008160008151811061102157611021611816565b6001600160a01b039290921660209283029190910190910152604080516001808252818301909252600091816020016020820280368337019050509050611068878761047e565b8160008151811061107b5761107b611816565b602090810291909101015290969095509350505050565b6000546001600160a01b031633146110bc5760405162461bcd60e51b815260040161037e90611714565b6001600160a01b0381166111215760405162461bcd60e51b815260206004820152602660248201527f4f776e61626c653a206e6577206f776e657220697320746865207a65726f206160448201526564647265737360d01b606482015260840161037e565b610fc3815b600080546001600160a01b038381166001600160a01b0319831681178455604051919092169283917f8be0079c531659141344cd1fd0a4f28419497f9722a3daafe3b4186f6b6457e09190a35050565b6040516001600160a01b0383166024820152604481018290526111d990849063a9059cbb60e01b906064015b60408051601f198184030181529190526020810180516001600160e01b03166001600160e01b031990931692909217909152611216565b505050565b6040516001600160a01b0380851660248301528316604482015260648101829052610ad39085906323b872dd60e01b906084016111a2565b600061126b826040518060400160405280602081526020017f5361666545524332303a206c6f772d6c6576656c2063616c6c206661696c6564815250856001600160a01b03166112e89092919063ffffffff16565b8051909150156111d9578080602001905181019061128991906114f4565b6111d95760405162461bcd60e51b815260206004820152602a60248201527f5361666545524332303a204552433230206f7065726174696f6e20646964206e6044820152691bdd081cdd58d8d9595960b21b606482015260840161037e565b60606112f78484600085611301565b90505b9392505050565b6060824710156113625760405162461bcd60e51b815260206004820152602660248201527f416464726573733a20696e73756666696369656e742062616c616e636520666f6044820152651c8818d85b1b60d21b606482015260840161037e565b843b6113b05760405162461bcd60e51b815260206004820152601d60248201527f416464726573733a2063616c6c20746f206e6f6e2d636f6e7472616374000000604482015260640161037e565b600080866001600160a01b031685876040516113cc9190611641565b60006040518083038185875af1925050503d8060008114611409576040519150601f19603f3d011682016040523d82523d6000602084013e61140e565b606091505b509150915061141e828286611429565b979650505050505050565b606083156114385750816112fa565b8251156114485782518084602001fd5b8160405162461bcd60e51b815260040161037e91906116e1565b60006020828403121561147457600080fd5b81356112fa8161182c565b6000806020838503121561149257600080fd5b823567ffffffffffffffff808211156114aa57600080fd5b818501915085601f8301126114be57600080fd5b8135818111156114cd57600080fd5b8660208260051b85010111156114e257600080fd5b60209290920196919550909350505050565b60006020828403121561150657600080fd5b815180151581146112fa57600080fd5b60006020828403121561152857600080fd5b81516112fa8161182c565b60006020828403121561154557600080fd5b5035919050565b60006020828403121561155e57600080fd5b5051919050565b6000806040838503121561157857600080fd5b82359150602083013561158a8161182c565b809150509250929050565b600080600080600060a086880312156115ad57600080fd5b8535945060208601356115bf8161182c565b935060408601356115cf8161182c565b94979396509394606081013594506080013592915050565b6000806000606084860312156115fc57600080fd5b83359250602084013561160e8161182c565b929592945050506040919091013590565b6000806040838503121561163257600080fd5b50508035926020909101359150565b600082516116538184602087016117b9565b9190910192915050565b604080825283519082018190526000906020906060840190828701845b8281101561169f5781516001600160a01b03168452928401929084019060010161167a565b5050508381038285015284518082528583019183019060005b818110156116d4578351835292840192918401916001016116b8565b5090979650505050505050565b60208152600082518060208401526117008160408501602087016117b9565b601f01601f19169190910160400192915050565b6020808252818101527f4f776e61626c653a2063616c6c6572206973206e6f7420746865206f776e6572604082015260600190565b6000821982111561175c5761175c611800565b500190565b60008261177e57634e487b7160e01b600052601260045260246000fd5b500490565b600081600019048311821515161561179d5761179d611800565b500290565b6000828210156117b4576117b4611800565b500390565b60005b838110156117d45781810151838201526020016117bc565b83811115610ad35750506000910152565b60006000198214156117f9576117f9611800565b5060010190565b634e487b7160e01b600052601160045260246000fd5b634e487b7160e01b600052603260045260246000fd5b6001600160a01b0381168114610fc357600080fdfea2646970667358221220afbd911ba09bfcc6eb2d10ef679f537a532c41845fbc065ff108452b2ab0d8b164736f6c63430008070033a26469706673582212208245e0d4658764a044eade9fcc5750000576d7d731c71a034d3e5c0e1dec49dd64736f6c63430008070033",
  "linkReferences": {},
  "deployedLinkReferences": {}
}