{
  "_format": "hh-sol-artifact-1",
  "contractName": "MockMetaStablePool",
  "sourceName": "contracts/test/meta/MockMetaStablePool.sol",
  "abi": [
    {
      "inputs": [
        {
          "components": [
            {
              "internalType": "contract IVault",
              "name": "vault",
              "type": "address"
            },
            {
              "internalType": "string",
              "name": "name",
              "type": "string"
            },
            {
              "internalType": "string",
              "name": "symbol",
              "type": "string"
            },
            {
              "internalType": "contract IERC20[]",
              "name": "tokens",
              "type": "address[]"
            },
            {
              "internalType": "contract IRateProvider[]",
              "name": "rateProviders",
              "type": "address[]"
            },
            {
              "internalType": "uint256[]",
              "name": "priceRateCacheDuration",
              "type": "uint256[]"
            },
            {
              "internalType": "uint256",
              "name": "amplificationParameter",
              "type": "uint256"
            },
            {
              "internalType": "uint256",
              "name": "swapFeePercentage",
              "type": "uint256"
            },
            {
              "internalType": "uint256",
              "name": "pauseWindowDuration",
              "type": "uint256"
            },
            {
              "internalType": "uint256",
              "name": "bufferPeriodDuration",
              "type": "uint256"
            },
            {
              "internalType": "bool",
              "name": "oracleEnabled",
              "type": "bool"
            },
            {
              "internalType": "address",
              "name": "owner",
              "type": "address"
            }
          ],
          "internalType": "struct MetaStablePool.NewPoolParams",
          "name": "params",
          "type": "tuple"
        }
      ],
      "stateMutability": "nonpayable",
      "type": "constructor"
    },
    {
      "anonymous": false,
      "inputs": [
        {
          "indexed": false,
          "internalType": "uint256",
          "name": "startValue",
          "type": "uint256"
        },
        {
          "indexed": false,
          "internalType": "uint256",
          "name": "endValue",
          "type": "uint256"
        },
        {
          "indexed": false,
          "internalType": "uint256",
          "name": "startTime",
          "type": "uint256"
        },
        {
          "indexed": false,
          "internalType": "uint256",
          "name": "endTime",
          "type": "uint256"
        }
      ],
      "name": "AmpUpdateStarted",
      "type": "event"
    },
    {
      "anonymous": false,
      "inputs": [
        {
          "indexed": false,
          "internalType": "uint256",
          "name": "currentValue",
          "type": "uint256"
        }
      ],
      "name": "AmpUpdateStopped",
      "type": "event"
    },
    {
      "anonymous": false,
      "inputs": [
        {
          "indexed": true,
          "internalType": "address",
          "name": "owner",
          "type": "address"
        },
        {
          "indexed": true,
          "internalType": "address",
          "name": "spender",
          "type": "address"
        },
        {
          "indexed": false,
          "internalType": "uint256",
          "name": "value",
          "type": "uint256"
        }
      ],
      "name": "Approval",
      "type": "event"
    },
    {
      "anonymous": false,
      "inputs": [
        {
          "indexed": false,
          "internalType": "bool",
          "name": "enabled",
          "type": "bool"
        }
      ],
      "name": "OracleEnabledChanged",
      "type": "event"
    },
    {
      "anonymous": false,
      "inputs": [
        {
          "indexed": false,
          "internalType": "bool",
          "name": "paused",
          "type": "bool"
        }
      ],
      "name": "PausedStateChanged",
      "type": "event"
    },
    {
      "anonymous": false,
      "inputs": [
        {
          "indexed": true,
          "internalType": "contract IERC20",
          "name": "token",
          "type": "address"
        },
        {
          "indexed": false,
          "internalType": "uint256",
          "name": "rate",
          "type": "uint256"
        }
      ],
      "name": "PriceRateCacheUpdated",
      "type": "event"
    },
    {
      "anonymous": false,
      "inputs": [
        {
          "indexed": true,
          "internalType": "contract IERC20",
          "name": "token",
          "type": "address"
        },
        {
          "indexed": true,
          "internalType": "contract IRateProvider",
          "name": "provider",
          "type": "address"
        },
        {
          "indexed": false,
          "internalType": "uint256",
          "name": "cacheDuration",
          "type": "uint256"
        }
      ],
      "name": "PriceRateProviderSet",
      "type": "event"
    },
    {
      "anonymous": false,
      "inputs": [
        {
          "indexed": false,
          "internalType": "uint256",
          "name": "swapFeePercentage",
          "type": "uint256"
        }
      ],
      "name": "SwapFeePercentageChanged",
      "type": "event"
    },
    {
      "anonymous": false,
      "inputs": [
        {
          "indexed": true,
          "internalType": "address",
          "name": "from",
          "type": "address"
        },
        {
          "indexed": true,
          "internalType": "address",
          "name": "to",
          "type": "address"
        },
        {
          "indexed": false,
          "internalType": "uint256",
          "name": "value",
          "type": "uint256"
        }
      ],
      "name": "Transfer",
      "type": "event"
    },
    {
      "inputs": [],
      "name": "DOMAIN_SEPARATOR",
      "outputs": [
        {
          "internalType": "bytes32",
          "name": "",
          "type": "bytes32"
        }
      ],
      "stateMutability": "view",
      "type": "function"
    },
    {
      "inputs": [
        {
          "internalType": "address",
          "name": "owner",
          "type": "address"
        },
        {
          "internalType": "address",
          "name": "spender",
          "type": "address"
        }
      ],
      "name": "allowance",
      "outputs": [
        {
          "internalType": "uint256",
          "name": "",
          "type": "uint256"
        }
      ],
      "stateMutability": "view",
      "type": "function"
    },
    {
      "inputs": [
        {
          "internalType": "address",
          "name": "spender",
          "type": "address"
        },
        {
          "internalType": "uint256",
          "name": "amount",
          "type": "uint256"
        }
      ],
      "name": "approve",
      "outputs": [
        {
          "internalType": "bool",
          "name": "",
          "type": "bool"
        }
      ],
      "stateMutability": "nonpayable",
      "type": "function"
    },
    {
      "inputs": [
        {
          "internalType": "address",
          "name": "account",
          "type": "address"
        }
      ],
      "name": "balanceOf",
      "outputs": [
        {
          "internalType": "uint256",
          "name": "",
          "type": "uint256"
        }
      ],
      "stateMutability": "view",
      "type": "function"
    },
    {
      "inputs": [
        {
          "internalType": "uint256",
          "name": "amplificationParameter",
          "type": "uint256"
        },
        {
          "internalType": "uint256[]",
          "name": "balances",
          "type": "uint256[]"
        },
        {
          "internalType": "int256",
          "name": "bptTotalSupplyLn",
          "type": "int256"
        }
      ],
      "name": "calcLogBptPrice",
      "outputs": [
        {
          "internalType": "int256",
          "name": "",
          "type": "int256"
        }
      ],
      "stateMutability": "pure",
      "type": "function"
    },
    {
      "inputs": [
        {
          "internalType": "uint256",
          "name": "amplificationParameter",
          "type": "uint256"
        },
        {
          "internalType": "uint256[]",
          "name": "balances",
          "type": "uint256[]"
        }
      ],
      "name": "calcLogSpotPrice",
      "outputs": [
        {
          "internalType": "int256",
          "name": "",
          "type": "int256"
        }
      ],
      "stateMutability": "pure",
      "type": "function"
    },
    {
      "inputs": [],
      "name": "decimals",
      "outputs": [
        {
          "internalType": "uint8",
          "name": "",
          "type": "uint8"
        }
      ],
      "stateMutability": "view",
      "type": "function"
    },
    {
      "inputs": [
        {
          "internalType": "address",
          "name": "spender",
          "type": "address"
        },
        {
          "internalType": "uint256",
          "name": "amount",
          "type": "uint256"
        }
      ],
      "name": "decreaseAllowance",
      "outputs": [
        {
          "internalType": "bool",
          "name": "",
          "type": "bool"
        }
      ],
      "stateMutability": "nonpayable",
      "type": "function"
    },
    {
      "inputs": [],
      "name": "enableOracle",
      "outputs": [],
      "stateMutability": "nonpayable",
      "type": "function"
    },
    {
      "inputs": [
        {
          "internalType": "int256",
          "name": "value",
          "type": "int256"
        }
      ],
      "name": "fromLowResLog",
      "outputs": [
        {
          "internalType": "uint256",
          "name": "",
          "type": "uint256"
        }
      ],
      "stateMutability": "pure",
      "type": "function"
    },
    {
      "inputs": [
        {
          "internalType": "bytes4",
          "name": "selector",
          "type": "bytes4"
        }
      ],
      "name": "getActionId",
      "outputs": [
        {
          "internalType": "bytes32",
          "name": "",
          "type": "bytes32"
        }
      ],
      "stateMutability": "view",
      "type": "function"
    },
    {
      "inputs": [],
      "name": "getAmplificationParameter",
      "outputs": [
        {
          "internalType": "uint256",
          "name": "value",
          "type": "uint256"
        },
        {
          "internalType": "bool",
          "name": "isUpdating",
          "type": "bool"
        },
        {
          "internalType": "uint256",
          "name": "precision",
          "type": "uint256"
        }
      ],
      "stateMutability": "view",
      "type": "function"
    },
    {
      "inputs": [],
      "name": "getAuthorizer",
      "outputs": [
        {
          "internalType": "contract IAuthorizer",
          "name": "",
          "type": "address"
        }
      ],
      "stateMutability": "view",
      "type": "function"
    },
    {
      "inputs": [],
      "name": "getLargestSafeQueryWindow",
      "outputs": [
        {
          "internalType": "uint256",
          "name": "",
          "type": "uint256"
        }
      ],
      "stateMutability": "pure",
      "type": "function"
    },
    {
      "inputs": [],
      "name": "getLastInvariant",
      "outputs": [
        {
          "internalType": "uint256",
          "name": "lastInvariant",
          "type": "uint256"
        },
        {
          "internalType": "uint256",
          "name": "lastInvariantAmp",
          "type": "uint256"
        }
      ],
      "stateMutability": "view",
      "type": "function"
    },
    {
      "inputs": [
        {
          "internalType": "enum IPriceOracle.Variable",
          "name": "variable",
          "type": "uint8"
        }
      ],
      "name": "getLatest",
      "outputs": [
        {
          "internalType": "uint256",
          "name": "",
          "type": "uint256"
        }
      ],
      "stateMutability": "view",
      "type": "function"
    },
    {
      "inputs": [],
      "name": "getOracleMiscData",
      "outputs": [
        {
          "internalType": "int256",
          "name": "logInvariant",
          "type": "int256"
        },
        {
          "internalType": "int256",
          "name": "logTotalSupply",
          "type": "int256"
        },
        {
          "internalType": "uint256",
          "name": "oracleSampleCreationTimestamp",
          "type": "uint256"
        },
        {
          "internalType": "uint256",
          "name": "oracleIndex",
          "type": "uint256"
        },
        {
          "internalType": "bool",
          "name": "oracleEnabled",
          "type": "bool"
        }
      ],
      "stateMutability": "view",
      "type": "function"
    },
    {
      "inputs": [],
      "name": "getOwner",
      "outputs": [
        {
          "internalType": "address",
          "name": "",
          "type": "address"
        }
      ],
      "stateMutability": "view",
      "type": "function"
    },
    {
      "inputs": [
        {
          "components": [
            {
              "internalType": "enum IPriceOracle.Variable",
              "name": "variable",
              "type": "uint8"
            },
            {
              "internalType": "uint256",
              "name": "ago",
              "type": "uint256"
            }
          ],
          "internalType": "struct IPriceOracle.OracleAccumulatorQuery[]",
          "name": "queries",
          "type": "tuple[]"
        }
      ],
      "name": "getPastAccumulators",
      "outputs": [
        {
          "internalType": "int256[]",
          "name": "results",
          "type": "int256[]"
        }
      ],
      "stateMutability": "view",
      "type": "function"
    },
    {
      "inputs": [],
      "name": "getPausedState",
      "outputs": [
        {
          "internalType": "bool",
          "name": "paused",
          "type": "bool"
        },
        {
          "internalType": "uint256",
          "name": "pauseWindowEndTime",
          "type": "uint256"
        },
        {
          "internalType": "uint256",
          "name": "bufferPeriodEndTime",
          "type": "uint256"
        }
      ],
      "stateMutability": "view",
      "type": "function"
    },
    {
      "inputs": [],
      "name": "getPoolId",
      "outputs": [
        {
          "internalType": "bytes32",
          "name": "",
          "type": "bytes32"
        }
      ],
      "stateMutability": "view",
      "type": "function"
    },
    {
      "inputs": [
        {
          "internalType": "contract IERC20",
          "name": "token",
          "type": "address"
        }
      ],
      "name": "getPriceRateCache",
      "outputs": [
        {
          "internalType": "uint256",
          "name": "rate",
          "type": "uint256"
        },
        {
          "internalType": "uint256",
          "name": "duration",
          "type": "uint256"
        },
        {
          "internalType": "uint256",
          "name": "expires",
          "type": "uint256"
        }
      ],
      "stateMutability": "view",
      "type": "function"
    },
    {
      "inputs": [],
      "name": "getRate",
      "outputs": [
        {
          "internalType": "uint256",
          "name": "",
          "type": "uint256"
        }
      ],
      "stateMutability": "view",
      "type": "function"
    },
    {
      "inputs": [],
      "name": "getRateProviders",
      "outputs": [
        {
          "internalType": "contract IRateProvider[]",
          "name": "providers",
          "type": "address[]"
        }
      ],
      "stateMutability": "view",
      "type": "function"
    },
    {
      "inputs": [
        {
          "internalType": "uint256",
          "name": "index",
          "type": "uint256"
        }
      ],
      "name": "getSample",
      "outputs": [
        {
          "internalType": "int256",
          "name": "logPairPrice",
          "type": "int256"
        },
        {
          "internalType": "int256",
          "name": "accLogPairPrice",
          "type": "int256"
        },
        {
          "internalType": "int256",
          "name": "logBptPrice",
          "type": "int256"
        },
        {
          "internalType": "int256",
          "name": "accLogBptPrice",
          "type": "int256"
        },
        {
          "internalType": "int256",
          "name": "logInvariant",
          "type": "int256"
        },
        {
          "internalType": "int256",
          "name": "accLogInvariant",
          "type": "int256"
        },
        {
          "internalType": "uint256",
          "name": "timestamp",
          "type": "uint256"
        }
      ],
      "stateMutability": "view",
      "type": "function"
    },
    {
      "inputs": [
        {
          "internalType": "contract IERC20",
          "name": "token",
          "type": "address"
        }
      ],
      "name": "getScalingFactor",
      "outputs": [
        {
          "internalType": "uint256",
          "name": "",
          "type": "uint256"
        }
      ],
      "stateMutability": "view",
      "type": "function"
    },
    {
      "inputs": [],
      "name": "getScalingFactors",
      "outputs": [
        {
          "internalType": "uint256[]",
          "name": "",
          "type": "uint256[]"
        }
      ],
      "stateMutability": "view",
      "type": "function"
    },
    {
      "inputs": [],
      "name": "getSwapFeePercentage",
      "outputs": [
        {
          "internalType": "uint256",
          "name": "",
          "type": "uint256"
        }
      ],
      "stateMutability": "view",
      "type": "function"
    },
    {
      "inputs": [
        {
          "components": [
            {
              "internalType": "enum IPriceOracle.Variable",
              "name": "variable",
              "type": "uint8"
            },
            {
              "internalType": "uint256",
              "name": "secs",
              "type": "uint256"
            },
            {
              "internalType": "uint256",
              "name": "ago",
              "type": "uint256"
            }
          ],
          "internalType": "struct IPriceOracle.OracleAverageQuery[]",
          "name": "queries",
          "type": "tuple[]"
        }
      ],
      "name": "getTimeWeightedAverage",
      "outputs": [
        {
          "internalType": "uint256[]",
          "name": "results",
          "type": "uint256[]"
        }
      ],
      "stateMutability": "view",
      "type": "function"
    },
    {
      "inputs": [],
      "name": "getTotalSamples",
      "outputs": [
        {
          "internalType": "uint256",
          "name": "",
          "type": "uint256"
        }
      ],
      "stateMutability": "pure",
      "type": "function"
    },
    {
      "inputs": [],
      "name": "getVault",
      "outputs": [
        {
          "internalType": "contract IVault",
          "name": "",
          "type": "address"
        }
      ],
      "stateMutability": "view",
      "type": "function"
    },
    {
      "inputs": [
        {
          "internalType": "address",
          "name": "spender",
          "type": "address"
        },
        {
          "internalType": "uint256",
          "name": "addedValue",
          "type": "uint256"
        }
      ],
      "name": "increaseAllowance",
      "outputs": [
        {
          "internalType": "bool",
          "name": "",
          "type": "bool"
        }
      ],
      "stateMutability": "nonpayable",
      "type": "function"
    },
    {
      "inputs": [],
      "name": "mockCachePriceRatesIfNecessary",
      "outputs": [],
      "stateMutability": "nonpayable",
      "type": "function"
    },
    {
      "inputs": [
        {
          "components": [
            {
              "internalType": "int256",
              "name": "logInvariant",
              "type": "int256"
            },
            {
              "internalType": "int256",
              "name": "logTotalSupply",
              "type": "int256"
            },
            {
              "internalType": "uint256",
              "name": "oracleSampleCreationTimestamp",
              "type": "uint256"
            },
            {
              "internalType": "uint256",
              "name": "oracleIndex",
              "type": "uint256"
            },
            {
              "internalType": "bool",
              "name": "oracleEnabled",
              "type": "bool"
            }
          ],
          "internalType": "struct MockMetaStablePool.MiscData",
          "name": "miscData",
          "type": "tuple"
        }
      ],
      "name": "mockMiscData",
      "outputs": [],
      "stateMutability": "nonpayable",
      "type": "function"
    },
    {
      "inputs": [],
      "name": "mockOracleDisabled",
      "outputs": [],
      "stateMutability": "nonpayable",
      "type": "function"
    },
    {
      "inputs": [
        {
          "internalType": "uint256",
          "name": "index",
          "type": "uint256"
        }
      ],
      "name": "mockOracleIndex",
      "outputs": [],
      "stateMutability": "nonpayable",
      "type": "function"
    },
    {
      "inputs": [],
      "name": "name",
      "outputs": [
        {
          "internalType": "string",
          "name": "",
          "type": "string"
        }
      ],
      "stateMutability": "view",
      "type": "function"
    },
    {
      "inputs": [
        {
          "internalType": "address",
          "name": "owner",
          "type": "address"
        }
      ],
      "name": "nonces",
      "outputs": [
        {
          "internalType": "uint256",
          "name": "",
          "type": "uint256"
        }
      ],
      "stateMutability": "view",
      "type": "function"
    },
    {
      "inputs": [
        {
          "internalType": "bytes32",
          "name": "poolId",
          "type": "bytes32"
        },
        {
          "internalType": "address",
          "name": "sender",
          "type": "address"
        },
        {
          "internalType": "address",
          "name": "recipient",
          "type": "address"
        },
        {
          "internalType": "uint256[]",
          "name": "balances",
          "type": "uint256[]"
        },
        {
          "internalType": "uint256",
          "name": "lastChangeBlock",
          "type": "uint256"
        },
        {
          "internalType": "uint256",
          "name": "protocolSwapFeePercentage",
          "type": "uint256"
        },
        {
          "internalType": "bytes",
          "name": "userData",
          "type": "bytes"
        }
      ],
      "name": "onExitPool",
      "outputs": [
        {
          "internalType": "uint256[]",
          "name": "amountsOut",
          "type": "uint256[]"
        },
        {
          "internalType": "uint256[]",
          "name": "dueProtocolFeeAmounts",
          "type": "uint256[]"
        }
      ],
      "stateMutability": "nonpayable",
      "type": "function"
    },
    {
      "inputs": [
        {
          "internalType": "bytes32",
          "name": "poolId",
          "type": "bytes32"
        },
        {
          "internalType": "address",
          "name": "sender",
          "type": "address"
        },
        {
          "internalType": "address",
          "name": "recipient",
          "type": "address"
        },
        {
          "internalType": "uint256[]",
          "name": "balances",
          "type": "uint256[]"
        },
        {
          "internalType": "uint256",
          "name": "lastChangeBlock",
          "type": "uint256"
        },
        {
          "internalType": "uint256",
          "name": "protocolSwapFeePercentage",
          "type": "uint256"
        },
        {
          "internalType": "bytes",
          "name": "userData",
          "type": "bytes"
        }
      ],
      "name": "onJoinPool",
      "outputs": [
        {
          "internalType": "uint256[]",
          "name": "amountsIn",
          "type": "uint256[]"
        },
        {
          "internalType": "uint256[]",
          "name": "dueProtocolFeeAmounts",
          "type": "uint256[]"
        }
      ],
      "stateMutability": "nonpayable",
      "type": "function"
    },
    {
      "inputs": [
        {
          "components": [
            {
              "internalType": "enum IVault.SwapKind",
              "name": "kind",
              "type": "uint8"
            },
            {
              "internalType": "contract IERC20",
              "name": "tokenIn",
              "type": "address"
            },
            {
              "internalType": "contract IERC20",
              "name": "tokenOut",
              "type": "address"
            },
            {
              "internalType": "uint256",
              "name": "amount",
              "type": "uint256"
            },
            {
              "internalType": "bytes32",
              "name": "poolId",
              "type": "bytes32"
            },
            {
              "internalType": "uint256",
              "name": "lastChangeBlock",
              "type": "uint256"
            },
            {
              "internalType": "address",
              "name": "from",
              "type": "address"
            },
            {
              "internalType": "address",
              "name": "to",
              "type": "address"
            },
            {
              "internalType": "bytes",
              "name": "userData",
              "type": "bytes"
            }
          ],
          "internalType": "struct IPoolSwapStructs.SwapRequest",
          "name": "request",
          "type": "tuple"
        },
        {
          "internalType": "uint256[]",
          "name": "balances",
          "type": "uint256[]"
        },
        {
          "internalType": "uint256",
          "name": "indexIn",
          "type": "uint256"
        },
        {
          "internalType": "uint256",
          "name": "indexOut",
          "type": "uint256"
        }
      ],
      "name": "onSwap",
      "outputs": [
        {
          "internalType": "uint256",
          "name": "",
          "type": "uint256"
        }
      ],
      "stateMutability": "nonpayable",
      "type": "function"
    },
    {
      "inputs": [
        {
          "components": [
            {
              "internalType": "enum IVault.SwapKind",
              "name": "kind",
              "type": "uint8"
            },
            {
              "internalType": "contract IERC20",
              "name": "tokenIn",
              "type": "address"
            },
            {
              "internalType": "contract IERC20",
              "name": "tokenOut",
              "type": "address"
            },
            {
              "internalType": "uint256",
              "name": "amount",
              "type": "uint256"
            },
            {
              "internalType": "bytes32",
              "name": "poolId",
              "type": "bytes32"
            },
            {
              "internalType": "uint256",
              "name": "lastChangeBlock",
              "type": "uint256"
            },
            {
              "internalType": "address",
              "name": "from",
              "type": "address"
            },
            {
              "internalType": "address",
              "name": "to",
              "type": "address"
            },
            {
              "internalType": "bytes",
              "name": "userData",
              "type": "bytes"
            }
          ],
          "internalType": "struct IPoolSwapStructs.SwapRequest",
          "name": "request",
          "type": "tuple"
        },
        {
          "internalType": "uint256",
          "name": "balanceTokenIn",
          "type": "uint256"
        },
        {
          "internalType": "uint256",
          "name": "balanceTokenOut",
          "type": "uint256"
        }
      ],
      "name": "onSwap",
      "outputs": [
        {
          "internalType": "uint256",
          "name": "",
          "type": "uint256"
        }
      ],
      "stateMutability": "nonpayable",
      "type": "function"
    },
    {
      "inputs": [
        {
          "internalType": "address",
          "name": "owner",
          "type": "address"
        },
        {
          "internalType": "address",
          "name": "spender",
          "type": "address"
        },
        {
          "internalType": "uint256",
          "name": "value",
          "type": "uint256"
        },
        {
          "internalType": "uint256",
          "name": "deadline",
          "type": "uint256"
        },
        {
          "internalType": "uint8",
          "name": "v",
          "type": "uint8"
        },
        {
          "internalType": "bytes32",
          "name": "r",
          "type": "bytes32"
        },
        {
          "internalType": "bytes32",
          "name": "s",
          "type": "bytes32"
        }
      ],
      "name": "permit",
      "outputs": [],
      "stateMutability": "nonpayable",
      "type": "function"
    },
    {
      "inputs": [
        {
          "internalType": "bytes32",
          "name": "poolId",
          "type": "bytes32"
        },
        {
          "internalType": "address",
          "name": "sender",
          "type": "address"
        },
        {
          "internalType": "address",
          "name": "recipient",
          "type": "address"
        },
        {
          "internalType": "uint256[]",
          "name": "balances",
          "type": "uint256[]"
        },
        {
          "internalType": "uint256",
          "name": "lastChangeBlock",
          "type": "uint256"
        },
        {
          "internalType": "uint256",
          "name": "protocolSwapFeePercentage",
          "type": "uint256"
        },
        {
          "internalType": "bytes",
          "name": "userData",
          "type": "bytes"
        }
      ],
      "name": "queryExit",
      "outputs": [
        {
          "internalType": "uint256",
          "name": "bptIn",
          "type": "uint256"
        },
        {
          "internalType": "uint256[]",
          "name": "amountsOut",
          "type": "uint256[]"
        }
      ],
      "stateMutability": "view",
      "type": "function"
    },
    {
      "inputs": [
        {
          "internalType": "bytes32",
          "name": "poolId",
          "type": "bytes32"
        },
        {
          "internalType": "address",
          "name": "sender",
          "type": "address"
        },
        {
          "internalType": "address",
          "name": "recipient",
          "type": "address"
        },
        {
          "internalType": "uint256[]",
          "name": "balances",
          "type": "uint256[]"
        },
        {
          "internalType": "uint256",
          "name": "lastChangeBlock",
          "type": "uint256"
        },
        {
          "internalType": "uint256",
          "name": "protocolSwapFeePercentage",
          "type": "uint256"
        },
        {
          "internalType": "bytes",
          "name": "userData",
          "type": "bytes"
        }
      ],
      "name": "queryJoin",
      "outputs": [
        {
          "internalType": "uint256",
          "name": "bptOut",
          "type": "uint256"
        },
        {
          "internalType": "uint256[]",
          "name": "amountsIn",
          "type": "uint256[]"
        }
      ],
      "stateMutability": "view",
      "type": "function"
    },
    {
      "inputs": [
        {
          "internalType": "contract IERC20",
          "name": "token",
          "type": "address"
        },
        {
          "internalType": "bytes",
          "name": "poolConfig",
          "type": "bytes"
        }
      ],
      "name": "setAssetManagerPoolConfig",
      "outputs": [],
      "stateMutability": "nonpayable",
      "type": "function"
    },
    {
      "inputs": [
        {
          "internalType": "bool",
          "name": "paused",
          "type": "bool"
        }
      ],
      "name": "setPaused",
      "outputs": [],
      "stateMutability": "nonpayable",
      "type": "function"
    },
    {
      "inputs": [
        {
          "internalType": "contract IERC20",
          "name": "token",
          "type": "address"
        },
        {
          "internalType": "uint256",
          "name": "duration",
          "type": "uint256"
        }
      ],
      "name": "setPriceRateCacheDuration",
      "outputs": [],
      "stateMutability": "nonpayable",
      "type": "function"
    },
    {
      "inputs": [
        {
          "internalType": "uint256",
          "name": "swapFeePercentage",
          "type": "uint256"
        }
      ],
      "name": "setSwapFeePercentage",
      "outputs": [],
      "stateMutability": "nonpayable",
      "type": "function"
    },
    {
      "inputs": [
        {
          "internalType": "uint256",
          "name": "rawEndValue",
          "type": "uint256"
        },
        {
          "internalType": "uint256",
          "name": "endTime",
          "type": "uint256"
        }
      ],
      "name": "startAmplificationParameterUpdate",
      "outputs": [],
      "stateMutability": "nonpayable",
      "type": "function"
    },
    {
      "inputs": [],
      "name": "stopAmplificationParameterUpdate",
      "outputs": [],
      "stateMutability": "nonpayable",
      "type": "function"
    },
    {
      "inputs": [],
      "name": "symbol",
      "outputs": [
        {
          "internalType": "string",
          "name": "",
          "type": "string"
        }
      ],
      "stateMutability": "view",
      "type": "function"
    },
    {
      "inputs": [
        {
          "internalType": "uint256",
          "name": "value",
          "type": "uint256"
        }
      ],
      "name": "toLowResLog",
      "outputs": [
        {
          "internalType": "int256",
          "name": "",
          "type": "int256"
        }
      ],
      "stateMutability": "pure",
      "type": "function"
    },
    {
      "inputs": [],
      "name": "totalSupply",
      "outputs": [
        {
          "internalType": "uint256",
          "name": "",
          "type": "uint256"
        }
      ],
      "stateMutability": "view",
      "type": "function"
    },
    {
      "inputs": [
        {
          "internalType": "address",
          "name": "recipient",
          "type": "address"
        },
        {
          "internalType": "uint256",
          "name": "amount",
          "type": "uint256"
        }
      ],
      "name": "transfer",
      "outputs": [
        {
          "internalType": "bool",
          "name": "",
          "type": "bool"
        }
      ],
      "stateMutability": "nonpayable",
      "type": "function"
    },
    {
      "inputs": [
        {
          "internalType": "address",
          "name": "sender",
          "type": "address"
        },
        {
          "internalType": "address",
          "name": "recipient",
          "type": "address"
        },
        {
          "internalType": "uint256",
          "name": "amount",
          "type": "uint256"
        }
      ],
      "name": "transferFrom",
      "outputs": [
        {
          "internalType": "bool",
          "name": "",
          "type": "bool"
        }
      ],
      "stateMutability": "nonpayable",
      "type": "function"
    },
    {
      "inputs": [
        {
          "internalType": "contract IERC20",
          "name": "token",
          "type": "address"
        }
      ],
      "name": "updatePriceRateCache",
      "outputs": [],
      "stateMutability": "nonpayable",
      "type": "function"
    }
  ],
  "bytecode": "0x6103606040527f6e71edae12b1b97f4d1f60370fef10105fa2faae0126114a169c64845d6126c9610120523480156200003757600080fd5b5060405162008049380380620080498339810160408190526200005a91620010a5565b8080600001518160200151826040015183606001518460c001518560e001518661010001518761012001518861016001518886516002146200009e576000620000a1565b60025b8989898a516001600160401b0381118015620000bc57600080fd5b50604051908082528060200260200182016040528015620000e7578160200160208202803683370190505b506040805180820190915260018152603160f81b602080830191909152336080526001600160601b031960608a901b1660a05285518c928c928c928c92859285928c928c92849283929183918691620001469160039185019062000ded565b5080516200015c90600490602084019062000ded565b50506005805460ff1916601217905550815160209283012060c052805191012060e05250507f8b73c3c69bb8fe3d512ecc4cf759cc79239f7b179b0ffacaa9a75d522b39400f6101005250620001bb6276a70083111561019462000837565b620001cf62278d0082111561019562000837565b4290910161014081905201610160528551620001f1906002111560c862000837565b6200020b620001ff6200084c565b8751111560c962000837565b62000221866200085160201b620016b31760201c565b6200022c846200085d565b6040516309b2760f60e01b81526000906001600160a01b038c16906309b2760f906200025d908d90600401620012eb565b602060405180830381600087803b1580156200027857600080fd5b505af11580156200028d573d6000803e3d6000fd5b505050506040513d601f19601f82011682018060405250810190620002b391906200108c565b604051633354e3e960e11b81529091506001600160a01b038c16906366a9c7d290620002e89084908b908b906004016200124f565b600060405180830381600087803b1580156200030357600080fd5b505af115801562000318573d6000803e3d6000fd5b5050505060609a909a1b6001600160601b031916610180525050506101a0969096525062000355945050506001881015915061012c905062000837565b6200036861138886111561012d62000837565b85516101c0819052865187906000906200037e57fe5b60200260200101516001600160a01b03166101e0816001600160a01b031660601b8152505086600181518110620003b157fe5b60200260200101516001600160a01b0316610200816001600160a01b031660601b8152505060028111620003e7576000620003fe565b86600281518110620003f557fe5b60200260200101515b60601b6001600160601b03191661022052600381116200042057600062000437565b866003815181106200042e57fe5b60200260200101515b60601b6001600160601b03191661024052600481116200045957600062000470565b866004815181106200046757fe5b60200260200101515b6001600160a01b0316610260816001600160a01b031660601b81525050620004b3876000815181106200049f57fe5b6020026020010151620008e960201b60201c565b610280528651620004cc90889060019081106200049f57fe5b6102a05260028111620004e1576000620004f3565b620004f3876002815181106200049f57fe5b6102c05260038111620005085760006200051a565b6200051a876003815181106200049f57fe5b6102e052600481116200052f57600062000541565b62000541876004815181106200049f57fe5b6103008181525050600062000564876103e86200099560201b620016bd1760201c565b90506200057181620009c6565b50505050505050505050506200059781606001515160021460d26200083760201b60201c565b620005be8160600151518260800151518360a001515162000a0560201b620016e11760201c565b60008160800151600081518110620005d257fe5b60209081029190910101516001600160601b0319606082901b166103205290506001600160a01b03811615620006895760008062000630838560a001516000815181106200061c57fe5b602002602001015162000a2560201b60201c565b9150915081600d8190555083606001516000815181106200064d57fe5b60200260200101516001600160a01b031660008051602062008009833981519152826040516200067e919062001300565b60405180910390a250505b806001600160a01b03168260600151600081518110620006a557fe5b60200260200101516001600160a01b0316600080516020620080298339815191528460a00151600081518110620006d857fe5b6020026020010151604051620006ef919062001300565b60405180910390a3600082608001516001815181106200070b57fe5b60209081029190910101516001600160601b0319606082901b166103405290506001600160a01b03811615620007ae5760008062000755838660a001516001815181106200061c57fe5b9150915081600e8190555084606001516001815181106200077257fe5b60200260200101516001600160a01b03166000805160206200800983398151915282604051620007a3919062001300565b60405180910390a250505b806001600160a01b03168360600151600181518110620007ca57fe5b60200260200101516001600160a01b0316600080516020620080298339815191528560a00151600181518110620007fd57fe5b602002602001015160405162000814919062001300565b60405180910390a36101408301516200082d9062000b23565b505050506200138d565b816200084857620008488162000b81565b5050565b600590565b80620008488162000bd4565b6200087264e8d4a5100082101560cb62000837565b6200088a67016345785d8a000082111560ca62000837565b620008a98160c060085462000c5e60201b620016fe179092919060201c565b6008556040517fa9ba3ffe0b6c366b81232caab38605a0699ad5398d6cce76f91ee809e322dafc90620008de90839062001300565b60405180910390a150565b600080826001600160a01b031663313ce5676040518163ffffffff1660e01b815260040160206040518083038186803b1580156200092657600080fd5b505afa1580156200093b573d6000803e3d6000fd5b505050506040513d601f19601f8201168201806040525081019062000961919062001221565b60ff16905060006200098060128362000c7360201b620017141760201c565b600a0a670de0b6b3a764000002949350505050565b6000828202620009bd841580620009b5575083858381620009b257fe5b04145b600362000837565b90505b92915050565b620009d48180428062000c8b565b7fa0d01593e47e69d07e0ccd87bece09411e07dd1ed40ca8f2e7af2976542a023381604051620008de919062001300565b62000a20828414801562000a1857508183145b606762000837565b505050565b600080836001600160a01b031663679aefce6040518163ffffffff1660e01b815260040160206040518083038186803b15801562000a6257600080fd5b505afa15801562000a77573d6000803e3d6000fd5b505050506040513d601f19601f8201168201806040525081019062000a9d91906200108c565b905062000ab3600160801b821061014962000837565b62000ad68342016001600160401b031660c062000d5b60201b6200172a1760201c565b62000af7846001600160401b0316608062000d5b60201b6200172a1760201c565b62000b18836001600160801b0316600062000d5b60201b6200172a1760201c565b171791509250929050565b62000b5062000b4a8262000b3662000d5f565b62000d6560201b6200172e1790919060201c565b62000d84565b7f3e350b41e86a8e10f804ade6d35340d620be35569cc75ac943e8bb14ab80ead181604051620008de919062001244565b62461bcd60e51b6000908152602060045260076024526642414c23000030600a808404818106603090810160081b95839006959095019082900491820690940160101b939093010160c81b604452606490fd5b60028151101562000be55762000c5b565b60008160008151811062000bf557fe5b602002602001015190506000600190505b825181101562000a2057600083828151811062000c1f57fe5b6020026020010151905062000c50816001600160a01b0316846001600160a01b03161060656200083760201b60201c565b915060010162000c06565b50565b6001600160401b03811b1992909216911b1790565b600062000c8583831115600162000837565b50900390565b62000cac816001600160401b031660c062000d5b60201b6200172a1760201c565b62000ccd836001600160401b0316608062000d5b60201b6200172a1760201c565b62000cee856001600160401b0316604062000d5b60201b6200172a1760201c565b62000d0f876001600160401b0316600062000d5b60201b6200172a1760201c565b1717176009556040517f1835882ee7a34ac194f717a35e09bb1d24c82a3b9d854ab6c9749525b714cdf29062000d4d90869086908690869062001309565b60405180910390a150505050565b1b90565b60085490565b6000620009bd8260558562000da960201b62001738179092919060201c565b62000da381600060085462000dd260201b6200175f179092919060201c565b60085550565b60006001821b198416828462000dc157600062000dc4565b60015b60ff16901b17949350505050565b6001600160c01b03828116821b90821b198416179392505050565b828054600181600116156101000203166002900490600052602060002090601f016020900481019282601f1062000e3057805160ff191683800117855562000e60565b8280016001018555821562000e60579182015b8281111562000e6057825182559160200191906001019062000e43565b5062000e6e92915062000e72565b5090565b5b8082111562000e6e576000815560010162000e73565b8051620009c08162001377565b600082601f83011262000ea7578081fd5b815162000ebe62000eb8826200134b565b62001324565b81815291506020808301908481018184028601820187101562000ee057600080fd5b60005b8481101562000f0c57815162000ef98162001377565b8452928201929082019060010162000ee3565b505050505092915050565b600082601f83011262000f28578081fd5b815162000f3962000eb8826200134b565b81815291506020808301908481018184028601820187101562000f5b57600080fd5b60005b8481101562000f0c57815162000f748162001377565b8452928201929082019060010162000f5e565b600082601f83011262000f98578081fd5b815162000fa962000eb8826200134b565b81815291506020808301908481018184028601820187101562000fcb57600080fd5b60005b8481101562000f0c5781518452928201929082019060010162000fce565b80518015158114620009c057600080fd5b600082601f8301126200100e578081fd5b81516001600160401b0381111562001024578182fd5b60206200103a601f8301601f1916820162001324565b925081835284818386010111156200105157600080fd5b60005b828110156200107157848101820151848201830152810162001054565b82811115620010835760008284860101525b50505092915050565b6000602082840312156200109e578081fd5b5051919050565b600060208284031215620010b7578081fd5b81516001600160401b0380821115620010ce578283fd5b8184019150610180808387031215620010e5578384fd5b620010f08162001324565b9050620010fe868462000e89565b815260208301518281111562001112578485fd5b620011208782860162000ffd565b60208301525060408301518281111562001138578485fd5b620011468782860162000ffd565b6040830152506060830151828111156200115e578485fd5b6200116c8782860162000e96565b60608301525060808301518281111562001184578485fd5b620011928782860162000f17565b60808301525060a083015182811115620011aa578485fd5b620011b88782860162000f87565b60a08301525060c0838101519082015260e08084015190820152610100808401519082015261012080840151908201526101409150620011fb8683850162000fec565b828201526101609150620012128683850162000e89565b91810191909152949350505050565b60006020828403121562001233578081fd5b815160ff81168114620009bd578182fd5b901515815260200190565b60006060820185835260206060818501528186518084526080860191508288019350845b818110156200129b576200128885516200136b565b8352938301939183019160010162001273565b505084810360408601528551808252908201925081860190845b81811015620012dd57620012ca83516200136b565b85529383019391830191600101620012b5565b509298975050505050505050565b6020810160038310620012fa57fe5b91905290565b90815260200190565b93845260208401929092526040830152606082015260800190565b6040518181016001600160401b03811182821017156200134357600080fd5b604052919050565b60006001600160401b0382111562001361578081fd5b5060209081020190565b6001600160a01b031690565b6001600160a01b038116811462000c5b57600080fd5b60805160a05160601c60c05160e051610100516101205161014051610160516101805160601c6101a0516101c0516101e05160601c6102005160601c6102205160601c6102405160601c6102605160601c610280516102a0516102c0516102e051610300516103205160601c6103405160601c616b59620014b060003980611bf9525080611bd552508061461e5250806145fa5250806145d65250806145b252508061458e525080613684525080613642525080613600525080611b405280612bd75280613e76525080611ad85280612b7c5280613e0a52508061212f525080610d6a525080611166525080611a90525080611a6c52508061151a525080611ef1525080611f33525080611f125250806111425250806110cc5250616b596000f3fe608060405234801561001057600080fd5b50600436106103835760003560e01c806368a54df2116101de578063a457c2d71161010f578063b7710251116100ad578063d5c096c41161007c578063d5c096c41461077e578063dd62ed3e14610791578063eb0f24d6146107a4578063ffd088eb146107ac57610383565b8063b771025114610723578063b867ee5a14610736578063cdd3b8a814610758578063d505accf1461076b57610383565b8063abb9d0d5116100e9578063abb9d0d5146106e2578063aee3e324146106f5578063b10be73914610708578063b48b5b401461071b57610383565b8063a457c2d7146106b4578063a9059cbb146106c7578063aaabadc5146106da57610383565b806387ec68171161017c57806395d89b411161015657806395d89b41146106705780639b02cdde146106785780639d2c110c1461068e578063a0daaed0146106a157610383565b806387ec681714610640578063893d20e8146106535780638d928af81461066857610383565b806370a08231116101b857806370a08231146105e657806374f3b009146105f95780637ecebe001461061a578063851c1bb31461062d57610383565b806368a54df21461059c5780636b843239146105af5780636daccffa146105cf57610383565b80632f1a0bc9116102b857806350dd6ed9116102565780636028bfd4116102305780636028bfd41461053a57806360d1507c1461055b5780636782f36414610581578063679aefce1461059457610383565b806350dd6ed91461050c57806355c676281461051f57806357aad0131461052757610383565b80633644e515116102925780633644e515146104d657806338e9922e146104de57806338fff2d0146104f157806339509351146104f957610383565b80632f1a0bc9146104a65780633081bfee146104b9578063313ce567146104c157610383565b80631dccd830116103255780631ed4eddc116102ff5780631ed4eddc1461045d578063238a2d591461047657806323b872dd1461048b578063292c914a1461049e57610383565b80631dccd8301461042d5780631dd746ea1461044d5780631ead47561461045557610383565b8063095ea7b311610361578063095ea7b3146103d957806316c38b3c146103f957806318160ddd1461040e5780631c0de0511461041657610383565b806301ec954a1461038857806303441ef2146103b157806306fdde03146103c4575b600080fd5b61039b6103963660046164ca565b6107b4565b6040516103a89190616860565b60405180910390f35b61039b6103bf366004616587565b610814565b6103cc61085f565b6040516103a89190616a13565b6103ec6103e7366004615f26565b610914565b6040516103a8919061683d565b61040c610407366004616197565b61092a565b005b61039b61093e565b61041e610944565b6040516103a893929190616848565b61044061043b3660046160dc565b61096d565b6040516103a89190616805565b610440610a91565b61040c610aa0565b610465610aaa565b6040516103a8959493929190616966565b61047e610afc565b6040516103a89190616780565b6103ec610499366004615e71565b610b89565b61040c610c1d565b61040c6104b4366004616610565b610c4f565b61040c610d32565b6104c9610d3c565b6040516103a89190616a94565b61039b610d45565b61040c6104ec366004616443565b610d4f565b61039b610d68565b6103ec610507366004615f26565b610d8c565b61040c61051a3660046162ce565b610dc7565b61039b610de5565b61039b610535366004616443565b610df6565b61054d6105483660046161cf565b610e09565b6040516103a8929190616a26565b61056e610569366004616443565b610e40565b6040516103a89796959493929190616936565b61039b61058f366004615e1d565b610e89565b61039b610e94565b61040c6105aa366004616443565b610f72565b6105c26105bd36600461601d565b610f8c565b6040516103a891906167cd565b6105d7611043565b6040516103a893929190616a3f565b61039b6105f4366004615e1d565b61105e565b61060c6106073660046161cf565b611079565b6040516103a8929190616818565b61039b610628366004615e1d565b6110ad565b61039b61063b366004616272565b6110c8565b61054d61064e3660046161cf565b61111a565b61065b611140565b6040516103a8919061676c565b61065b611164565b6103cc611188565b610680611207565b6040516103a8929190616a55565b61039b61069c36600461653b565b611211565b61040c6106af366004615e1d565b61124a565b6103ec6106c2366004615f26565b611286565b6103ec6106d5366004615f26565b6112c4565b61065b6112d1565b61039b6106f0366004616443565b6112db565b61040c610703366004616473565b6112e6565b61039b610716366004616427565b6112f2565b61039b611387565b61040c610731366004615f26565b61138d565b610749610744366004615e1d565b61142d565b6040516103a893929190616a63565b61039b6107663660046165c2565b611486565b61040c610779366004615eb1565b6114e5565b61060c61078c3660046161cf565b61162e565b61039b61079f366004615e39565b611655565b61040c611680565b61039b6116ac565b600084608001516107e16107c6611164565b6001600160a01b0316336001600160a01b03161460cd61178b565b6107f66107ec610d68565b82146101f461178b565b6107fe611799565b61080a868686866117a9565b9695505050505050565b60008061084a848460008151811061082857fe5b60200260200101518560018151811061083d57fe5b6020026020010151611804565b9050610855816118c3565b9150505b92915050565b60038054604080516020601f60027fffffffffffffffffffffffffffffffffffffffffffffffffffffffffffffffff6101006001881615020190951694909404938401819004810282018101909252828152606093909290918301828280156109095780601f106108de57610100808354040283529160200191610909565b820191906000526020600020905b8154815290600101906020018083116108ec57829003601f168201915b505050505090505b90565b6000610921338484611903565b50600192915050565b61093261196b565b61093b816119b1565b50565b60025490565b6000806000610951611a4d565b15925061095c611a6a565b9150610966611a8e565b9050909192565b6060815167ffffffffffffffff8111801561098757600080fd5b506040519080825280602002602001820160405280156109b1578160200160208202803683370190505b50905060006109be611ab2565b905060005b8351811015610a8a5773__$7d2aa5f7ef8d6b62e49cb3fca3aaf3d8f4$__6379eaef82600c8684815181106109f457fe5b6020026020010151856040518463ffffffff1660e01b8152600401610a1b939291906169d7565b60206040518083038186803b158015610a3357600080fd5b505af4158015610a47573d6000803e3d6000fd5b505050506040513d601f19601f82011682018060405250810190610a6b919061645b565b838281518110610a7757fe5b60209081029190910101526001016109c3565b5050919050565b6060610a9b611ac4565b905090565b610aa8611799565b565b600080600080600080610abb611b8d565b9050610ac681611b93565b9550610ad181611b9f565b9450610adc81611bac565b9350610ae781611bb9565b9250610af281611bc6565b9150509091929394565b6040805160028082526060808301845292602083019080368337019050509050610b24611bd3565b81600081518110610b3157fe5b60200260200101906001600160a01b031690816001600160a01b031681525050610b59611bf7565b81600181518110610b6657fe5b60200260200101906001600160a01b031690816001600160a01b03168152505090565b600080610b968533611655565b9050610bba336001600160a01b0387161480610bb25750838210155b61019e61178b565b610bc5858585611c1b565b336001600160a01b03861614801590610bfe57507fffffffffffffffffffffffffffffffffffffffffffffffffffffffffffffffff8114155b15610c1057610c108533858403611903565b60019150505b9392505050565b610c25611cfb565b610c2d61196b565b610c376001611d0e565b6000610c4161093e565b1115610aa857610aa8611d52565b610c5761196b565b610c67600183101561012c61178b565b610c7861138883111561012d61178b565b6000610c848242611714565b9050610c986201518082101561013d61178b565b600080610ca3611da8565b91509150610cb4811561013e61178b565b6000610cc2866103e86116bd565b90506000838211610cf157610cec610cdd62015180866116bd565b610ce784886116bd565b611e1c565b610d0b565b610d0b610d0162015180846116bd565b610ce786886116bd565b9050610d1d600282111561013f61178b565b610d2984834289611e4f565b50505050505050565b610aa86000611d0e565b60055460ff1690565b6000610a9b611eed565b610d5761196b565b610d5f611cfb565b61093b81611f8a565b7f000000000000000000000000000000000000000000000000000000000000000090565b3360008181526001602090815260408083206001600160a01b03871684529091528120549091610921918590610dc29086611ff5565b611903565b610dcf61196b565b610dd7611cfb565b610de18282612007565b5050565b600854600090610a9b9060c061211f565b6000610e01826118c3565b90505b919050565b60006060610e1f8651610e1a61212d565b612151565b610e348989898989898961215e6121c8612229565b97509795505050505050565b6000806000806000806000610e5b610400891061013b61178b565b6000610e66896123b9565b9050610e71816123cb565b959f949e50929c50909a509850965090945092505050565b6000610e018261242e565b60006060610ea0611164565b6001600160a01b031663f94d4668610eb6610d68565b6040518263ffffffff1660e01b8152600401610ed29190616860565b60006040518083038186803b158015610eea57600080fd5b505afa158015610efe573d6000803e3d6000fd5b505050506040513d6000823e601f3d908101601f19168201604052610f269190810190615f51565b509150506000610f34611da8565b509050610f4882610f43611ac4565b612453565b6000610f56828460006124b4565b9050610f6a610f6361093e565b8290612650565b935050505090565b61093b610f8782610f81611b8d565b906126a1565b6126af565b6060815167ffffffffffffffff81118015610fa657600080fd5b50604051908082528060200260200182016040528015610fd0578160200160208202803683370190505b5090506000610fdd611ab2565b9050610fe7615be7565b60005b845181101561103b57848181518110610fff57fe5b6020026020010151915061101c82600001518484602001516126c4565b84828151811061102857fe5b6020908102919091010152600101610fea565b505050919050565b6000806000611050611da8565b90949093506103e892509050565b6001600160a01b031660009081526020819052604090205490565b606080611084611799565b6110938989898989898961276e565b90925090506110a0611a4d565b15610e3457610e34611d52565b6001600160a01b031660009081526006602052604090205490565b60007f0000000000000000000000000000000000000000000000000000000000000000826040516020016110fd9291906166f6565b604051602081830303815290604052805190602001209050919050565b6000606061112b8651610e1a61212d565b610e34898989898989896127ec612812612229565b7f000000000000000000000000000000000000000000000000000000000000000090565b7f000000000000000000000000000000000000000000000000000000000000000090565b60048054604080516020601f60027fffffffffffffffffffffffffffffffffffffffffffffffffffffffffffffffff6101006001881615020190951694909404938401819004810282018101909252828152606093909290918301828280156109095780601f106108de57610100808354040283529160200191610909565b600a54600b549091565b600083608001516112236107c6611164565b61122e6107ec610d68565b611236611799565b611241858585612873565b95945050505050565b6112538161295a565b1561126557611260612987565b61093b565b61126e8161299f565b1561127b576112606129bb565b61093b6101356129ce565b6000806112933385611655565b90508083106112ad576112a833856000611903565b6112ba565b6112ba3385858403611903565b5060019392505050565b6000610921338484611c1b565b6000610a9b612a3b565b6000610e0182612ab5565b61093b610f8782612ac8565b600073__$7d2aa5f7ef8d6b62e49cb3fca3aaf3d8f4$__630397bee0600c84611319611ab2565b6040518463ffffffff1660e01b81526004016113379392919061698b565b60206040518083038186803b15801561134f57600080fd5b505af4158015611363573d6000803e3d6000fd5b505050506040513d601f19601f82011682018060405250810190610e01919061645b565b61040090565b61139561196b565b61139e8261295a565b15611403576113ac81612b3c565b6113b4611bd3565b6001600160a01b0316826001600160a01b03167fca6c2c5b6b44b5f3f0c08f0e28e5b6deda1cb38c3fe1113e8031d926c1e8c6d0836040516113f69190616860565b60405180910390a3610de1565b61140c8261299f565b156114225761141a81612b5e565b6113b4611bf7565b610de16101356129ce565b600080600061143b84612b7a565b1561145b5761145061144b612bac565b612bb2565b92509250925061147f565b61146484612bd5565b156114745761145061144b612c07565b61147f6101356129ce565b9193909250565b6000806114af858560008151811061149a57fe5b60200260200101518660018151811061083d57fe5b905061124181856000815181106114c257fe5b6020026020010151866001815181106114d757fe5b602002602001015186612c0d565b6114f38442111560d161178b565b6001600160a01b038716600090815260066020908152604080832054905190929161154a917f0000000000000000000000000000000000000000000000000000000000000000918c918c918c9188918d9101616888565b604051602081830303815290604052805190602001209050600061156d82612c38565b90506000600182888888604051600081526020016040526040516115949493929190616918565b6020604051602081039080840390855afa1580156115b6573d6000803e3d6000fd5b5050604051601f19015191506115f890506001600160a01b038216158015906115f057508b6001600160a01b0316826001600160a01b0316145b6101f861178b565b6001600160a01b038b1660009081526006602052604090206001850190556116218b8b8b611903565b5050505050505050505050565b606080611639611799565b61164889898989898989612c54565b9092509050610e34611d52565b6001600160a01b03918216600090815260016020908152604080832093909416825291909152205490565b61168861196b565b600080611693611da8565b915091506116a38161014061178b565b610de182612d79565b6201de2090565b80610de181612db4565b6000828202610c168415806116da5750838583816116d757fe5b04145b600361178b565b6116f982841480156116f257508183145b606761178b565b505050565b67ffffffffffffffff811b1992909216911b1790565b600061172483831115600161178b565b50900390565b1b90565b6000610c16838360555b60006001821b198416828461174e576000611751565b60015b60ff16901b17949350505050565b77ffffffffffffffffffffffffffffffffffffffffffffffff828116821b90821b198416179392505050565b81610de157610de1816129ce565b6117a1612e2d565b610aa8612e6d565b60006117bd83836117b861212d565b612ea8565b60606117c7611ac4565b90506000865160018111156117d857fe5b146117ef576117ea8686868685612ec0565b61080a565b61080a8686868685612f35565b949350505050565b60008061181c856118158686612f99565b60016124b4565b90506103e86002860204600061183c8361183681856116bd565b90611714565b9050600061185786611851856002028a6116bd565b90612ff3565b905060006118806118688489612ff3565b6118366118798a611851898d6116bd565b8590611ff5565b905060006118a9611891858b612ff3565b6118366118a28c6118518a8f6116bd565b8690611ff5565b90506118b5828261301f565b9a9950505050505050505050565b6000806118cf8361306d565b905060008082136118e857652d79883d200082036118f2565b652d79883d200082015b655af3107a40009005949350505050565b6001600160a01b0380841660008181526001602090815260408083209487168084529490915290819020849055517f8c5be1e5ebec7d5bd14f71427d1e84f3dd0314c0f7b2291e5b200ac8c7c3b9259061195e908590616860565b60405180910390a3505050565b600061199a6000357fffffffff00000000000000000000000000000000000000000000000000000000166110c8565b905061093b6119a982336130d1565b61019161178b565b80156119d1576119cc6119c2611a6a565b421061019361178b565b6119e6565b6119e66119dc611a8e565b42106101a961178b565b600780547fffffffffffffffffffffffffffffffffffffffffffffffffffffffffffffff00168215151790556040517f9e3a5e37224532dea67b89face185703738a228a6e8a23dee546960180d3be6490611a4290839061683d565b60405180910390a150565b6000611a57611a8e565b421180610a9b57505060075460ff161590565b7f000000000000000000000000000000000000000000000000000000000000000090565b7f000000000000000000000000000000000000000000000000000000000000000090565b6000610a9b611abf611b8d565b611bb9565b6060611ace6131c1565b9050611b1f611afc7f00000000000000000000000000000000000000000000000000000000000000006132f8565b82600081518110611b0957fe5b6020026020010151612ff390919063ffffffff16565b81600081518110611b2c57fe5b602002602001018181525050611b71611b647f00000000000000000000000000000000000000000000000000000000000000006132f8565b82600181518110611b0957fe5b81600181518110611b7e57fe5b60200260200101818152505090565b60085490565b6000610e018282613340565b6000610e01826016613340565b6000610e0182602c613383565b6000610e0182604b61338d565b6000610e01826055613395565b7f000000000000000000000000000000000000000000000000000000000000000090565b7f000000000000000000000000000000000000000000000000000000000000000090565b611c326001600160a01b038416151561019861178b565b611c496001600160a01b038316151561019961178b565b611c548383836116f9565b6001600160a01b038316600090815260208190526040902054611c7a90826101a061339f565b6001600160a01b038085166000908152602081905260408082209390935590841681522054611ca99082611ff5565b6001600160a01b0380841660008181526020819052604090819020939093559151908516907fddf252ad1be2c89b69c2b068fc378daa952ba7f163c4a11628f55a4df523b3ef9061195e908590616860565b610aa8611d06611a4d565b61019261178b565b611d23610f8782611d1d611b8d565b9061172e565b7f3e350b41e86a8e10f804ade6d35340d620be35569cc75ac943e8bb14ab80ead181604051611a42919061683d565b6000611d5c611b8d565b9050611d6781611bc6565b1561093b57611d81611d7a600a546118c3565b82906133b5565b9050611d9d611d96611d9161093e565b6118c3565b82906133c2565b905061093b816126af565b600080600080600080611db96133d0565b935093509350935080421015611e0c576001945083831115611df0578181038242038585030281611de657fe5b0484019550611e07565b8181038242038486030281611e0157fe5b04840395505b611e14565b600094508295505b505050509091565b6000611e2b821515600461178b565b82611e3857506000610859565b816001840381611e4457fe5b046001019050610859565b611e648167ffffffffffffffff1660c061172a565b611e798367ffffffffffffffff16608061172a565b611e8e8567ffffffffffffffff16604061172a565b611ea38767ffffffffffffffff16600061172a565b1717176009556040517f1835882ee7a34ac194f717a35e09bb1d24c82a3b9d854ab6c9749525b714cdf290611edf908690869086908690616a79565b60405180910390a150505050565b60007f00000000000000000000000000000000000000000000000000000000000000007f00000000000000000000000000000000000000000000000000000000000000007f0000000000000000000000000000000000000000000000000000000000000000611f5a613427565b30604051602001611f6f9594939291906168bc565b60405160208183030381529060405280519060200120905090565b611f9d64e8d4a5100082101560cb61178b565b611fb367016345785d8a000082111560ca61178b565b600854611fc2908260c06116fe565b6008556040517fa9ba3ffe0b6c366b81232caab38605a0699ad5398d6cce76f91ee809e322dafc90611a42908390616860565b6000828201610c16848210158361178b565b6000612011610d68565b9050600061201d611164565b6001600160a01b031663b05f8e4883866040518363ffffffff1660e01b815260040161204a929190616901565b60806040518083038186803b15801561206257600080fd5b505afa158015612076573d6000803e3d6000fd5b505050506040513d601f19601f8201168201806040525081019061209a9190616631565b6040517f18e736d40000000000000000000000000000000000000000000000000000000081529094506001600160a01b03851693506318e736d492506120e79150859087906004016168e8565b600060405180830381600087803b15801561210157600080fd5b505af1158015612115573d6000803e3d6000fd5b5050505050505050565b1c67ffffffffffffffff1690565b7f000000000000000000000000000000000000000000000000000000000000000090565b610de1818314606761178b565b600060608061216b611a4d565b156121a3576121a3878960008151811061218157fe5b60200260200101518a60018151811061219657fe5b602002602001015161342b565b6121b38b8b8b8b8b8b8b8b6134e0565b9250925092505b985098509895505050505050565b60005b6121d361212d565b8110156116f95761220a8382815181106121e957fe5b60200260200101518383815181106121fd57fe5b6020026020010151612650565b83828151811061221657fe5b60209081029190910101526001016121cb565b333014612318576000306001600160a01b031660003660405161224d929190616726565b6000604051808303816000865af19150503d806000811461228a576040519150601f19603f3d011682016040523d82523d6000602084013e61228f565b606091505b50509050806000811461229e57fe5b60046000803e6000517fffffffff00000000000000000000000000000000000000000000000000000000167f43adbafb0000000000000000000000000000000000000000000000000000000081146122fa573d6000803e3d6000fd5b506020600460003e604060205260243d03602460403e601c3d016000f35b6060612322611ac4565b905061232e8782612453565b600060606123468c8c8c8c8c8c898d8d63ffffffff16565b509150915061235981848663ffffffff16565b8051601f1982018390526343adbafb7fffffffffffffffffffffffffffffffffffffffffffffffffffffffffffffffc08301526020027fffffffffffffffffffffffffffffffffffffffffffffffffffffffffffffffdc82016044820181fd5b6000908152600c602052604090205490565b60008060008060008060006123df88613576565b96506123ea88613583565b95506123f588613590565b94506124008861359d565b935061240b886135aa565b9250612416886135b7565b9150612421886135c4565b9050919395979092949650565b60008061243a836135d0565b90506000612447846132f8565b90506117fc8282612ff3565b60005b61245e61212d565b8110156116f95761249583828151811061247457fe5b602002602001015183838151811061248857fe5b6020026020010151612ff3565b8382815181106124a157fe5b6020908102919091010152600101612456565b81516000908190815b818110156124f5576124eb8682815181106124d457fe5b602002602001015184611ff590919063ffffffff16565b92506001016124bd565b508161250657600092505050610c16565b600082878302825b60ff811015612638576000858a60008151811061252757fe5b60200260200101510290506000600190505b8681101561257b5761257161256a612564848e858151811061255757fe5b60200260200101516116bd565b896116bd565b868c6136cf565b9150600101612539565b508394506125ee6125bd6125a461259b612595878c6116bd565b856116bd565b6103e88d6136cf565b6125b76125b18a896116bd565b886116bd565b90611ff5565b6125e86125db6125d16103e88803866116bd565b6103e88e156136cf565b6125b78a600101896116bd565b8b6136cf565b935084841115612616576001858503116126115783975050505050505050610c16565b61262f565b60018486031161262f5783975050505050505050610c16565b5060010161250e565b506126446101426129ce565b50505050509392505050565b600061265f821515600461178b565b8261266c57506000610859565b670de0b6b3a76400008381029061268f9085838161268657fe5b0414600561178b565b82818161269857fe5b04915050610859565b6000610c168383604b6136ef565b6008546126be9082600061175f565b60085550565b6040517f34171a8500000000000000000000000000000000000000000000000000000000815260009073__$7d2aa5f7ef8d6b62e49cb3fca3aaf3d8f4$__906334171a859061271e90600c908890889088906004016169ac565b60206040518083038186803b15801561273657600080fd5b505af415801561274a573d6000803e3d6000fd5b505050506040513d601f19601f820116820180604052508101906117fc919061645b565b6060808861277d6107c6611164565b6127886107ec610d68565b6060612792611ac4565b905061279e8882612453565b60006060806127b38e8e8e8e8e8e8a8f61215e565b9250925092506127c38d846136ff565b6127cd82856121c8565b6127d781856121c8565b909550935050505b5097509795505050505050565b6000606080612802878960008151811061218157fe5b6121b38b8b8b8b8b8b8b8b613709565b60005b61281d61212d565b8110156116f95761285483828151811061283357fe5b602002602001015183838151811061284757fe5b602002602001015161301f565b83828151811061286057fe5b6020908102919091010152600101612815565b600080612883856020015161242e565b90506000612894866040015161242e565b90506000865160018111156128a557fe5b141561290b576128b88660600151613762565b60608701526128c78583613783565b94506128d38482613783565b93506128e3866060015183613783565b606087015260006128f587878761378f565b905061290181836137c8565b9350505050610c16565b6129158583613783565b94506129218482613783565b9350612931866060015182613783565b606087015260006129438787876137d4565b905061294f8184613803565b90506129018161380f565b600061296582612b7a565b8015610e0157506000612976611bd3565b6001600160a01b0316141592915050565b610aa861299a612995612bac565b613835565b612b3c565b60006129aa82612bd5565b8015610e0157506000612976611bf7565b610aa86129c9612995612c07565b612b5e565b7f08c379a0000000000000000000000000000000000000000000000000000000006000908152602060045260076024526642414c23000030600a808404818106603090810160081b95839006959095019082900491820690940160101b939093010160c81b604452606490fd5b6000612a45611164565b6001600160a01b031663aaabadc56040518163ffffffff1660e01b815260040160206040518083038186803b158015612a7d57600080fd5b505afa158015612a91573d6000803e3d6000fd5b505050506040513d601f19601f82011682018060405250810190610a9b91906162b2565b6000610e01655af3107a40008302613842565b6000612ae182608001518261172e90919063ffffffff16565b9050612afa8260600151826126a190919063ffffffff16565b9050612b13826040015182613d0a90919063ffffffff16565b9050612b2c8260200151826133c290919063ffffffff16565b8251909150610e019082906133b5565b600080612b50612b4a611bd3565b84613d18565b915091506116f98282613e01565b600080612b6c612b4a611bf7565b915091506116f98282613e6d565b7f00000000000000000000000000000000000000000000000000000000000000006001600160a01b0390811691161490565b600d5490565b6000806000612bc084613ecd565b9250612bcb84613ed9565b9395909450915050565b7f00000000000000000000000000000000000000000000000000000000000000006001600160a01b0390811691161490565b600e5490565b600080612c1d6118a28786613ef9565b90506000612c2a826118c3565b939093039695505050505050565b6000612c42611eed565b826040516020016110fd929190616736565b60608088612c636107c6611164565b612c6e6107ec610d68565b6060612c78611ac4565b9050612c8261093e565b612d295760006060612c978d8d8d868b613f53565b91509150612cac620f424083101560cc61178b565b612cba6000620f4240613fe2565b612cc98b620f42408403613fe2565b612cd38184612812565b80612cdc61212d565b67ffffffffffffffff81118015612cf257600080fd5b50604051908082528060200260200182016040528015612d1c578160200160208202803683370190505b50955095505050506127df565b612d338882612453565b6000606080612d488e8e8e8e8e8e8a8f6127ec565b925092509250612d588c84613fe2565b612d628285612812565b612d6c81856121c8565b90955093506127df915050565b612d8581824242611e4f565b7fa0d01593e47e69d07e0ccd87bece09411e07dd1ed40ca8f2e7af2976542a023381604051611a429190616860565b600281511015612dc35761093b565b600081600081518110612dd257fe5b602002602001015190506000600190505b82518110156116f9576000838281518110612dfa57fe5b60200260200101519050612e23816001600160a01b0316846001600160a01b031610606561178b565b9150600101612de3565b6000612e37611bd3565b6001600160a01b031614610aa857600080612e58612e53612bac565b613ed9565b9150915080421115610de157610de182612b3c565b6000612e77611bf7565b6001600160a01b031614610aa857600080612e93612e53612c07565b9150915080421115610de157610de182612b5e565b6116f98184108015612eb957508183105b606461178b565b6000612ecc8583612453565b612eed8660600151838581518110612ee057fe5b6020026020010151613783565b60608701526000612f0087878787613fec565b9050612f1f81848781518110612f1257fe5b6020026020010151613803565b9050612f2a8161380f565b979650505050505050565b6000612f448660600151613762565b6060870152612f538583612453565b612f678660600151838681518110612ee057fe5b60608701526000612f7a87878787614024565b9050612f2a81848681518110612f8c57fe5b60200260200101516137c8565b60408051600280825260608083018452926020830190803683370190505090508281600081518110612fc757fe5b6020026020010181815250508181600181518110612fe157fe5b60200260200101818152505092915050565b600082820261300d8415806116da5750838583816116d757fe5b670de0b6b3a764000090049392505050565b600061302e821515600461178b565b8261303b57506000610859565b670de0b6b3a7640000838102906130559085838161268657fe5b82600182038161306157fe5b04600101915050610859565b600061307d60008313606461178b565b670c7d713b49da00008213801561309b5750670f43fc2c04ee000082125b156130c157670de0b6b3a76400006130b283614047565b816130b957fe5b059050610e04565b6130ca8261417e565b9050610e04565b600073ba1ba1ba1ba1ba1ba1ba1ba1ba1ba1ba1ba1ba1b6130f0611140565b6001600160a01b03161415801561310b575061310b8361451e565b1561313357613118611140565b6001600160a01b0316336001600160a01b0316149050610859565b61313b612a3b565b6001600160a01b0316639be2a8848484306040518463ffffffff1660e01b815260040161316a93929190616869565b60206040518083038186803b15801561318257600080fd5b505afa158015613196573d6000803e3d6000fd5b505050506040513d601f19601f820116820180604052508101906131ba91906161b3565b9050610859565b606060006131cd61212d565b905060608167ffffffffffffffff811180156131e857600080fd5b50604051908082528060200260200182016040528015613212578160200160208202803683370190505b50905081156132415761322361458c565b8160008151811061323057fe5b60200260200101818152505061324a565b91506109119050565b60018211156132415761325b6145b0565b8160018151811061326857fe5b6020026020010181815250506002821115613241576132856145d4565b8160028151811061329257fe5b6020026020010181815250506003821115613241576132af6145f8565b816003815181106132bc57fe5b6020026020010181815250506004821115613241576132d961461c565b816004815181106132e657fe5b60200260200101818152505091505090565b60006133038261295a565b15613318576130ca613313612bac565b613ecd565b6133218261299f565b15613331576130ca613313612c07565b50670de0b6b3a7640000610e04565b600082821c623fffff16621fffff811361335a5780610855565b7fffffffffffffffffffffffffffffffffffffffffffffffffffffffffffc00000179392505050565b1c637fffffff1690565b1c6103ff1690565b1c60019081161490565b60006133ae848411158361178b565b5050900390565b6000610c16838383614640565b6000610c1683836016614640565b6000806000806133ec600060095461211f90919063ffffffff16565b6009549094506133fd90604061211f565b60095490935061340e90608061211f565b60095490925061341f9060c061211f565b905090919293565b4690565b6000613435611b8d565b90506000613441611da8565b50905061344d82611bc6565b801561345857508443115b156134d95760008061347483878761346f88611b9f565b614657565b91509150600061348385611bb9565b9050600061349086611bac565b905060006134a9828487876134a48c611b93565b61468c565b90508083146134d3576134bc87826126a1565b96506134c88742613d0a565b96506134d3876126af565b50505050505b5050505050565b60006060806134ed611a4d565b15613510576134fc88876146e3565b905061350b88826117146147d0565b61355c565b61351861212d565b67ffffffffffffffff8111801561352e57600080fd5b50604051908082528060200260200182016040528015613558578160200160208202803683370190505b5090505b61356788868661483b565b90935091506121ba88836148a7565b6000610e018260ea613340565b6000610e018260b56148d6565b6000610e0182609f613340565b6000610e0182606a6148d6565b6000610e01826054613340565b6000610e0182601f6148d6565b6000610e018282613383565b60006135db82612b7a565b156135e8576130ca61458c565b6135f182612bd5565b156135fe576130ca6145b0565b7f00000000000000000000000000000000000000000000000000000000000000006001600160a01b0316826001600160a01b03161415613640576130ca6145d4565b7f00000000000000000000000000000000000000000000000000000000000000006001600160a01b0316826001600160a01b03161415613682576130ca6145f8565b7f00000000000000000000000000000000000000000000000000000000000000006001600160a01b0316826001600160a01b031614156136c4576130ca61461c565b610e046101356129ce565b6000816136e5576136e08484614921565b6117fc565b6117fc8484611e1c565b6103ff811b1992909216911b1790565b610de18282614941565b6000606080613716611cfb565b606061372289886146e3565b905061373189826117146147d0565b600060606137408b89896149fd565b9150915061374e8b82614a56565b909d909c50909a5098505050505050505050565b600080613777613770610de5565b8490613ef9565b9050610c168382611714565b6000610c168383612ff3565b60006137a661379c61212d565b60021460d261178b565b60606000806137b6878787614a63565b925092509250612f2a87848484614024565b6000610c168383612650565b60006137e161379c61212d565b60606000806137f1878787614a63565b925092509250612f2a87848484613fec565b6000610c16838361301f565b6000610e0161382e61381f610de5565b670de0b6b3a764000090611714565b839061301f565b6000610e0182608061211f565b60006138877ffffffffffffffffffffffffffffffffffffffffffffffffdc702bd3a30fc00008312158015613880575068070c1cc73b00c800008313155b600961178b565b60008212156138b35761389c82600003613842565b6ec097ce7bc90715b34b9f1000000000816130b957fe5b60006806f05b59d3b2000000831261390957507ffffffffffffffffffffffffffffffffffffffffffffffff90fa4a62c4e00000090910190770195e54c5dd42177f53a27172fa9ec630262827000000000613955565b6803782dace9d9000000831261395157507ffffffffffffffffffffffffffffffffffffffffffffffffc87d2531627000000909101906b1425982cf597cd205cef7380613955565b5060015b6064929092029168056bc75e2d6310000068ad78ebc5ac6200000084126139bb577fffffffffffffffffffffffffffffffffffffffffffffff5287143a539e0000009093019268056bc75e2d631000006e01855144814a7ff805980ff008400082020590505b6856bc75e2d6310000008412613a0d577fffffffffffffffffffffffffffffffffffffffffffffffa9438a1d29cf0000009093019268056bc75e2d631000006b02df0ab5a80a22c61ab5a70082020590505b682b5e3af16b188000008412613a5d577fffffffffffffffffffffffffffffffffffffffffffffffd4a1c50e94e78000009093019268056bc75e2d63100000693f1fce3da636ea5cf85082020590505b6815af1d78b58c4000008412613aad577fffffffffffffffffffffffffffffffffffffffffffffffea50e2874a73c000009093019268056bc75e2d63100000690127fa27722cc06cc5e282020590505b680ad78ebc5ac62000008412613afc577ffffffffffffffffffffffffffffffffffffffffffffffff5287143a539e000009093019268056bc75e2d6310000068280e60114edb805d0382020590505b68056bc75e2d631000008412613b4b577ffffffffffffffffffffffffffffffffffffffffffffffffa9438a1d29cf000009093019268056bc75e2d63100000680ebc5fb4174612111082020590505b6802b5e3af16b18800008412613b9a577ffffffffffffffffffffffffffffffffffffffffffffffffd4a1c50e94e7800009093019268056bc75e2d631000006808f00f760a4b2db55d82020590505b68015af1d78b58c400008412613be9577ffffffffffffffffffffffffffffffffffffffffffffffffea50e2874a73c00009093019268056bc75e2d631000006806f5f177578893793782020590505b68056bc75e2d631000008481019085906002908280020505918201919050600368056bc75e2d631000008783020505918201919050600468056bc75e2d631000008783020505918201919050600568056bc75e2d631000008783020505918201919050600668056bc75e2d631000008783020505918201919050600768056bc75e2d631000008783020505918201919050600868056bc75e2d631000008783020505918201919050600968056bc75e2d631000008783020505918201919050600a68056bc75e2d631000008783020505918201919050600b68056bc75e2d631000008783020505918201919050600c68056bc75e2d631000008783020505918201919050606468056bc75e2d63100000848402058502059695505050505050565b6000610c168383602c614b24565b600080836001600160a01b031663679aefce6040518163ffffffff1660e01b815260040160206040518083038186803b158015613d5457600080fd5b505afa158015613d68573d6000803e3d6000fd5b505050506040513d601f19601f82011682018060405250810190613d8c919061645b565b9050613dad700100000000000000000000000000000000821061014961178b565b613dc483420167ffffffffffffffff1660c061172a565b613dd98467ffffffffffffffff16608061172a565b613df6836fffffffffffffffffffffffffffffffff16600061172a565b171791509250929050565b81600d819055507f00000000000000000000000000000000000000000000000000000000000000006001600160a01b03167fc1a224b14823b63c7711127f125fbf592434682f38881ebb61408747a303affc82604051613e619190616860565b60405180910390a25050565b81600e819055507f00000000000000000000000000000000000000000000000000000000000000006001600160a01b03167fc1a224b14823b63c7711127f125fbf592434682f38881ebb61408747a303affc82604051613e619190616860565b6000610e018282614b36565b600080613ee583613835565b9150613ef28360c061211f565b9050915091565b6000828202613f138415806116da5750838583816116d757fe5b80613f22576000915050610859565b670de0b6b3a76400007fffffffffffffffffffffffffffffffffffffffffffffffffffffffffffffffff8201613061565b60006060613f5f611cfb565b6000613f6a84614b4c565b9050613f856000826002811115613f7d57fe5b1460ce61178b565b6060613f9085614b62565b9050613f9f8151610e1a61212d565b613fa98187612453565b6000613fb3611da8565b5090506000613fc4828460016124b4565b905080613fd18184614b78565b9b929a509198505050505050505050565b610de18282614b83565b60006140188560a001518560008151811061400357fe5b60200260200101518660018151811061219657fe5b61124185858585614c11565b600061403b8560a001518560008151811061400357fe5b61124185858585614c3b565b670de0b6b3a7640000026000806ec097ce7bc90715b34b9f1000000000808401907fffffffffffffffffffffffffffffffffff3f68318436f8ea4cb460f0000000008501028161409357fe5b05905060006ec097ce7bc90715b34b9f100000000082800205905081806ec097ce7bc90715b34b9f100000000081840205915060038205016ec097ce7bc90715b34b9f100000000082840205915060058205016ec097ce7bc90715b34b9f100000000082840205915060078205016ec097ce7bc90715b34b9f100000000082840205915060098205016ec097ce7bc90715b34b9f1000000000828402059150600b8205016ec097ce7bc90715b34b9f1000000000828402059150600d8205016ec097ce7bc90715b34b9f1000000000828402059150600f826002919005919091010295945050505050565b6000670de0b6b3a76400008212156141bb576141b1826ec097ce7bc90715b34b9f1000000000816141ab57fe5b0561417e565b6000039050610e04565b60007e1600ef3172e58d2e933ec884fde10064c63b5372d805e203c0000000000000831261420c57770195e54c5dd42177f53a27172fa9ec630262827000000000830592506806f05b59d3b2000000015b73011798004d755d3c8bc8e03204cf44619e0000008312614244576b1425982cf597cd205cef7380830592506803782dace9d9000000015b606492830292026e01855144814a7ff805980ff0084000831261428c576e01855144814a7ff805980ff008400068056bc75e2d63100000840205925068ad78ebc5ac62000000015b6b02df0ab5a80a22c61ab5a70083126142c7576b02df0ab5a80a22c61ab5a70068056bc75e2d6310000084020592506856bc75e2d631000000015b693f1fce3da636ea5cf85083126142fe57693f1fce3da636ea5cf85068056bc75e2d631000008402059250682b5e3af16b18800000015b690127fa27722cc06cc5e2831261433557690127fa27722cc06cc5e268056bc75e2d6310000084020592506815af1d78b58c400000015b68280e60114edb805d03831261436a5768280e60114edb805d0368056bc75e2d631000008402059250680ad78ebc5ac6200000015b680ebc5fb41746121110831261439557680ebc5fb4174612111068056bc75e2d631000009384020592015b6808f00f760a4b2db55d83126143ca576808f00f760a4b2db55d68056bc75e2d6310000084020592506802b5e3af16b1880000015b6806f5f177578893793783126143ff576806f5f177578893793768056bc75e2d63100000840205925068015af1d78b58c40000015b6806248f33704b2866038312614433576806248f33704b28660368056bc75e2d63100000840205925067ad78ebc5ac620000015b6805c548670b9510e7ac8312614467576805c548670b9510e7ac68056bc75e2d6310000084020592506756bc75e2d6310000015b600068056bc75e2d63100000840168056bc75e2d63100000808603028161448a57fe5b059050600068056bc75e2d63100000828002059050818068056bc75e2d63100000818402059150600382050168056bc75e2d63100000828402059150600582050168056bc75e2d63100000828402059150600782050168056bc75e2d63100000828402059150600982050168056bc75e2d63100000828402059150600b820501600202606485820105979650505050505050565b60006145497f2f1a0bc9000000000000000000000000000000000000000000000000000000006110c8565b82148061457d575061457a7feb0f24d6000000000000000000000000000000000000000000000000000000006110c8565b82145b80610e015750610e0182614c65565b7f000000000000000000000000000000000000000000000000000000000000000090565b7f000000000000000000000000000000000000000000000000000000000000000090565b7f000000000000000000000000000000000000000000000000000000000000000090565b7f000000000000000000000000000000000000000000000000000000000000000090565b7f000000000000000000000000000000000000000000000000000000000000000090565b623fffff828116821b90821b198416179392505050565b6000806000614667878787611804565b905061467581878787612c0d565b9150614680816118c3565b92505094509492505050565b6000806146a88585854261469f8b6123b9565b93929190614cc9565b90506078428890031015806146bd57866146c6565b6146c687614d1b565b6000818152600c6020526040902092909255509695505050505050565b6060806146ee61212d565b67ffffffffffffffff8111801561470457600080fd5b5060405190808252806020026020018201604052801561472e578160200160208202803683370190505b5090508261473d579050610859565b6000808560008151811061474d57fe5b602002602001015190506000600190505b61476661212d565b81101561479d57600087828151811061477b57fe5b6020026020010151905082811115614794578193508092505b5060010161475e565b506147af600b5487600a548589614d28565b8383815181106147bb57fe5b60209081029190910101525090949350505050565b60005b6147db61212d565b811015614835576148168482815181106147f157fe5b602002602001015184838151811061480557fe5b60200260200101518463ffffffff16565b84828151811061482257fe5b60209081029190910101526001016147d3565b50505050565b60006060600061484a84614b4c565b9050600081600281111561485a57fe5b14156148745761486a8685614da8565b925092505061489f565b600181600281111561488257fe5b14156148925761486a8685614e73565b61486a868686614ea5565b505b935093915050565b6148b482826117146147d0565b60006148be611da8565b5090506116f96148d0828560016124b4565b82614b78565b600082821c661fffffffffffff16660fffffffffffff81136148f85780610855565b7fffffffffffffffffffffffffffffffffffffffffffffffffffe0000000000000179392505050565b6000614930821515600461178b565b81838161493957fe5b049392505050565b6149586001600160a01b038316151561019b61178b565b614964826000836116f9565b6001600160a01b03821660009081526020819052604090205461498a90826101a161339f565b6001600160a01b0383166000908152602081905260409020556002546149b09082614f21565b6002556040516000906001600160a01b038416907fddf252ad1be2c89b69c2b068fc378daa952ba7f163c4a11628f55a4df523b3ef906149f1908590616860565b60405180910390a35050565b600060606000614a0c84614b4c565b90506001816002811115614a1c57fe5b1415614a2d5761486a868686614f2f565b6002816002811115614a3b57fe5b1415614a4b5761486a8685614f99565b61489d6101366129ce565b6148b48282611ff56147d0565b60408051600280825260608281019093526000918291816020016020820280368337019050509250614a988660200151612b7a565b15614ade5760009150600190508483600081518110614ab357fe5b6020026020010181815250508383600181518110614acd57fe5b602002602001018181525050614b1b565b60009050600191508383600081518110614af457fe5b6020026020010181815250508483600181518110614b0e57fe5b6020026020010181815250505b93509350939050565b637fffffff811b1992909216911b1790565b1c6fffffffffffffffffffffffffffffffff1690565b600081806020019051810190610e01919061631c565b606081806020019051810190610c1691906163e2565b600a91909155600b55565b614b8f600083836116f9565b600254614b9c9082611ff5565b6002556001600160a01b038216600090815260208190526040902054614bc29082611ff5565b6001600160a01b0383166000818152602081905260408082209390935591519091907fddf252ad1be2c89b69c2b068fc378daa952ba7f163c4a11628f55a4df523b3ef906149f1908590616860565b6000614c1b611cfb565b6000614c25611da8565b5090506000612f2a828787878b6060015161502e565b6000614c45611cfb565b6000614c4f611da8565b5090506000612f2a828787878b606001516150e6565b6000614c907f38e9922e000000000000000000000000000000000000000000000000000000006110c8565b821480610e015750614cc17f50dd6ed9000000000000000000000000000000000000000000000000000000006110c8565b909114919050565b600080614cd5876135c4565b830390506000818702614ce789613583565b0190506000828702614cf88a61359d565b0190506000838702614d098b6135b7565b0190506118b589848a858b868c615188565b6000610e018260016151e8565b600080614d37878787876151f0565b905080868581518110614d4657fe5b602002602001015111614d5d576000915050611241565b600081878681518110614d6c57fe5b6020026020010151039050614d9c670de0b6b3a7640000614d968684612ff390919063ffffffff16565b90612650565b98975050505050505050565b60006060614db4611cfb565b600080614dc085615399565b91509150614dd8614dcf61212d565b8210606461178b565b6060614de261212d565b67ffffffffffffffff81118015614df857600080fd5b50604051908082528060200260200182016040528015614e22578160200160208202803683370190505b5090506000614e2f611da8565b509050614e4e81898587614e4161093e565b614e49610de5565b6153bb565b828481518110614e5a57fe5b6020908102919091010152509196919550909350505050565b600060606000614e82846154d7565b90506060614e988683614e9361093e565b6154ed565b9196919550909350505050565b60006060614eb1611cfb565b60606000614ebe85615589565b91509150614ecf8251610e1a61212d565b614ed98287612453565b6000614ee3611da8565b5090506000614f03828a86614ef661093e565b614efe610de5565b6155a1565b9050614f138382111560cf61178b565b989297509195505050505050565b6000610c168383600161339f565b60006060806000614f3f85615589565b91509150614f55614f4e61212d565b8351612151565b614f5f8287612453565b6000614f69611da8565b5090506000614f89828a86614f7c61093e565b614f84610de5565b615837565b9050614f138382101560d061178b565b60006060600080614fa985615399565b91509150614fb8614dcf61212d565b6060614fc261212d565b67ffffffffffffffff81118015614fd857600080fd5b50604051908082528060200260200182016040528015615002578160200160208202803683370190505b509050600061500f611da8565b509050614e4e8189858761502161093e565b615029610de5565b615ac6565b60008061503d878760016124b4565b90506150658387868151811061504f57fe5b602002602001015161171490919063ffffffff16565b86858151811061507157fe5b602002602001018181525050600061508b888884896151f0565b90508387868151811061509a57fe5b6020026020010151018786815181106150af57fe5b602002602001018181525050614d9c60016125b78989815181106150cf57fe5b60200260200101518461171490919063ffffffff16565b6000806150f5878760016124b4565b905061511d8387878151811061510757fe5b6020026020010151611ff590919063ffffffff16565b86868151811061512957fe5b6020026020010181815250506000615143888884886151f0565b90508387878151811061515257fe5b60200260200101510387878151811061516757fe5b602002602001018181525050614d9c6001611836838a898151811061504f57fe5b6000615194828261172a565b61519f84601f615ba3565b6151aa866054615bb4565b6151b588606a615ba3565b6151c08a609f615bb4565b6151cb8c60b5615ba3565b6151d68e60ea615bb4565b17171717171798975050505050505050565b016103ff1690565b60008084518602905060008560008151811061520857fe5b60200260200101519050600086518760008151811061522357fe5b60200260200101510290506000600190505b875181101561527c5761526161525b615254848b858151811061255757fe5b8a516116bd565b88614921565b91506152728882815181106124d457fe5b9250600101615235565b5086858151811061528957fe5b60200260200101518203915060006152a187886116bd565b905060006152cd6152c16152b984610ce789886116bd565b6103e86116bd565b8a898151811061255757fe5b905060006152e16118a26152b98b89614921565b90506000806152fd6152f38686611ff5565b610ce78d86611ff5565b905060005b60ff81101561537d5781925061533261531f866125b785866116bd565b610ce78e611836886125b78860026116bd565b91508282111561535b57600183830311615356575097506117fc9650505050505050565b615375565b600182840311615375575097506117fc9650505050505050565b600101615302565b506153896101426129ce565b5050505050505050949350505050565b600080828060200190518101906153b091906163ac565b909590945092505050565b6000806153ca888860016124b4565b905060006153ec826153e6876153e0818b611714565b9061301f565b90613ef9565b905060006153fc8a8a848b6151f0565b90506000615410828b8b8151811061504f57fe5b90506000805b8b5181101561544f576154458c828151811061542e57fe5b602002602001015183611ff590919063ffffffff16565b9150600101615416565b506000615478828d8d8151811061546257fe5b602002602001015161265090919063ffffffff16565b9050600061548582615bc1565b905060006154938583613ef9565b905060006154a18683611714565b90506154c26154bb83670de0b6b3a76400008e9003612ff3565b8290611ff5565b99505050505050505050509695505050505050565b600081806020019051810190610c16919061637f565b606060006154fb8484612650565b90506060855167ffffffffffffffff8111801561551757600080fd5b50604051908082528060200260200182016040528015615541578160200160208202803683370190505b50905060005b865181101561557f5761556083888381518110611b0957fe5b82828151811061556c57fe5b6020908102919091010152600101615547565b5095945050505050565b60606000828060200190518101906153b09190616338565b600080805b86518110156155c8576155be87828151811061542e57fe5b91506001016155a6565b506060855167ffffffffffffffff811180156155e357600080fd5b5060405190808252806020026020018201604052801561560d578160200160208202803683370190505b5090506000805b88518110156156d4576000615645858b848151811061562f57fe5b602002602001015161301f90919063ffffffff16565b90506156818a838151811061565657fe5b60200260200101516153e08b858151811061566d57fe5b60200260200101518d868151811061504f57fe5b84838151811061568d57fe5b6020026020010181815250506156c96156c2828685815181106156ac57fe5b6020026020010151613ef990919063ffffffff16565b8490611ff5565b925050600101615614565b506060885167ffffffffffffffff811180156156ef57600080fd5b50604051908082528060200260200182016040528015615719578160200160208202803683370190505b50905060005b89518110156157e457600084828151811061573657fe5b602002602001015184111561579d57600061575f61575386615bc1565b8d8581518110611b0957fe5b90506000615773828d868151811061504f57fe5b905061579461578d82670de0b6b3a76400008d900361301f565b8390611ff5565b925050506157b4565b8982815181106157a957fe5b602002602001015190505b6157c4818c848151811061504f57fe5b8383815181106157d057fe5b60209081029190910101525060010161571f565b5060006157f38b8b60016124b4565b905060006158038c8460006124b4565b905060006158118284612650565b905061582661581f82615bc1565b8b90613ef9565b9d9c50505050505050505050505050565b600080805b865181101561585e5761585487828151811061542e57fe5b915060010161583c565b506060855167ffffffffffffffff8111801561587957600080fd5b506040519080825280602002602001820160405280156158a3578160200160208202803683370190505b5090506000805b88518110156159375760006158c5858b848151811061546257fe5b90506159018a83815181106158d657fe5b6020026020010151614d968b85815181106158ed57fe5b60200260200101518d868151811061510757fe5b84838151811061590d57fe5b60200260200101818152505061592c6156c282868581518110611b0957fe5b9250506001016158aa565b506060885167ffffffffffffffff8111801561595257600080fd5b5060405190808252806020026020018201604052801561597c578160200160208202803683370190505b50905060005b8951811015615a3d5760008385838151811061599a57fe5b602002602001015111156159f65760006159bf61575386670de0b6b3a7640000611714565b905060006159d3828d868151811061504f57fe5b90506159ed61578d82670de0b6b3a76400008d9003612ff3565b92505050615a0d565b898281518110615a0257fe5b602002602001015190505b615a1d818c848151811061510757fe5b838381518110615a2957fe5b602090810291909101015250600101615982565b506000615a4c8b8b60016124b4565b90506000615a5c8c8460006124b4565b90506000615a6a8284612650565b9050670de0b6b3a7640000811115615ab657615aa88a7ffffffffffffffffffffffffffffffffffffffffffffffffff21f494c589c00008301612ff3565b975050505050505050611241565b6000975050505050505050611241565b600080615ad5888860016124b4565b90506000615aeb826153e6876153e0818b611ff5565b90506000615afb8a8a848b6151f0565b90506000615b258a8a81518110615b0e57fe5b60200260200101518361171490919063ffffffff16565b90506000805b8b51811015615b4d57615b438c828151811061542e57fe5b9150600101615b2b565b506000615b60828d8d8151811061546257fe5b90506000615b6d82615bc1565b90506000615b7b8583613ef9565b90506000615b898683611714565b90506154c26154bb83670de0b6b3a76400008e900361301f565b661fffffffffffff91909116901b90565b623fffff91909116901b90565b6000670de0b6b3a76400008210615bd9576000610e01565b50670de0b6b3a76400000390565b604080518082019091526000808252602082015290565b803561085981616af3565b600082601f830112615c19578081fd5b8135615c2c615c2782616ac9565b616aa2565b818152915060208083019084810181840286018201871015615c4d57600080fd5b60005b84811015615c6c57813584529282019290820190600101615c50565b505050505092915050565b600082601f830112615c87578081fd5b8151615c95615c2782616ac9565b818152915060208083019084810181840286018201871015615cb657600080fd5b60005b84811015615c6c57815184529282019290820190600101615cb9565b600082601f830112615ce5578081fd5b813567ffffffffffffffff811115615cfb578182fd5b615d0e6020601f19601f84011601616aa2565b9150808252836020828501011115615d2557600080fd5b8060208401602084013760009082016020015292915050565b80356002811061085957600080fd5b803561085981616b16565b6000610120808385031215615d6b578182fd5b615d7481616aa2565b915050615d818383615d3e565b8152615d908360208401615bfe565b6020820152615da28360408401615bfe565b6040820152606082013560608201526080820135608082015260a082013560a0820152615dd28360c08401615bfe565b60c0820152615de48360e08401615bfe565b60e08201526101008083013567ffffffffffffffff811115615e0557600080fd5b615e1185828601615cd5565b82840152505092915050565b600060208284031215615e2e578081fd5b8135610c1681616af3565b60008060408385031215615e4b578081fd5b8235615e5681616af3565b91506020830135615e6681616af3565b809150509250929050565b600080600060608486031215615e85578081fd5b8335615e9081616af3565b92506020840135615ea081616af3565b929592945050506040919091013590565b600080600080600080600060e0888a031215615ecb578485fd5b8735615ed681616af3565b96506020880135615ee681616af3565b95506040880135945060608801359350608088013560ff81168114615f09578384fd5b9699959850939692959460a0840135945060c09093013592915050565b60008060408385031215615f38578182fd5b8235615f4381616af3565b946020939093013593505050565b600080600060608486031215615f65578081fd5b835167ffffffffffffffff80821115615f7c578283fd5b818601915086601f830112615f8f578283fd5b8151615f9d615c2782616ac9565b80828252602080830192508086018b828387028901011115615fbd578788fd5b8796505b84871015615fe8578051615fd481616af3565b845260019690960195928101928101615fc1565b508901519097509350505080821115615fff578283fd5b5061600c86828701615c77565b925050604084015190509250925092565b6000602080838503121561602f578182fd5b823567ffffffffffffffff811115616045578283fd5b8301601f81018513616055578283fd5b8035616063615c2782616ac9565b818152838101908385016040808502860187018a1015616081578788fd5b8795505b848610156160ce5780828b03121561609b578788fd5b6160a481616aa2565b6160ae8b84615d4d565b815282880135888201528452600195909501949286019290810190616085565b509098975050505050505050565b600060208083850312156160ee578182fd5b823567ffffffffffffffff811115616104578283fd5b8301601f81018513616114578283fd5b8035616122615c2782616ac9565b818152838101908385016060808502860187018a1015616140578788fd5b8795505b848610156160ce5780828b03121561615a578788fd5b61616381616aa2565b61616d8b84615d4d565b81528288013588820152604080840135908201528452600195909501949286019290810190616144565b6000602082840312156161a8578081fd5b8135610c1681616b08565b6000602082840312156161c4578081fd5b8151610c1681616b08565b600080600080600080600060e0888a0312156161e9578081fd5b8735965060208801356161fb81616af3565b9550604088013561620b81616af3565b9450606088013567ffffffffffffffff80821115616227578283fd5b6162338b838c01615c09565b955060808a0135945060a08a0135935060c08a0135915080821115616256578283fd5b506162638a828b01615cd5565b91505092959891949750929550565b600060208284031215616283578081fd5b81357fffffffff0000000000000000000000000000000000000000000000000000000081168114610c16578182fd5b6000602082840312156162c3578081fd5b8151610c1681616af3565b600080604083850312156162e0578182fd5b82356162eb81616af3565b9150602083013567ffffffffffffffff811115616306578182fd5b61631285828601615cd5565b9150509250929050565b60006020828403121561632d578081fd5b8151610c1681616b16565b60008060006060848603121561634c578081fd5b835161635781616b16565b602085015190935067ffffffffffffffff811115616373578182fd5b61600c86828701615c77565b60008060408385031215616391578182fd5b825161639c81616b16565b6020939093015192949293505050565b6000806000606084860312156163c0578081fd5b83516163cb81616b16565b602085015160409095015190969495509392505050565b600080604083850312156163f4578182fd5b82516163ff81616b16565b602084015190925067ffffffffffffffff81111561641b578182fd5b61631285828601615c77565b600060208284031215616438578081fd5b8135610c1681616b16565b600060208284031215616454578081fd5b5035919050565b60006020828403121561646c578081fd5b5051919050565b600060a08284031215616484578081fd5b61648e60a0616aa2565b8235815260208301356020820152604083013560408201526060830135606082015260808301356164be81616b08565b60808201529392505050565b600080600080608085870312156164df578182fd5b843567ffffffffffffffff808211156164f6578384fd5b61650288838901615d58565b95506020870135915080821115616517578384fd5b5061652487828801615c09565b949794965050505060408301359260600135919050565b60008060006060848603121561654f578081fd5b833567ffffffffffffffff811115616565578182fd5b61657186828701615d58565b9660208601359650604090950135949350505050565b60008060408385031215616599578182fd5b82359150602083013567ffffffffffffffff8111156165b6578182fd5b61631285828601615c09565b6000806000606084860312156165d6578081fd5b83359250602084013567ffffffffffffffff8111156165f3578182fd5b6165ff86828701615c09565b925050604084013590509250925092565b60008060408385031215616622578182fd5b50508035926020909101359150565b60008060008060808587031215616646578182fd5b845193506020850151925060408501519150606085015161666681616af3565b939692955090935050565b6000815180845260208085019450808401835b838110156166a057815187529582019590820190600101616684565b509495945050505050565b60008151808452815b818110156166d0576020818501810151868301820152016166b4565b818111156166e15782602083870101525b50601f01601f19169290920160200192915050565b9182527fffffffff0000000000000000000000000000000000000000000000000000000016602082015260240190565b6000828483379101908152919050565b7f190100000000000000000000000000000000000000000000000000000000000081526002810192909252602282015260420190565b6001600160a01b0391909116815260200190565b6020808252825182820181905260009190848201906040850190845b818110156167c15783516001600160a01b03168352928401929184019160010161679c565b50909695505050505050565b6020808252825182820181905260009190848201906040850190845b818110156167c1578351835292840192918401916001016167e9565b600060208252610c166020830184616671565b60006040825261682b6040830185616671565b82810360208401526112418185616671565b901515815260200190565b92151583526020830191909152604082015260600190565b90815260200190565b9283526001600160a01b03918216602084015216604082015260600190565b9586526001600160a01b0394851660208701529290931660408501526060840152608083019190915260a082015260c00190565b9485526020850193909352604084019190915260608301526001600160a01b0316608082015260a00190565b6000838252604060208301526117fc60408301846166ab565b9182526001600160a01b0316602082015260400190565b93845260ff9290921660208401526040830152606082015260800190565b968752602087019590955260408601939093526060850191909152608084015260a083015260c082015260e00190565b9485526020850193909352604084019190915260608301521515608082015260a00190565b8381526060810161699b84616ae9565b602082019390935260400152919050565b848152608081016169bc85616ae9565b84602083015283604083015282606083015295945050505050565b838152825160a08201906169ea81616ae9565b806020840152506020840151604083015260408401516060830152826080830152949350505050565b600060208252610c1660208301846166ab565b6000838252604060208301526117fc6040830184616671565b9283529015156020830152604082015260600190565b918252602082015260400190565b9283526020830191909152604082015260600190565b93845260208401929092526040830152606082015260800190565b60ff91909116815260200190565b60405181810167ffffffffffffffff81118282101715616ac157600080fd5b604052919050565b600067ffffffffffffffff821115616adf578081fd5b5060209081020190565b6003811061093b57fe5b6001600160a01b038116811461093b57600080fd5b801515811461093b57600080fd5b6003811061093b57600080fdfea2646970667358221220be9728f225d6b7bb6078d1f068a0a89f6287d52888a3e42b3102be182e08084964736f6c63430007010033c1a224b14823b63c7711127f125fbf592434682f38881ebb61408747a303affcca6c2c5b6b44b5f3f0c08f0e28e5b6deda1cb38c3fe1113e8031d926c1e8c6d0",
  "linkReferences": {
    "@balancer-labs/v2-pool-utils/contracts/oracle/QueryProcessor.sol": {
      "QueryProcessor": [
        {
          "length": 20,
          "start": 7806
        },
        {
          "length": 20,
          "start": 10150
        },
        {
          "length": 20,
          "start": 15263
        }
      ]
    }
  },
  "deployedLinkReferences": {
    "@balancer-labs/v2-pool-utils/contracts/oracle/QueryProcessor.sol": {
      "QueryProcessor": [
        {
          "length": 20,
          "start": 2510
        },
        {
          "length": 20,
          "start": 4854
        },
        {
          "length": 20,
          "start": 9967
        }
      ]
    }
  }
}