{
  "_format": "hh-sol-artifact-1",
  "contractName": "InvestmentPool",
  "sourceName": "contracts/smart/InvestmentPool.sol",
  "abi": [
    {
      "inputs": [
        {
          "internalType": "contract IVault",
          "name": "vault",
          "type": "address"
        },
        {
          "internalType": "string",
          "name": "name",
          "type": "string"
        },
        {
          "internalType": "string",
          "name": "symbol",
          "type": "string"
        },
        {
          "internalType": "contract IERC20[]",
          "name": "tokens",
          "type": "address[]"
        },
        {
          "internalType": "uint256[]",
          "name": "normalizedWeights",
          "type": "uint256[]"
        },
        {
          "internalType": "address[]",
          "name": "assetManagers",
          "type": "address[]"
        },
        {
          "internalType": "uint256",
          "name": "swapFeePercentage",
          "type": "uint256"
        },
        {
          "internalType": "uint256",
          "name": "pauseWindowDuration",
          "type": "uint256"
        },
        {
          "internalType": "uint256",
          "name": "bufferPeriodDuration",
          "type": "uint256"
        },
        {
          "internalType": "address",
          "name": "owner",
          "type": "address"
        }
      ],
      "stateMutability": "nonpayable",
      "type": "constructor"
    },
    {
      "anonymous": false,
      "inputs": [
        {
          "indexed": true,
          "internalType": "address",
          "name": "owner",
          "type": "address"
        },
        {
          "indexed": true,
          "internalType": "address",
          "name": "spender",
          "type": "address"
        },
        {
          "indexed": false,
          "internalType": "uint256",
          "name": "value",
          "type": "uint256"
        }
      ],
      "name": "Approval",
      "type": "event"
    },
    {
      "anonymous": false,
      "inputs": [
        {
          "indexed": false,
          "internalType": "bool",
          "name": "paused",
          "type": "bool"
        }
      ],
      "name": "PausedStateChanged",
      "type": "event"
    },
    {
      "anonymous": false,
      "inputs": [
        {
          "indexed": false,
          "internalType": "uint256",
          "name": "swapFeePercentage",
          "type": "uint256"
        }
      ],
      "name": "SwapFeePercentageChanged",
      "type": "event"
    },
    {
      "anonymous": false,
      "inputs": [
        {
          "indexed": true,
          "internalType": "address",
          "name": "from",
          "type": "address"
        },
        {
          "indexed": true,
          "internalType": "address",
          "name": "to",
          "type": "address"
        },
        {
          "indexed": false,
          "internalType": "uint256",
          "name": "value",
          "type": "uint256"
        }
      ],
      "name": "Transfer",
      "type": "event"
    },
    {
      "inputs": [],
      "name": "DOMAIN_SEPARATOR",
      "outputs": [
        {
          "internalType": "bytes32",
          "name": "",
          "type": "bytes32"
        }
      ],
      "stateMutability": "view",
      "type": "function"
    },
    {
      "inputs": [
        {
          "internalType": "address",
          "name": "owner",
          "type": "address"
        },
        {
          "internalType": "address",
          "name": "spender",
          "type": "address"
        }
      ],
      "name": "allowance",
      "outputs": [
        {
          "internalType": "uint256",
          "name": "",
          "type": "uint256"
        }
      ],
      "stateMutability": "view",
      "type": "function"
    },
    {
      "inputs": [
        {
          "internalType": "address",
          "name": "spender",
          "type": "address"
        },
        {
          "internalType": "uint256",
          "name": "amount",
          "type": "uint256"
        }
      ],
      "name": "approve",
      "outputs": [
        {
          "internalType": "bool",
          "name": "",
          "type": "bool"
        }
      ],
      "stateMutability": "nonpayable",
      "type": "function"
    },
    {
      "inputs": [
        {
          "internalType": "address",
          "name": "account",
          "type": "address"
        }
      ],
      "name": "balanceOf",
      "outputs": [
        {
          "internalType": "uint256",
          "name": "",
          "type": "uint256"
        }
      ],
      "stateMutability": "view",
      "type": "function"
    },
    {
      "inputs": [],
      "name": "decimals",
      "outputs": [
        {
          "internalType": "uint8",
          "name": "",
          "type": "uint8"
        }
      ],
      "stateMutability": "view",
      "type": "function"
    },
    {
      "inputs": [
        {
          "internalType": "address",
          "name": "spender",
          "type": "address"
        },
        {
          "internalType": "uint256",
          "name": "amount",
          "type": "uint256"
        }
      ],
      "name": "decreaseAllowance",
      "outputs": [
        {
          "internalType": "bool",
          "name": "",
          "type": "bool"
        }
      ],
      "stateMutability": "nonpayable",
      "type": "function"
    },
    {
      "inputs": [
        {
          "internalType": "bytes4",
          "name": "selector",
          "type": "bytes4"
        }
      ],
      "name": "getActionId",
      "outputs": [
        {
          "internalType": "bytes32",
          "name": "",
          "type": "bytes32"
        }
      ],
      "stateMutability": "view",
      "type": "function"
    },
    {
      "inputs": [],
      "name": "getAuthorizer",
      "outputs": [
        {
          "internalType": "contract IAuthorizer",
          "name": "",
          "type": "address"
        }
      ],
      "stateMutability": "view",
      "type": "function"
    },
    {
      "inputs": [],
      "name": "getInvariant",
      "outputs": [
        {
          "internalType": "uint256",
          "name": "",
          "type": "uint256"
        }
      ],
      "stateMutability": "view",
      "type": "function"
    },
    {
      "inputs": [],
      "name": "getLastInvariant",
      "outputs": [
        {
          "internalType": "uint256",
          "name": "",
          "type": "uint256"
        }
      ],
      "stateMutability": "view",
      "type": "function"
    },
    {
      "inputs": [],
      "name": "getNormalizedWeights",
      "outputs": [
        {
          "internalType": "uint256[]",
          "name": "",
          "type": "uint256[]"
        }
      ],
      "stateMutability": "view",
      "type": "function"
    },
    {
      "inputs": [],
      "name": "getOwner",
      "outputs": [
        {
          "internalType": "address",
          "name": "",
          "type": "address"
        }
      ],
      "stateMutability": "view",
      "type": "function"
    },
    {
      "inputs": [],
      "name": "getPausedState",
      "outputs": [
        {
          "internalType": "bool",
          "name": "paused",
          "type": "bool"
        },
        {
          "internalType": "uint256",
          "name": "pauseWindowEndTime",
          "type": "uint256"
        },
        {
          "internalType": "uint256",
          "name": "bufferPeriodEndTime",
          "type": "uint256"
        }
      ],
      "stateMutability": "view",
      "type": "function"
    },
    {
      "inputs": [],
      "name": "getPoolId",
      "outputs": [
        {
          "internalType": "bytes32",
          "name": "",
          "type": "bytes32"
        }
      ],
      "stateMutability": "view",
      "type": "function"
    },
    {
      "inputs": [],
      "name": "getRate",
      "outputs": [
        {
          "internalType": "uint256",
          "name": "",
          "type": "uint256"
        }
      ],
      "stateMutability": "view",
      "type": "function"
    },
    {
      "inputs": [],
      "name": "getScalingFactors",
      "outputs": [
        {
          "internalType": "uint256[]",
          "name": "",
          "type": "uint256[]"
        }
      ],
      "stateMutability": "view",
      "type": "function"
    },
    {
      "inputs": [],
      "name": "getSwapFeePercentage",
      "outputs": [
        {
          "internalType": "uint256",
          "name": "",
          "type": "uint256"
        }
      ],
      "stateMutability": "view",
      "type": "function"
    },
    {
      "inputs": [],
      "name": "getVault",
      "outputs": [
        {
          "internalType": "contract IVault",
          "name": "",
          "type": "address"
        }
      ],
      "stateMutability": "view",
      "type": "function"
    },
    {
      "inputs": [
        {
          "internalType": "address",
          "name": "spender",
          "type": "address"
        },
        {
          "internalType": "uint256",
          "name": "addedValue",
          "type": "uint256"
        }
      ],
      "name": "increaseAllowance",
      "outputs": [
        {
          "internalType": "bool",
          "name": "",
          "type": "bool"
        }
      ],
      "stateMutability": "nonpayable",
      "type": "function"
    },
    {
      "inputs": [],
      "name": "name",
      "outputs": [
        {
          "internalType": "string",
          "name": "",
          "type": "string"
        }
      ],
      "stateMutability": "view",
      "type": "function"
    },
    {
      "inputs": [
        {
          "internalType": "address",
          "name": "owner",
          "type": "address"
        }
      ],
      "name": "nonces",
      "outputs": [
        {
          "internalType": "uint256",
          "name": "",
          "type": "uint256"
        }
      ],
      "stateMutability": "view",
      "type": "function"
    },
    {
      "inputs": [
        {
          "internalType": "bytes32",
          "name": "poolId",
          "type": "bytes32"
        },
        {
          "internalType": "address",
          "name": "sender",
          "type": "address"
        },
        {
          "internalType": "address",
          "name": "recipient",
          "type": "address"
        },
        {
          "internalType": "uint256[]",
          "name": "balances",
          "type": "uint256[]"
        },
        {
          "internalType": "uint256",
          "name": "lastChangeBlock",
          "type": "uint256"
        },
        {
          "internalType": "uint256",
          "name": "protocolSwapFeePercentage",
          "type": "uint256"
        },
        {
          "internalType": "bytes",
          "name": "userData",
          "type": "bytes"
        }
      ],
      "name": "onExitPool",
      "outputs": [
        {
          "internalType": "uint256[]",
          "name": "",
          "type": "uint256[]"
        },
        {
          "internalType": "uint256[]",
          "name": "",
          "type": "uint256[]"
        }
      ],
      "stateMutability": "nonpayable",
      "type": "function"
    },
    {
      "inputs": [
        {
          "internalType": "bytes32",
          "name": "poolId",
          "type": "bytes32"
        },
        {
          "internalType": "address",
          "name": "sender",
          "type": "address"
        },
        {
          "internalType": "address",
          "name": "recipient",
          "type": "address"
        },
        {
          "internalType": "uint256[]",
          "name": "balances",
          "type": "uint256[]"
        },
        {
          "internalType": "uint256",
          "name": "lastChangeBlock",
          "type": "uint256"
        },
        {
          "internalType": "uint256",
          "name": "protocolSwapFeePercentage",
          "type": "uint256"
        },
        {
          "internalType": "bytes",
          "name": "userData",
          "type": "bytes"
        }
      ],
      "name": "onJoinPool",
      "outputs": [
        {
          "internalType": "uint256[]",
          "name": "",
          "type": "uint256[]"
        },
        {
          "internalType": "uint256[]",
          "name": "",
          "type": "uint256[]"
        }
      ],
      "stateMutability": "nonpayable",
      "type": "function"
    },
    {
      "inputs": [
        {
          "components": [
            {
              "internalType": "enum IVault.SwapKind",
              "name": "kind",
              "type": "uint8"
            },
            {
              "internalType": "contract IERC20",
              "name": "tokenIn",
              "type": "address"
            },
            {
              "internalType": "contract IERC20",
              "name": "tokenOut",
              "type": "address"
            },
            {
              "internalType": "uint256",
              "name": "amount",
              "type": "uint256"
            },
            {
              "internalType": "bytes32",
              "name": "poolId",
              "type": "bytes32"
            },
            {
              "internalType": "uint256",
              "name": "lastChangeBlock",
              "type": "uint256"
            },
            {
              "internalType": "address",
              "name": "from",
              "type": "address"
            },
            {
              "internalType": "address",
              "name": "to",
              "type": "address"
            },
            {
              "internalType": "bytes",
              "name": "userData",
              "type": "bytes"
            }
          ],
          "internalType": "struct IPoolSwapStructs.SwapRequest",
          "name": "request",
          "type": "tuple"
        },
        {
          "internalType": "uint256",
          "name": "balanceTokenIn",
          "type": "uint256"
        },
        {
          "internalType": "uint256",
          "name": "balanceTokenOut",
          "type": "uint256"
        }
      ],
      "name": "onSwap",
      "outputs": [
        {
          "internalType": "uint256",
          "name": "",
          "type": "uint256"
        }
      ],
      "stateMutability": "nonpayable",
      "type": "function"
    },
    {
      "inputs": [
        {
          "internalType": "address",
          "name": "owner",
          "type": "address"
        },
        {
          "internalType": "address",
          "name": "spender",
          "type": "address"
        },
        {
          "internalType": "uint256",
          "name": "value",
          "type": "uint256"
        },
        {
          "internalType": "uint256",
          "name": "deadline",
          "type": "uint256"
        },
        {
          "internalType": "uint8",
          "name": "v",
          "type": "uint8"
        },
        {
          "internalType": "bytes32",
          "name": "r",
          "type": "bytes32"
        },
        {
          "internalType": "bytes32",
          "name": "s",
          "type": "bytes32"
        }
      ],
      "name": "permit",
      "outputs": [],
      "stateMutability": "nonpayable",
      "type": "function"
    },
    {
      "inputs": [
        {
          "internalType": "bytes32",
          "name": "poolId",
          "type": "bytes32"
        },
        {
          "internalType": "address",
          "name": "sender",
          "type": "address"
        },
        {
          "internalType": "address",
          "name": "recipient",
          "type": "address"
        },
        {
          "internalType": "uint256[]",
          "name": "balances",
          "type": "uint256[]"
        },
        {
          "internalType": "uint256",
          "name": "lastChangeBlock",
          "type": "uint256"
        },
        {
          "internalType": "uint256",
          "name": "protocolSwapFeePercentage",
          "type": "uint256"
        },
        {
          "internalType": "bytes",
          "name": "userData",
          "type": "bytes"
        }
      ],
      "name": "queryExit",
      "outputs": [
        {
          "internalType": "uint256",
          "name": "bptIn",
          "type": "uint256"
        },
        {
          "internalType": "uint256[]",
          "name": "amountsOut",
          "type": "uint256[]"
        }
      ],
      "stateMutability": "view",
      "type": "function"
    },
    {
      "inputs": [
        {
          "internalType": "bytes32",
          "name": "poolId",
          "type": "bytes32"
        },
        {
          "internalType": "address",
          "name": "sender",
          "type": "address"
        },
        {
          "internalType": "address",
          "name": "recipient",
          "type": "address"
        },
        {
          "internalType": "uint256[]",
          "name": "balances",
          "type": "uint256[]"
        },
        {
          "internalType": "uint256",
          "name": "lastChangeBlock",
          "type": "uint256"
        },
        {
          "internalType": "uint256",
          "name": "protocolSwapFeePercentage",
          "type": "uint256"
        },
        {
          "internalType": "bytes",
          "name": "userData",
          "type": "bytes"
        }
      ],
      "name": "queryJoin",
      "outputs": [
        {
          "internalType": "uint256",
          "name": "bptOut",
          "type": "uint256"
        },
        {
          "internalType": "uint256[]",
          "name": "amountsIn",
          "type": "uint256[]"
        }
      ],
      "stateMutability": "view",
      "type": "function"
    },
    {
      "inputs": [
        {
          "internalType": "contract IERC20",
          "name": "token",
          "type": "address"
        },
        {
          "internalType": "bytes",
          "name": "poolConfig",
          "type": "bytes"
        }
      ],
      "name": "setAssetManagerPoolConfig",
      "outputs": [],
      "stateMutability": "nonpayable",
      "type": "function"
    },
    {
      "inputs": [
        {
          "internalType": "bool",
          "name": "paused",
          "type": "bool"
        }
      ],
      "name": "setPaused",
      "outputs": [],
      "stateMutability": "nonpayable",
      "type": "function"
    },
    {
      "inputs": [
        {
          "internalType": "uint256",
          "name": "swapFeePercentage",
          "type": "uint256"
        }
      ],
      "name": "setSwapFeePercentage",
      "outputs": [],
      "stateMutability": "nonpayable",
      "type": "function"
    },
    {
      "inputs": [],
      "name": "symbol",
      "outputs": [
        {
          "internalType": "string",
          "name": "",
          "type": "string"
        }
      ],
      "stateMutability": "view",
      "type": "function"
    },
    {
      "inputs": [],
      "name": "totalSupply",
      "outputs": [
        {
          "internalType": "uint256",
          "name": "",
          "type": "uint256"
        }
      ],
      "stateMutability": "view",
      "type": "function"
    },
    {
      "inputs": [
        {
          "internalType": "address",
          "name": "recipient",
          "type": "address"
        },
        {
          "internalType": "uint256",
          "name": "amount",
          "type": "uint256"
        }
      ],
      "name": "transfer",
      "outputs": [
        {
          "internalType": "bool",
          "name": "",
          "type": "bool"
        }
      ],
      "stateMutability": "nonpayable",
      "type": "function"
    },
    {
      "inputs": [
        {
          "internalType": "address",
          "name": "sender",
          "type": "address"
        },
        {
          "internalType": "address",
          "name": "recipient",
          "type": "address"
        },
        {
          "internalType": "uint256",
          "name": "amount",
          "type": "uint256"
        }
      ],
      "name": "transferFrom",
      "outputs": [
        {
          "internalType": "bool",
          "name": "",
          "type": "bool"
        }
      ],
      "stateMutability": "nonpayable",
      "type": "function"
    }
  ],
  "bytecode": "0x6101c06040527f6e71edae12b1b97f4d1f60370fef10105fa2faae0126114a169c64845d6126c9610120523480156200003757600080fd5b50604051620054c6380380620054c68339810160408190526200005a9162000b1a565b8989898988888888888886516002146200007657600162000079565b60025b8989898989898989828289898180604051806040016040528060018152602001603160f81b815250848489336001600160a01b031660001b806080818152505050806001600160a01b031660a0816001600160a01b031660601b81525050508160039080519060200190620000f092919062000873565b5080516200010690600490602084019062000873565b50506005805460ff1916601217905550815160209283012060c052805191012060e05250507f8b73c3c69bb8fe3d512ecc4cf759cc79239f7b179b0ffacaa9a75d522b39400f6101005250620001656276a70083111561019462000350565b6200017962278d0082111561019562000350565b42909101610140819052016101605285516200019b906002111560c862000350565b620001b5620001a962000365565b8751111560c962000350565b620001cb866200036a60201b62000e181760201c565b620001d68462000376565b6040516309b2760f60e01b81526000906001600160a01b038c16906309b2760f9062000207908d9060040162000cfb565b602060405180830381600087803b1580156200022257600080fd5b505af115801562000237573d6000803e3d6000fd5b505050506040513d601f19601f820116820180604052508101906200025d919062000b01565b604051633354e3e960e11b81529091506001600160a01b038c16906366a9c7d290620002929084908b908b9060040162000c5f565b600060405180830381600087803b158015620002ad57600080fd5b505af1158015620002c2573d6000803e3d6000fd5b505050508a6001600160a01b0316610180816001600160a01b031660601b81525050806101a0818152505050505050505050505050505050505050505050506001600a819055506000875190506200032981885188516200040260201b62000e221760201c565b600b819055426200033e81808a808d62000422565b50505050505050505050505062000d82565b81620003615762000361816200060b565b5050565b606490565b8062000361816200065e565b6200038b64e8d4a5100082101560cb62000350565b620003a367016345785d8a000082111560ca62000350565b620003c28160c0600854620006e860201b62000e3f179092919060201c565b6008556040517fa9ba3ffe0b6c366b81232caab38605a0699ad5398d6cce76f91ee809e322dafc90620003f790839062000d10565b60405180910390a150565b6200041d82841480156200041557508183145b606762000350565b505050565b600080805b8451811015620005e95760008582815181106200044057fe5b6020026020010151905062000468662386f26fc1000082101561012e6200035060201b60201c565b60008583815181106200047757fe5b60200260200101519050620005a562000517826001600160a01b031663313ce5676040518163ffffffff1660e01b815260040160206040518083038186803b158015620004c357600080fd5b505afa158015620004d8573d6000803e3d6000fd5b505050506040513d601f19601f82011682018060405250810190620004fe919062000c3c565b60ff166012620006fd60201b62000e551790919060201c565b60606200059062000533866200071a60201b62000e6b1760201c565b60406200057b620005638f8b815181106200054a57fe5b60200260200101516200075d60201b62000e8f1760201c565b60008c620006e860201b62000e3f179092919060201c565b6200078f60201b62000eaf179092919060201c565b620007a160201b62000ec1179092919060201c565b6001600160a01b0382166000908152600c6020908152604090912091909155620005dc908690849062000ed0620007b0821b17901c565b9450505060010162000427565b5062000602670de0b6b3a7640000831461013462000350565b50505050505050565b62461bcd60e51b6000908152602060045260076024526642414c23000030600a808404818106603090810160081b95839006959095019082900491820690940160101b939093010160c81b604452606490fd5b6002815110156200066f57620006e5565b6000816000815181106200067f57fe5b602002602001015190506000600190505b82518110156200041d576000838281518110620006a957fe5b60200260200101519050620006da816001600160a01b0316846001600160a01b03161060656200035060201b60201c565b915060010162000690565b50565b6001600160401b03811b1992909216911b1790565b60006200070f83831115600162000350565b508082035b92915050565b600062000714670de0b6b3a76400006200074963ffffffff801685620007cb60201b62000ee21790919060201c565b6200082060201b62000f4e1790919060201c565b600062000714670de0b6b3a7640000620007496001600160401b03801685620007cb60201b62000ee21790919060201c565b63ffffffff811b1992909216911b1790565b601f811b1992909216911b1790565b6000828201620007c4848210158362000350565b9392505050565b6000828202620007f3841580620007eb575083858381620007e857fe5b04145b600362000350565b806200080457600091505062000714565b670de0b6b3a764000060001982015b0460010191505062000714565b600062000831821515600462000350565b82620008405750600062000714565b670de0b6b3a76400008381029062000866908583816200085c57fe5b0414600562000350565b8260018203816200081357fe5b828054600181600116156101000203166002900490600052602060002090601f016020900481019282601f10620008b657805160ff1916838001178555620008e6565b82800160010185558215620008e6579182015b82811115620008e6578251825591602001919060010190620008c9565b50620008f4929150620008f8565b5090565b5b80821115620008f45760008155600101620008f9565b8051620007148162000d6c565b600082601f8301126200092d578081fd5b8151620009446200093e8262000d40565b62000d19565b8181529150602080830190848101818402860182018710156200096657600080fd5b60005b84811015620009925781516200097f8162000d6c565b8452928201929082019060010162000969565b505050505092915050565b600082601f830112620009ae578081fd5b8151620009bf6200093e8262000d40565b818152915060208083019084810181840286018201871015620009e157600080fd5b60005b8481101562000992578151620009fa8162000d6c565b84529282019290820190600101620009e4565b600082601f83011262000a1e578081fd5b815162000a2f6200093e8262000d40565b81815291506020808301908481018184028601820187101562000a5157600080fd5b60005b84811015620009925781518452928201929082019060010162000a54565b600082601f83011262000a83578081fd5b81516001600160401b0381111562000a99578182fd5b602062000aaf601f8301601f1916820162000d19565b9250818352848183860101111562000ac657600080fd5b60005b8281101562000ae657848101820151848201830152810162000ac9565b8281111562000af85760008284860101525b50505092915050565b60006020828403121562000b13578081fd5b5051919050565b6000806000806000806000806000806101408b8d03121562000b3a578586fd5b62000b468c8c6200090f565b60208c0151909a506001600160401b038082111562000b63578788fd5b62000b718e838f0162000a72565b9a5060408d015191508082111562000b87578788fd5b62000b958e838f0162000a72565b995060608d015191508082111562000bab578788fd5b62000bb98e838f016200099d565b985060808d015191508082111562000bcf578788fd5b62000bdd8e838f0162000a0d565b975060a08d015191508082111562000bf3578687fd5b5062000c028d828e016200091c565b95505060c08b0151935060e08b015192506101008b0151915062000c2b8c6101208d016200090f565b90509295989b9194979a5092959850565b60006020828403121562000c4e578081fd5b815160ff81168114620007c4578182fd5b60006060820185835260206060818501528186518084526080860191508288019350845b8181101562000cab5762000c98855162000d60565b8352938301939183019160010162000c83565b505084810360408601528551808252908201925081860190845b8181101562000ced5762000cda835162000d60565b8552938301939183019160010162000cc5565b509298975050505050505050565b602081016003831062000d0a57fe5b91905290565b90815260200190565b6040518181016001600160401b038111828210171562000d3857600080fd5b604052919050565b60006001600160401b0382111562000d56578081fd5b5060209081020190565b6001600160a01b031690565b6001600160a01b0381168114620006e557600080fd5b60805160a05160601c60c05160e051610100516101205161014051610160516101805160601c6101a0516146cc62000dfa600039806106645250806108cd525080611126525080611102525080610baa5250806113875250806113c95250806113a85250806108a952508061083352506146cc6000f3fe608060405234801561001057600080fd5b50600436106102265760003560e01c806374f3b0091161012a5780639d2c110c116100bd578063c0ff1a151161008c578063d5c096c411610071578063d5c096c414610457578063dd62ed3e1461046a578063f89f27ed1461047d57610226565b8063c0ff1a151461043c578063d505accf1461044457610226565b80639d2c110c146103fb578063a457c2d71461040e578063a9059cbb14610421578063aaabadc51461043457610226565b8063893d20e8116100f9578063893d20e8146103ce5780638d928af8146103e357806395d89b41146103eb5780639b02cdde146103f357610226565b806374f3b009146103745780637ecebe0014610395578063851c1bb3146103a857806387ec6817146103bb57610226565b80633644e515116101bd57806350dd6ed91161018c5780636028bfd4116101715780636028bfd414610338578063679aefce1461035957806370a082311461036157610226565b806350dd6ed91461031d57806355c676281461033057610226565b80633644e515146102e757806338e9922e146102ef57806338fff2d014610302578063395093511461030a57610226565b80631c0de051116101f95780631c0de051146102935780631dd746ea146102aa57806323b872dd146102bf578063313ce567146102d257610226565b806306fdde031461022b578063095ea7b31461024957806316c38b3c1461026957806318160ddd1461027e575b600080fd5b610233610485565b60405161024091906145e5565b60405180910390f35b61025c610257366004613e70565b610539565b60405161024091906144ec565b61027c610277366004613f67565b610550565b005b610286610564565b604051610240919061450f565b61029b61056a565b604051610240939291906144f7565b6102b2610593565b60405161024091906144b4565b61025c6102cd366004613dbb565b6105a2565b6102da610636565b6040516102409190614611565b61028661063f565b61027c6102fd36600461434d565b610649565b610286610662565b61025c610318366004613e70565b610686565b61027c61032b3660046140f8565b6106c1565b6102866106df565b61034b610346366004613f9f565b6106f0565b6040516102409291906145f8565b610286610727565b61028661036f366004613d67565b610752565b610387610382366004613f9f565b610771565b6040516102409291906144c7565b6102866103a3366004613d67565b610814565b6102866103b636600461409c565b61082f565b61034b6103c9366004613f9f565b610881565b6103d66108a7565b60405161024091906144a0565b6103d66108cb565b6102336108ef565b61028661096e565b610286610409366004614251565b610974565b61025c61041c366004613e70565b610a5b565b61025c61042f366004613e70565b610a99565b6103d6610aa6565b610286610ab0565b61027c610452366004613dfb565b610b75565b610387610465366004613f9f565b610cbe565b610286610478366004613d83565b610de3565b6102b2610e0e565b60038054604080516020601f60027fffffffffffffffffffffffffffffffffffffffffffffffffffffffffffffffff61010060018816150201909516949094049384018190048102820181019092528281526060939092909183018282801561052f5780601f106105045761010080835404028352916020019161052f565b820191906000526020600020905b81548152906001019060200180831161051257829003601f168201915b5050505050905090565b6000610546338484610f99565b5060015b92915050565b610558611001565b61056181611047565b50565b60025490565b60008060006105776110e3565b159250610582611100565b915061058c611124565b9050909192565b606061059d611148565b905090565b6000806105af8533610de3565b90506105d3336001600160a01b03871614806105cb5750838210155b61019e611295565b6105de8585856112a3565b336001600160a01b0386161480159061061757507fffffffffffffffffffffffffffffffffffffffffffffffffffffffffffffffff8114155b15610629576106298533858403610f99565b60019150505b9392505050565b60055460ff1690565b600061059d611383565b610651611001565b610659611420565b61056181611435565b7f000000000000000000000000000000000000000000000000000000000000000090565b3360008181526001602090815260408083206001600160a01b038716845290915281205490916105469185906106bc9086610ed0565b610f99565b6106c9611001565b6106d1611420565b6106db82826114a0565b5050565b60085460009061059d9060c06115b8565b6000606061070686516107016115c6565b6115cc565b61071b898989898989896115d96116a961170a565b97509795505050505050565b600061059d610734610564565b61074c61073f610ab0565b6107476115c6565b61189a565b906118b4565b6001600160a01b0381166000908152602081905260409020545b919050565b6060808861079b6107806108cb565b6001600160a01b0316336001600160a01b03161460cd611295565b6107b06107a6610662565b82146101f4611295565b60606107ba611148565b90506107c688826118fc565b60006060806107db8e8e8e8e8e8e8a8f6115d9565b9250925092506107eb8d8461195d565b6107f582856116a9565b6107ff81856116a9565b909550935050505b5097509795505050505050565b6001600160a01b031660009081526006602052604090205490565b60007f00000000000000000000000000000000000000000000000000000000000000008260405160200161086492919061442a565b604051602081830303815290604052805190602001209050919050565b6000606061089286516107016115c6565b61071b898989898989896119676119ed61170a565b7f000000000000000000000000000000000000000000000000000000000000000090565b7f000000000000000000000000000000000000000000000000000000000000000090565b60048054604080516020601f60027fffffffffffffffffffffffffffffffffffffffffffffffffffffffffffffffff61010060018816150201909516949094049384018190048102820181019092528281526060939092909183018282801561052f5780601f106105045761010080835404028352916020019161052f565b60095490565b6000806109848560200151611a4e565b905060006109958660400151611a4e565b90506000865160018111156109a657fe5b1415610a0c576109b98660600151611a61565b60608701526109c88583611a82565b94506109d48482611a82565b93506109e4866060015183611a82565b606087015260006109f6878787611a8e565b9050610a028183611ac9565b935050505061062f565b610a168583611a82565b9450610a228482611a82565b9350610a32866060015182611a82565b60608701526000610a44878787611ad5565b9050610a508184611b08565b9050610a0281611b14565b600080610a683385610de3565b9050808310610a8257610a7d33856000610f99565b610a8f565b610a8f3385858403610f99565b5060019392505050565b60006105463384846112a3565b600061059d611b3a565b60006060610abc6108cb565b6001600160a01b031663f94d4668610ad2610662565b6040518263ffffffff1660e01b8152600401610aee919061450f565b60006040518083038186803b158015610b0657600080fd5b505afa158015610b1a573d6000803e3d6000fd5b505050506040513d6000823e601f3d908101601f19168201604052610b429190810190613e9b565b50915050610b5781610b52611148565b6118fc565b6060610b61611bb4565b509050610b6e8183611c32565b9250505090565b610b838442111560d1611295565b6001600160a01b0387166000908152600660209081526040808320549051909291610bda917f0000000000000000000000000000000000000000000000000000000000000000918c918c918c9188918d9101614537565b6040516020818303038152906040528051906020012090506000610bfd82611ca4565b9050600060018288888860405160008152602001604052604051610c2494939291906145c7565b6020604051602081039080840390855afa158015610c46573d6000803e3d6000fd5b5050604051601f1901519150610c8890506001600160a01b03821615801590610c8057508b6001600160a01b0316826001600160a01b0316145b6101f8611295565b6001600160a01b038b166000908152600660205260409020600185019055610cb18b8b8b610f99565b5050505050505050505050565b60608088610ccd6107806108cb565b610cd86107a6610662565b6060610ce2611148565b9050610cec610564565b610d935760006060610d018d8d8d868b611cc0565b91509150610d16620f424083101560cc611295565b610d246000620f4240611d5b565b610d338b620f42408403611d5b565b610d3d81846119ed565b80610d466115c6565b67ffffffffffffffff81118015610d5c57600080fd5b50604051908082528060200260200182016040528015610d86578160200160208202803683370190505b5095509550505050610807565b610d9d88826118fc565b6000606080610db28e8e8e8e8e8e8a8f611967565b925092509250610dc28c84611d5b565b610dcc82856119ed565b610dd681856116a9565b9095509350610807915050565b6001600160a01b03918216600090815260016020908152604080832093909416825291909152205490565b606061059d611d65565b806106db81611ec6565b610e3a8284148015610e3357508183145b6067611295565b505050565b67ffffffffffffffff811b1992909216911b1790565b6000610e65838311156001611295565b50900390565b600061054a670de0b6b3a7640000610e898463ffffffff610ee28116565b90610f4e565b600061054a670de0b6b3a7640000610e898467ffffffffffffffff610ee2565b63ffffffff811b1992909216911b1790565b601f811b1992909216911b1790565b600082820161062f8482101583611295565b6000828202610f06841580610eff575083858381610efc57fe5b04145b6003611295565b80610f1557600091505061054a565b670de0b6b3a76400007fffffffffffffffffffffffffffffffffffffffffffffffffffffffffffffffff82015b0460010191505061054a565b6000610f5d8215156004611295565b82610f6a5750600061054a565b670de0b6b3a764000083810290610f8d90858381610f8457fe5b04146005611295565b826001820381610f4257fe5b6001600160a01b0380841660008181526001602090815260408083209487168084529490915290819020849055517f8c5be1e5ebec7d5bd14f71427d1e84f3dd0314c0f7b2291e5b200ac8c7c3b92590610ff490859061450f565b60405180910390a3505050565b60006110306000357fffffffff000000000000000000000000000000000000000000000000000000001661082f565b905061056161103f8233611f3f565b610191611295565b801561106757611062611058611100565b4210610193611295565b61107c565b61107c611072611124565b42106101a9611295565b600780547fffffffffffffffffffffffffffffffffffffffffffffffffffffffffffffff00168215151790556040517f9e3a5e37224532dea67b89face185703738a228a6e8a23dee546960180d3be64906110d89083906144ec565b60405180910390a150565b60006110ed611124565b42118061059d57505060075460ff161590565b7f000000000000000000000000000000000000000000000000000000000000000090565b7f000000000000000000000000000000000000000000000000000000000000000090565b6060806111536108cb565b6001600160a01b031663f94d4668611169610662565b6040518263ffffffff1660e01b8152600401611185919061450f565b60006040518083038186803b15801561119d57600080fd5b505afa1580156111b1573d6000803e3d6000fd5b505050506040513d6000823e601f3d908101601f191682016040526111d99190810190613e9b565b505080519091508067ffffffffffffffff811180156111f757600080fd5b50604051908082528060200260200182016040528015611221578160200160208202803683370190505b50925060005b8181101561128f57611270600c600085848151811061124257fe5b60200260200101516001600160a01b03166001600160a01b031681526020019081526020016000205461202f565b84828151811061127c57fe5b6020908102919091010152600101611227565b50505090565b816106db576106db81612051565b6112ba6001600160a01b0384161515610198611295565b6112d16001600160a01b0383161515610199611295565b6112dc838383610e3a565b6001600160a01b03831660009081526020819052604090205461130290826101a06120be565b6001600160a01b0380851660009081526020819052604080822093909355908416815220546113319082610ed0565b6001600160a01b0380841660008181526020819052604090819020939093559151908516907fddf252ad1be2c89b69c2b068fc378daa952ba7f163c4a11628f55a4df523b3ef90610ff490859061450f565b60007f00000000000000000000000000000000000000000000000000000000000000007f00000000000000000000000000000000000000000000000000000000000000007f00000000000000000000000000000000000000000000000000000000000000006113f06120d4565b3060405160200161140595949392919061456b565b60405160208183030381529060405280519060200120905090565b61143361142b6110e3565b610192611295565b565b61144864e8d4a5100082101560cb611295565b61145e67016345785d8a000082111560ca611295565b60085461146d908260c0610e3f565b6008556040517fa9ba3ffe0b6c366b81232caab38605a0699ad5398d6cce76f91ee809e322dafc906110d890839061450f565b60006114aa610662565b905060006114b66108cb565b6001600160a01b031663b05f8e4883866040518363ffffffff1660e01b81526004016114e39291906145b0565b60806040518083038186803b1580156114fb57600080fd5b505afa15801561150f573d6000803e3d6000fd5b505050506040513d601f19601f820116820180604052508101906115339190614365565b6040517f18e736d40000000000000000000000000000000000000000000000000000000081529094506001600160a01b03851693506318e736d49250611580915085908790600401614597565b600060405180830381600087803b15801561159a57600080fd5b505af11580156115ae573d6000803e3d6000fd5b5050505050505050565b1c67ffffffffffffffff1690565b600b5490565b6106db8183146067611295565b6000606080606060006115ea611bb4565b915091506115f66110e3565b1561162e576000611607838c611c32565b90506116198b8484600954858e6120d8565b93506116288b85610e55612189565b5061167a565b6116366115c6565b67ffffffffffffffff8111801561164c57600080fd5b50604051908082528060200260200182016040528015611676578160200160208202803683370190505b5092505b6116868a8389896121f4565b90955093506116968a8584612263565b6009555050985098509895505050505050565b60005b6116b46115c6565b811015610e3a576116eb8382815181106116ca57fe5b60200260200101518383815181106116de57fe5b60200260200101516118b4565b8382815181106116f757fe5b60209081029190910101526001016116ac565b3330146117f9576000306001600160a01b031660003660405161172e92919061445a565b6000604051808303816000865af19150503d806000811461176b576040519150601f19603f3d011682016040523d82523d6000602084013e611770565b606091505b50509050806000811461177f57fe5b60046000803e6000517fffffffff00000000000000000000000000000000000000000000000000000000167f43adbafb0000000000000000000000000000000000000000000000000000000081146117db573d6000803e3d6000fd5b506020600460003e604060205260243d03602460403e601c3d016000f35b6060611803611148565b905061180f87826118fc565b600060606118278c8c8c8c8c8c898d8d63ffffffff16565b509150915061183a81848663ffffffff16565b8051601f1982018390526343adbafb7fffffffffffffffffffffffffffffffffffffffffffffffffffffffffffffffc08301526020027fffffffffffffffffffffffffffffffffffffffffffffffffffffffffffffffdc82016044820181fd5b600082820261062f841580610eff575083858381610efc57fe5b60006118c38215156004611295565b826118d05750600061054a565b670de0b6b3a7640000838102906118ea90858381610f8457fe5b8281816118f357fe5b0491505061054a565b60005b6119076115c6565b811015610e3a5761193e83828151811061191d57fe5b602002602001015183838151811061193157fe5b602002602001015161227c565b83828151811061194a57fe5b60209081029190910101526001016118ff565b6106db82826122a8565b6000606080611974611420565b60606000611980611bb4565b915091506000611990838c611c32565b905060606119a48c8585600954868f6120d8565b90506119b38c82610e55612189565b600060606119c38e878d8d612364565b915091506119d28e82886123bf565b60095590975095509350505050985098509895505050505050565b60005b6119f86115c6565b811015610e3a57611a2f838281518110611a0e57fe5b6020026020010151838381518110611a2257fe5b6020026020010151610f4e565b838281518110611a3b57fe5b60209081029190910101526001016119f0565b600061054a611a5c836123ce565b61202f565b600080611a76611a6f6106df565b8490610ee2565b905061062f8382610e55565b600061062f838361227c565b6000611a98611420565b611ac183611aa986602001516123f5565b84611ab788604001516123f5565b8860600151612419565b949350505050565b600061062f83836118b4565b6000611adf611420565b611ac183611af086602001516123f5565b84611afe88604001516123f5565b8860600151612496565b600061062f8383610f4e565b600061054a611b33611b246106df565b670de0b6b3a764000090610e55565b8390610f4e565b6000611b446108cb565b6001600160a01b031663aaabadc56040518163ffffffff1660e01b815260040160206040518083038186803b158015611b7c57600080fd5b505afa158015611b90573d6000803e3d6000fd5b505050506040513d601f19601f8201168201806040525081019061059d91906140dc565b60606000611bc0611d65565b915060009050600082600081518110611bd557fe5b602002602001015190506000600190505b8351811015611c2c5781848281518110611bfc57fe5b60200260200101511115611c2457809250838181518110611c1957fe5b602002602001015191505b600101611be6565b50509091565b670de0b6b3a764000060005b8351811015611c9457611c8a611c83858381518110611c5957fe5b6020026020010151858481518110611c6d57fe5b602002602001015161250c90919063ffffffff16565b839061227c565b9150600101611c3e565b5061054a60008211610137611295565b6000611cae611383565b8260405160200161086492919061446a565b60006060611ccc611420565b6000611cd78461255b565b9050611cf26000826002811115611cea57fe5b1460ce611295565b6060611cfd85612571565b9050611d11611d0a6115c6565b82516115cc565b611d1b81876118fc565b6060611d25611bb4565b5090506000611d348284611c32565b90506000611d44826107476115c6565b600992909255509a91995090975050505050505050565b6106db8282612587565b606080611d706108cb565b6001600160a01b031663f94d4668611d86610662565b6040518263ffffffff1660e01b8152600401611da2919061450f565b60006040518083038186803b158015611dba57600080fd5b505afa158015611dce573d6000803e3d6000fd5b505050506040513d6000823e601f3d908101601f19168201604052611df69190810190613e9b565b505080519091508067ffffffffffffffff81118015611e1457600080fd5b50604051908082528060200260200182016040528015611e3e578160200160208202803683370190505b5092506000611e4b612615565b905060005b82811015611ebf576000600c6000868481518110611e6a57fe5b60200260200101516001600160a01b03166001600160a01b03168152602001908152602001600020549050611e9f818461261a565b868381518110611eab57fe5b602090810291909101015250600101611e50565b5050505090565b600281511015611ed557610561565b600081600081518110611ee457fe5b602002602001015190506000600190505b8251811015610e3a576000838281518110611f0c57fe5b60200260200101519050611f35816001600160a01b0316846001600160a01b0316106065611295565b9150600101611ef5565b600073ba1ba1ba1ba1ba1ba1ba1ba1ba1ba1ba1ba1ba1b611f5e6108a7565b6001600160a01b031614158015611f795750611f79836126bf565b15611fa157611f866108a7565b6001600160a01b0316336001600160a01b031614905061054a565b611fa9611b3a565b6001600160a01b0316639be2a8848484306040518463ffffffff1660e01b8152600401611fd893929190614518565b60206040518083038186803b158015611ff057600080fd5b505afa158015612004573d6000803e3d6000fd5b505050506040513d601f19601f820116820180604052508101906120289190613f83565b905061054a565b60008061203d836060612723565b600a0a670de0b6b3a7640000029392505050565b7f08c379a0000000000000000000000000000000000000000000000000000000006000908152602060045260076024526642414c23000030600a808404818106603090810160081b95839006959095019082900491820690940160101b939093010160c81b604452606490fd5b60006120cd8484111583611295565b5050900390565b4690565b6060806120e36115c6565b67ffffffffffffffff811180156120f957600080fd5b50604051908082528060200260200182016040528015612123578160200160208202803683370190505b5090508261213257905061217f565b61216588878151811061214157fe5b602002602001015188888151811061215557fe5b602002602001015187878761272a565b81878151811061217157fe5b602090810291909101015290505b9695505050505050565b60005b6121946115c6565b8110156121ee576121cf8482815181106121aa57fe5b60200260200101518483815181106121be57fe5b60200260200101518463ffffffff16565b8482815181106121db57fe5b602090810291909101015260010161218c565b50505050565b6000606060006122038461255b565b9050600081600281111561221357fe5b141561222e576122248787866127a2565b925092505061225a565b600181600281111561223c57fe5b141561224c576122248785612885565b612224878787876128b7565b505b94509492505050565b60006122728484610e55612189565b611ac18285611c32565b6000828202612296841580610eff575083858381610efc57fe5b670de0b6b3a764000090049392505050565b6122bf6001600160a01b038316151561019b611295565b6122cb82600083610e3a565b6001600160a01b0382166000908152602081905260409020546122f190826101a16120be565b6001600160a01b0383166000908152602081905260409020556002546123179082612926565b6002556040516000906001600160a01b038416907fddf252ad1be2c89b69c2b068fc378daa952ba7f163c4a11628f55a4df523b3ef9061235890859061450f565b60405180910390a35050565b6000606060006123738461255b565b9050600181600281111561238357fe5b14156123955761222487878787612934565b60028160028111156123a357fe5b14156123b457612224878786612991565b612258610136612051565b60006122728484610ed0612189565b6001600160a01b0381166000908152600c602052604090205461076c811515610135611295565b600080612400612615565b9050600061240d846123ce565b9050611ac1818361261a565b600061243b61243087670429d069189e000061227c565b831115610130611295565b60006124478784610ed0565b905060006124558883610f4e565b9050600061246388876118b4565b905060006124718383612a3e565b905061248661247f82612a6a565b899061227c565b9450505050505b95945050505050565b60006124b86124ad85670429d069189e000061227c565b831115610131611295565b60006124ce6124c78685610e55565b8690610f4e565b905060006124dc8588610f4e565b905060006124ea8383612a3e565b9050600061250082670de0b6b3a7640000610e55565b90506124868a82610ee2565b6000806125198484612a90565b9050600061253361252c83612710610ee2565b6001610ed0565b9050808210156125485760009250505061054a565b6125528282610e55565b9250505061054a565b60008180602001905181019061054a9190614146565b60608180602001905181019061062f919061420c565b61259360008383610e3a565b6002546125a09082610ed0565b6002556001600160a01b0382166000908152602081905260409020546125c69082610ed0565b6001600160a01b0383166000818152602081905260408082209390935591519091907fddf252ad1be2c89b69c2b068fc378daa952ba7f163c4a11628f55a4df523b3ef9061235890859061450f565b600090565b60008061262f61262a85836115b8565b612bc3565b90506000612646612641866040612be3565b612bed565b905083158061265457508082145b156126615750905061054a565b670de0b6b3a7640000841061267957915061054a9050565b808211156126a557600061268f8583850361227c565b905061269b8382610e55565b935050505061054a565b60006126b38584840361227c565b905061269b8382610ed0565b60006126ea7f38e9922e0000000000000000000000000000000000000000000000000000000061082f565b82148061054a575061271b7f50dd6ed90000000000000000000000000000000000000000000000000000000061082f565b909114919050565b1c601f1690565b600083831161273b5750600061248d565b60006127478585610f4e565b9050600061275d670de0b6b3a7640000886118b4565b9050612771826709b6e64a8ec60000612c0b565b9150600061277f8383612a3e565b9050600061279661278f83612a6a565b8b9061227c565b9050612486818761227c565b600060606127ae611420565b6000806127ba85612c22565b915091506127d26127c96115c6565b82106064611295565b60606127dc6115c6565b67ffffffffffffffff811180156127f257600080fd5b5060405190808252806020026020018201604052801561281c578160200160208202803683370190505b50905061286088838151811061282e57fe5b602002602001015188848151811061284257fe5b602002602001015185612853610564565b61285b6106df565b612c44565b81838151811061286c57fe5b6020908102919091010152919791965090945050505050565b60006060600061289484612d04565b905060606128aa86836128a5610564565b612d1a565b9196919550909350505050565b600060606128c3611420565b606060006128d085612dcc565b915091506128e182516107016115c6565b6128eb82876118fc565b60006129088989856128fb610564565b6129036106df565b612de4565b90506129188282111560cf611295565b989197509095505050505050565b600061062f838360016120be565b6000606080600061294485612dcc565b9150915061295a6129536115c6565b83516115cc565b61296482876118fc565b6000612981898985612974610564565b61297c6106df565b613012565b90506129188282101560d0611295565b600060606000806129a185612c22565b915091506129b06127c96115c6565b60606129ba6115c6565b67ffffffffffffffff811180156129d057600080fd5b506040519080825280602002602001820160405280156129fa578160200160208202803683370190505b509050612860888381518110612a0c57fe5b6020026020010151888481518110612a2057fe5b602002602001015185612a31610564565b612a396106df565b613224565b600080612a4b8484612a90565b90506000612a5e61252c83612710610ee2565b905061248d8282610ed0565b6000670de0b6b3a76400008210612a8257600061054a565b50670de0b6b3a76400000390565b600081612aa65750670de0b6b3a764000061054a565b82612ab35750600061054a565b612ae07f800000000000000000000000000000000000000000000000000000000000000084106006611295565b82612b06770bce5086492111aea88f4bb1ca6bcf584181ea8059f7653284106007611295565b826000670c7d713b49da000083138015612b275750670f43fc2c04ee000083125b15612b5e576000612b37846132cf565b9050670de0b6b3a764000080820784020583670de0b6b3a764000083050201915050612b6c565b81612b6884613406565b0290505b670de0b6b3a76400009005612bba7ffffffffffffffffffffffffffffffffffffffffffffffffdc702bd3a30fc00008212801590612bb3575068070c1cc73b00c800008213155b6008611295565b61217f816137a6565b600061054a67ffffffffffffffff610e8984670de0b6b3a7640000610ee2565b1c63ffffffff1690565b600061054a63ffffffff610e8984670de0b6b3a7640000610ee28416565b600081831015612c1b578161062f565b5090919050565b60008082806020019051810190612c3991906141d6565b909590945092505050565b600080612c5584610e898188610e55565b9050612c6e6709b6e64a8ec60000821015610132611295565b6000612c8c612c85670de0b6b3a7640000896118b4565b8390612a3e565b90506000612ca3612c9c83612a6a565b8a9061227c565b90506000612cb089612a6a565b90506000612cbe8383610ee2565b90506000612ccc8483610e55565b9050612cf4612ced612ce6670de0b6b3a76400008b610e55565b849061227c565b8290610ed0565b9c9b505050505050505050505050565b60008180602001905181019061062f91906141a9565b60606000612d2884846118b4565b90506060855167ffffffffffffffff81118015612d4457600080fd5b50604051908082528060200260200182016040528015612d6e578160200160208202803683370190505b50905060005b8651811015612dc257612da383888381518110612d8d57fe5b602002602001015161227c90919063ffffffff16565b828281518110612daf57fe5b6020908102919091010152600101612d74565b5095945050505050565b6060600082806020019051810190612c399190614162565b60006060845167ffffffffffffffff81118015612e0057600080fd5b50604051908082528060200260200182016040528015612e2a578160200160208202803683370190505b5090506000805b8851811015612eef57612e8a898281518110612e4957fe5b6020026020010151610e89898481518110612e6057fe5b60200260200101518c8581518110612e7457fe5b6020026020010151610e5590919063ffffffff16565b838281518110612e9657fe5b602002602001018181525050612ee5612ede898381518110612eb457fe5b6020026020010151858481518110612ec857fe5b6020026020010151610ee290919063ffffffff16565b8390610ed0565b9150600101612e31565b50670de0b6b3a764000060005b8951811015612ff1576000848281518110612f1357fe5b6020026020010151841115612f73576000612f3c612f3086612a6a565b8d8581518110612d8d57fe5b90506000612f50828c8681518110612e7457fe5b9050612f6a612ede611b33670de0b6b3a76400008c610e55565b92505050612f8a565b888281518110612f7f57fe5b602002602001015190505b6000612fb38c8481518110612f9b57fe5b602002602001015161074c848f8781518110612e7457fe5b9050612fe5612fde8c8581518110612fc757fe5b60200260200101518361250c90919063ffffffff16565b859061227c565b93505050600101612efc565b50613005612ffe82612a6a565b8790610ee2565b9998505050505050505050565b60006060845167ffffffffffffffff8111801561302e57600080fd5b50604051908082528060200260200182016040528015613058578160200160208202803683370190505b5090506000805b8851811015613100576130b889828151811061307757fe5b602002602001015161074c89848151811061308e57fe5b60200260200101518c85815181106130a257fe5b6020026020010151610ed090919063ffffffff16565b8382815181106130c457fe5b6020026020010181815250506130f6612ede8983815181106130e257fe5b6020026020010151858481518110612d8d57fe5b915060010161305f565b50670de0b6b3a764000060005b89518110156131e15760008385838151811061312557fe5b6020026020010151111561318157600061314a612f3086670de0b6b3a7640000610e55565b9050600061315e828c8681518110612e7457fe5b9050613178612ede611c83670de0b6b3a76400008c610e55565b92505050613198565b88828151811061318d57fe5b602002602001015190505b60006131c18c84815181106131a957fe5b602002602001015161074c848f87815181106130a257fe5b90506131d5612fde8c8581518110612fc757fe5b9350505060010161310d565b50670de0b6b3a76400008111156132185761320e61320782670de0b6b3a7640000610e55565b879061227c565b935050505061248d565b6000935050505061248d565b60008061323584610e898188610ed0565b905061324e6729a2241af62c0000821115610133611295565b6000613265612c85670de0b6b3a764000089610f4e565b9050600061328561327e83670de0b6b3a7640000610e55565b8a90610ee2565b9050600061329289612a6a565b905060006132a08383610ee2565b905060006132ae8483610e55565b9050612cf4612ced6132c8670de0b6b3a76400008b610e55565b8490610f4e565b670de0b6b3a7640000026000806ec097ce7bc90715b34b9f1000000000808401907fffffffffffffffffffffffffffffffffff3f68318436f8ea4cb460f0000000008501028161331b57fe5b05905060006ec097ce7bc90715b34b9f100000000082800205905081806ec097ce7bc90715b34b9f100000000081840205915060038205016ec097ce7bc90715b34b9f100000000082840205915060058205016ec097ce7bc90715b34b9f100000000082840205915060078205016ec097ce7bc90715b34b9f100000000082840205915060098205016ec097ce7bc90715b34b9f1000000000828402059150600b8205016ec097ce7bc90715b34b9f1000000000828402059150600d8205016ec097ce7bc90715b34b9f1000000000828402059150600f826002919005919091010295945050505050565b6000670de0b6b3a764000082121561344357613439826ec097ce7bc90715b34b9f10000000008161343357fe5b05613406565b600003905061076c565b60007e1600ef3172e58d2e933ec884fde10064c63b5372d805e203c0000000000000831261349457770195e54c5dd42177f53a27172fa9ec630262827000000000830592506806f05b59d3b2000000015b73011798004d755d3c8bc8e03204cf44619e00000083126134cc576b1425982cf597cd205cef7380830592506803782dace9d9000000015b606492830292026e01855144814a7ff805980ff00840008312613514576e01855144814a7ff805980ff008400068056bc75e2d63100000840205925068ad78ebc5ac62000000015b6b02df0ab5a80a22c61ab5a700831261354f576b02df0ab5a80a22c61ab5a70068056bc75e2d6310000084020592506856bc75e2d631000000015b693f1fce3da636ea5cf850831261358657693f1fce3da636ea5cf85068056bc75e2d631000008402059250682b5e3af16b18800000015b690127fa27722cc06cc5e283126135bd57690127fa27722cc06cc5e268056bc75e2d6310000084020592506815af1d78b58c400000015b68280e60114edb805d0383126135f25768280e60114edb805d0368056bc75e2d631000008402059250680ad78ebc5ac6200000015b680ebc5fb41746121110831261361d57680ebc5fb4174612111068056bc75e2d631000009384020592015b6808f00f760a4b2db55d8312613652576808f00f760a4b2db55d68056bc75e2d6310000084020592506802b5e3af16b1880000015b6806f5f17757889379378312613687576806f5f177578893793768056bc75e2d63100000840205925068015af1d78b58c40000015b6806248f33704b28660383126136bb576806248f33704b28660368056bc75e2d63100000840205925067ad78ebc5ac620000015b6805c548670b9510e7ac83126136ef576805c548670b9510e7ac68056bc75e2d6310000084020592506756bc75e2d6310000015b600068056bc75e2d63100000840168056bc75e2d63100000808603028161371257fe5b059050600068056bc75e2d63100000828002059050818068056bc75e2d63100000818402059150600382050168056bc75e2d63100000828402059150600582050168056bc75e2d63100000828402059150600782050168056bc75e2d63100000828402059150600982050168056bc75e2d63100000828402059150600b820501600202606485820105979650505050505050565b60006137eb7ffffffffffffffffffffffffffffffffffffffffffffffffdc702bd3a30fc000083121580156137e4575068070c1cc73b00c800008313155b6009611295565b600082121561381f57613800826000036137a6565b6ec097ce7bc90715b34b9f10000000008161381757fe5b05905061076c565b60006806f05b59d3b2000000831261387557507ffffffffffffffffffffffffffffffffffffffffffffffff90fa4a62c4e00000090910190770195e54c5dd42177f53a27172fa9ec6302628270000000006138c1565b6803782dace9d900000083126138bd57507ffffffffffffffffffffffffffffffffffffffffffffffffc87d2531627000000909101906b1425982cf597cd205cef73806138c1565b5060015b6064929092029168056bc75e2d6310000068ad78ebc5ac620000008412613927577fffffffffffffffffffffffffffffffffffffffffffffff5287143a539e0000009093019268056bc75e2d631000006e01855144814a7ff805980ff008400082020590505b6856bc75e2d6310000008412613979577fffffffffffffffffffffffffffffffffffffffffffffffa9438a1d29cf0000009093019268056bc75e2d631000006b02df0ab5a80a22c61ab5a70082020590505b682b5e3af16b1880000084126139c9577fffffffffffffffffffffffffffffffffffffffffffffffd4a1c50e94e78000009093019268056bc75e2d63100000693f1fce3da636ea5cf85082020590505b6815af1d78b58c4000008412613a19577fffffffffffffffffffffffffffffffffffffffffffffffea50e2874a73c000009093019268056bc75e2d63100000690127fa27722cc06cc5e282020590505b680ad78ebc5ac62000008412613a68577ffffffffffffffffffffffffffffffffffffffffffffffff5287143a539e000009093019268056bc75e2d6310000068280e60114edb805d0382020590505b68056bc75e2d631000008412613ab7577ffffffffffffffffffffffffffffffffffffffffffffffffa9438a1d29cf000009093019268056bc75e2d63100000680ebc5fb4174612111082020590505b6802b5e3af16b18800008412613b06577ffffffffffffffffffffffffffffffffffffffffffffffffd4a1c50e94e7800009093019268056bc75e2d631000006808f00f760a4b2db55d82020590505b68015af1d78b58c400008412613b55577ffffffffffffffffffffffffffffffffffffffffffffffffea50e2874a73c00009093019268056bc75e2d631000006806f5f177578893793782020590505b68056bc75e2d631000008481019085906002908280020505918201919050600368056bc75e2d631000008783020505918201919050600468056bc75e2d631000008783020505918201919050600568056bc75e2d631000008783020505918201919050600668056bc75e2d631000008783020505918201919050600768056bc75e2d631000008783020505918201919050600868056bc75e2d631000008783020505918201919050600968056bc75e2d631000008783020505918201919050600a68056bc75e2d631000008783020505918201919050600b68056bc75e2d631000008783020505918201919050600c68056bc75e2d631000008783020505918201919050606468056bc75e2d63100000848402058502059695505050505050565b803561054a81614666565b600082601f830112613c91578081fd5b8151613ca4613c9f82614646565b61461f565b818152915060208083019084810181840286018201871015613cc557600080fd5b60005b84811015613ce457815184529282019290820190600101613cc8565b505050505092915050565b600082601f830112613cff578081fd5b813567ffffffffffffffff811115613d15578182fd5b613d286020601f19601f8401160161461f565b9150808252836020828501011115613d3f57600080fd5b8060208401602084013760009082016020015292915050565b80356002811061054a57600080fd5b600060208284031215613d78578081fd5b813561062f81614666565b60008060408385031215613d95578081fd5b8235613da081614666565b91506020830135613db081614666565b809150509250929050565b600080600060608486031215613dcf578081fd5b8335613dda81614666565b92506020840135613dea81614666565b929592945050506040919091013590565b600080600080600080600060e0888a031215613e15578283fd5b8735613e2081614666565b96506020880135613e3081614666565b95506040880135945060608801359350608088013560ff81168114613e53578384fd5b9699959850939692959460a0840135945060c09093013592915050565b60008060408385031215613e82578182fd5b8235613e8d81614666565b946020939093013593505050565b600080600060608486031215613eaf578081fd5b835167ffffffffffffffff80821115613ec6578283fd5b818601915086601f830112613ed9578283fd5b8151613ee7613c9f82614646565b80828252602080830192508086018b828387028901011115613f07578788fd5b8796505b84871015613f32578051613f1e81614666565b845260019690960195928101928101613f0b565b508901519097509350505080821115613f49578283fd5b50613f5686828701613c81565b925050604084015190509250925092565b600060208284031215613f78578081fd5b813561062f8161467b565b600060208284031215613f94578081fd5b815161062f8161467b565b600080600080600080600060e0888a031215613fb9578081fd5b87359650602080890135613fcc81614666565b96506040890135613fdc81614666565b9550606089013567ffffffffffffffff80821115613ff8578384fd5b818b0191508b601f83011261400b578384fd5b8135614019613c9f82614646565b8082825285820191508585018f878886028801011115614037578788fd5b8795505b8386101561405957803583526001959095019491860191860161403b565b509850505060808b0135955060a08b0135945060c08b013592508083111561407f578384fd5b505061408d8a828b01613cef565b91505092959891949750929550565b6000602082840312156140ad578081fd5b81357fffffffff000000000000000000000000000000000000000000000000000000008116811461062f578182fd5b6000602082840312156140ed578081fd5b815161062f81614666565b6000806040838503121561410a578182fd5b823561411581614666565b9150602083013567ffffffffffffffff811115614130578182fd5b61413c85828601613cef565b9150509250929050565b600060208284031215614157578081fd5b815161062f81614689565b600080600060608486031215614176578081fd5b835161418181614689565b602085015190935067ffffffffffffffff81111561419d578182fd5b613f5686828701613c81565b600080604083850312156141bb578182fd5b82516141c681614689565b6020939093015192949293505050565b6000806000606084860312156141ea578081fd5b83516141f581614689565b602085015160409095015190969495509392505050565b6000806040838503121561421e578182fd5b825161422981614689565b602084015190925067ffffffffffffffff811115614245578182fd5b61413c85828601613c81565b600080600060608486031215614265578081fd5b833567ffffffffffffffff8082111561427c578283fd5b8186019150610120808389031215614292578384fd5b61429b8161461f565b90506142a78884613d58565b81526142b68860208501613c76565b60208201526142c88860408501613c76565b6040820152606083013560608201526080830135608082015260a083013560a08201526142f88860c08501613c76565b60c082015261430a8860e08501613c76565b60e08201526101008084013583811115614322578586fd5b61432e8a828701613cef565b9183019190915250976020870135975060409096013595945050505050565b60006020828403121561435e578081fd5b5035919050565b6000806000806080858703121561437a578182fd5b845193506020850151925060408501519150606085015161439a81614666565b939692955090935050565b6000815180845260208085019450808401835b838110156143d4578151875295820195908201906001016143b8565b509495945050505050565b60008151808452815b81811015614404576020818501810151868301820152016143e8565b818111156144155782602083870101525b50601f01601f19169290920160200192915050565b9182527fffffffff0000000000000000000000000000000000000000000000000000000016602082015260240190565b6000828483379101908152919050565b7f190100000000000000000000000000000000000000000000000000000000000081526002810192909252602282015260420190565b6001600160a01b0391909116815260200190565b60006020825261062f60208301846143a5565b6000604082526144da60408301856143a5565b828103602084015261248d81856143a5565b901515815260200190565b92151583526020830191909152604082015260600190565b90815260200190565b9283526001600160a01b03918216602084015216604082015260600190565b9586526001600160a01b0394851660208701529290931660408501526060840152608083019190915260a082015260c00190565b9485526020850193909352604084019190915260608301526001600160a01b0316608082015260a00190565b600083825260406020830152611ac160408301846143df565b9182526001600160a01b0316602082015260400190565b93845260ff9290921660208401526040830152606082015260800190565b60006020825261062f60208301846143df565b600083825260406020830152611ac160408301846143a5565b60ff91909116815260200190565b60405181810167ffffffffffffffff8111828210171561463e57600080fd5b604052919050565b600067ffffffffffffffff82111561465c578081fd5b5060209081020190565b6001600160a01b038116811461056157600080fd5b801515811461056157600080fd5b6003811061056157600080fdfea2646970667358221220a5226358ae0cd726eba650f700323a68be0bf0ab3391e91e7d8f5b9c297b832764736f6c63430007010033",
  "linkReferences": {},
  "deployedLinkReferences": {}
}