{
  "_format": "hh-sol-artifact-1",
  "contractName": "MockStableOracleMath",
  "sourceName": "contracts/test/meta/MockStableOracleMath.sol",
  "abi": [
    {
      "inputs": [
        {
          "internalType": "uint256",
          "name": "amplificationParameter",
          "type": "uint256"
        },
        {
          "internalType": "uint256[]",
          "name": "balances",
          "type": "uint256[]"
        },
        {
          "internalType": "int256",
          "name": "bptTotalSupplyLn",
          "type": "int256"
        }
      ],
      "name": "calcLogBptPrice",
      "outputs": [
        {
          "internalType": "int256",
          "name": "",
          "type": "int256"
        }
      ],
      "stateMutability": "pure",
      "type": "function"
    },
    {
      "inputs": [
        {
          "internalType": "uint256",
          "name": "amplificationParameter",
          "type": "uint256"
        },
        {
          "internalType": "uint256[]",
          "name": "balances",
          "type": "uint256[]"
        }
      ],
      "name": "calcLogSpotPrice",
      "outputs": [
        {
          "internalType": "int256",
          "name": "",
          "type": "int256"
        }
      ],
      "stateMutability": "pure",
      "type": "function"
    },
    {
      "inputs": [
        {
          "internalType": "int256",
          "name": "value",
          "type": "int256"
        }
      ],
      "name": "fromLowResLog",
      "outputs": [
        {
          "internalType": "uint256",
          "name": "",
          "type": "uint256"
        }
      ],
      "stateMutability": "pure",
      "type": "function"
    },
    {
      "inputs": [
        {
          "internalType": "uint256",
          "name": "value",
          "type": "uint256"
        }
      ],
      "name": "toLowResLog",
      "outputs": [
        {
          "internalType": "int256",
          "name": "",
          "type": "int256"
        }
      ],
      "stateMutability": "pure",
      "type": "function"
    }
  ],
  "bytecode": "0x608060405234801561001057600080fd5b50611255806100206000396000f3fe608060405234801561001057600080fd5b506004361061004c5760003560e01c806303441ef21461005157806357aad0131461010d578063abb9d0d51461012a578063cdd3b8a814610147575b600080fd5b6100fb6004803603604081101561006757600080fd5b8135919081019060408101602082013564010000000081111561008957600080fd5b82018360208201111561009b57600080fd5b803590602001918460208302840111640100000000831117156100bd57600080fd5b9190808060200260200160405190810160405280939291908181526020018383602002808284376000920191909152509295506101f3945050505050565b60408051918252519081900360200190f35b6100fb6004803603602081101561012357600080fd5b503561023e565b6100fb6004803603602081101561014057600080fd5b5035610251565b6100fb6004803603606081101561015d57600080fd5b8135919081019060408101602082013564010000000081111561017f57600080fd5b82018360208201111561019157600080fd5b803590602001918460208302840111640100000000831117156101b357600080fd5b919080806020026020016040519081016040528093929190818152602001838360200280828437600092019190915250929550509135925061025c915050565b600080610229848460008151811061020757fe5b60200260200101518560018151811061021c57fe5b60200260200101516102c6565b905061023481610385565b9150505b92915050565b600061024982610385565b90505b919050565b6000610249826103c5565b600080610285858560008151811061027057fe5b60200260200101518660018151811061021c57fe5b90506102bb818560008151811061029857fe5b6020026020010151866001815181106102ad57fe5b6020026020010151866103d8565b9150505b9392505050565b6000806102de856102d78686610403565b600161045d565b90506103e8600286020460006102fe836102f881856105f9565b9061061d565b9050600061031986610313856002028a6105f9565b90610633565b9050600061034261032a8489610633565b6102f861033b8a610313898d6105f9565b859061065f565b9050600061036b610353858b610633565b6102f86103648c6103138a8f6105f9565b869061065f565b90506103778282610671565b9a9950505050505050505050565b600080610391836106c8565b905060008082136103aa57652d79883d200082036103b4565b652d79883d200082015b655af3107a40009005949350505050565b6000610249655af3107a4000830261072c565b6000806103e86103648786610bf4565b905060006103f582610385565b939093039695505050505050565b6040805160028082526060808301845292602083019080368337019050509050828160008151811061043157fe5b602002602001018181525050818160018151811061044b57fe5b60200260200101818152505092915050565b81516000908190815b8181101561049e5761049486828151811061047d57fe5b60200260200101518461065f90919063ffffffff16565b9250600101610466565b50816104af576000925050506102bf565b600082878302825b60ff8110156105e1576000858a6000815181106104d057fe5b60200260200101510290506000600190505b868110156105245761051a61051361050d848e858151811061050057fe5b60200260200101516105f9565b896105f9565b868c610c4e565b91506001016104e2565b5083945061059761056661054d61054461053e878c6105f9565b856105f9565b6103e88d610c4e565b61056061055a8a896105f9565b886105f9565b9061065f565b61059161058461057a6103e88803866105f9565b6103e88e15610c4e565b6105608a600101896105f9565b8b610c4e565b9350848411156105bf576001858503116105ba57839750505050505050506102bf565b6105d8565b6001848603116105d857839750505050505050506102bf565b506001016104b7565b506105ed610142610c76565b50505050509392505050565b60008282026102bf84158061061657508385838161061357fe5b04145b6003610ce3565b600061062d838311156001610ce3565b50900390565b600082820261064d84158061061657508385838161061357fe5b670de0b6b3a764000090049392505050565b60008282016102bf8482101583610ce3565b60006106808215156004610ce3565b8261068d57506000610238565b670de0b6b3a7640000838102906106b0908583816106a757fe5b04146005610ce3565b8260018203816106bc57fe5b04600101915050610238565b60006106d8600083136064610ce3565b670c7d713b49da0000821380156106f65750670f43fc2c04ee000082125b1561071c57670de0b6b3a764000061070d83610cf5565b8161071457fe5b05905061024c565b61072582610e2c565b905061024c565b60006107717ffffffffffffffffffffffffffffffffffffffffffffffffdc702bd3a30fc0000831215801561076a575068070c1cc73b00c800008313155b6009610ce3565b600082121561079d576107868260000361072c565b6ec097ce7bc90715b34b9f10000000008161071457fe5b60006806f05b59d3b200000083126107f357507ffffffffffffffffffffffffffffffffffffffffffffffff90fa4a62c4e00000090910190770195e54c5dd42177f53a27172fa9ec63026282700000000061083f565b6803782dace9d9000000831261083b57507ffffffffffffffffffffffffffffffffffffffffffffffffc87d2531627000000909101906b1425982cf597cd205cef738061083f565b5060015b6064929092029168056bc75e2d6310000068ad78ebc5ac6200000084126108a5577fffffffffffffffffffffffffffffffffffffffffffffff5287143a539e0000009093019268056bc75e2d631000006e01855144814a7ff805980ff008400082020590505b6856bc75e2d63100000084126108f7577fffffffffffffffffffffffffffffffffffffffffffffffa9438a1d29cf0000009093019268056bc75e2d631000006b02df0ab5a80a22c61ab5a70082020590505b682b5e3af16b188000008412610947577fffffffffffffffffffffffffffffffffffffffffffffffd4a1c50e94e78000009093019268056bc75e2d63100000693f1fce3da636ea5cf85082020590505b6815af1d78b58c4000008412610997577fffffffffffffffffffffffffffffffffffffffffffffffea50e2874a73c000009093019268056bc75e2d63100000690127fa27722cc06cc5e282020590505b680ad78ebc5ac620000084126109e6577ffffffffffffffffffffffffffffffffffffffffffffffff5287143a539e000009093019268056bc75e2d6310000068280e60114edb805d0382020590505b68056bc75e2d631000008412610a35577ffffffffffffffffffffffffffffffffffffffffffffffffa9438a1d29cf000009093019268056bc75e2d63100000680ebc5fb4174612111082020590505b6802b5e3af16b18800008412610a84577ffffffffffffffffffffffffffffffffffffffffffffffffd4a1c50e94e7800009093019268056bc75e2d631000006808f00f760a4b2db55d82020590505b68015af1d78b58c400008412610ad3577ffffffffffffffffffffffffffffffffffffffffffffffffea50e2874a73c00009093019268056bc75e2d631000006806f5f177578893793782020590505b68056bc75e2d631000008481019085906002908280020505918201919050600368056bc75e2d631000008783020505918201919050600468056bc75e2d631000008783020505918201919050600568056bc75e2d631000008783020505918201919050600668056bc75e2d631000008783020505918201919050600768056bc75e2d631000008783020505918201919050600868056bc75e2d631000008783020505918201919050600968056bc75e2d631000008783020505918201919050600a68056bc75e2d631000008783020505918201919050600b68056bc75e2d631000008783020505918201919050600c68056bc75e2d631000008783020505918201919050606468056bc75e2d63100000848402058502059695505050505050565b6000828202610c0e84158061061657508385838161061357fe5b80610c1d576000915050610238565b670de0b6b3a76400007fffffffffffffffffffffffffffffffffffffffffffffffffffffffffffffffff82016106bc565b600081610c6457610c5f84846111cc565b610c6e565b610c6e84846111ec565b949350505050565b7f08c379a0000000000000000000000000000000000000000000000000000000006000908152602060045260076024526642414c23000030600a808404818106603090810160081b95839006959095019082900491820690940160101b939093010160c81b604452606490fd5b81610cf157610cf181610c76565b5050565b670de0b6b3a7640000026000806ec097ce7bc90715b34b9f1000000000808401907fffffffffffffffffffffffffffffffffff3f68318436f8ea4cb460f00000000085010281610d4157fe5b05905060006ec097ce7bc90715b34b9f100000000082800205905081806ec097ce7bc90715b34b9f100000000081840205915060038205016ec097ce7bc90715b34b9f100000000082840205915060058205016ec097ce7bc90715b34b9f100000000082840205915060078205016ec097ce7bc90715b34b9f100000000082840205915060098205016ec097ce7bc90715b34b9f1000000000828402059150600b8205016ec097ce7bc90715b34b9f1000000000828402059150600d8205016ec097ce7bc90715b34b9f1000000000828402059150600f826002919005919091010295945050505050565b6000670de0b6b3a7640000821215610e6957610e5f826ec097ce7bc90715b34b9f100000000081610e5957fe5b05610e2c565b600003905061024c565b60007e1600ef3172e58d2e933ec884fde10064c63b5372d805e203c00000000000008312610eba57770195e54c5dd42177f53a27172fa9ec630262827000000000830592506806f05b59d3b2000000015b73011798004d755d3c8bc8e03204cf44619e0000008312610ef2576b1425982cf597cd205cef7380830592506803782dace9d9000000015b606492830292026e01855144814a7ff805980ff00840008312610f3a576e01855144814a7ff805980ff008400068056bc75e2d63100000840205925068ad78ebc5ac62000000015b6b02df0ab5a80a22c61ab5a7008312610f75576b02df0ab5a80a22c61ab5a70068056bc75e2d6310000084020592506856bc75e2d631000000015b693f1fce3da636ea5cf8508312610fac57693f1fce3da636ea5cf85068056bc75e2d631000008402059250682b5e3af16b18800000015b690127fa27722cc06cc5e28312610fe357690127fa27722cc06cc5e268056bc75e2d6310000084020592506815af1d78b58c400000015b68280e60114edb805d0383126110185768280e60114edb805d0368056bc75e2d631000008402059250680ad78ebc5ac6200000015b680ebc5fb41746121110831261104357680ebc5fb4174612111068056bc75e2d631000009384020592015b6808f00f760a4b2db55d8312611078576808f00f760a4b2db55d68056bc75e2d6310000084020592506802b5e3af16b1880000015b6806f5f177578893793783126110ad576806f5f177578893793768056bc75e2d63100000840205925068015af1d78b58c40000015b6806248f33704b28660383126110e1576806248f33704b28660368056bc75e2d63100000840205925067ad78ebc5ac620000015b6805c548670b9510e7ac8312611115576805c548670b9510e7ac68056bc75e2d6310000084020592506756bc75e2d6310000015b600068056bc75e2d63100000840168056bc75e2d63100000808603028161113857fe5b059050600068056bc75e2d63100000828002059050818068056bc75e2d63100000818402059150600382050168056bc75e2d63100000828402059150600582050168056bc75e2d63100000828402059150600782050168056bc75e2d63100000828402059150600982050168056bc75e2d63100000828402059150600b820501600202606485820105979650505050505050565b60006111db8215156004610ce3565b8183816111e457fe5b049392505050565b60006111fb8215156004610ce3565b8261120857506000610238565b81600184038161121457fe5b04600101905061023856fea2646970667358221220521b4072d8f38a74d1ed7274d6bcf84b0d5b804cc6544efc37b03f266428a54064736f6c63430007010033",
  "linkReferences": {},
  "deployedLinkReferences": {}
}