{
  "_format": "hh-sol-artifact-1",
  "contractName": "TimeBasedMasterChefRewarder",
  "sourceName": "contracts/rewarder/TimeBasedMasterChefRewarder.sol",
  "abi": [
    {
      "inputs": [
        {
          "internalType": "contract IERC20",
          "name": "_rewardToken",
          "type": "address"
        },
        {
          "internalType": "uint256",
          "name": "_rewardPerSecond",
          "type": "uint256"
        },
        {
          "internalType": "address",
          "name": "_MASTERCHEF",
          "type": "address"
        }
      ],
      "stateMutability": "nonpayable",
      "type": "constructor"
    },
    {
      "anonymous": false,
      "inputs": [],
      "name": "LogInit",
      "type": "event"
    },
    {
      "anonymous": false,
      "inputs": [
        {
          "indexed": true,
          "internalType": "address",
          "name": "user",
          "type": "address"
        },
        {
          "indexed": true,
          "internalType": "uint256",
          "name": "pid",
          "type": "uint256"
        },
        {
          "indexed": false,
          "internalType": "uint256",
          "name": "amount",
          "type": "uint256"
        },
        {
          "indexed": true,
          "internalType": "address",
          "name": "to",
          "type": "address"
        }
      ],
      "name": "LogOnReward",
      "type": "event"
    },
    {
      "anonymous": false,
      "inputs": [
        {
          "indexed": true,
          "internalType": "uint256",
          "name": "pid",
          "type": "uint256"
        },
        {
          "indexed": false,
          "internalType": "uint256",
          "name": "allocPoint",
          "type": "uint256"
        }
      ],
      "name": "LogPoolAddition",
      "type": "event"
    },
    {
      "anonymous": false,
      "inputs": [
        {
          "indexed": false,
          "internalType": "uint256",
          "name": "rewardPerSecond",
          "type": "uint256"
        }
      ],
      "name": "LogRewardPerSecond",
      "type": "event"
    },
    {
      "anonymous": false,
      "inputs": [
        {
          "indexed": true,
          "internalType": "uint256",
          "name": "pid",
          "type": "uint256"
        },
        {
          "indexed": false,
          "internalType": "uint256",
          "name": "allocPoint",
          "type": "uint256"
        }
      ],
      "name": "LogSetPool",
      "type": "event"
    },
    {
      "anonymous": false,
      "inputs": [
        {
          "indexed": true,
          "internalType": "uint256",
          "name": "pid",
          "type": "uint256"
        },
        {
          "indexed": false,
          "internalType": "uint256",
          "name": "lastRewardTime",
          "type": "uint256"
        },
        {
          "indexed": false,
          "internalType": "uint256",
          "name": "lpSupply",
          "type": "uint256"
        },
        {
          "indexed": false,
          "internalType": "uint256",
          "name": "accRewardTokenPerShare",
          "type": "uint256"
        }
      ],
      "name": "LogUpdatePool",
      "type": "event"
    },
    {
      "anonymous": false,
      "inputs": [
        {
          "indexed": true,
          "internalType": "address",
          "name": "previousOwner",
          "type": "address"
        },
        {
          "indexed": true,
          "internalType": "address",
          "name": "newOwner",
          "type": "address"
        }
      ],
      "name": "OwnershipTransferred",
      "type": "event"
    },
    {
      "inputs": [],
      "name": "MASTERCHEF",
      "outputs": [
        {
          "internalType": "address",
          "name": "",
          "type": "address"
        }
      ],
      "stateMutability": "view",
      "type": "function"
    },
    {
      "inputs": [
        {
          "internalType": "uint256",
          "name": "pid",
          "type": "uint256"
        },
        {
          "internalType": "uint256",
          "name": "allocPoint",
          "type": "uint256"
        }
      ],
      "name": "add",
      "outputs": [],
      "stateMutability": "nonpayable",
      "type": "function"
    },
    {
      "inputs": [
        {
          "internalType": "uint256[]",
          "name": "pids",
          "type": "uint256[]"
        }
      ],
      "name": "massUpdatePools",
      "outputs": [],
      "stateMutability": "nonpayable",
      "type": "function"
    },
    {
      "inputs": [
        {
          "internalType": "uint256",
          "name": "",
          "type": "uint256"
        }
      ],
      "name": "masterchefPoolIds",
      "outputs": [
        {
          "internalType": "uint256",
          "name": "",
          "type": "uint256"
        }
      ],
      "stateMutability": "view",
      "type": "function"
    },
    {
      "inputs": [
        {
          "internalType": "uint256",
          "name": "pid",
          "type": "uint256"
        },
        {
          "internalType": "address",
          "name": "userAddress",
          "type": "address"
        },
        {
          "internalType": "address",
          "name": "recipient",
          "type": "address"
        },
        {
          "internalType": "uint256",
          "name": "",
          "type": "uint256"
        },
        {
          "internalType": "uint256",
          "name": "newLpAmount",
          "type": "uint256"
        }
      ],
      "name": "onBeetsReward",
      "outputs": [],
      "stateMutability": "nonpayable",
      "type": "function"
    },
    {
      "inputs": [],
      "name": "owner",
      "outputs": [
        {
          "internalType": "address",
          "name": "",
          "type": "address"
        }
      ],
      "stateMutability": "view",
      "type": "function"
    },
    {
      "inputs": [
        {
          "internalType": "uint256",
          "name": "_pid",
          "type": "uint256"
        },
        {
          "internalType": "address",
          "name": "_user",
          "type": "address"
        }
      ],
      "name": "pendingToken",
      "outputs": [
        {
          "internalType": "uint256",
          "name": "pending",
          "type": "uint256"
        }
      ],
      "stateMutability": "view",
      "type": "function"
    },
    {
      "inputs": [
        {
          "internalType": "uint256",
          "name": "pid",
          "type": "uint256"
        },
        {
          "internalType": "address",
          "name": "user",
          "type": "address"
        },
        {
          "internalType": "uint256",
          "name": "",
          "type": "uint256"
        }
      ],
      "name": "pendingTokens",
      "outputs": [
        {
          "internalType": "contract IERC20[]",
          "name": "rewardTokens",
          "type": "address[]"
        },
        {
          "internalType": "uint256[]",
          "name": "rewardAmounts",
          "type": "uint256[]"
        }
      ],
      "stateMutability": "view",
      "type": "function"
    },
    {
      "inputs": [
        {
          "internalType": "uint256",
          "name": "",
          "type": "uint256"
        }
      ],
      "name": "poolInfo",
      "outputs": [
        {
          "internalType": "uint256",
          "name": "accRewardTokenPerShare",
          "type": "uint256"
        },
        {
          "internalType": "uint256",
          "name": "lastRewardTime",
          "type": "uint256"
        },
        {
          "internalType": "uint256",
          "name": "allocPoint",
          "type": "uint256"
        }
      ],
      "stateMutability": "view",
      "type": "function"
    },
    {
      "inputs": [],
      "name": "poolLength",
      "outputs": [
        {
          "internalType": "uint256",
          "name": "pools",
          "type": "uint256"
        }
      ],
      "stateMutability": "view",
      "type": "function"
    },
    {
      "inputs": [],
      "name": "renounceOwnership",
      "outputs": [],
      "stateMutability": "nonpayable",
      "type": "function"
    },
    {
      "inputs": [],
      "name": "rewardPerSecond",
      "outputs": [
        {
          "internalType": "uint256",
          "name": "",
          "type": "uint256"
        }
      ],
      "stateMutability": "view",
      "type": "function"
    },
    {
      "inputs": [],
      "name": "rewardToken",
      "outputs": [
        {
          "internalType": "contract IERC20",
          "name": "",
          "type": "address"
        }
      ],
      "stateMutability": "view",
      "type": "function"
    },
    {
      "inputs": [
        {
          "internalType": "uint256",
          "name": "pid",
          "type": "uint256"
        },
        {
          "internalType": "uint256",
          "name": "allocPoint",
          "type": "uint256"
        }
      ],
      "name": "set",
      "outputs": [],
      "stateMutability": "nonpayable",
      "type": "function"
    },
    {
      "inputs": [
        {
          "internalType": "uint256",
          "name": "_rewardPerSecond",
          "type": "uint256"
        }
      ],
      "name": "setRewardPerSecond",
      "outputs": [],
      "stateMutability": "nonpayable",
      "type": "function"
    },
    {
      "inputs": [
        {
          "internalType": "uint256",
          "name": "amount",
          "type": "uint256"
        }
      ],
      "name": "topUpRewards",
      "outputs": [],
      "stateMutability": "nonpayable",
      "type": "function"
    },
    {
      "inputs": [
        {
          "internalType": "address",
          "name": "newOwner",
          "type": "address"
        }
      ],
      "name": "transferOwnership",
      "outputs": [],
      "stateMutability": "nonpayable",
      "type": "function"
    },
    {
      "inputs": [
        {
          "internalType": "uint256",
          "name": "pid",
          "type": "uint256"
        }
      ],
      "name": "updatePool",
      "outputs": [
        {
          "components": [
            {
              "internalType": "uint256",
              "name": "accRewardTokenPerShare",
              "type": "uint256"
            },
            {
              "internalType": "uint256",
              "name": "lastRewardTime",
              "type": "uint256"
            },
            {
              "internalType": "uint256",
              "name": "allocPoint",
              "type": "uint256"
            }
          ],
          "internalType": "struct TimeBasedMasterChefRewarder.PoolInfo",
          "name": "pool",
          "type": "tuple"
        }
      ],
      "stateMutability": "nonpayable",
      "type": "function"
    },
    {
      "inputs": [
        {
          "internalType": "uint256",
          "name": "",
          "type": "uint256"
        },
        {
          "internalType": "address",
          "name": "",
          "type": "address"
        }
      ],
      "name": "userInfo",
      "outputs": [
        {
          "internalType": "uint256",
          "name": "amount",
          "type": "uint256"
        },
        {
          "internalType": "uint256",
          "name": "rewardDebt",
          "type": "uint256"
        }
      ],
      "stateMutability": "view",
      "type": "function"
    }
  ],
  "bytecode": "0x60c06040523480156200001157600080fd5b5060405162001a0d38038062001a0d8339810160408190526200003491620000b5565b6200003f3362000065565b6001600160601b0319606093841b811660805260059290925590911b1660a05262000116565b600080546001600160a01b038381166001600160a01b0319831681178455604051919092169283917f8be0079c531659141344cd1fd0a4f28419497f9722a3daafe3b4186f6b6457e09190a35050565b600080600060608486031215620000cb57600080fd5b8351620000d881620000fd565b602085015160408601519194509250620000f281620000fd565b809150509250925092565b6001600160a01b03811681146200011357600080fd5b50565b60805160601c60a05160601c61187762000196600039600081816102f8015281816104f8015281816105890152818161088c015281816109250152610cba015260008181610332015281816106d60152818161077401528181610db401528181610e5201528181610f0f01528181610f9b0152610fef01526118776000f3fe608060405234801561001057600080fd5b50600436106101215760003560e01c8063771602f7116100ad578063bc58d79511610071578063bc58d795146102bf578063d63b3c49146102d2578063e3692c36146102f3578063f2fde38b1461031a578063f7c618c11461032d57600080fd5b8063771602f7146102245780638da5cb5b146102375780638f10369a1461025c578063929bffc21461026557806393f1a40b1461027857600080fd5b806348e43af4116100f457806348e43af4146101ae57806351eb05a6146101c157806357a5b58c146101f657806366da581514610209578063715018a61461021c57600080fd5b8063081e3eda146101265780631526fe271461013d5780631ab06ee5146101865780631c6717631461019b575b600080fd5b6002545b6040519081526020015b60405180910390f35b61016b61014b366004611533565b600160208190526000918252604090912080549181015460029091015483565b60408051938452602084019290925290820152606001610134565b61019961019436600461161f565b610354565b005b61012a6101a9366004611533565b61045d565b61012a6101bc366004611565565b61047e565b6101d46101cf366004611533565b610804565b6040805182518152602080840151908201529181015190820152606001610134565b61019961020436600461147f565b610a95565b610199610217366004611533565b610ad9565b610199610b3e565b61019961023236600461161f565b610b74565b6000546001600160a01b03165b6040516001600160a01b039091168152602001610134565b61012a60055481565b610199610273366004611595565b610caf565b6102aa610286366004611565565b60036020908152600092835260408084209091529082529020805460019091015482565b60408051928352602083019190915201610134565b6101996102cd366004611533565b610f8e565b6102e56102e03660046115e7565b610fc6565b60405161013492919061165d565b6102447f000000000000000000000000000000000000000000000000000000000000000081565b610199610328366004611462565b611092565b6102447f000000000000000000000000000000000000000000000000000000000000000081565b6000546001600160a01b031633146103875760405162461bcd60e51b815260040161037e90611714565b60405180910390fd5b600082815260016020819052604090912001546103dc5760405162461bcd60e51b8152602060048201526013602482015272141bdbdb08191bd95cc81b9bdd08195e1a5cdd606a1b604482015260640161037e565b60008281526001602052604090206002015460045482916103fc916117a2565b6104069190611749565b600455600082815260016020526040908190206002018290555182907f942cc7e17a17c164bd977f32ab8c54265d5b9d481e4e352bf874f1e568874e7c906104519084815260200190565b60405180910390a25050565b6002818154811061046d57600080fd5b600091825260209091200154905081565b60008281526001602081815260408084208151606081018352815481529381015492840183905260020154908301526104ba57600091506107fd565b60008481526003602090815260408083206001600160a01b0387811685529252808320845191516306ed78b760e21b815260048101899052909391927f00000000000000000000000000000000000000000000000000000000000000001690631bb5e2dc9060240160206040518083038186803b15801561053a57600080fd5b505afa15801561054e573d6000803e3d6000fd5b505050506040513d601f19601f820116820180604052508101906105729190611516565b6040516370a0823160e01b81526001600160a01b037f00000000000000000000000000000000000000000000000000000000000000008116600483015291909116906370a082319060240160206040518083038186803b1580156105d557600080fd5b505afa1580156105e9573d6000803e3d6000fd5b505050506040513d601f19601f8201168201806040525081019061060d919061154c565b905083602001514211801561062157508015155b1561069157600084602001514261063891906117a2565b905060006004548660400151600554846106529190611783565b61065c9190611783565b6106669190611761565b90508261067864e8d4a5100083611783565b6106829190611761565b61068c9085611749565b935050505b6001830154835464e8d4a51000906106aa908590611783565b6106b49190611761565b6106be91906117a2565b6040516370a0823160e01b81523060048201529095507f00000000000000000000000000000000000000000000000000000000000000006001600160a01b0316906370a082319060240160206040518083038186803b15801561072057600080fd5b505afa158015610734573d6000803e3d6000fd5b505050506040513d601f19601f82011682018060405250810190610758919061154c565b8511156107f9576040516370a0823160e01b81523060048201527f00000000000000000000000000000000000000000000000000000000000000006001600160a01b0316906370a082319060240160206040518083038186803b1580156107be57600080fd5b505afa1580156107d2573d6000803e3d6000fd5b505050506040513d601f19601f820116820180604052508101906107f6919061154c565b94505b5050505b5092915050565b61082860405180606001604052806000815260200160008152602001600081525090565b50600081815260016020818152604092839020835160608101855281548152928101549183018290526002015492820192909252901580159061086e5750806020015142115b15610a90576040516306ed78b760e21b8152600481018390526000907f00000000000000000000000000000000000000000000000000000000000000006001600160a01b031690631bb5e2dc9060240160206040518083038186803b1580156108d657600080fd5b505afa1580156108ea573d6000803e3d6000fd5b505050506040513d601f19601f8201168201806040525081019061090e9190611516565b6040516370a0823160e01b81526001600160a01b037f00000000000000000000000000000000000000000000000000000000000000008116600483015291909116906370a082319060240160206040518083038186803b15801561097157600080fd5b505afa158015610985573d6000803e3d6000fd5b505050506040513d601f19601f820116820180604052508101906109a9919061154c565b90508015610a1e5760008260200151426109c391906117a2565b905060006004548460400151600554846109dd9190611783565b6109e79190611783565b6109f19190611761565b905082610a0364e8d4a5100083611783565b610a0d9190611761565b8451610a199190611749565b845250505b426020838101918252600085815260018083526040918290208651808255945191810182905582870151600290910155815190815291820184905281019190915283907fcb7325664a4a3b7c7223eefc492a97ca4fdf94d46884621e5a8fae5a04b2b9d29060600160405180910390a2505b919050565b8060005b81811015610ad357610ac2848483818110610ab657610ab6611816565b90506020020135610804565b50610acc816117e5565b9050610a99565b50505050565b6000546001600160a01b03163314610b035760405162461bcd60e51b815260040161037e90611714565b60058190556040518181527fde89cb17ac7f58f94792b3e91e086ed85403819c24ceea882491f960ccb1a2789060200160405180910390a150565b6000546001600160a01b03163314610b685760405162461bcd60e51b815260040161037e90611714565b610b726000611126565b565b6000546001600160a01b03163314610b9e5760405162461bcd60e51b815260040161037e90611714565b6000828152600160208190526040909120015415610bf45760405162461bcd60e51b8152602060048201526013602482015272506f6f6c20616c72656164792065786973747360681b604482015260640161037e565b6004544290610c04908390611749565b60045560408051606081018252600080825260208083018581528385018781528884526001928390528584209451855590518483015551600293840155825490810183559190527f405787fa12a823e0f2b7631cc41b3ba8828b3321ca811111fa75cd3aa3bb5ace018490555183907f38410508059921573ab9ebdca2a5034be738d236366b8f32de4434ea95ed3c8190610ca29085815260200190565b60405180910390a2505050565b336001600160a01b037f00000000000000000000000000000000000000000000000000000000000000001614610d375760405162461bcd60e51b815260206004820152602760248201527f4f6e6c79204d6173746572436865662063616e2063616c6c20746869732066756044820152663731ba34b7b71760c91b606482015260840161037e565b6000610d4286610804565b60008781526003602090815260408083206001600160a01b038a168452909152812080549293509115610ed75760018201548351835464e8d4a5100091610d8891611783565b610d929190611761565b610d9c91906117a2565b6040516370a0823160e01b81523060048201529091507f00000000000000000000000000000000000000000000000000000000000000006001600160a01b0316906370a082319060240160206040518083038186803b158015610dfe57600080fd5b505afa158015610e12573d6000803e3d6000fd5b505050506040513d601f19601f82011682018060405250810190610e36919061154c565b811115610ed7576040516370a0823160e01b81523060048201527f00000000000000000000000000000000000000000000000000000000000000006001600160a01b0316906370a082319060240160206040518083038186803b158015610e9c57600080fd5b505afa158015610eb0573d6000803e3d6000fd5b505050506040513d601f19601f82011682018060405250810190610ed4919061154c565b90505b838255825164e8d4a5100090610eed9086611783565b610ef79190611761565b60018301558015610f3657610f366001600160a01b037f0000000000000000000000000000000000000000000000000000000000000000168783611176565b856001600160a01b031688886001600160a01b03167f2ece88ca2bc08dd018db50e1d25a20bf1241e5fab1c396caa51f01a54bd2f75b84604051610f7c91815260200190565b60405180910390a45050505050505050565b610fc36001600160a01b037f0000000000000000000000000000000000000000000000000000000000000000163330846111de565b50565b6040805160018082528183019092526060918291600091602080830190803683370190505090507f00000000000000000000000000000000000000000000000000000000000000008160008151811061102157611021611816565b6001600160a01b039290921660209283029190910190910152604080516001808252818301909252600091816020016020820280368337019050509050611068878761047e565b8160008151811061107b5761107b611816565b602090810291909101015290969095509350505050565b6000546001600160a01b031633146110bc5760405162461bcd60e51b815260040161037e90611714565b6001600160a01b0381166111215760405162461bcd60e51b815260206004820152602660248201527f4f776e61626c653a206e6577206f776e657220697320746865207a65726f206160448201526564647265737360d01b606482015260840161037e565b610fc3815b600080546001600160a01b038381166001600160a01b0319831681178455604051919092169283917f8be0079c531659141344cd1fd0a4f28419497f9722a3daafe3b4186f6b6457e09190a35050565b6040516001600160a01b0383166024820152604481018290526111d990849063a9059cbb60e01b906064015b60408051601f198184030181529190526020810180516001600160e01b03166001600160e01b031990931692909217909152611216565b505050565b6040516001600160a01b0380851660248301528316604482015260648101829052610ad39085906323b872dd60e01b906084016111a2565b600061126b826040518060400160405280602081526020017f5361666545524332303a206c6f772d6c6576656c2063616c6c206661696c6564815250856001600160a01b03166112e89092919063ffffffff16565b8051909150156111d9578080602001905181019061128991906114f4565b6111d95760405162461bcd60e51b815260206004820152602a60248201527f5361666545524332303a204552433230206f7065726174696f6e20646964206e6044820152691bdd081cdd58d8d9595960b21b606482015260840161037e565b60606112f78484600085611301565b90505b9392505050565b6060824710156113625760405162461bcd60e51b815260206004820152602660248201527f416464726573733a20696e73756666696369656e742062616c616e636520666f6044820152651c8818d85b1b60d21b606482015260840161037e565b843b6113b05760405162461bcd60e51b815260206004820152601d60248201527f416464726573733a2063616c6c20746f206e6f6e2d636f6e7472616374000000604482015260640161037e565b600080866001600160a01b031685876040516113cc9190611641565b60006040518083038185875af1925050503d8060008114611409576040519150601f19603f3d011682016040523d82523d6000602084013e61140e565b606091505b509150915061141e828286611429565b979650505050505050565b606083156114385750816112fa565b8251156114485782518084602001fd5b8160405162461bcd60e51b815260040161037e91906116e1565b60006020828403121561147457600080fd5b81356112fa8161182c565b6000806020838503121561149257600080fd5b823567ffffffffffffffff808211156114aa57600080fd5b818501915085601f8301126114be57600080fd5b8135818111156114cd57600080fd5b8660208260051b85010111156114e257600080fd5b60209290920196919550909350505050565b60006020828403121561150657600080fd5b815180151581146112fa57600080fd5b60006020828403121561152857600080fd5b81516112fa8161182c565b60006020828403121561154557600080fd5b5035919050565b60006020828403121561155e57600080fd5b5051919050565b6000806040838503121561157857600080fd5b82359150602083013561158a8161182c565b809150509250929050565b600080600080600060a086880312156115ad57600080fd5b8535945060208601356115bf8161182c565b935060408601356115cf8161182c565b94979396509394606081013594506080013592915050565b6000806000606084860312156115fc57600080fd5b83359250602084013561160e8161182c565b929592945050506040919091013590565b6000806040838503121561163257600080fd5b50508035926020909101359150565b600082516116538184602087016117b9565b9190910192915050565b604080825283519082018190526000906020906060840190828701845b8281101561169f5781516001600160a01b03168452928401929084019060010161167a565b5050508381038285015284518082528583019183019060005b818110156116d4578351835292840192918401916001016116b8565b5090979650505050505050565b60208152600082518060208401526117008160408501602087016117b9565b601f01601f19169190910160400192915050565b6020808252818101527f4f776e61626c653a2063616c6c6572206973206e6f7420746865206f776e6572604082015260600190565b6000821982111561175c5761175c611800565b500190565b60008261177e57634e487b7160e01b600052601260045260246000fd5b500490565b600081600019048311821515161561179d5761179d611800565b500290565b6000828210156117b4576117b4611800565b500390565b60005b838110156117d45781810151838201526020016117bc565b83811115610ad35750506000910152565b60006000198214156117f9576117f9611800565b5060010190565b634e487b7160e01b600052601160045260246000fd5b634e487b7160e01b600052603260045260246000fd5b6001600160a01b0381168114610fc357600080fdfea2646970667358221220afbd911ba09bfcc6eb2d10ef679f537a532c41845fbc065ff108452b2ab0d8b164736f6c63430008070033",
  "linkReferences": {},
  "deployedLinkReferences": {}
}